:020000040800F2
:1000000038090020910100086B1E0008111D00082E
:10001000691E000865050008B921000800000000FD
:100020000000000000000000000000006F1E00083B
:1000300067050008000000006D1E0008711E000822
:10004000AB010008AB010008AB010008AB010008E0
:10005000AB010008AB010008AB010008AB010008D0
:10006000AB010008AB010008AB010008AB010008C0
:10007000AB010008AB010008AB010008AB010008B0
:10008000AB010008AB010008AB010008AB010008A0
:10009000AB010008AB010008AB010008AB01000890
:1000A000AB010008AB010008AB010008AB01000880
:1000B000F11E0008AB010008AB010008AB0100080D
:1000C000AB010008AB010008AB010008AB01000860
:1000D000AB010008AD210008AB010008AB0100082E
:1000E000AB010008AB010008AB01000800F002F80A
:1000F00000F03FF80AA090E8000C82448344AAF183
:100100000107DA4501D100F034F8AFF2090EBAE880
:100110000F0013F0010F18BFFB1A43F0010318473B
:10012000D0210000F0210000103A24BF78C878C127
:10013000FAD8520724BF30C830C144BF04680C60ED
:10014000704700000023002400250026103A28BF35
:1001500078C1FBD8520728BF30C148BF0B60704739
:10016000642900F07580002070471FB51FBD10B5D1
:1001700010BD00F05BF91146FFF7F7FF02F064F8DD
:1001800000F079F903B4FFF7F2FF03BC02F025F8A1
:100190000948804709480047FEE7FEE7FEE7FEE71B
:1001A000FEE7FEE7FEE7FEE7FEE7FEE70448054957
:1001B000054A064B70470000ED1E0008ED000008E0
:1001C00038030020380900203805002038050020B9
:1001D0000FB4044910B503AA029800F0F9F810BC56
:1001E0005DF814FB000000202DE9F0410E460446A6
:1001F000002020622046E168884730B3252805D0DA
:10020000D4E901219047206A401CF2E7E1682046CA
:1002100000278847050018D0A5F14100192802D809
:1002200020354FF400673246294620462760FFF705
:1002300097FF40B1012804D0F61D26F007060836C6
:10024000D8E7361DD6E72846DAE7206ABDE8F08110
:100250002DE9F0410646002410687529314616A59F
:1002600010D0AFF30080002802DA404213A507E067
:1002700031688A0701D512A502E0490704D511A506
:10028000012401E0AFF3008000210A2206F12407D7
:1002900009E0B0FBF2FCB0FBF2F302FB1C003030D3
:1002A00078541846491C0028F3D123462A46304684
:1002B000BDE8F04100F032B8000000002D00000061
:1002C0002B000000200000004FF0000200B5134694
:1002D00094469646203922BFA0E80C50A0E80C5066
:1002E000B1F12001BFF4F7AF090728BFA0E80C5017
:1002F00048BF0CC05DF804EB890028BF40F8042B10
:1003000008BF704748BF20F8022B11F0804F18BF7C
:1003100000F8012B70477047704770472DE9F04790
:100320000D4699469246044600F124080168880665
:1003300004D5E06921F01001216000E00120A8420D
:1003400001DD471B00E00027A1697A1902EB0900D3
:10035000081AA0612078C00602D42046AFF30080BE
:10036000002608E0D4E901211AF806009047206A27
:10037000401C761C20624E45F4DB2078C0060AD56E
:100380002046AFF3008006E0D4E9012130209047F9
:10039000206A401C2062381EA7F10107F4DC07E048
:1003A000D4E9012118F805009047206A401C20621A
:1003B000281EA5F10105F3DC2046AFF3008020786C
:1003C000000602D50220BDE8F0870120FBE700000F
:1003D000074B70B50D467B4400F011F804462846E3
:1003E00000F020F810B14FF0FF3070BD204670BD16
:1003F000571E000001694A1C02610878704700B569
:100400008FB0CDE901310021059105497944CDE94D
:10041000031011466846FFF7E7FE0FB000BD00006D
:10042000E5FFFFFF007B00F080007047754600F09D
:100430002BF8AE4605006946534620F00700854676
:1004400018B020B5FFF7B2FEBDE820404FF000061F
:100450004FF000074FF000084FF0000B21F00701AC
:10046000AC46ACE8C009ACE8C009ACE8C009ACE8EF
:10047000C0098D46704710B50446AFF30080204692
:10048000BDE81040FFF77EBE00487047D80200204C
:1004900070B5044600688168C943C90717D18168EF
:1004A00021F00101816000F093FC05460AE000BFE5
:1004B00000F08EFC401B022804D920688068C043ED
:1004C000C00706D020688068C043C007F0D0002075
:1004D00070BDA06A40F01000A062E06A40F0010028
:1004E000E062012070BD0000F8B5002604460096C9
:1004F00000688168C943C9072DD0816841F00101B6
:100500008160164816490068B0FBF1F000E0401E1B
:1005100000900028FBD100F05BFC054616E000BF10
:1005200000F056FC401B022810D920688068C043A8
:10053000C0070BD0A06A40F01000A062E06A40F053
:100540000100E06284F824600120F8BD2068806822
:10055000C043C007E4D10020F8BD00001000002017
:1005600040420F00FEE770470020401C0A28FCDBD9
:10057000704772B6FEE700003EB56946009007205E
:100580000290012001900A4800F080F8084800F02D
:1005900059FA1E21064800F0B7F9054800F0F4F8B2
:1005A000800503D5024800F0F1F884B220463EBD34
:1005B00018000020F8B500250446009590F82400A6
:1005C00001280BD0012084F824002046FFF760FFAB
:1005D0002046FFF789FF060002D050E00220F8BD58
:1005E000A06A20F4885040F00200A062022000F0CF
:1005F0008DFC25490968B1FBF0F0400000E0401E89
:1006000000900028FBD12068816841F008018160DA
:1006100000F0DEFB074608E000F0DAFBC01B0A280A
:1006200003D920688068000715D420688068000717
:10063000F2D42068816841F00401816000F0C8FBB9
:10064000074612E000F0C4FBC01B0A280DD9206841
:100650008068400709D5A06A20F0020040F0100031
:10066000A06284F824500120F8BD2068806840070B
:10067000E8D4A06A20F0020040F00100A06284F8F3
:1006800024503046F8BD000010000020F8B50024CA
:10069000009490F824202546012A12D0012280F8E7
:1006A00024204A681F23072A0DD20668776B521E42
:1006B00002EB820293409F430B6893401F43776392
:1006C00019E00220F8BD06680D2A0AD2376BD21F46
:1006D00002EB820293409F430B6893401F433763B2
:1006E00009E0F76A0D3A02EB820293409F430B68E0
:1006F00093401F43F7620A68072306680A2A0AD351
:10070000F7680A3A02EB420293409F438B6893409A
:100710001F43F76008E0376902EB420293409F43B2
:100720008B6893401F4337610A68102A01D0112A51
:1007300020D1124B02689A4217D193681B0219D438
:10074000936843F4000393600968102912D10C499F
:100750000C4A0968B1FBF2F101EB8101490000E0AC
:10076000491E00910029FBD104E0816A41F020017B
:100770008162012480F824502046F8BD0024014005
:100780001000002040420F00806A70470068C06C73
:10079000704700002DE9F0414FF0000704003D468E
:1007A0007ED0A06A002628B9E66284F8246020463C
:1007B00000F07EF82046FFF76BFEA16AC90600D460
:1007C00020B1A06A40F01000A06269E0A16A21F4A3
:1007D000885141F00201A1626268E169237B0A430A
:1007E00047EA43010A43A1684FF48077B94209D030
:1007F000012907D05FF0000194F814C0BCF1010F8B
:1008000002D00AE03946F7E7F3B1A36A43F02003C8
:10081000A362E36A43F00103E3622368D3F804C0F0
:100820002CF4694C4CEA010CC3F804C021688B68B5
:10083000DFF870C003EA0C0313438B60A168B94270
:100840000BD0012909D00CE0DFF85CC0A3690CEBE8
:1008500043330B4343F40061DFE7218A0D05A5F51F
:1008600080152168CB6A23F470032B43CB62216887
:1008700089680E4B1940914208D1E662A16A21F0C5
:10088000020141F00101A162BDE8F081A06A20F0FF
:10089000020040F01000A062E06A40F00100E06257
:1008A0000120F1E7FDF7E1FF00E0FFFFFE0E1FFF73
:1008B00000B585B00021009101910291039100687B
:1008C0000E49884218D10E48816941F40071816156
:1008D000816901F400710491816941F00401816131
:1008E0008069694600F00400049002200090032013
:1008F0000190044800F076F905B000BD00240140E5
:1009000000100240000801402DE9F84300270D4681
:100910000446009700F05CFA804620688168C905AB
:1009200008D5A06A40F02000A06284F8247001205D
:10093000BDE8F8834168C90503D4C06A10F4700F9C
:100940002AD0022000F0E2FA3B490968B1FBF0F638
:100950002068036939490B424FEA61014FEAA1124D
:100960001FD1C3684FEA611C13EA0C0F19D1036948
:100970000B4225D1C068104222D1142023E0681C0C
:100980000AD02DB100F024FAA0EB0800A84203D948
:1009900020680068800725D5206800688007EED5AC
:1009A0002DE003690B4202D1C168114206D00269F1
:1009B00023490A4206D1C068084203D1542002E00C
:1009C000292000E0FC204643009816E0681C11D066
:1009D0002DB100F0FDF9A0EB0800A8420AD900985B
:1009E000B04207D2A06A40F00400A06284F82470EC
:1009F00003209DE70098401C0090B042E6D3216898
:100A00006FF012000860A06A40F40070A0622068D5
:100A10008068C0F3424007280CD1207B50B9A06AFF
:100A200020F48070A062A06AC00403D4A06A40F0E1
:100A30000100A06200207BE71000002024499224DE
:100A40004992240070B5044690F8240001280DD086
:100A5000012084F824002046FFF746FD02004FF0F5
:100A6000000005D084F82400104670BD022070BD3F
:100A7000A16A40F20123994341F48071A1621F4DA4
:100A800023681F49AB4218D10E6816F4702F14D09A
:100A9000A66A46F48016A6620E68760505D5A66A93
:100AA00026F4005646F48056A662A66AF6040AD5D5
:100AB000E66A26F00606E66206E0A66A26F48016D6
:100AC000A6625E68E9E7E06284F824006FF0020045
:100AD000186020688368C3F34243072B05D1A842FE
:100AE00008D1096811F4702F04D0816841F4801195
:100AF0008160B9E7816841F4A001F9E7002801406D
:100B00000424014010B590F821100022022905D0DC
:100B10000421816380F82020012010BD01680B684A
:100B200023F00E030B6001680B6823F001030B60D8
:100B300090F84030C46B012101FA03F3636080F840
:100B4000211080F82020104610BD000010B590F84C
:100B500021100024022903D00421816301243DE0F7
:100B600001680A6822F00E020A6001680A6822F031
:100B700001020A601A4A0168914201D1012121E073
:100B8000174A1432914201D110211BE0144A283235
:100B9000914201D1891515E0114A3C32914201D1AF
:100BA00089140FE00E4A5032914202D14FF4803145
:100BB00008E00B4A6432914202D14FF4801101E007
:100BC0004FF08071064A083A5160012180F82110E7
:100BD000002180F82010416B01B18847204610BDEC
:100BE000080002402DE9F84FDFF8B8910024A9F180
:100BF000040B23460F2709F1040AABF1040EC9E0E8
:100C00000125A5402A40AA427DD1674ED1F804C0F3
:100C1000ACEB0608B44532D014DCBCF1030F3AD07B
:100C200009DCBCF1000F2AD0BCF1010F1CD0BCF1D3
:100C3000020F31D11DE0BCF1110F17D0BCF1120F22
:100C40002AD119E0B8F5881F19D006DCB8F5803F25
:100C500015D0B8F5801F1FD111E0B8F5001F0ED0D8
:100C6000B8F5041F18D10AE0CB6815E0CB681B1D4E
:100C700012E0CB6808330FE0CB680C330CE08B68D4
:100C80002BB1012B4FF0080303D0456104E004238E
:100C900002E0056100E00023FF2A01D8064601E0DA
:100CA00000F104064FEA840501D9A5F12005D6F824
:100CB000008007FA05FC28EA0C0803FA05F548EA63
:100CC0000508C6F800804D68ED0062D5374DAE6965
:100CD00046F00106AE61AD6924F0030605F001059A
:100CE0000095334D06EB050CDCF80850A607360FCF
:100CF00007FA06F825EA0805DFF8B880404503D171
:100D00004FF0000817E044E0DFF8AC80404502D126
:100D10004FF001080FE0DFF8A480404502D14FF00A
:100D2000020808E0DFF89880404502D14FF0030840
:100D300001E04FF0040808FA06F848EA0508CCF884
:100D400008804D68D9F80060ED024D4601D5164384
:100D500000E096432E604D68DAF80060AD0255461B
:100D600001D5164300E096432E604D68DBF8006025
:100D7000AD035D4601D5164300E096432E604D68F5
:100D8000DEF80060ED03754601D5164300E096439A
:100D90002E60641C0D682A46E5407FF431AFBDE843
:100DA000F88F0000080401400000111000100240FC
:100DB0000000014000080140000C0140001001400B
:100DC000001401400AB1016170470904FBE700000B
:100DD00001488068704700000400002002488168D4
:100DE000027811448160704704000020074810B564
:100DF000016841F010010160032000F075F80F2038
:100E000000F006F800F024F8002010BD0020024099
:100E100070B50D4D04464FF47A712878B1FBF0F0AF
:100E20000A490968B1FBF0F000F0A4FB48B9102CA6
:100E300007D200222146501E00F036F800206C60D8
:100E400070BD012070BD00000400002010000020D3
:100E50000C4808B5816941F001018161816901F0A7
:100E600001010091C16941F08051C161C06900F088
:100E7000805000900448416821F0E06141F0007129
:100E8000416008BD0010024000000140002809DB5D
:100E900000F01F02012191404009800000F1E02094
:100EA000C0F8001170470000F0B40E4B1B680C46F0
:100EB000C3F30223C3F10705042D00D90425191D2E
:100EC000072901D2002300E0DB1E012606FA05F106
:100ED000491E214099409E40761E16403143F0BC89
:100EE00001F06BB90CED00E0064900F0070208685C
:100EF0004FF6FF03184040EA0220034A10430860FF
:100F0000704700000CED00E00000FA0510B5014646
:100F10000020234C012922D0022939D010291DD1CB
:100F200061682268D20119D51E48C1F38342C90302
:100F3000805C0AD561681B4AC1F34041921E515C36
:100F4000194AB2FBF1F1484301E01849484361688E
:100F5000490203D440000321B0FBF1F010BD226A26
:100F6000C2F30121012903D1920701D5C80310BDA5
:100F7000022905D1626A920702D549F6404010BDA8
:100F80000329FCD121688903F9D54FF2244010BD13
:100F900000F02AF96168C1F38131491C4900DBE79F
:100FA00000100240C822000800127A0000093D002B
:100FB0002DE9F84305460078354CC00754D0E06968
:100FC0000026C00008D4E06940F08050E061E0698C
:100FD000012600F0805000902E480168C90512D407
:100FE0000168804641F480710160FFF7F1FE074619
:100FF00005E000BFFFF7ECFEC01B642823D8D8F83B
:101000000000C005F6D5206A10F4407021D0A988F0
:1010100001F4407181421CD0206A1F49012220F452
:1010200040700A6000220A602062C00711D0FFF7FA
:10103000CFFE074641F2883808E000BFFFF7C8FE40
:10104000C11B414502D90320BDE8F883206A80070F
:10105000F4D5206A696820F44070084320621EB10C
:10106000E06920F08050E0612878800705D560684D
:10107000A96820F44040084360602878C00605D580
:101080006068E96820F48000084360600020DBE7C6
:101090000010024000700040400442422DE9F04739
:1010A0000F46050061D0434E306800F00700B8429B
:1010B00009D2306820F0070038433060306800F013
:1010C0000700B84251D128683B4C810712D5400730
:1010D00003D5606840F4E06060602878000703D5BD
:1010E000606840F4605060606068A96820F0F000BB
:1010F000084360602878C00728D06868012810D0AD
:101100002168022810D0890700292EDA616821F0B1
:10111000030101436160FFF75BFE804641F28839BD
:101120000DE021688903EFE78901EDE7FFF750FE45
:10113000A0EB0801494502D90320BDE8F0876068AB
:10114000696800F00C00B0EB810FEFD1306800F05F
:101150000700B8420BD9306820F0070038433060F0
:10116000306800F00700B84201D00120E5E7287898
:10117000400705D56068E96820F4E06008436060D6
:101180002878000706D56068296920F4605040EA95
:10119000C100606000F038F86168084AC1F30311CB
:1011A000515CC8400649086006480068FFF730FEF9
:1011B0000020C2E70020024000100240D8220008B0
:1011C0001000002008000020044805490068496814
:1011D000044AC1F30221515CC8407047100000204E
:1011E00000100240E82200080448054900684968E8
:1011F000044AC1F3C221515CC8407047100000206E
:1012000000100240E82200080E4A51680E4801F022
:101210000C03042B11D0082B0FD10C48C1F38343CE
:10122000C903C05C0AD55168084AC1F34041921E07
:10123000515C054A5043B0FBF1F070470449484304
:10124000704700000010024000127A00B622000829
:1012500000093D002DE9F84F040070D02078C04D02
:10126000C00749D06868C0F38100012807D06868CA
:10127000C0F38100022809D16868C00306D5286838
:10128000800339D560680028E7D035E06068B0F5A4
:10129000803F0BD010B1B0F5A02F11D0286820F4FA
:1012A00080302860286820F4802002E0286840F41C
:1012B00080302860606890B1FFF78AFD06460AE03A
:1012C000286840F480202860F0E700BFFFF780FD29
:1012D000801B642873D828688003F7D50CE0FFF7DB
:1012E00077FD064605E000BFFFF772FD801B64280E
:1012F000F0D828688003F7D420789A4E80074FF002
:1013000001094FF0000839D5686810F00C0F07D0BC
:101310006868C0F38100022809D16868C00306D458
:101320002868800714D52069012808D110E02069B9
:10133000B0B1C6F80090FFF74BFD074605E00AE1A3
:10134000FFF746FDC01B0228C4D828688007F7D5E0
:101350002868616920F0F80040EAC10028600DE0CB
:10136000C6F80080FFF734FD074604E0FFF730FDC4
:10137000C01B022823D828688007F7D420780007EC
:101380002CD57948A169D9B1C0F80090FFF720FDAC
:10139000074604E0FFF71CFDC01B02280FD8686A4F
:1013A0008007F7D571484FF4FA510068B0FBF1F0AF
:1013B000009000BF0098411E0091FAD20EE080E03C
:1013C000C0F80080FFF704FD074604E0FFF700FDCA
:1013D000C01B022875D8686A8007F7D420784007B8
:1013E00060D5E8690027C00008D4E86940F0805063
:1013F000E861E869012700F0805000905C480168CE
:10140000C90513D40168834641F480710160FFF778
:10141000DFFC824606E000BFFFF7DAFCA0EB0A0023
:1014200064284ED8DBF80000C005F5D5E068012837
:101430000AD008B1052813D0286A20F001002862DC
:10144000286A20F0040002E0286A40F001002862C7
:10145000E06841F2883B98B1FFF7BAFC82460BE0A6
:10146000286A40F004002862EEE700BFFFF7B0FCF6
:10147000A0EB0A0159455AD8286A8007F6D50CE036
:10148000FFF7A6FC824605E0FFF7A2FCA0EB0A01ED
:1014900059454CD8286A8007F6D41FB1E86920F076
:1014A0008050E861E06988B36968C1F3810102296D
:1014B00044D00228C6F8608004D0FFF789FC0446B7
:1014C00038E034E0FFF784FC074604E0FFF780FCD7
:1014D000C01B02282BD828688001F7D4206AB0F5F9
:1014E000803F05D16868A16820F400300843686037
:1014F000D4E908010843696821F47411084368605D
:10150000C6F86090FFF764FC044606E025E000BFE3
:10151000FFF75EFC001B022809D828688001F7D578
:101520001BE000BFFFF754FC001B022802D9032078
:10153000BDE8F88F28688001F4D40EE00128F7D0C8
:101540006868226A00F48031914204D1616A00F433
:101550007010884201D00120EAE70020E8E700008F
:10156000001002400000424280044242100000206D
:101570000070004010B5401EB0F1807F01D3012003
:1015800010BD4FF0E02460610F21601700F015FEE0
:101590000020A06107202061002010BD7047704727
:1015A00070B590F83C20012A26D0012480F83C40F8
:1015B000022280F83D2003685A689D6822F0700678
:1015C0000A6832435A600D4B02689A4208D0B2F161
:1015D000804F05D00A4B9A4202D00A4B9A4204D15E
:1015E000496825F080031943916080F83D4000214F
:1015F00080F83C10084670BD022070BD002C0140F0
:10160000000400400008004010B5040003D094F826
:101610003D0010B107E0012010BD002084F83C001F
:10162000204600F01FF8022084F83D00211D2068AC
:1016300000F064FC012084F8460084F83E0084F841
:101640003F0084F8400084F8410084F8420084F8A8
:10165000430084F8440084F8450084F83D000020ED
:1016600010BD000008B50068B0F1804F12D10A48E3
:10167000C16941F00101C161C069002200F00100AF
:10168000009011461C20FFF70FFCBDE808401C200D
:10169000FFF7FCBB08BD00000010024090F83D10B1
:1016A000012901D001207047022180F83D10016816
:1016B000CA6842F00102CA6000680B49884208D03B
:1016C000B0F1804F05D00949884202D008498842CC
:1016D00004D1816801F00701062903D0016841F0B7
:1016E0000101016000207047002C0140000400400F
:1016F0000008004070B5044690F83C000025012821
:1017000017D0012684F83C60022084F83D00206850
:10171000826822F0770222F47F42826008685028B3
:1017200038D00DDC20284FD005DC90B3102811D123
:101730004AE0022070BD302846D040280AD13BE064
:1017400060282FD070280DD0B0F5805F03D0B0F5A1
:10175000005F12D0012584F83D60002084F83C0031
:10176000284670BDCB68D1E90121206800F0FCFB60
:101770002068816841F0770109E0CB68D1E9012157
:10178000206800F0F1FB2068816841F480418160AD
:10179000E1E719E0CA684968206800F0F7FB5021CA
:1017A000206806E0CA684968206800F000FC6021F3
:1017B000206800F0E3FBCEE7CA684968206800F0C3
:1017C000E5FB40212068F4E7226801461046F0E777
:1017D000704770B50446006801694FF00005C943C1
:1017E000890715D4C168C943890711D4E91E01616D
:1017F00001202077206880698007204602D0FFF70B
:10180000E7FF04E000F098F8204600F096F825770E
:1018100020680169C943490717D4C168C94349070A
:1018200013D46FF0040101610220207720688069E1
:1018300010F4407F204602D0FFF7CAFF04E000F01A
:101840007BF8204600F079F8257720680169C943C4
:10185000090716D4C168C943090712D46FF00801FB
:101860000161042020772068C0698007204602D0EB
:10187000FFF7AEFF04E000F05FF8204600F05DF8EF
:10188000257720680169C943C90617D4C168C943CF
:10189000C90613D46FF01001016108202077206879
:1018A000C06910F4407F204602D0FFF791FF04E0AA
:1018B00000F042F8204600F040F8257720680169E2
:1018C000C943C90708D1C168C943C90704D1891EE2
:1018D0000161204600F032F820680169C943090619
:1018E00009D4C168C943090605D46FF080010161BC
:1018F0002046FFF753FE20680169C943490609D411
:10190000C168C943490605D46FF040010161204612
:1019100000F050F820680169C94389060BD4C168FA
:10192000C943890607D46FF0200101612046BDE854
:101930007040FFF734BE70BD704770472DE9F04727
:10194000194988422ED10027184C01253E46C4F87B
:1019500088513946C4F88C71C4F88C51C4F8887128
:1019600004F5C474FEF700FE25606160A4F5C4743C
:10197000FEF7FAFDDFF83890884600BFC4F888818A
:10198000FEF7F2FD0120FEF7F7FD010949F82610E8
:10199000761CF6B2C4F88851FEF7E6FD7F1CFFB254
:1019A000802FEBD3BDE8F0874800002000002142E3
:1019B000D80000207047704770470000F8B50168F4
:1019C00004460868CA684B6910F00F0F4FF0000515
:1019D00059D003F0010602F49077374365D0C10770
:1019E00005D0D10503D5616C41F001016164410767
:1019F00005D5D90703D0616C41F00201616481070C
:101A000005D5D90703D0616C41F004016164010779
:101A100007D502F02001314303D0616C41F0080189
:101A20006164616C00293AD0800604D5900602D525
:101A3000204600F0FDFA20684069616CC0F3801018
:101A4000090700D460B3204600F0CBFA2068406953
:101A5000400621D52068143050E8001F21F04001D5
:101A600040E80012002AF5D1E06BA8B16D4941634E
:101A7000E06BFFF76BF8002811D0E06B416B01B011
:101A8000BDE8F040084783060FD593060DD52046E4
:101A9000BDE8F84000F0CCBA2046FFF78DFFF8BD56
:101AA0002046FFF789FF6564F8BD266B2023012ED1
:101AB0007CD1C6067AD5D60678D5086848680090E5
:101AC00048694FF00206400640D5E16B086840685F
:101AD0000004000CE8D0A28D8242E5D9E085886937
:101AE00020282DD020680C3050E8001F21F4807190
:101AF00040E80012002AF5D12068143050E8001F99
:101B000021F0010140E80012002AF5D120681430CC
:101B100050E8001F21F0400140E80012002AF5D1F2
:101B200084F84230256320680C3050E8001F21F013
:101B3000100140E80012002AF5D1E06BFEF7E2FF49
:101B40006663A08DE18D401A81B22AE0A08DE18DFF
:101B5000401A81B2E08D0028A6D00029A4D02268C6
:101B60000C3252E8000F20F4907042E80007002F7A
:101B7000F5D12068143050E8002F22F0010240E82F
:101B80000027002FF5D184F84230256320680C30FF
:101B900050E8002F22F0100240E80023002BF5D17E
:101BA00066632046FFF707FFF8BDFFE705062BD564
:101BB000150629D594F841002128F5D1A068B0F583
:101BC000805F01D12069B0B1206A411C2162216887
:101BD00000784860E08C401E0004000CE084E3D1F3
:101BE0002068C16821F08001C1602068C16841F0AF
:101BF0004001C160D8E7206A0088C0F3080048604F
:101C0000206A801C2062E5E74006CDD55006CBD582
:101C1000CA68204622F04002CA6084F8413000F0D1
:101C200076F8C1E7D31F000870B5040004D094F81B
:101C30004100002510B106E0012070BD84F840503D
:101C4000204600F023F8242084F841002068C16871
:101C500021F40051C160204600F04CFA206801696F
:101C600021F4904101612068416921F02A0141611C
:101C70002068C16841F40051C1606564202084F887
:101C8000410084F842006563002070BD30B585B026
:101C90000024009401940294039400681849884237
:101CA0002CD11848816941F480418161816901F436
:101CB00080410491816941F0040181618069124D84
:101CC00000F0040004904FF4007000900220019096
:101CD0000320039069462846FEF784FF2815CDE9C6
:101CE0000004694628460294FEF77CFF0022114654
:101CF0002520FFF7D9F82520FFF7C8F805B030BD3B
:101D00000038014000100240000801407047704751
:101D1000FEE700003EB500241148009401940294AF
:101D20000E498460016004730475012505614FF458
:101D300060214460C161FEF72DFD08B1FEF719FC7A
:101D40000095CDE9015469460548FEF79FFC08B1AE
:101D5000FEF70FFC0248FEF72DFC3EBD00240140BB
:101D60001800002030B585B0002414480094019478
:101D700002940394816941F020018161816901F03D
:101D800020010491816941F00401816180690C4D59
:101D900000F00400049000220C212846FFF712F8FE
:101DA0000C2000900120CDE9010403200390694636
:101DB0002846FEF717FF05B030BD000000100240B6
:101DC0000008014010B586B0002418480094019422
:101DD0000294039404944FF08041059401603121F2
:101DE000C0E9011441F61F41C0E90314802181615B
:101DF000FFF70AFC08B1FEF7BCFB4FF480500090DF
:101E000069460A48FFF776FC08B1FEF7B2FB049476
:101E100004A906480594FFF7C3FB08B1FEF7A9FB28
:101E20000248FFF73BFC06B010BD00004800002050
:101E30000C4810B50A4901604FF416514160002169
:101E400081600C22C160C0E904128161C161FFF7A9
:101E5000EBFE002803D0BDE81040FEF78ABB10BDA2
:101E60000038014090000020FEE7FEE77047704711
:101E7000FEF7B4BF30B593B028216846FEF724FAC8
:101E800014210AA8FEF720FA002501200F951095CD
:101E90001195010412958DE8230004904FF4E01091
:101EA000CDE90810022407946846FFF7D3F908B17A
:101EB00072B6FEE70AA90F2081E831004FF4806076
:101EC000CDE90D0502210AA8FFF7E8F808B172B6BE
:101ED000FEE74FF4004011900F940FA8FFF768F849
:101EE000002801D072B6FEE713B030BD7047000085
:101EF0000148FFF76EBC000048000020F0B5026802
:101F0000164B174C174D4FF08047984205D0B842FA
:101F100003D0A04201D0A84203D122F070064A6843
:101F20003243984205D0B84203D0A04201D0A84223
:101F300003D122F44074CA6822434C6922F0800223
:101F4000224302608A68C2620A688262984201D1B2
:101F50000969016301214161F0BD0000002C0140CD
:101F6000000400400008004010B5846842EA0322E3
:101F700024F47F440A432243826010BD826822F029
:101F800070020A4342F007018160704710B5036A8E
:101F9000046A24F001040462846924F0F00444EA31
:101FA000021423F00A020A438461026210BD10B5D4
:101FB000036A046A24F010040462846923F0A00315
:101FC00024F4704444EA023243EA0111826101625E
:101FD00010BD10B5406A0021C185C184FFF7ECFC3B
:101FE00010BD01680C3151E8002F22F4907241E8D5
:101FF0000023002BF5D10168143151E8002F22F0A5
:10200000010241E80023002BF5D1016B012909D120
:1020100001680C3151E8002F22F0100241E8002342
:10202000002BF5D1202180F8421000210163704778
:1020300008B590F84210222901D0022008BD82681C
:102040004FF480539A4201D1016921B1816A9A42C9
:102050001BD04AB10AE00268816A5268C2F30802E2
:102060000A80816A891C08E0026972B102685268BC
:1020700002F07F020A70816A491C8162C18D491E8B
:102080000904090CC18503D01BE002685268F1E71E
:102090000168CA6822F02002CA600168CA6822F496
:1020A0008072CA6001684A6922F001024A612021F7
:1020B00080F8421000214163026B012A03D0FFF730
:1020C00025FE002008BD016301680C3151E8002F96
:1020D00022F0100241E80023002BF5D101680A68C4
:1020E000D20602D50A6849680091818DFFF763FC2A
:1020F000E7E7000070B5044600680169E26821F472
:102100004051114301612169A06808436169084396
:102110002168CA6841F20C639A430243CA6020688E
:102120004169A26921F44071114341611E4920684F
:10213000884202D1FFF758F801E0FFF745F800EBBD
:10214000C00101EB0012606864218000B2FBF0F373
:10215000B3FBF1F36FF018067343B2FBF0F5B2FB7B
:10216000F0F605EB8305322303EB0515B5FBF1F51E
:10217000B6FBF1F605F0F00505EB0615B2FBF0F63F
:10218000B2FBF0F0B0FBF1F06FF01802504306EB39
:10219000800003EB0010B0FBF1F0216800F00F00AD
:1021A0002844886070BD0000003801400148FFF7F6
:1021B00005BC000090000020FEE70907090E00287A
:1021C00004DB00F1E02080F80014704700F00F00FD
:1021D00000F1E02080F8141D704770474FF0E020B8
:1021E000016921F00401016103480921017042F2F3
:1021F0002831418070470000140000200B494988B5
:1022000048434FF0E021486100228A61086940F0AC
:10221000010008610869C30701D0C003FAD5086945
:1022200020F0010008618A6170470000140000205E
:1022300004490A685206FCD5024AC1B2121D116057
:102240007047000000380140FEF7D0FDFFF712FE96
:10225000FFF7C4FFFFF786FDFFF75CFDFFF7E8FD22
:10226000FFF7B0FD6420FFF7C9FF00240B4D00E02D
:1022700014B90BA0FDF7ACFF55F8241009A0FDF729
:10228000A7FF7F2C06D008A0FDF7A2FF641C802CBE
:10229000E8DAEDE705A0FDF79BFFE3E7D8000020B3
:1022A0005B000000256400002C200000205D0D0A6A
:1022B00000000000010202030405060708090A0BDA
:1022C0000C0D0E0F10100102020304050607080989
:1022D0000A0B0C0D0E0F1010000000000000000093
:1022E00001020304060708090000000001020304BC
:1022F000102300080000002018000000280100083A
:1023000028230008180000202009000044010008CC
:1023100000000000010000001000000000000000AC
:082320000024F400000000009D
:04000005080000ED02
:00000001FF
