:020000040800F2
:10000000E0400020ED010008ED720008BD5E000830
:10001000E9720008110C0008CD8B000800000000F8
:10002000000000000000000000000000C175000892
:10003000050D00080000000001750008ED750008BE
:10004000070200080702000807020008070200086C
:10005000070200080702000807020008070200085C
:10006000070200080702000807020008D50C000874
:10007000E10C0008ED0C0008F90C0008070200086C
:10008000070200080702000807020008070200082C
:1000900007020008150D0008070200080702000803
:1000A0000702000801790008197600080702000815
:1000B00007020008070200080702000807020008FC
:1000C00007020008070200080702000807020008EC
:1000D00007020008098B0008158B000807020008BA
:1000E00007020008070200080702000807020008CC
:1000F00007020008070200080702000807020008BC
:10010000070200080702000821790008070200081A
:100110000702000807020008C97900080702000862
:10012000070200080702000807020008070200088B
:10013000070200080702000807020008070200087B
:10014000070200080702000807020008000000007C
:10015000000000000000000000000000000000009F
:10016000000000000000000000000000070200087E
:10017000070200080702000807020008070200083B
:10018000070200080702000807020008070200082B
:10019000070200080000000007020008210D000807
:1001A000070200080702000807020008070200080B
:1001B00007020008070200080702000807020008FB
:1001C00007020008070200080702000807020008EB
:1001D0000702000807020008DFF80CD000F0A0FAC0
:1001E00000480047C58D0008E040002006488047D1
:1001F00006480047FEE7FEE7FEE7FEE7FEE7FEE70C
:10020000FEE7FEE7FEE7FEE705760008D9010008F5
:100210002DE9F05F0546002092469B46884606463B
:10022000814640241BE0284641464746224600F0CE
:10023000C6F953465A46C01A914110D31146184682
:10024000224600F0ADF92D1A67EB01084F46224611
:100250000120002100F0A4F917EB00094E41201EF7
:10026000A4F10104DFDC484631462A464346BDE896
:10027000F09F40EA01039B0703D009E008C9121F61
:1002800008C0042AFAD203E011F8013B00F8013B50
:10029000521EF9D27047D2B201E000F8012B491E7C
:1002A000FBD270470022F6E710B513460A46044613
:1002B0001946FFF7F0FF204610BD00000FB400B54F
:1002C0008DB010A909900B9000914FF0FF300A906B
:1002D00000200C9005480690054807906A4609A83A
:1002E0000F9900F091F90DB05DF814FB2506000898
:1002F000430600082DE9FF5F1D464FF0FF3BD5E99F
:10030000014691465F464FF00008A9697F1C01989D
:100310008847296A824688470028F6D1BAF1FF3F0C
:100320000CD024F4C064002E19DD600614D5BAF197
:100330002B0F09D0BAF12D0F0ED103E0584604B0AF
:10034000BDE8F09F44F48064A9697F1C0198884748
:10035000761E8246002E02DDBAF1300F03D0B9F1CD
:10036000000F26D032E0A969761E44F400747F1C89
:10037000019888478246002E05DDBAF1780F06D035
:10038000BAF1580F03D0B9F1000F10D01EE0B9F147
:10039000000F02D0B9F1100F18D1A969761E24F40C
:1003A00000747F1C019888478246102002E00820D4
:1003B00000E00A20814609E008FB0908A969761EC9
:1003C00044F400747F1C019888478246002E05DDA6
:1003D0004946504600F003F90028EDDAE969019832
:1003E0008847A00502D46FF00100A8E7E00725D1F7
:1003F000600613D5600502D5C8F1000000E0404654
:1004000029680A1D2A600968220501D5087015E0CF
:10041000220701D5088011E008600FE02868011D5F
:1004200029600068210502D580F8008006E02107D8
:1004300002D5A0F8008001E0C0F8008038467EE7D1
:100440002DE9FE4F81EA030404F0004421F000414D
:1004500000944FF0000B23F0004350EA01045ED0FB
:1004600052EA03045BD0C3F30A54C1F30A552C4487
:10047000A4F2F3340194A0FB0254C1F3130141F43C
:100480008011C3F3130343F4801301FB024400FB08
:10049000034E840A970A44EA815447EA8357A4FB2F
:1004A000076802958D0A05FB07854FEA932C04FB2C
:1004B0000C542705029D4FEA065847EA1637B5EB5C
:1004C00008056EEB070C870E920E47EA811742EA89
:1004D0008312A7FB0201B6EB0B0164EB00042B0DAA
:1004E00043EA0C335E1844EB1C50DA465146E7FBF6
:1004F0000201C5F313044FEA0B3343EA14534FEAE6
:100500000432019C43EA0603A4F10C040294009C0B
:10051000CDE900B400F0B5F803B0BDE8F08F0020DD
:100520000146F9E730B5041E71F1000404DB4FF019
:100530000044404264EB0101141E73F1000405DB2A
:100540001C464FF00043524263EB0403101A8B41E8
:1005500001D2012030BD002030BD0EB540F2334144
:1005600002910021CDE900110A460B4600F089F8FE
:1005700003B000BD30B50B46014600202022012407
:1005800009E021FA02F59D4205D303FA02F5491B61
:1005900004FA02F52844151EA2F10102F1DC30BD77
:1005A000202A04DB203A00FA02F100207047914033
:1005B000C2F1200320FA03F3194390407047202A28
:1005C00004DB203A21FA02F00021704721FA02F3FD
:1005D000D040C2F1200291400843194670473A28A2
:1005E00000D2303820F02002412A01D3A2F1370096
:1005F000884201D34FF0FF30704700000268114479
:100600001378016018467047D1600449516104496C
:10061000116200211161114600F0A0B8FD0500082B
:1006200051070008426842B1016811F8013B23B14B
:10063000521EC0E90012184670470121C160881E91
:10064000704742685AB1C368016843B983688B42F6
:1006500005D0491E521CC0E90012002070474FF01F
:10066000FF30704710B5141E73F1000408DA401C07
:1006700041F1000192185B411A4301D120F00100C1
:1006800010BD2DE9F04D92469B4611B1B1FA81F2B1
:1006900002E0B0FA80F220329046FFF781FF044674
:1006A0000F4640EA0A0041EA0B0153465A46084306
:1006B00013D0114653EA010019D0C8F14002504648
:1006C000FFF77DFF05460E46504659464246FFF766
:1006D00067FF084305D0012004E020463946BDE805
:1006E000F08D0020054346EAE0762C4337430A9814
:1006F0006305E40AA0EB08000022FD0A44EA47541F
:100700000A3002D500200146E9E7010510196941C8
:10071000DDE9084500196941BDE8F04DA2E7000098
:100720001CB509480090094801900546009C06E068
:10073000E06840F0010394E8070098471034AC42A9
:10074000F6D3FFF74DFD000070B5000890B5000826
:10075000C0B24FF4F05100F097B900002DE9F34F0B
:100760008BB04FF0000801F10C000C464FF0010B6C
:1007700046460DF1080A01906269012101989047EF
:10078000051E2DD0252D2CD0216A8847C0B1626965
:10079000012101989047216A88470028F7D1411E1E
:1007A00062690198904700E0761CA1690B98884720
:1007B000216A88470028F7D1E1690B988847DBE771
:1007C000A1690B9888470746A84201D1761CD3E758
:1007D000E1690B9888477F1C02D1B8F1000F6FD0F8
:1007E00046E1002762693D463946019890472A282C
:1007F00004D162690121019890470125DFF88492B4
:100800006269012101989047A0F130010A290AD2BA
:100810004F45E5DC07EB870100EB4107303FDFD4B4
:1008200045F01005ECE7E90601D46FF000476C28AD
:100830000AD04C2814D0682815D06A280DD0742806
:100840001CD07A281AD01DE06269012101989047D6
:100850006C2802D045F0040514E045F002050DE0D7
:1008600045F020050AE06269012101989047682857
:1008700002D045F0080505E045F4006562690121F4
:1008800001989047C4E9015765283DD019DC5828E4
:100890007AD00CDC452837D004DC252826D0412826
:1008A00031D131E046282FD047282CD12CE05B28CD
:1008B00077D0612828D063287CD0642823D15AE0DF
:1008C000D0E06F2848D008DC66281DD067281BD0F0
:1008D000692821D06E2816D127E0702845D07328CA
:1008E00068D0752847D078280DD14DE0A1690B98C4
:1008F0008847054625283FF469AFE1690B9888478A
:100900006D1C3FF46AAFB3E023466A466FF0010006
:100910000B99AFF300809EE045F040006060A807AF
:1009200023464FF0000236D43EE0E8077FF447AF9D
:100930002068011D21600068290501D506701BE7AC
:10094000290701D5068017E7A90703D5F117C0E9E4
:10095000006111E706600FE745F040006060A807FE
:1009600023464FF0080216D41EE040F60E0125EA99
:100970000100606016E045F040006060A807234673
:100980004FF00A0207D40FE045F040006060A8076E
:1009900008D5234610226FF001000B99AFF30080B9
:1009A00059E007E0234610226FF001000B99FFF792
:1009B000A1FC50E04FF000094F464B46632802D09F
:1009C0005B2806D040E0E80601D40120A0600127A2
:1009D0003AE062690121019890475E2805D14FF005
:1009E00001096269494601989047216939B9002196
:1009F0000A46534643F82120491C0829FADBB0B3C4
:100A0000216969B9C11700EBD16253110AEB830167
:100A100022F01F02821A01200B68904003430B60F2
:100A200062690121019890475D28E8D1B9F1000F72
:100A300009D00020514651F82020D24341F820200F
:100A4000401C0828F7DB02AB224600976FF001003C
:100A50000B99AFF3008000280CDA401C08D1BBF1E1
:100A6000000F05D04FF0FF300DB0BDE8F08FFFE76D
:100A70004046F9E7E90701D108F1010806444FF0C3
:100A8000000B79E6CCCCCC0C7F2801D9002208E001
:100A9000064A02EB5002C007127800D1120902F098
:100AA0000F020120904008407047000098B40008F1
:100AB0000146806AC36DC26D13F0500F07D0D20695
:100AC00048BF00F07BBC406D426B0846104742F4C3
:100AD0000071C16501680B68CA681B0703D49107E0
:100AE00007D500F067BC12F4406FFAD1C9688904D9
:100AF000F7D4C16D21F48071C165C16DC90448BFCF
:100B000000F058BCC16D41F00101C16500F052BC5C
:100B1000806AC16D41F04001C165016E41F0040180
:100B2000016600F04BBC0000806A00F045BC00008C
:100B300070B582B004460020019021688A68D2070F
:100B400011D14FF6C076C7F6FF76886806F17F02AE
:100B500010420AD0E06D40F01000E065206E40F0D9
:100B600001002066012002B070BD88684FF4C162A8
:100B7000304040F00100886040F20010C5F20000F3
:100B8000814208BF4FF40272B1F1A04F08BF4FF489
:100B900002721058000220D401F090FB21680A680C
:100BA000D20717D1054603E021680868C00711D1B4
:100BB0008868C00704D18868304040F00100886030
:100BC00001F07CFB401B0328EED320680068C007BF
:100BD000EAD1BFE7002002B070BD40F20400C2F2CB
:100BE0000000006842F663518009C0F23E51A0FB4C
:100BF0000101880900EB40000C2101EB800000BFDF
:100C0000019001980028C7D001980138F8E700004A
:100C1000FEE70000F0B581B00D46064606980021BB
:100C200041F274773161F161C6E90211C6E9001140
:100C30000121C2F2000771703174C6E9050338461C
:100C400000211C463570B27004F0A4F93846042126
:100C500004F0A0F9307830B1012809D149F661706B
:100C6000C0F6000003E049F6F560C0F60000F06150
:100C700044B1B7EE000A2046294601B0BDE8F04075
:100C800005F058BA01B0F0BD10B50129044608BFFF
:100C900084ED020AA069002808BF10BD05F076FAAD
:100CA0006069A8B1A169D4ED020A91ED030A08F0C8
:100CB00009FBA078B0EE401A0028E069B1EE400AC6
:100CC00008BFB0EE410A84ED011ABDE810400047AC
:100CD00010BD000040F63070C2F2000000F04EBEC1
:100CE00040F69070C2F2000000F048BE40F6F0708E
:100CF000C2F2000000F042BE41F25000C2F2000019
:100D000000F03CBE70470000EFF3108072B600BFE9
:100D1000FEE7000041F2B000C2F2000000F09ABF0E
:100D200041F21410C2F2000000F094BF2DE9F04728
:100D3000DDE908EC802400254FF0000904700C70F8
:100D400002EB050ABAF80C70545B3E1B9E420ADCAB
:100D5000E41B9C422BDC09F10109B9F17A0F05F182
:100D60000205EDD128E0A9F1790806350AF10E0651
:100D7000002700BFB84510D036F80CAC36F8024B4F
:100D8000013FAAEB04049C4205F10105F2DD6C0869
:100D90000470C7F106048EF800400478802C0BD153
:100DA00009F17F046408047089F07F0902E04FEACA
:100DB000590404708EF80090F025002002EB4006E4
:100DC000B6F8F240B6F8FE60A71B9F420BDC341B5E
:100DD0009C4200F17F042EDC023D062CA0F10100B4
:100DE000ECD8BDE8F08705F108042A4400F17F0E35
:100DF000002500BF46197F36072E10DB968932F892
:100E00000279013DF61B9E42A4F10104F2DD04EBE0
:100E1000D47040080870C5F106008CF8000008780E
:100E2000802818BFBDE8F0874FEA5E0008708CF894
:100E300000E0BDE8F087FE304008087084F07F00D5
:100E40008EF80000BDE8F0872DE9F04140F2B000D7
:100E5000C2F20000047840F28B00C2F20000067873
:100E600040F28800C2F200000578972C28BF972E28
:100E700004D3962D84BF2D20BDE8F081A54288BF04
:100E8000B54216D92846FFF768FB804620460F4634
:100E9000FFF763FB9FED180B53EC102BFFF7D0FA15
:100EA00042463B46FFF73EFB00281CBFB420BDE88E
:100EB000F081AE4288BFA64204D9132E84BF002021
:100EC000BDE8F081601B282807DB502C05D3A01B50
:100ED0002728C4BF5A20BDE8F0814FF0FF30332DE2
:100EE00038BF87204FF0FF31332E28BF0846332C00
:100EF00028BF0846BDE8F081333333333333FB3F3B
:100F000040F2B101C2F20001087801284FF0000060
:100F100004BF08700120704790F85820012A04BFD0
:100F20000220704770B582B00122002380F858205B
:100F300001930093026840F2080CC5F2000CB2F174
:100F4000A04F0CF1F8050AD040F20043C5F20003AF
:100F50009A4207D10CF59F64002333B133E02C464D
:100F60001BB130E0002401236BBBA36894682343CA
:100F70005B0728D44FF4E063D1F800E0AA4208BF31
:100F80004FF44073B2F1A04F08BF4FF440735CF8C8
:100F90000340BEF1000F24F460441AD04D6890F86D
:100FA000386042F4807245EA46352C4340F2001521
:100FB000C5F20005AA424CF8034019D1DCF8002024
:100FC000DCF800411BE0C16D41F02001C165012149
:100FD00034E042F4807140F20012C5F20002914206
:100FE0004CF8034018D1DCF80010DCF800211AE0BE
:100FF000DCF80044DCF80055DCF800262C432243E2
:10100000D2071AD15CF8032040F61F748968A24306
:10101000114341EA0E010EE0DCF80024DCF8006523
:10102000DCF8001632431143C90706D15CF80310FF
:1010300040F61F7291434CF803100021002280F803
:10104000582002B0BDE8704008467047F0B581B046
:101050000022009290F85820012A01D1022181E15A
:101060000123076880F85830BB685B0734D4D1E9A6
:1010700000361F22C6F3012507EB85052C6B06F011
:101080001F06B240C3F3846324EA0202B3401A434A
:101090002A63BA68BB6802F0040203F00803D2189E
:1010A00040F0AC800A68042607F1140306EAD25C1B
:1010B000C2F340668D6853F82660C2F304540722D9
:1010C000A240B5F1004F26EA02060BD143F80C60AE
:1010D0001A6842F000430DE0C16D41F02001C16586
:1010E00001213CE105FA04F2324343F80C201A686E
:1010F00022F000437B61D1E90436FD68042B50D116
:101100003A6E3A6E0B68C2F3846293FAA3F6B6FAAB
:1011100086F65D0308BFC3F384664FF6FF73B242E1
:10112000C0F2070303D13A6E22F000423A667A6EAB
:101130007A6E0E68C2F3846296FAA6F5B5FA85F562
:101140001E4208BFC6F38465AA4203D17A6E22F01C
:1011500000427A66BA6EBA6E0E68C2F3846296FA7C
:10116000A6F5B5FA85F51E4208BFC6F38465AA4206
:1011700003D1BA6E22F00042BA66FA6EFA6E0E68B9
:10118000C2F3846296FAA6F5B5FA85F51E4208BF49
:10119000C6F38465AA4231D1FA6E22F00042FA66A3
:1011A0002CE0062202EA950206FA02FC0E6807F11C
:1011B000600555F823404FF20002C0F2FF3206F0FE
:1011C000F846224046EA0C06324342F0004245F817
:1011D00023200A698B6955F8226026F08076334314
:1011E00045F822300A690B7F55F82260012B26F062
:1011F000007608BF06F1007645F82260BA68D2078B
:1012000043D10E68CA68D7F8B05033466FF3DF4356
:1012100025EA030C4FF6FF7502F01804C0F207052B
:10122000E54000243540C4F27F0445EA0C05A242A3
:10123000C7F8B05029D196FAA6F2B2FA82F2002B82
:1012400008BFB20E013202F01E0302F01F02012697
:101250000025964002EB4202CFF6206505EB0255D1
:10126000354345F000750A2B38BF46EA0255C5F3F1
:10127000406307EB83038A685E69C5F3045507245E
:10128000AC40A643AA4032435A610D680021C8F21F
:1012900008010D4262D040F2083EC5F2000E0EF584
:1012A0008063AEF502741946A74204BF40F20831CC
:1012B000C5F20001B7F1A04F04BF40F20831C5F2FA
:1012C00000010E680022CCF22132954206F0E07C4B
:1012D00004D01022C9F2C00295422ED132022CD481
:1012E00040F20062C5F20002974202D0B7F1A04F6F
:1012F00034D10A6822F0E07242EA0C0242F40002A1
:101300000A6040F20401C2F20001096842F6635229
:101310008909C0F23E52A1FB0212910901EB410181
:101320000C2202EB810100910099B9B100990139B9
:10133000009100990029F9D110E00022CCF25272FC
:10134000954212D10022B2EB1C6F0ED10A6822F036
:10135000E07242EA0C0242F080720A600021002230
:1013600080F85820084601B0F0BD0021CCF6843149
:101370008D424FF0000108BF16F48002EFD1B7F1A3
:10138000A04F0AD040F20011C5F200018F42E5D013
:10139000391BB1FA81F1490900E00121002918BF88
:1013A0007346196821F0E07141EA0C0141F48001B3
:1013B0001960D3E7704700007047000070470000D5
:1013C00070B582B000210028019142D0C16D39B9B9
:1013D000044600F003F920460021216684F85810E5
:1013E0000268916889004FF6C071C5F6FF7102D599
:1013F00093680B4093609368DB001DD4936801F100
:101400008051194041F08051916040F20401C2F2D4
:101410000001096842F663538909C0F23E53A1FBFB
:1014200003139909022303EB410100BF01910199C4
:1014300011B101990139F9E79168C9000BD4C16D67
:10144000012641F01001C165016E41F00101016604
:1014500002E00126BFE000269368C46D03F0040398
:1014600004F010041B19C36D17D123F481730233E8
:10147000C3659368DB0736D140F2001442F48073F1
:10148000C5F2000440F2080CA342C5F2000C08D1DA
:10149000DCF80040DCF800310BE043F010020126DC
:1014A00098E0DCF800E4DCF80035DCF8004643EABC
:1014B0000E032343DB0716D10CF1F8034FF4E0646D
:1014C000D0F804E09A4208BF4FF44074B2F1A04F44
:1014D00008BF4FF440745CF8043023F47C1343EAF3
:1014E0000E034CF80430437FC46BD0E9021544EA84
:1014F00043332B4390F824501943012D41EA05430F
:1015000006D1816A0025CFF6FE7505EB41410B43FC
:10151000C46A24B1016B04F4787529430B43D16884
:1015200044F20705CFF6F07529401943D1601169DF
:10153000436B21F0406119431161916809073BD465
:1015400090F83810037F490041EA8331D36844F2B0
:101550000205AB431943D160036914694BB144F4EC
:1015600080311161D2F8C01043F6FF75A9430B43D7
:1015700008E024F480311161D2F8C01043F6FF7303
:1015800021EA0303C2F8C03090F840101369012922
:101590000FD140F2FD7123EA010CD0E91135D0E9F9
:1015A000134143EA0C032B432343194341F0010346
:1015B00001E023F0010313614169136B012923F05A
:1015C0000F0302D1016A01390B431363C26D01217C
:1015D00061F30102C265304602B070BDF0B59BB048
:1015E000044600201A90CDE91800CDE9160001A8A4
:1015F0005421FEF757FE206840F20051C5F2000169
:10160000884254D040F20041C5F20001884240F0C7
:10161000A6804FF4803001904FF00040139001A855
:1016200001F0A0FC002818BFFFF76EFB40F28C0110
:10163000C2F200010A6841F24C00C4F20200531CDD
:101640000B6042B9016841F480410160016801F416
:101650008041009100990168002641F0020101607B
:10166000006816A900F00200009000980220169071
:101670000320179040F20040C4F60000189600F0D6
:1016800047FD40F630750820C2F20005C4F20200A2
:1016900080224FF480734FF4806C252185E843004D
:1016A000C5E90362C5E9053CC5E907664EE04FF4AC
:1016B000803001904FF00040139001A801F052FCDF
:1016C000002818BFFFF720FB40F28C01C2F2000196
:1016D0000A6841F24C00C4F20200531C0B6042B98C
:1016E000016841F480410160016801F4804100918A
:1016F000009901684FF4807641F0100101600068A4
:10170000002700F01000009000980320179040F28E
:101710000040C4F6000000F5406016A91696189720
:1017200000F0F6FC0820C4F2020040F69075143078
:10173000C2F2000580224FF48063262185E88300F1
:10174000C5E90372C5E90563C5E90777284600F0D6
:1017500063F9002818BFFFF7D7FA6565AC621BB0C4
:10176000F0BD00002DE9F04140F200160368C5F21B
:1017700000064FF4C167B34208BF4FF40277B3F1DC
:10178000A04F08BF4FF40277BF599D686D0703D47F
:1017900090F85850012D02D10220BDE8F08106F5E5
:1017A000A06407F01F070125A34280F8585018BF16
:1017B000002F0AD10D4690460446FFF7B9F970B1E3
:1017C000002184F85810BDE8F081052FF2D0092FD0
:1017D000F0D0002180F858100120BDE8F081216888
:1017E000E06D40F601739843224600F58070B142E7
:1017F000E06509D040F20050C5F200008142084681
:1018000008BF06F5407001E04FF0A040884218BFC5
:10181000002F03D1D06D20F48010D065D06D40F63C
:10182000B127C0044FF0000044BF106E20F0060046
:101830001066506D40F62936C0F60007C0F6000667
:1018400040F611340023C0F60004C0E90B761C27D3
:1018500044630F6082F858304B68144643F010031D
:101860004B60CB682A4643F00103CB6040314346CE
:1018700000F064F921684FF6C0738A68C7F6FF73F9
:101880001A4004328A60BDE8F0810000014690F8F9
:101890002500022827D180B50868D1E910CE8A6CCE
:1018A000036823F00E030360136823F4807313604E
:1018B000026822F0010202600EF01F00012202FA0B
:1018C00000F0CCF80400D1E913205060486D30B12D
:1018D000026822F480720260D1E9160242600020A0
:1018E000BDE8804002E00420C8630120012281F8A5
:1018F0002520002281F824207047000090F8251050
:10190000022930D180B50168D0E910CE826C0B6815
:1019100023F00E030B600B6823F001030B601168CA
:1019200021F4807111600EF01F02012101FA02F210
:10193000CCF80420D0E913325A60426D32B11368FA
:1019400023F480731360D0E91623536080F82510C8
:10195000826B002180F824100AB190470021BDE875
:101960008040084670470421C1630121002280F8AD
:10197000251080F82420084670470000B0B5D0E953
:1019800010C30268DCF8001003F01F030424D2F82F
:1019900000E09C400C4218BF1EF004051BD102243D
:1019A0009C400C4218BF1EF0020520D1D940090707
:1019B0001CD51EF0080108BFB0BD116821F00E0152
:1019C0001160012101FA03F2CCF80420C16380F810
:1019D0002510416B18E01168890603D4116821F0C5
:1019E00004011160CCF80440016B91B9B0BD1168DD
:1019F000890606D4116821F00A011160012180F8DE
:101A00002510CCF80440C16A0022002980F8242067
:101A1000ECD0BDE8B040084700284FF0010C00F0C2
:101A20008A802DE9F04F0021C4F2020103684FF6CD
:101A3000F83201F5816ECBF6FD72734538BF02F5C1
:101A400080624CF6CD441A44CCF6CC44A2FB042967
:101A500003F0FC02A2F10802A2FB042800F1080B2B
:101A600001F580646FF003069BE8040C3CBF002482
:101A7000C4F2020401F5026506EA9906734538BF0F
:101A800001F50065C0E91046022480F825401C6875
:101A900047F6F07724EA0707D0E9054147EA0A0745
:101AA00047EA0B07D0E907E93C43214341EA0E012D
:101AB00041EA0901114319600021C4F2020101F554
:101AC0000861C164C8F3041173190CFA01F5836449
:101AD000B2F5804F056504BF00214160476840F6BC
:101AE0008401FAB21A607B1EC4F20201032B0D605E
:101AF00012D8013A01EB8203002702F01F020126EF
:101B000043F87C7F01F1BC0706FA02F2C0E9153701
:101B1000C265C1F8C02003E00021C0E91511C1650C
:101B20004FF0000C0121C0F83CC080F8251080F86F
:101B300024C0BDE8F04F60467047000090F824C014
:101B4000BCF1010F43D04FF0010C80F824C090F895
:101B500025C0BCF1010F37D12DE9F0414FF0020C47
:101B600080F825C04FF0000CC0F83CC0D0F800C091
:101B700000F14C0E9EE83040DCF80060BEF1000F32
:101B800026F00106CCF8006065601CBFD0E9164560
:101B90006560D0E91056846806F01F060127D0F86A
:101BA000308007FA06F66E60CCF80430102C0B4635
:101BB00004BF13460A46B8F1000FCCF80830CCF841
:101BC0000C2006D00E210BE0002180F8241002200A
:101BD0007047DCF8001021F00401CCF800100A2155
:101BE000DCF800201143CCF80010806C0168C903B8
:101BF00003D5016841F480710160BEF1000F05D08A
:101C0000DEF8000040F48070CEF80000DCF8000040
:101C100040F00100CCF800000020BDE8F081000099
:101C2000B0B5044600F04AFB054640F26C00C2F233
:101C300000000068611C18BF044400BF00F03EFBB8
:101C4000401BA042FAD3B0BD7047000070470000AF
:101C5000704700002DE9F04F85B004460068016D23
:101C6000426DD0F850B0456D076D466D036D01EAC9
:101C700002080493436D0393036D0293436D019334
:101C8000D0F854A0D0F850905FEA496307D51AF015
:101C9000400104D0402101652046FFF7D9FF0BEA3F
:101CA000050B5FEAC95008F4E0550ED51AF48070B0
:101CB0000BD02068D0F8D810D0F8E02011404FF4B5
:101CC00080720265204600F01BFA37400BF00706D1
:101CD0002DB1206829460565204600F015FA07F069
:101CE00038052EB1206831460665204600F000FA1E
:101CF0002DB1206829460565204600F0FBF95FEA12
:101D0000895009D51AF4007006D020684FF400718C
:101D10000165204600F0FAF95FEA09600DD51AF076
:101D200080000AD02068D0F8D410D0F8DC20114010
:101D300080220265204600F0E5F95FEA894009D576
:101D40001AF4005006D020684FF400510165204677
:101D500000F0D4F95FEA0940DDE9011000EA01056D
:101D600009D51AF4004006D020684FF400410165FF
:101D7000204600F0C1F9DDE9031008405FEA49415F
:101D800005F460210AD51AF4804207D022684FF486
:101D900080431365226E42F08002226600F47105D2
:101DA00021B1206801652046FFF750FF25B120686A
:101DB0000565206E28432066206E28B1204605B0B8
:101DC000BDE8F04FFFF740BF05B0BDE8F08F000061
:101DD000002804BF01207047F0B581B0044690F898
:101DE0005C0028B9002084F85D00204600F0EAF885
:101DF0002068816921F01001816100F05FFA0546D9
:101E000020688169090705D500F058FA401B0B28A6
:101E1000F6D310E0816941F00101816100F04EFAD2
:101E2000054600BF20688169C9070BD100F046FA5A
:101E3000401B0B28F6D3206E032140F001002066E2
:101E40000120BBE0826946F2004CC4F2000C42F073
:101E500002026045826102D16268CCF80021227CD6
:101E60008369012A23F0400318BF40338361627CF9
:101E70008369012A23F4804308BF03F5804383610B
:101E8000A27C8369012A23F4805318BF03F5805391
:101E900083618569D4E902E325F4407545EA0E05BE
:101EA0008561856925F0A4058561056925F0100522
:101EB00005619BB1012B0DD0022B09D08569032B45
:101EC00045F080058561056945F01005056105D17E
:101ED000202300E0042385692B43836104F114056A
:101EE0002ACD226A6FF0FF075E1E07EB052545EA43
:101EF0004665013A2A430025CFF6FF7505EB0141FF
:101F00001143BEF5407FC16110D104F1240646CED5
:101F1000236B013A07EB06273A436FF00F0707EBF5
:101F200003131A4305EB01411143C160D4E90D13BA
:101F3000E26BD0F8C0704AF250763A43C0F8C02045
:101F40000CF580670CF58042B84204BF4AF250722B
:101F5000C4F200020CF50067C4F20006B84208BFE4
:101F600006F554722264D0F8807027F4F81747EA17
:101F70000141C0F8801002F170016164D0F8801056
:101F800021F0706141EA0361C0F8801002F1B000F5
:101F9000A06402F5C470E06402F51870206502F5D3
:101FA0001E70606502F55470002100BF42F8041BEA
:101FB0008242FBD300200121A065206684F85C10DA
:101FC00001B0F0BD10B59CB0044600201B90CDE9D7
:101FD0001900CDE9170002A85421FEF763F9206823
:101FE00046F60001C4F20001884239D046F20041B1
:101FF000C4F20001884278D14FF4805002904FF033
:102000000070109002A800F0ADFF002818BFFEF786
:102010007BFE40F29001C2F200010A6841F24C00DE
:10202000C4F20200531C0B6042B9C16841F0007158
:10203000C160C16801F00071019101990168152426
:1020400041F0080101600068032100F008000190E0
:10205000019840F20040C4F6000000F5006031E055
:102060004FF4805002904FF00070109002A800F0E2
:1020700079FF002818BFFEF747FE40F29001C2F238
:1020800000010A6841F24C00C4F20200531C0B60CC
:1020900042B9C16841F00071C160C16801F00071CE
:1020A000019101990168572441F002010160006823
:1020B0004FF4405100F002000190019840F20040BE
:1020C000C4F600001791022118910021CDE91911E1
:1020D00009211B9117A900F01BF8204605210022B9
:1020E00000F0E4FD204600F0CFFD1CB010BD000064
:1020F0007047000070470000704700007047000004
:1021000070470000704700007047000070470000F3
:102110002DE9F04F83B00E68002E00F0C68000F16C
:10212000200241F2004C009200F13847C4F6000C46
:1021300006224FEAB725604508BF0522052D38BFA6
:102140004FEAB722002500274FF0000A01920AE06B
:102150000E680AF1010A36FA0AF207F1020705F1E0
:10216000040500F0A280012202FA0AFC16EA0C091A
:10217000EED0D1F804B003220BF00308A8F1010659
:10218000012E02FA07F610D8D0F808E0CC682EEA43
:102190000602BC40224382604268CBF3001422EA6C
:1021A0000C0204FA0AF422434260B8F1030F1ED075
:1021B000C2688C68B243BC402243B8F1020FC260CF
:1021C00015D16FF00302009C02EA5A0B54F80BC0C1
:1021D00005F01C030F22D1F8108002FA03FE2CEA4E
:1021E0000E0C08FA03F343EA0C0344F80B300268C0
:1021F0004B68B24303F00306BE40324313F4403F42
:102200000260A5D041F26003C4F202031A6840F2F2
:10221000004E42F001021A601A68C4F2010E02F088
:1022200001020292029A2AF003024FF6084C72440D
:10223000CFF6FF7C52F80C3005F00C060F24B440AA
:10224000A343019C04FA06F6334342F80C30DEF84F
:1022500008204B6842EA090640F20C4CDC0258BFE9
:1022600022EA0906CEF80860C4F2010CDCF800206E
:102270009C0242EA090658BF22EA0906CCF800602F
:10228000DEF804209C0342EA090658BF22EA090648
:10229000CEF80460DEF80020DB0342EA090658BFEE
:1022A00022EA0906CEF8006052E703B0BDE8F08FDD
:1022B0001823002A08BF2823C150704743F200109A
:1022C000C2F200000068704790F84120202A03D134
:1022D00090F84020012A01D102207047242280F882
:1022E00041200268136823F001031360136823F48C
:1022F00080531360136819431160116841F00101A4
:102300001160202180F84110002180F84010002049
:102310007047000090F84120202A03D190F8402017
:10232000012A01D102207047242280F8412002684E
:10233000136823F001031360136823F4706343EA06
:1023400001211160116841F001011160202180F824
:102350004110002180F8401000207047002804BF81
:102360000120704710B590F8411031B9002180F874
:102370004010044600F064FB2046242180F8411000
:1023800090E80610C4680B6822F0706223F0010325
:102390000B600A618A68012C22F400428A604FF4C3
:1023A000044208BF4FF4004242EA0C028A604A68C5
:1023B000022C22F4006208BF02F500624A604A68FB
:1023C00000F1100442F0007242F400424A60CA6810
:1023D00022F40042CA601CCC1A4342EA0422CA60BA
:1023E000D0E907231A430A600A6842F001020A6032
:1023F00000212022416480F84120016380F84210CE
:10240000002010BD2DE9F04F81B0044690F8410046
:10241000202807D10A9E4EB10B9F3FB194F840008F
:10242000012807D1022001B0BDE8F08F4FF4007001
:10243000606471E101209B469146884684F8400023
:10244000FFF73CFF216805468969090428D422204A
:1024500084F84100402084F84200002060646662F5
:1024600067852168606349F6000A40464B68CFF6ED
:10247000004A6FF39F205FFA8BF2804640EA0240E9
:1024800003EA0A02104400F50050486088690C9E77
:1024900080073CD4771C28E0206880690004D6D5EA
:1024A000204619212A4603F00BFD002840F0348114
:1024B000FFF704FF401B1A28EED320688069000450
:1024C000EAD5606C40F020006064202084F8410070
:1024D000002084F842001DE120688069800740F1F7
:1024E0000C8120688069800711D4204631462A4635
:1024F00003F0E6FC002840F00C81002FF1D0FFF73C
:10250000DDFE002EE8D0401BB042EAD9E4E72068A7
:10251000BBF1010F23D04FEA192181628069800746
:102520001CD4771C08E020688069800740F1E580B2
:1025300020688069800711D4204631462A4603F07E
:10254000BFFC002840F0E580002FF1D0FFF7B6FE79
:10255000002EE8D0401BB042EAD9E4E720685FFAD9
:1025600089F181622068806940061CD4771C08E0EC
:1025700020688069400640F1C0802068806940067C
:1025800011D4204631462A4603F09AFC002840F038
:10259000C080002FF1D0FFF791FE002EE8D0401B45
:1025A000B042EAD9E4E7608D40F20009B0F5807FDF
:1025B000C0F2FF19404609D3FF222168228551F855
:1025C000042F09F5105302EA0A020BE0628D21681C
:1025D000228551F8043FD2B203EA0A0343EA0242D9
:1025E00009F592331A431043771C4FF0FF0B0AF59D
:1025F000806A086004E02068806940077FF561AF69
:1026000020688069400711D4204631462A4603F0ED
:1026100057FC002840F08080002FF1D0FFF74EFEDD
:10262000002EE8D0401BB042EAD9E4E72068616A96
:10263000406A0870606A218D01306062481E208502
:10264000618D01396185618DD1B3000405D037E01A
:102650002068806900067FF534AF20688069000635
:1026600010D4204631462A4603F02AFC002853D1D4
:10267000002FF2D0FFF722FE002EE9D0401BB0421F
:10268000EBD9E5E7608DB0F5807F08D32068A4F82A
:1026900028B050F8041F4A4601EA0A010BE0618D98
:1026A0002068218550F8042FC9B202EA0A0242EAE2
:1026B00001414FF00072114341EA080143460160B5
:1026C000608D00289CD1204631462A4603F092FCBA
:1026D00010BB20682021C16142684EF60003CFF68E
:1026E00000631A404260002084F8411084F84200E0
:1026F00084F8400001B0BDE8F08F606C40F020002D
:102700006064202084F84100002084F8420084F8AE
:102710004000002084F84000012001B0BDE8F08FA7
:102720002DE9F04F81B0044690F84100202807D1F0
:102730000A9E4EB10B9F3FB194F84000012807D18B
:10274000022001B0BDE8F08F4FF40070606472E1C8
:1027500001209B469246894684F84000FFF7AEFD73
:1027600021680546896909042CD4212084F8410098
:10277000402084F8420000206064666267856063E0
:102780004846226849F600486FF39F205FFA8BF1B4
:10279000CFF60048814640EA01405168A8F58063C1
:1027A0001940084440F0807040F400505060906937
:1027B0000C9E80073DD4771C29E000BF206880690B
:1027C0000004D2D5204619212A4603F079FB0028BF
:1027D00040F03181FFF772FD401B1A28EED32068CC
:1027E00080690004EAD5606C40F02000606420201D
:1027F00084F84100002084F842001AE120688069D2
:10280000800740F1098120688069800711D4204643
:1028100031462A4603F054FB002840F00981002F7E
:10282000F1D0FFF74BFD002EE8D0401BB042EAD9B3
:10283000E4E72068BBF1010F23D04FEA1A2181623F
:10284000806980071CD4771C08E0206880698007B5
:1028500040F1E28020688069800711D4204631462B
:102860002A4603F02DFB002840F0E280002FF1D033
:10287000FFF724FD002EE8D0401BB042EAD9E4E780
:1028800020685FFA8AF181622068806900061CD4A2
:10289000771C08E020688069000640F1BD80206850
:1028A0008069000611D4204631462A4603F008FB11
:1028B000002840F0BD80002FF1D0FFF7FFFC002E74
:1028C000E8D0401BB042EAD9E4E7608DB0F5807FE4
:1028D00048460AD3FF222168228551F8042F00239D
:1028E000C0F2FF1302EA08020BE0628D2168228524
:1028F00051F8043FD2B203EA080343EA02424FF020
:1029000000731A4340F2000A1043771CC0F2FF1A0A
:102910004FF0FF0B086004E02068806980077FF5B6
:1029200062AF20688069800710D4204631462A466D
:1029300003F0C6FA00287ED1002FF2D0FFF7BEFCCC
:10294000002EE9D0401BB042EBD9E5E7616A206870
:1029500011F8012B82626162618D01396185218DDF
:1029600001392185628DD2B3090406D037E0206891
:10297000806900067FF537AF20688069000610D4B3
:10298000204631462A4603F09BFA002853D1002FF7
:10299000F2D0FFF793FC002EE9D0401BB042EBD9F8
:1029A000E5E7608DB0F5807F08D32068A4F828B0F3
:1029B00050F8041F524601EA08010BE0618D2068BF
:1029C000218550F8042FC9B202EA080242EA014107
:1029D0004FF00072114341EA09014B460160608DDE
:1029E00000289ED1204631462A4603F003FB10BB47
:1029F00020682021C16142684EF60003CFF60063D3
:102A00001A404260002084F8411084F8420084F8A3
:102A1000400001B0BDE8F08F606C40F020006064C1
:102A2000202084F84100002084F8420084F840000F
:102A3000002084F84000012001B0BDE8F08F0000C4
:102A4000B0B59CB00446002502A854211B95CDE9E1
:102A50001955CDE91755FDF725FC206848F20041CE
:102A6000C4F2000188426BD047F60001C4F20001B5
:102A7000884234D045F60001C4F20001884240F09B
:102A8000908080200290002402A80A9400F06AFA44
:102A9000002818BFFEF738F941F24C05C4F20205D0
:102AA000286817A940F001002860286800F001009C
:102AB000019001984FF4407017901220CDE918044E
:102AC00004201B904FF090401A94FFF721FBE86818
:102AD00040F48000E860E86800F480005FE04FF4B4
:102AE00080700290002402A80B9400F03BFA0028AA
:102AF00018BFFEF709F941F24C05C4F20205286837
:102B000017A940F004002860286800F00400019034
:102B100001984FF4407017901220CDE91804082056
:102B20001B9040F60000C4F600001A94FFF7F0FA7C
:102B3000E86840F08040E860E86800F080402EE0FF
:102B40004FF40030029002A80C9500F00BFA002818
:102B500018BFFEF7D9F841F24C04C4F20204206811
:102B600017A940F004002060206800F004000190E4
:102B70000198C0201790122018900020CDE919006C
:102B800008201B9040F60000C4F60000FFF7C0FAD2
:102B9000206940F002002061206900F002000190ED
:102BA00001981CB0B0BD000040F26C0043F200116F
:102BB000C2F20000C2F2000100680A681044086016
:102BC0007047000080B5032000F09CF80F2000F053
:102BD00009F800281CBF012080BD00F031F800205A
:102BE00080BD000040F26C01C2F2000109680029BA
:102BF00004BF0120704710B5044640F20400C2F241
:102C000000004FF47A720068B2FBF1F1B0FBF1F012
:102C100001F0C0F801460F2C4FF001000ED800293A
:102C200018BF10BD4FF0FF302146002200F03EF8E3
:102C300040F270010020C2F200010C6010BD0000E3
:102C400080B582B041F25800C4F2020081680022CF
:102C500041F001018160816801F001010191019958
:102C6000016841F08051016000680F2100F0805040
:102C7000009000986FF0010000F018F802B0BDE875
:102C8000804000F065B90000002848BF704700F0A0
:102C90001F01012202FA01F11C2202EAD0004EF2C9
:102CA0000012CEF2000281507047000010B54EF6BF
:102CB0000C5CCEF2000CDCF80030C3F3022E8EF078
:102CC0000704042C28BF0424BEF103034FF0FF3E89
:102CD0000EFA04F438BF0023A14399400EFA03F31F
:102CE0009A43114300F1604200F00F03090102F51D
:102CF0006442043B6344002848BF03F10C02117096
:102D000010BD00004EF60C51CEF200010A684FF6DD
:102D1000FF031A4060F30A2242F0806040F0FD7029
:102D20000860704701220168C0F8D022002280F8B4
:102D3000C822B1F8540040F00100A1F85400B1F8E5
:102D4000540040F002020020A1F854207047000017
:102D5000002804BF01207047B0B5044690F89102E6
:102D600028B9002084F89002204600F04BF8032098
:102D700084F89102206805F01FFF94F804C0BCF1AC
:102D8000000F14D00CEB8C00C10000224FF0010E9C
:102D900000200023251828302B74814203F1010301
:102DA00085F811E0EA74C5E90822AA62F2D1BCF103
:102DB000000F15D00CEB8C00C00000210022002376
:102DC000A518283285F85031904203F1010385F8A7
:102DD000511185F85311C5E95811C5F86811EFD1A3
:102DE00094E8070005F0DAFE00200121207384F842
:102DF0009112A17A012918BFB0BD2046FFF792FFBA
:102E00000020B0BD10B596B0044601A85421FDF7CE
:102E100049FA206845F60041C4F20001884201D019
:102E200016B010BD4FF4005001900020109001A882
:102E300000F098F8002818BFFDF766FF41F258002F
:102E4000C4F20200016841F400010160006800F46E
:102E500000000090009816B010BD000047F2000C72
:102E6000C4F2000CDCF80020B0F5007F35D000285B
:102E700066D1DCF8800002F4C06220F48070B2F504
:102E8000806FCCF8800026D1DCF80000012262F3CC
:102E90004A20CCF8000040F20400C2F200000068B2
:102EA000322358434DF68363C4F21B33A0FB030364
:102EB00002EB9340002200BFDCF81410013842F10D
:102EC0000003490501D5002BF6D1DCF814004005BC
:102ED00044BF0320704700207047DCF8800002F4F4
:102EE000C06140F48070B1F5806FCCF88000F2D101
:102EF000DCF80000012161F34A20CCF8000040F228
:102F00000400C2F200000068322250434DF6836292
:102F1000C4F21B32A0FB020201EB9240002200BF70
:102F2000DCF81410013842F10003490501D5002BEB
:102F3000F6D1DCF81400400544BF03207047CAE70F
:102F4000022060F34A22CCF80020002070470000E5
:102F500047F20800C4F20000016841F480410160BA
:102F6000704700002DE9F04381B08146807841F23E
:102F700088060007C4F2020601D400204AE056F891
:102F8000300C5FEAC0080BD456F8300C40F080508B
:102F900046F8300C56F8300C00F080500090009845
:102FA00047F20004C4F20004206840F480702060FE
:102FB000FFF784F9054600BF2068C70508D4FFF76E
:102FC0007DF9401B0328F7D30320002F03D418E01A
:102FD0000020002F15D5B16811F4407100F029814F
:102FE000D9F85020914240F02981C90740F035813D
:102FF00038B9B068D9F8501020F440700843B06078
:103000000020B8F1000F05D456F8301C21F0805193
:1030100046F8301CD9F80010CA0716D18A071DD40B
:103020004A0724D40A072BD4CA0632D48A0639D4D4
:103030004A0640D40A0647D4CA054ED48A0355D45A
:103040008A055CD44A0563D472E03268D9F804304A
:1030500022F003021A4332608A07E1D53268D9F8B8
:10306000083022F00C021A4332604A07DAD532687F
:10307000D9F80C3022F030021A4332600A07D3D557
:103080003268D9F8103022F0C0021A433260CA0602
:10309000CCD53268D9F8143022F440721A43326029
:1030A0008A06C5D53268D9F8183022F440621A432E
:1030B00032604A06BED53268D9F81C3022F440523C
:1030C0001A4332600A06B7D53268D9F8203022F4A4
:1030D00040421A433260CA05B0D53268D9F824306C
:1030E00022F440321A4332608A03A9D57269D9F8B2
:1030F000283022F003021A4372618A05A2D5326891
:10310000D9F82C3022F440221A4332604A050FD5F8
:103110003268D9F8303022F440121A43B3F5801FD8
:10312000326005D156F87C2C42F4801246F87C2C93
:103130000A050FD53268D9F8343022F440021A4318
:10314000B3F5800F326005D156F87C2C42F4801222
:1031500046F87C2CCA040FD53268D9F8383022F0F2
:1031600040721A43B3F1807F326005D156F87C2C4F
:1031700042F4801246F87C2C8A040FD53268D9F8C4
:103180003C3022F040621A43B3F1006F326005D147
:1031900056F87C2C42F4801246F87C2C4A040FD559
:1031A0003268D9F8403022F040621A43B3F1006F20
:1031B000326005D156F87C2C42F4801246F87C2C03
:1031C0000A040FD53268D9F8443022F040521A432D
:1031D000B3F1805F326005D156F87C2C42F4803226
:1031E00046F87C2CCA030FD53268D9F8483022F053
:1031F00040421A43B3F1804F326005D156F87C2C1F
:1032000042F4803246F87C2C49030FD57169D9F815
:103210004C2021F440111143B2F5001F716105D11A
:1032200056F87C1C41F4801146F87C1C01B0BDE8C6
:10323000F0830021C9073FF4DBAE0EE0B168B2684D
:1032400021F4407142F48032B260B26822F48032DC
:10325000B260B160C9073FF4CBAE0446FFF72EF869
:10326000054641F2893700BFB068800709D4FFF7EF
:1032700025F8401BB842F7D3032000287FF4C1AEE5
:10328000B7E6204600287FF4BCAEB2E62DE9F04751
:10329000002800F0FE8042F2000AC4F2020A04464E
:1032A000DAF800000D4600F00F0088420DD2DAF87F
:1032B000000020F00F002843CAF80000DAF80000F0
:1032C00000F00F00A84240F0E480216841F20808B5
:1032D000C807C4F202080CD14FF00009206881072A
:1032E0004BD4B9F1000F61D0D8F8000020F0F00005
:1032F0005AE0606858F8082C022800F0C8800328BB
:1033000040F0CA80920140F1C480D8F80420D8F877
:10331000043042F20046C3F3031302F00302D8F86C
:1033200004700133C0F2F406032A04BF43F20066BE
:10333000C0F26E16B6FBF3F2D8F80430C7F30627D6
:103340007A43C3F34163022707EB4303B2FBF3F273
:103350004BF20043C0F2C4439A4240F2E480D8F8F2
:10336000002012F0F00F00F0D480890740F1DB80DC
:10337000A168002940F0D780CBE0410705D5D8F8F7
:10338000001041F4E061C8F80010000706D5D8F835
:103390000000072161F30D20C8F80000D8F80000F4
:1033A000A16820F0F0000843C8F80000DAF8000037
:1033B00000F00F00A84219D9DAF8000020F00F0041
:1033C0002843CAF80000FEF779FF064641F2883725
:1033D000DAF8000000F00F00A84207D0FEF76EFFF9
:1033E000801BB842F4D90320BDE8F087206841076C
:1033F00007D5D8F80010E26821F4E0611143C8F85D
:103400000010000708D5D8F80000216920F46050AA
:1034100040EAC100C8F80000D8F8000042F20041BC
:10342000C0F2F40100F00C000428084600F09C8073
:10343000D8F8000000F00C00082843F20060C0F249
:103440006E1000F09180D8F8002002F00C020C2AD7
:1034500040F08980D8F80420D8F8043002F0030244
:10346000C3F30313D8F804700133032A08BF0146DD
:10347000B1FBF3F0D8F80410C7F30627C1F341619C
:103480000222784302EB4101B0FBF1F06CE09103C2
:1034900004D40120BDE8F0875105FAD5D8F8001012
:1034A00001F00C0104293ED0D8F8001001F00C0105
:1034B000082938D0D8F8001001F00C010C2932D1BD
:1034C000D8F80410D8F8042042F20047C2F30312DF
:1034D00001F00301D8F804300132C0F2F4070329E7
:1034E00004BF43F20067C0F26E17B7FBF2F1D8F8E1
:1034F0000420C3F306235943C2F34162022303EBC2
:103500004202B1FBF2F14BF20042C0F2C4429142DE
:1035100009D9D8F80010082262F307114FF0010909
:10352000C8F8001001E04FF00009D8F8001021F0B1
:1035300003010843C8F80000FEF7C0FE064641F24A
:10354000883700BFD8F80000616800F00C00B0EBCD
:10355000810F3FF4C3AEFEF7B1FE801BB842F1D934
:103560000320BDE8F0870020D8F800104BF2D842C5
:10357000C1F30311C0F60002515C40F2040201F0F5
:103580001F0120FA01F140F27000C2F20000006851
:10359000C2F200021160BDE8F047FFF723BB000054
:1035A00040F2040041F20801C2F20000C4F202013C
:1035B000006809684BF2E842C1F30221C0F600023C
:1035C000515C01F01F01C8407047000040F2040048
:1035D00041F20801C2F20000C4F202010068096869
:1035E0004BF2E842C1F3C221C0F60002515C01F087
:1035F0001F01C8407047000041F20C01C4F20201F3
:1036000051F8040C42F20042C0F2F40200F00C0047
:103610000428104608BF704751F8040C00F00C0055
:10362000082843F20060C0F26E1025D051F8043C27
:1036300003F00C030C2B1CBF0020704780B5D1F8A1
:1036400000C00B680CF0030CC3F3031E0B680EF1F3
:10365000010EBCF1030F08BF02460968B2FBFEF081
:10366000C3F30623C1F341610222584302EB410137
:10367000B0FBF1F0BDE8804070470000002804BFB7
:10368000012070472DE9F04182B00446007841F2F4
:103690000006C007C4F202061DD12078800737D487
:1036A000207800075AD42078400778D42078800604
:1036B00000F1BF80E569002D00F01E82B06800F0C7
:1036C0000C000C2840F01E81012D40F09881012053
:1036D00002B0BDE8F081B06800F00C01F068082984
:1036E00054D0032281F00C0122EA00000844B0FA11
:1036F00080F040094AD165683068B5F5A02F00F028
:10370000C680B5F5803F40F0C98040F48030CBE002
:10371000B068F16800F00C00042864D001F00301E7
:1037200080F00C0081F002010844B0FA80F04009FA
:1037300059D1E1683068002900F0D18040F48070F0
:103740003060FEF7BBFD05463068400500F1FC80A7
:10375000FEF7B4FD401B0228F6D936E16169D6F8C0
:103760009400002900F0818040F00100C6F8940028
:10377000FEF7A4FD054600BFD6F89400800792D45A
:10378000FEF79CFD401B0228F6D91EE1306880033D
:103790007FF583AF606800287FF47FAF39E0B06DBC
:1037A0005FEAC00808D4B06D40F08050B065B06DDD
:1037B00000F080500190019847F20007C4F2000722
:1037C0003868C00529D4386840F480703860FEF746
:1037D00075FD05463868C0051FD4FEF76FFD401B18
:1037E0000228F7D9F1E03068400501D5E06880B1E2
:1037F0007068216920F0FE4040EA0160706040F28C
:103800007000C2F200000068FFF7ECF900283FF4F6
:1038100047AF012002B0BDE8F081A568D6F890005E
:10382000052D00F0AE80012D40F0B48040F0010085
:10383000B8E0A169D6F89800002900F08D8040F02A
:103840000100C6F89800FEF739FD0546D6F8980045
:1038500080073FF52FAFFEF731FD401B02284FF0E8
:103860000300F3D902B0BDE8F08120F00100C6F8F2
:103870009400FEF723FD0546D6F8940080077FF5F7
:1038800012AFFEF71BFD401B0228F5D99DE040F466
:1038900080203060306840F4803005E020F48030D3
:1038A0003060306820F480203060FEF707FD002D86
:1038B000054610D0306880033FF5EFAEFEF7FEFC02
:1038C000401B6428F6D980E0FEF7F8FC401B642812
:1038D0004FF00300C6D830688003F5D4DDE620F44D
:1038E00080703060FEF7EAFC054600BF3068400596
:1038F0007FF5D6AEFEF7E2FC401B02284FF0030036
:10390000F4D9AFE7306820F080703060FEF7D6FC65
:10391000022D05460CD100BF3068800140F1A8801F
:10392000FEF7CCFC401B02284FF00300F4D999E7C6
:103930003068800140F1D980FEF7C0FC401B0228AE
:103940004FF00300F4D98DE77068216920F0FE4044
:1039500040EA01607060A3E620F00100C6F898001C
:10396000FEF7ACFC054600BFD6F8980080077FF54F
:10397000A1AEFEF7A3FC401B02284FF00300F3D9D1
:1039800070E740F00400C6F89000D6F8900040F0D0
:10399000010007E020F00100C6F89000D6F8900082
:1039A00020F00400C6F89000FEF788FC002D0546C4
:1039B00041F2883716D000BFD6F89000800715D4A2
:1039C000FEF77CFC401BB842F6D9032002B0BDE8EC
:1039D000F08100BFFEF772FC401BB8424FF00300BD
:1039E0003FF640AFD6F890008007F3D4B8F1000F4F
:1039F0003FF55CAEB06D20F08050B06556E6F068E3
:103A0000216A00F003028A427FF403AF626A6FF01A
:103A10000F0300F0F00103EB021291427FF4F9AEC4
:103A2000A16A00F4FE42B2EB012F7FF4F2AEE16A2C
:103A300000F07842B2EBC16F7FF4EBAE226B002353
:103A4000CFF6E07303EA025200F4C001A2F50012BF
:103A500091427FF4DEAE616B4FF07E4202EA01617B
:103A600000F0C06001F17E4188427FF4D2AE43E0B5
:103A7000F06848F20C01C0F29F1104F1200700EA3F
:103A8000010C8ECF6FF00F00D4E90C5400EB021044
:103A90000022CFF6E07241EA0C0102EA0552084327
:103AA000A2F500124FF07E4540EA032005EA0465C6
:103AB000104305F17E4540EAC7602843F060306856
:103AC00040F080703060F06840F08070F060FEF789
:103AD000F5FB0446306880010ED4FEF7EFFB001BB7
:103AE00002284FF00300F5D9BCE6F0684FF6FC71F0
:103AF000CFF6EE610840F060002002B0BDE8F08132
:103B0000002804BF01207047416A19B100210161FA
:103B1000142104E04168B1F5827F02D01C2100220B
:103B20004250B0B50025856290F85D1029B980F843
:103B30005C50044600F056F82046022180F85D10E3
:103B40000168D0F80CE00B68BEF5E06F23F040038D
:103B50000B6098BF01254EF40063B3F5706F4FEA18
:103B6000053C1CBF00258562D0E90154D0E9043230
:103B700005F4827504F404442C4403F00203234446
:103B8000846902F00102C5691A4404F400731A44FE
:103B900005F03803056A1A4405F08003856A1A4463
:103BA00005F400531A430A600422436A0EF4706558
:103BB00002EA1442446B45EA0C0503F010032A4361
:103BC00004F008041A4322434A60CA6922F40062DE
:103BD000CA6100210122016680F85D20BDE8B04085
:103BE00008467047F0B587B0006842F6FF71C4F22E
:103BF000010188424FF000010691CDE90411CDE9A1
:103C0000021133DC43F60001C4F2000188425CD0AB
:103C100043F60041C4F20001884240F0B98041F20D
:103C20004C00C4F20200C16841F40041C160C168A7
:103C300001F4004101910199016841F00401016022
:103C4000006800F00400019001984FF4E0500290E9
:103C5000022003900020CDE904000620069040F2E7
:103C60000040C4F6000000F580608EE043F600419D
:103C7000C4F20101884262D043F20001C4F20101A2
:103C8000884240F0858041F24C00C4F20200416954
:103C900041F480514161416901F4805101910199E0
:103CA000016841F001010160006800F0010001902D
:103CB0000198E0200290022003900020CDE904004A
:103CC000052006904FF090405FE041F24C00C4F2B6
:103CD0000200C16840F2004741F48041C160C16800
:103CE000C4F6000701F480410191019901680224A2
:103CF00041F0200101600168002501F020010191DF
:103D000001990168052641F002010160006802A9DD
:103D100000F00200019001984FF48060029007F5D6
:103D200080500394CDE904550696FEF7F1F94FF45F
:103D3000004102AA384632C2CDE9055625E041F2DB
:103D40004C00C4F20200416941F400414161416903
:103D500001F4004101910199016841F010010160F5
:103D6000006800F01000019001984FF4E0400290CC
:103D7000022003900020CDE904000520069040F2C7
:103D80000040C4F6000000F5406002A9FEF7C0F94B
:103D900007B0F0BD411E0020B0EB116F1CBF012029
:103DA00070474EF21002CEF2000251604EF62351DF
:103DB000CEF20001F0230B70072190601160704774
:103DC00070470000704700007047000090F83C20EA
:103DD000012A04BF02207047B0B5012280F83C20C0
:103DE000D1E90232D1E900CE22F47C5223F470539F
:103DF00043EA020448F2FF73CEF6F0730EEA0302C0
:103E0000224303F5006404EA0C0442EA040C0C6942
:103E100003F5C05222404C6942EA0C02224303F5EA
:103E2000605422400C6B03F5F04323401A438B6926
:103E300040F2000CCC69CEF6FF7C0CEA034C144334
:103E4000026842F60043C4F201039A4244EA0C03BA
:103E50000BD045F20004C4F20104A24205D043F2A3
:103E60000044C4F20104A24217D14FF6FF74CDF60C
:103E70000F4403EA040ED1E9084CD1E90A310025C8
:103E8000CDF6F04505EA035343EA0E0324F0085546
:103E90002B432CF000552B430B430021536480F837
:103EA0003C100020B0BD00007047000070470000CB
:103EB0007047000090F83C20012A4FF0020266D0C3
:103EC00070B5012380F83C3080F83D20026842F64E
:103ED000004C54689368C4F2010C45F2000E624530
:103EE000C4F2010E18BF72452AD14D6824F4700443
:103EF0002C434FF68F75CFF6FF550E682C4042F6D7
:103F0000FF35C4F201053443AA4254600DDC40F28F
:103F1000FF76C4F20006B24219DCB2F1804F29D01C
:103F200040F20046C4F2000622E043F6FF74C4F2F9
:103F30000104A24216DC62451CD043F2004615E0A3
:103F400043F20045C4F20105AA42CED0D1E740F6C3
:103F50000006C4F20006B2420CD040F60046C4F29D
:103F6000000605E0724505D044F20006C4F20106E1
:103F7000B24204D1896823F0800319439160012182
:103F8000002280F83D1080F83C20BDE870401046CB
:103F90007047000070470000002804BF01207047F0
:103FA00010B5044690F83D0028B9002084F83C0084
:103FB000204600F023F8022084F83D002068211DEF
:103FC00003F008FD012084F8480084F83E0084F8DE
:103FD0003F0084F8400084F8410084F8420084F8EF
:103FE000430084F8440084F8450084F8460084F8CF
:103FF000470084F83D00002010BD000080B586B069
:10400000006843F2FF31C4F2010188424FF0000121
:104010000591CDE90311CDE9011126DD44F2FF310F
:10402000C4F2010188426CDD44F20041C4F2010196
:10403000884200F0C08044F60001C4F201018842C9
:1040400000F0DC8045F20001C4F20101884240F03A
:10405000A18041F26000C4F20200016841F48011C5
:104060000160006800F48010C4E041F2FF31C4F246
:104070000001884223DC40F60041C4F2000188427E
:1040800057D041F20001C4F20001884240F0828022
:1040900041F26000C4F2020050F8081C002241F016
:1040A000100140F8081C50F8080C052100F0100021
:1040B000009000983620FEF7F9FD3620B1E041F27D
:1040C0000041C4F20001884266D042F60041C4F2C9
:1040D000010188425ED141F26000C4F20200016831
:1040E000002241F4006101600068052100F40060D5
:1040F000009000981920FEF7D9FD1920FEF7C4FDA5
:1041000089E043F20041C4F20101884267D044F2E1
:104110000001C4F2010188423CD141F26000C4F2C6
:104120000200016841F480310160006800F48030D1
:1041300060E041F26000C4F2020050F8081C41F057
:10414000080140F8081C50F8081C01F00801009113
:10415000009950F8141C41F0010140F8141C50F86B
:10416000140C002100F00100009000980320019041
:1041700002200290CDE90311059001A94FF0904073
:10418000FDF7C6FF322005210022FEF78FFD322009
:10419000FEF77AFD06B080BD41F26000C4F2020075
:1041A00050F8081C41F0200140F8081C50F8080C99
:1041B00000F020001EE041F26000C4F2020001683D
:1041C000002241F4003101600068052100F4003054
:1041D000009000981920FEF769FD192021E041F2B6
:1041E0006000C4F20200016841F4005101600068FF
:1041F00000F400500090009806B080BD41F26000CD
:10420000C4F20200016841F480210160006800F4FA
:104210008020009000981A2005210022FEF746FD1C
:104220001A2006B0BDE88040FEF72EBD90F83D1084
:10423000012917D1022180F83D10016842F6FF30B4
:10424000C4F2010081420FDC40F2FF70C4F20000B2
:10425000814218DCB1F1804F2CD040F20040C4F212
:10426000000025E00120704743F6FF70C4F2010012
:10427000814213DC42F60040C4F20100814219D0B1
:1042800043F2004012E040F60000C4F20000814218
:1042900010D040F60040C4F2000009E045F20000F2
:1042A000C4F20100814205D044F20000C4F20100D2
:1042B00081420CD188680722C0F201020240062A1E
:1042C0004FF00000CFD0B2F5803F08BF70470868BC
:1042D00040F00100086000207047000090F83D1099
:1042E00001291BD1022180F83D10016842F6FF32FE
:1042F000C868C4F20102914240F00100C8600FDCBE
:1043000040F2FF70C4F20000814218DCB1F1804F2E
:104310002CD040F20040C4F2000025E0012070479C
:1043200043F6FF70C4F20100814213DC42F6004004
:10433000C4F20100814219D043F2004012E040F67D
:104340000000C4F20000814210D040F60040C4F2E8
:10435000000009E045F20000C4F20100814205D0EE
:1043600044F20000C4F2010081420CD188680722A7
:10437000C0F201020240062A4FF00000CFD0B2F591
:10438000803F08BF7047086840F0010008600020C7
:104390007047000090F83C20012A4FF0020200F024
:1043A000BA8080B5012380F83C3080F83D20D0F8F9
:1043B00000C08822DCF80830CFF6CE721A40CCF864
:1043C00008200B68B3F5805F16DB1F22C0F21002D5
:1043D00093421ADD3F21C0F210018B427CDD402167
:1043E000C0F210018B4200F081805021C0F2100118
:1043F0008B427BD0702175E03F2B23DC1F2B4FDCE1
:10440000002B73D0102B71D0CBE0B3F5801F42DAB4
:10441000B3F5805F76D0B3F5005F40F0C280D1E99C
:1044200001E3C968DCF8082043EA0E0322F47F4266
:1044300043EA01211143CCF80810DCF8081041F4DC
:1044400080415DE05F2B30DC402B66D0502B40F08C
:10445000A880D1F804E0C968DCF82030DCF820201E
:1044600022F00102CCF82020DCF8182022F0F00223
:1044700042EA011123F00A0242EA0E02CCF81810B7
:10448000CCF82020DCF808104FF68872CFF6CF72F7
:104490001140573134E029D0B3F1101F26D080E00D
:1044A000202B23D0302B21D07BE0602B57D0702BDA
:1044B00077D1D1E901E3C968DCF8082043EA0E03AB
:1044C00022F47F4243EA01211143CCF80810DCF8C2
:1044D000081041F0770113E02021C0F210018B4257
:1044E00004D03021C0F210018B425AD1DCF8081000
:1044F0004FF68872CFF6CF721140194341F0070191
:10450000CCF808100022012180F83D10002180F82D
:104510003C10BDE8804010467047D1F804E0C968FF
:10452000DCF82030DCF8202022F00102CCF820203A
:10453000DCF8182022F0F00242EA011123F00A020E
:1045400042EA0E02CCF81810CCF82020DCF8081053
:104550004FF68872CFF6CF7211404731D0E7D1F8CD
:1045600004E0C968DCF82030DCF8202022F01002DA
:10457000CCF82020DCF8182022F4704242EA013105
:1045800023F0A00242EA0E12CCF81810CCF820203A
:10459000DCF808104FF68872CFF6CF721140673101
:1045A000AEE70122AFE70000002804BF01207047FA
:1045B0002DE9F047044690F83D000D4628B900204B
:1045C00084F83C00204600F04BF8022084F83D00BF
:1045D00020684BF6F8728168CFF6FE721140816058
:1045E000211D03F0F7F920684FF6FF788168826992
:1045F000D0F820C0D5E9003ED5E9026A43EA0109B6
:10460000AB6922EA080246EA03234FF6FC46B343AD
:10461000D5E9076742EA0A0229691A4342EA0622F3
:1046200042EA01112CF0AA026B6942EA0E0241EA49
:10463000073142EA0312C0F808908161026201204A
:1046400084F8480084F83E0084F83F0084F8440071
:1046500084F8450084F83D000020BDE8F0870000A4
:1046600080B586B0006840F60001C4F200018842BF
:104670004FF000010591CDE90311CDE9011141D0C1
:1046800040F20041C4F2000188421BD0B0F1804FDB
:104690005FD141F24C00C4F20200C16841F0010157
:1046A000C160C16801F0010100910099016841F009
:1046B000080101600068012100F0080000900098E6
:1046C000182038E041F24C00C4F20200C16841F009
:1046D0000201C160C16801F0020100910099016806
:1046E00041F0020101600068012100F00200009029
:1046F00000983020019040F60040C4F60000A0F57C
:1047000000601DE041F24C00C4F20200C16841F0BB
:104710000401C160C16801F00401009100990168C1
:1047200041F0080101600068002100F008000090DD
:1047300000984FF44050019040F60040C4F600004D
:104740000222CDE902210021CDE9041201A9FDF7E1
:10475000DFFC06B080BD000080B590F83E2090F8E8
:104760003F3090F844E090F845C0042909D099B949
:10477000012A4FF0010208BFBEF1010F22D01046FE
:1047800080BD012B4FF0010208BFBCF1010FF6D133
:10479000022280F83F2012E0012A4FF0010208BFF8
:1047A000012BECD1BEF1010FE9D1BCF1010FE6D133
:1047B000022280F83E2080F83F2080F8442080F8D4
:1047C000452004E0022280F83E2080F84420026860
:1047D0000429136A04D031B923F0010101230DE04B
:1047E00023F0100109E023F001011162116A41F088
:1047F00001011162116A21F0100110231162116A86
:104800001943116200680022016841F00101016052
:10481000104680BD70470000F0B581B004460068C6
:10482000C5680669B10716D515F0020113D06FF0FF
:1048300002010161012121778069800703D02046B0
:10484000FFF7E8FF05E0204600F074F9204600F08D
:104850009FFB00202077700718D515F0040015D0B5
:1048600020686FF00401016102212177806910F452
:10487000407F03D02046FFF7CDFF05E0204600F043
:1048800059F9204600F084FB00202077300717D527
:1048900015F0080014D020686FF0080101610421B0
:1048A0002177C069800703D02046FFF7B3FF05E0FA
:1048B000204600F03FF9204600F06AFB00202077F8
:1048C000F00618D515F0100015D020686FF0100113
:1048D000016108212177C06910F4407F03D0204690
:1048E000FFF798FF05E0204600F024F9204600F08D
:1048F0004FFB00202077F00718BF15F0010006D00D
:1049000020686FF001010161204600F0F7FB16F40A
:10491000025F05F0800718BF002F02D1F00509D40F
:1049200010E020686FF4025101612046FFF74AFA57
:10493000F00507D537B120686FF48071016120461A
:10494000FFF73EFA700609D515F0400006D0206842
:104950006FF040010161204600F03EFCB00609D531
:1049600015F0200006D020686FF02001016120467C
:10497000FFF72AFAF00209D515F4801006D0206856
:104980006FF4801101612046FFF790FAB00209D55B
:1049900015F4001006D020686FF400110161204664
:1049A000FFF782FA700209D515F4800006D020685E
:1049B0006FF4800101612046FFF77AFA30020CD5CE
:1049C00015F4000009D021686FF4000220460A6146
:1049D00001B0BDE8F040FFF7DDBA01B0F0BD000066
:1049E00070B586B000680021A0F18040A0F5963037
:1049F0004FEAB02009280591CDE9031102910191F8
:104A000000F29580DFE800F005933A9393219393A9
:104A1000936141F24C00C4F20200016841F00401CC
:104A200001600068002100F00400009000980F2051
:104A3000019002200290059040F20040C4F6000070
:104A4000CDE9031100F580606EE041F24C00C4F244
:104A50000200016841F001010160006800F00100FE
:104A6000009000980C200190022002900020CDE9D7
:104A70000300092005904FF0904055E041F24C00B2
:104A8000C4F20200016840F2004441F002010160FA
:104A90000068C4F6000400F0020000900098402076
:104AA0000190052002250026059001A920460295C7
:104AB000CDE90366FDF72CFB4FF4007101AA62C239
:104AC0000A212046049605912EE041F24C00C4F2E2
:104AD0000200016840F2004641F0100101600168E7
:104AE000C4F6000601F0100100910099016802244B
:104AF00041F0200101600068002500F020000090D6
:104B000000980E2001900620059006F5406001A94E
:104B10000294CDE90355FDF7FBFA042001A931C148
:104B200006F58050CDE9045401A9FDF7F1FA06B06D
:104B300070BD00007047000090F83C30012B04BFAE
:104B4000022070474FEAB2020123052A80F83C3068
:104B500000F2E4812DE9F041DFE812F006004401A3
:104B60009000EA0053009C0103681D6A1A6AA3F1D1
:104B7000804622F001021A621A46D3F8048052F8E5
:104B800018CF8F68A6F59636D1F800E025F002051B
:104B90004FEAB626092E45EA07050BD80127B7408C
:104BA00040F2E52427421FBFCC6825F00C0524F015
:104BB00004042543092E0CD80124B44040F2E52614
:104BC00034421FBFD1E9054628F440773C4344EA0C
:104BD00006084FF68C74CFF6FE740CEA040747EA19
:104BE0000E07C3F804809F614F6809695F631D6207
:104BF0009F6947F008079F619F6927F004079F613D
:104C000086E10368D3F820C01A6AA3F1804722F432
:104C100080321A621A46A7F596375D6852F8508FAF
:104C2000D1F800E08E684FEAB727092F0AD801248F
:104C3000BC4040F2E5273C421EBF4C6925F480355C
:104C400045EA04252CF4003747EA06474FF68C76F0
:104C5000CFF6FE76033606EA080646EA0E065D60E3
:104C60001E654E6809699E641F621F6D47F0080744
:104C70001F651F6D27F004071F6549E1036842F6B1
:104C800000461D6A1A6AC4F2010622F480721A6292
:104C90001A46D3F804C052F81CEFB3428E68D1F81C
:104CA000008025F4007545EA06250BD045F2000684
:104CB000C4F20106B34205D043F20046C4F2010635
:104CC000B34207D1CE6840F2FF47360225F4406573
:104CD000BE433543A3F18046A6F596364FEAB62685
:104CE000092E0DD8012707FA06F640F2E5273E42C5
:104CF0001FBFD1E905672CF44054374344EA071C31
:104D00004FF68C74CFF6FE740EEA040747EA0807E4
:104D1000C3F804C0DF614F680969DF631D62DF69A2
:104D200047F00807DF61DF6927F00407DF61EFE084
:104D3000036842F600461D6A1A6AC4F2010622F4AC
:104D400080521A621A46D3F804C052F81C8FB3423C
:104D50008E68D1F800E025F4005545EA06350BD001
:104D600045F20006C4F20106B34205D043F2004604
:104D7000C4F20106B34207D1CE6844F6FF7736038A
:104D800025F44045BE433543A3F18046A6F596364B
:104D90004FEAB626092E0DD8012707FA06F640F28B
:104DA000E5273E421FBFD1E905672CF44044374355
:104DB00044EA871C48F6FF44CFF6FF6404EA08047F
:104DC00044EA0E27C3F804C0DF614F6809691F6415
:104DD0001D62DF6947F40067DF61DF6927F48067E0
:104DE000DF6194E0036842F600461D6A1A6AC4F265
:104DF000010622F010021A621A465C6852F818CFB7
:104E0000B3428E68D1F800E025F0200545EA06158A
:104E10000BD045F20006C4F20106B34205D043F2BE
:104E20000046C4F20106B34207D1CE686FF04007D6
:104E300025F0C00507EA06163543A3F18046A6F51E
:104E400096364FEAB626092E0DD8012707FA06F640
:104E500040F2E5273E421FBFD1E9056724F44064D4
:104E60003E4344EA860448F6FF46CFF6FF660CEA66
:104E7000060747EA0E275C609F614F6809699F63D8
:104E80001D629F6947F400679F619F6927F48067EF
:104E90009F613CE00368D3F820C01A6AA3F1804701
:104EA00022F480121A621A46A7F596375D6852F806
:104EB000508FD1F800E08E684FEAB727092F0AD843
:104EC0000124BC4040F2E5273C421EBF4C6925F45A
:104ED000802545EA84252CF4001747EA065748F652
:104EE000FF46CFF6FF6606F5407606EA080646EA74
:104EF0000E265D601E654E680969DE641F621F6DC7
:104F000047F400671F651F6D27F480671F6509025E
:104F10001368194300231160BDE8F041002180F8B7
:104F20003C10184670470000002804BF012070475D
:104F300010B5044690F83D0028B9002084F83C00E4
:104F4000204600F023F8022084F83D002068211D4F
:104F500002F040FD012084F8480084F83E0084F807
:104F60003F0084F8400084F8410084F8420084F84F
:104F7000430084F8440084F8450084F8460084F82F
:104F8000470084F83D00002010BD0000704700007D
:104F90007047000080B559B10B1F4FEAB30C432294
:104FA0004FF03F0EBCF1040F38BF0EEBB30200E030
:104FB0003E22825C012A1CBF012080BD61B10A1F14
:104FC0004FEAB202032A17D8DFE802F002120A0EF3
:104FD000022280F83F2012E0022280F83E200EE0FC
:104FE000022280F841200AE0022280F8422006E0F6
:104FF000022280F8402002E0022280F8432002686A
:1050000001F01F000121136A01FA00F083431362CB
:10501000136A18431062A2F18040A0F596304FEA5F
:10502000B02342F6FF30072BC4F2010050D899405C
:1050300011F0E50F4CD0516C824241F400415164B3
:105040000DDC40F2FF70C4F20000824216DCB2F1C7
:10505000804F2AD040F20040C4F2000023E043F623
:10506000FF70C4F20100824213DC42F60040C4F239
:105070000100824219D043F2004012E040F60000E5
:10508000C4F20000824210D040F60040C4F200009A
:1050900009E045F20000C4F20100824205D044F26A
:1050A0000000C4F2010082420CD190680721C0F2D6
:1050B0000101014006294FF0000008D0B1F5803F02
:1050C00008BF80BD106840F001001060002080BD66
:1050D0008242B6DD43F6FF71C4F201018A42C4DDAB
:1050E00044F20001C4F201018A42DED045F200011F
:1050F000C4F201018A429ED0E4E7000041F620217B
:10510000C2F2000100680968884218BF704770B594
:105110004EF2180540F60044CEF20005C4F6000435
:10512000FDF7CCF841F6C046C2F200063168401ADD
:105130000A2836D320464FF480410122FDF7B8F803
:1051400020464FF400410022FDF7B2F855F8040C58
:10515000286800BF29688142FCD020464FF40041F6
:105160000122FDF7A5F855F8040C2868296881424A
:10517000FCD020464FF480410022FDF799F840F61C
:10518000586040F2C011C2F20000C2F2000140F2C9
:105190000A62FCF7E7FAFDF791F83060BDE870406D
:1051A000704720464FF400410022FDF781F855F882
:1051B000040C286829688142FCD020464FF4004145
:1051C0000122FDF775F855F8040C2868296881421A
:1051D000FCD0BDE8704070477047000090F8841024
:1051E000012904BF022070472421C0F888100168FB
:1051F0000A680B6822F0005223F001030B600023C1
:1052000043660A602021C0F8881080F884300020AE
:1052100070470000D0F88C30202B07D103460029BE
:105220004FF0010018BF002A02D1704702207047DA
:1052300010B50120D8660020186718461C4603F0F8
:105240001DFA002818BF10BDE26E012A1CBF012004
:1052500010BD226821461023136200BF0A6852E87D
:10526000002F0B6842F0100243E80024002CF5D117
:1052700010BD000041F6C442C2F200021278002ABA
:1052800008BF704770B543F2F4060025C2F200066D
:1052900056F82530D3F80441844205D001359542B3
:1052A000F6D3BDE870407047D3F8080130B10C4622
:1052B000804756F825002146FAF7F4FF56F82510E6
:1052C000D1F8040191F80021FFF7A4FF56F825005A
:1052D000D0F80401D0F880000068016821F00401D2
:1052E0000160BDE8704070477047000090F884206E
:1052F000012A04BF02207047B0B50123242280F8A0
:105300008430C0F888200268D0F864E0D2F800C089
:105310001468BEF1000F24F001041460946824F0B6
:10532000606441EA040191601BD0916893684BF27C
:10533000185E5B0FC0F6000E4BF220551EF80340BE
:10534000C0F60005EB5CE400B4FBF3F3C1F342618B
:10535000A0F86A301EF80130695CDB00B3FBF1F3A2
:1053600001E0A0F86A302021A0F86830C2F800C03F
:10537000C0F88810002180F884100020B0BD000023
:1053800090F88420012A04BF02207047B0B50123A1
:10539000242280F88430C0F888200268D0F864E0C5
:1053A000D2F800C01468BEF1000F24F001041460AC
:1053B000946824F0604441EA040191601BD0916834
:1053C00093684BF2185E5B0FC0F6000E4BF220554F
:1053D0001EF80340C0F60005EB5CE400B4FBF3F3F9
:1053E000C1F34261A0F86A301EF80130695CDB004D
:1053F000B3FBF1F301E0A0F86A302021A0F8683097
:10540000C2F800C0C0F88810002180F88410002085
:10541000B0BD0000704700007047000041F6C44175
:10542000C2F200010A78002A08BF7047B0B543F203
:10543000F4050024C2F2000555F82410D1F8043117
:10544000834205D001349442F6D3BDE8B0407047A2
:1054500091F800211846FFF7DDFE55F82400D0F83A
:105460000401D0F880000068016821F004010160A7
:10547000BDE8B0407047000070B5046840F62F03E7
:10548000E2692168A6681340202B05D101F02003B2
:1054900006F080555B1938D140F60F0313400CD04D
:1054A0000123C1F2000306EA030C40F22013C0F20C
:1054B00000430B4013EB0C032DD1C36ED50616D55C
:1054C000012B14D111F0100311D010212162A16819
:1054D000490600F1FC80B0F85C10B0F85E20B0F82E
:1054E0005E30002B18BF914240F05B8170BDD3024B
:1054F00040F1CB8016F4800300F0C7804FF4801198
:105500002162BDE87040FFF787BF416F0029EDD0F1
:10551000BDE870400847D30718BF11F4807307D067
:1055200001232362D0F8903043F00103C0F890309B
:10553000930706F0010E0AD5BEF1000F07D0022333
:105540002362D0F8903043F00403C0F89030530742
:105550000AD5BEF1000F07D004232362D0F89030A3
:1055600043F00203C0F8903013070CD501F020037C
:1055700053EA0C0307D008232362D0F8903043F09D
:105580000803C0F8903013050BD511F0806308D0E4
:105590004FF400632362D0F8903043F02003C0F84A
:1055A0009030D0F89030002BA0D092060AD501F0B0
:1055B000200106F08052891804D0416F11B10446D1
:1055C000884720460168D0F89020896802F02802B8
:1055D00001F04001891807D10446FFF71FFF0020A2
:1055E000C4F8900070BD00BF016851E8001F026858
:1055F00021F4907142E80013002BF5D14FF6FE71B3
:10560000CEF6FF71026852E8022F03680A4043E8B1
:105610000226002EF6D1C16E012909D1016851E898
:10562000001F026821F0100142E80013002BF5D1A1
:105630002021C0F88C100021C16602684167916882
:10564000490640F1A18000BF016851E8021F0268CD
:1056500021F0400142E80213002BF5D1D0F8801070
:10566000002900F0918047F6CD42C0F600020446C2
:1056700008468A63FCF742F900283FF437AFD4F8B4
:105680008000816BBDE870400847130606D501F025
:10569000800306F400069B1940F0B380530677D5CB
:1056A00011F0400374D000BF016851E8001F026888
:1056B00021F0400142E80013002BF5D12021C0F871
:1056C000881000218167BDE8704000F0F3BBD0F87E
:1056D00080100A6851688BB2002B4AD0B0F85C6029
:1056E000B34246D2A0F85E101168890635D400BFD7
:1056F000016851E8001F026821F4807142E800133C
:10570000002BF5D1016851E8021F026821F0010168
:1057100042E80213002BF5D1016851E8021F02682C
:1057200021F0400142E80213002BF5D12021C0F8FE
:105730008C100021C16600BF016851E8001F02689B
:1057400021F0100142E80013002BF5D1D0F88010B1
:1057500004460846FCF79AF8204602210167B0F893
:105760005C10B0F85E20891A89B2BDE87040FFF77E
:1057700081BDB0F85C1099427FF4B8AE1268920611
:105780007FF5B4AE022237E0BDE87040FFF746BEB9
:1057900013023DD511F080433AD0BDE87040FFF7C9
:1057A00039BE891A026852E8002F036822F4907209
:1057B00043E80026002EF5D14FF6FE72CEF6FF72BA
:1057C000036853E8023F0668134046E80235002D9F
:1057D000F6D12022C0F88C200022C266426700BFAA
:1057E000026852E8002F036822F0100243E8002606
:1057F000002EF5D1022289B20267BDE87040FFF7A2
:1058000039BD816F00293FF471AEBDE87040084793
:10581000D2017FF56BAEB1F1FF3FC8BF70BDBDE8EF
:105820007040FFF761BD000010B5D0B10446D0F85C
:10583000880028B9002084F88400204600F026F86B
:105840002420C4F888002068A16A026822F00102BE
:10585000026011B1204602F065F9204602F0AEFD6B
:1058600008B1012010BD2168486820F490404860CC
:10587000886820F02A008860086840F0010220460D
:105880000A60BDE8104002F0C1B900002DE9F04106
:105890009CB0044600201B90CDE91900CDE917000B
:1058A00002A85421FAF7FEFC206847F6FF71C4F203
:1058B000000188423BDC44F20041C4F2000188420E
:1058C00079D044F60001C4F20001884240F017810B
:1058D00004200290002402A80594FDF743FB002851
:1058E00018BFFBF711FA41F24C00C4F20200C16884
:1058F00041F48021C160C16801F4802101910199C6
:10590000016841F008010160006800F008000190A2
:1059100001984FF4407017900220CDE91804072039
:105920001B9040F60040C4F600001A943DE043F698
:105930000001C4F20101884200F0A78048F2000192
:10594000C4F20001884240F0DA8020200290002456
:1059500002A80894FDF706FB002818BFFBF7D4F94E
:1059600041F24C00C4F20200016941F00101016101
:10597000016901F0010101910199016841F0020101
:105980000160006800F00200019001984FF440604F
:1059900017900220CDE9180408201B9040F6004023
:1059A000C4F600001A94A0F5006017A9FCF7B0FB3C
:1059B0001CB0BDE8F0810225002602A802950496DD
:1059C000FDF7D0FA002818BFFBF79EF941F24C0012
:1059D000C4F20200C16840F2300841F40031C160F5
:1059E000C168C4F2020801F4003101910199016813
:1059F00041F008010160006817A900F0080001905B
:105A00000198602061C107201B9040F60040C4F659
:105A1000000017A91A96FCF77BFB40F6F075C2F25E
:105A200000051A208027C5E900802846C5E90266DE
:105A3000C5E90476C5E906662E62FBF7EDFF00288E
:105A400018BFFBF761F9C4F88050AC6241F2500511
:105A500008F11400C2F200051B211022002385E882
:105A60008F002846C5E90533C5E90733FBF7D4FFA6
:105A7000002818BFFBF748F9262005210022E5671A
:105A8000AC62FDF713F9262037E0012002900024D4
:105A900002A80394FDF766FA002818BFFBF734F953
:105AA00041F24C00C4F20200416941F4804141617D
:105AB000416901F4804101910199016841F00401BB
:105AC0000160006817A900F00400019001983020DF
:105AD00017900220CDE9180407201B9040F60040E3
