:020000040800F2
:1000000090260020A502000821780008F16200086F
:100010001D7800088D0500084D90000800000000C4
:10002000000000000000000000000000317900081E
:100030006106000800000000917800088979000836
:10004000BF020008BF020008BF020008BF0200088C
:10005000BF020008BF020008BF020008BF0200087C
:10006000BF020008BF020008BF0200089105000897
:10007000A1050008BF020008BF020008BF02000877
:10008000BF020008BF020008BF020008BF0200084C
:10009000BF02000875060008BF020008BF02000882
:1000A000BF0200081D7A0008BF020008BF02000856
:1000B000BF020008BF020008BF020008BF0200081C
:1000C000BF020008BF020008BF020008BF0200080C
:1000D000BF020008BF020008BF020008BF020008FC
:1000E000BF020008BF020008BF020008BF020008EC
:1000F000BF020008BF020008BF020008BF020008DC
:10010000BF020008BF020008BF020008BF020008CB
:10011000BF020008BF020008397A0008BF020008C9
:10012000BF020008BF020008BF020008BF020008AB
:10013000BF020008BF020008BF020008BF0200089B
:10014000BF020008BF020008BF0200080000000054
:10015000000000000000000000000000000000009F
:10016000000000000000000000000000BF020008C6
:10017000BF020008BF020008BF020008BF0200085B
:10018000BF020008BF020008BF020008BF0200084B
:10019000BF02000800000000BF020008850600083A
:1001A000BF020008BF020008BF020008BF0200082B
:1001B000BF020008BF020008BF020008BF0200081B
:1001C000BF020008BF020008BF020008BF0200080B
:1001D000BF020008BF02000800F002F800F052F869
:1001E00014A696E8000CB244B344DA4501D100F0FD
:1001F00049F8BAE80F000FA696E83000A5EB040511
:1002000004EB0607AAEB0704A7F101074FEA15154F
:100210004FEA3414A4F10104AC4201D300F032F8E7
:1002200013F0010F18BFFB1A43F0010300F001F8AF
:10023000DBE718471C9000003C900000103A24BFF8
:1002400078C878C1FAD8520724BF30C830C144BF3B
:1002500004680C6070470000704700000023002411
:1002600000250026103A28BF78C1FBD8520728BFC6
:1002700030C148BF0B6070471FB508F0B4FF1FBD09
:1002800010B510BD00F04DF91146FFF7F5FF08F06D
:100290003FFF00F06BF903B4FFF7F2FF03BC00F07F
:1002A0006FF900000948804709480047FEE7FEE76C
:1002B000FEE7FEE7FEE7FEE7FEE7FEE7FEE7FEE716
:1002C00004480549054A064B70470000097A0008B2
:1002D000D9010008900E002090260020901E0020DA
:1002E000901E002053EA020C00F069802DE9F04BCB
:1002F0004FF00006002B1FBFB3FA83F503FA05F495
:1003000024FA05F65E4012BF1643B2FA82F502FAED
:1003100005F4C5F120051EBF22FA05FC44EA0C04D1
:10032000203556EA044C4FEA144418BF641C4FF0C1
:1003300000084FF00009904271EB030C39D30029FB
:1003400019BFB1FA81F701FA07F6B0FA80F700FA9F
:1003500007F6C7F120071EBF20FA07FC46EA0C0685
:100360002037B6FBF4FCA7EB0507103F07F01F0B87
:10037000CBF120062CFA06F60CFA0BFB44BFB34671
:100380000026202FA4BF5E464FF0000B5BEA060C50
:1003900008BF4FF0010B19EB0B0948EB0608ABFB4C
:1003A000027C06FB02CC0BFB03CCC01B71EB0C01E7
:1003B000C1E70B46024641464846BDE8F08B13B5FF
:1003C000084318BF4FF0FF300146AFF30080BDE88F
:1003D0001C407047032A40F2308010F0030C00F0FC
:1003E000158011F8013BBCF1020F624498BF11F86F
:1003F00001CB00F8013B38BF11F8013BA2F1040228
:1004000098BF00F801CB38BF00F8013B11F003039F
:1004100000F04F80083AC0F0088051F8043B083AD9
:1004200051F804CBA0E80810F5E7121D5CBF51F8A5
:10043000043B40F8043BAFF30080D20724BF11F81F
:10044000013B11F801CB48BF11F8012B24BF00F884
:10045000013B00F801CB48BF00F8012B70474FF07B
:10046000000200B5134694469646203922BFA0E804
:100470000C50A0E80C50B1F12001BFF4F7AF090710
:1004800028BFA0E80C5048BF0CC05DF804EB890001
:1004900028BF40F8042B08BF704748BF20F8022B44
:1004A00011F0804F18BF00F8012B7047704770475C
:1004B000704710B5203AC0F00B80B1E81850A0E8A2
:1004C0001850B1E81850A0E81850203ABFF4F5AF22
:1004D0005FEA027C24BFB1E81850A0E8185044BF7E
:1004E00018C918C0BDE810405FEA827C24BF51F8EB
:1004F000043B40F8043B08BF7047D20728BF31F8DF
:10050000023B48BF11F8012B28BF20F8023B48BF2F
:1005100000F8012B704700000048704710000020D1
:1005200070477546FFF7F8FFAE460500694653462B
:1005300020F00700854618B020B5FFF7C1FEBDE8E2
:1005400020404FF000064FF000074FF000084FF03A
:10055000000BAC46ACE8C009ACE8C009ACE8C00987
:10056000ACE8C00921F007018D46704710B504467C
:10057000AFF300802046BDE81040FFF78CBE0000BE
:1005800001491820ABBEFEE726000200FFE7FEE7A8
:1005900080B540F2B810C2F2000001F041FA80BD0F
:1005A00080B540F21820C2F2000001F039FA80BD97
:1005B00084B003900398006840F20741C4F202013E
:1005C000884206D8FFE740F60000C4F2020000901F
:1005D00005E040F62000C4F202000090FFE700981A
:1005E00002900398007808384CF6CD41CCF6CC4107
:1005F000A0FB011000090190029803994A6C22F0B7
:10060000030210448864039940F68000C4F202009B
:10061000C864019800F01F01012088400399086513
:1006200004B0704782B00190019800790090009961
:1006300040F6FC00C4F2020000EB8100019948651D
:10064000019940F64010C4F2020088650098013814
:1006500000F01F01012088400199C86502B0704771
:100660007047000081B0EFF3108072B60090FFE792
:10067000FEE7000080B540F27820C2F2000001F0F1
:1006800067FC80BD80B540F2DC20C2F2000001F0C2
:100690005FFC80BD80B586B005900491FFE70598AA
:1006A000049901F01FFB002862D0FFE70598049928
:1006B00040F27002C2F2000202AB01F02DFB0020FA
:1006C0000190FFE7019840F68861C2F200010978C5
:1006D00088424CD2FFE70598019A40F2A001C2F28D
:1006E000000151F82210096888423BD1FFE740F22F
:1006F0007000C2F200008068019A40F2A001C2F2CC
:10070000000151F82210C96B88422BD1FFE70199F3
:1007100040F2A000C2F2000050F82100D0F84100E1
:10072000F8B1FFE740F27001C2F20001CA68019B14
:1007300040F2A000C2F20000009050F8233083F88D
:100740004020019A50F822003430CA6802A9FFF70D
:1007500041FE0098019950F82100D0F841108847D7
:10076000FFE705E0FFE7019801300190AAE796E76F
:1007700006B080BD83B002904AF20040C4F200008F
:1007800000900298006846F60001C4F20001884219
:1007900005D1FFE7009800F554700090FFE702983C
:1007A000006846F60041C4F20001884205D1FFE727
:1007B000009800F5D4600090FFE700980299086463
:1007C00002980068D0F8800020F4F810029A1168AE
:1007D000526B40EA0240C1F88000009870300299E4
:1007E000486402980068D0F8800020F07060029A97
:1007F0001168926B40EA0260C1F880000098B03046
:1008000002998864009800F5C4700299C864009841
:1008100000F5187002990865009800F51E7002999D
:10082000486500980190FFE70198009901F554711F
:10083000884208D2FFE7019900200860FFE701988D
:1008400004300190F0E703B07047000080B5AEB00F
:100850002C902B9100208DF8AB002B98006808B1EC
:10086000FFE7FFE7FFE72C9890F85800012804D134
:10087000FFE702208DF8B7005DE12C99012081F897
:100880005800FFE7FFE70020259026902C9800688D
:10089000B0F1A04F06D1FFE740F20010C5F2000012
:1008A0000E9015E02C98006840F20041C5F200015E
:1008B000884207D1FFE740F20050C5F200000E90D9
:1008C0000C9003E000200E900C90FFE70C98FFE7DF
:1008D0000E9878B9FFE72C99C86D40F02000C865E4
:1008E000FFE72C99002081F85800FFE701208DF8E0
:1008F000B70020E10E9805F061FD0D902C9800687E
:1009000005F05CFD002840F00281FFE70D9800280B
:1009100040F0FD80FFE72C9801680120B1F1A04F65
:100920000B900CD0FFE72C9800684FF60071CAF6C8
:10093000FF710844B0FA80F040090B90FFE70B9874
:10094000C10740F20070C5F2000000291CBF40F250
:100950000030C5F2000029902B980068002872D062
:10096000FFE72998806820F460402B9949682C9A09
:1009700092F8382041EA42310843299988602C983E
:1009800001680120B1F1A04F0A900CD0FFE72C982C
:1009900000684FF60071CAF6FF710844B0FA80F0A3
:1009A00040090A90FFE70A98C10740F20070C5F2BB
:1009B000000000291CBF40F20030C5F2000040F2E8
:1009C0000031C5F20001884210D1FFE74FF0A0408E
:1009D00005F0DCFC089040F20010C5F2000005F0C4
:1009E000D5FC01460898084309901BE040F20040FE
:1009F000C5F2000005F0CAFC069040F20050C5F2B6
:100A0000000005F0C3FC014606980843079040F239
:100A10000060C5F2000005F0B9FC014607980843E4
:100A20000990FFE7099868B9FFE72998806840F6C0
:100A30001F7188432B9A11689268114308432999C2
:100A40008860FFE762E02999886820F46040886048
:100A50002C9801680120B1F1A04F05900CD0FFE760
:100A60002C9800684FF60071CAF6FF710844B0FA7E
:100A700080F040090590FFE70598C10740F200703B
:100A8000C5F2000000291CBF40F20030C5F2000092
:100A900040F20031C5F20001884210D1FFE74FF06B
:100AA000A04005F073FC039040F20010C5F2000076
:100AB00005F06CFC01460398084304901BE040F2EB
:100AC0000040C5F2000005F061FC019040F20050CA
:100AD000C5F2000005F05AFC014601980843029057
:100AE00040F20060C5F2000005F050FC014602989B
:100AF00008430490FFE7049838B9FFE7299988680C
:100B000040F61F7290438860FFE7FFE708E02C99EA
:100B1000C86D40F02000C86501208DF8AB00FFE7EC
:100B2000FFE72C99002081F85800FFE79DF8AB0003
:100B30008DF8B700FFE79DF8B7002EB080BD00002C
:100B400080B5C4B02490239100208DF88B001F90B5
:100B50002398C0680021C4F27F01884201D0FFE7DA
:100B600000E0FFE7FFE7249890F85800012805D13E
:100B7000FFE702208DF8970000F059BC249901206E
:100B800081F85800FFE7FFE72498006805F00EFCA5
:100B9000002840F03884FFE72498006823990A6809
:100BA000496805F013FC2498006805F0FFFB1E90CF
:100BB0002498006805F0D2FB1D901E98002840F094
:100BC000B881FFE71D98002840F0B381FFE7239824
:100BD0008068B0F1004F0ED1FFE724980068239998
:100BE0000968002205F010FC249800684FF00041CD
:100BF00005F0B6FC0CE024980068239A116892680E
:100C000005F002FC24980068002105F0A9FCFFE72C
:100C10002398406924990968C96801F01801890876
:100C2000884021902398006904281CD0FFE724986D
:100C3000006823990A680969219B05F037FC24980C
:100C40000068239A1169926905F062FC2498006893
:100C5000239A1169127F013AB2FA82F252095206BE
:100C600005F042FC64E124980068002105F066FB71
:100C7000400348B9FFE724980068002105F05EFBB7
:100C8000C0F384601C9018E024980068002105F0EF
:100C900055FB90FAA0F04290429820B9FFE720203F
:100CA0008DF80F0105E04298B0FA80F08DF80F0141
:100CB000FFE79DF80F011C90FFE71C981B902398FD
:100CC0000068400330B9FFE723980068C0F38460F0
:100CD0001A9015E02398006890FAA0F04090409890
:100CE00020B9FFE720208DF8070105E04098B0FA11
:100CF00080F08DF80701FFE79DF807011A90FFE7E4
:100D00001B981A99884207D1FFE7249800680022AF
:100D1000114605F011FCFFE724980068012105F059
:100D20000DFB400348B9FFE724980068012105F056
:100D300005FBC0F38460199018E024980068012135
:100D400005F0FCFA90FAA0F03E903E9820B9FFE73B
:100D500020208DF8FF0005E03E98B0FA80F08DF875
:100D6000FF00FFE79DF8FF001990FFE71998189022
:100D700023980068400330B9FFE723980068C0F368
:100D80008460179015E02398006890FAA0F03C90DA
:100D90003C9820B9FFE720208DF8F70005E03C984B
:100DA000B0FA80F08DF8F700FFE79DF8F700179094
:100DB000FFE718981799884207D1FFE72498006841
:100DC0000121002205F0B8FBFFE72498006802210A
:100DD00005F0B4FA400348B9FFE7249800680221FF
:100DE00005F0ACFAC0F38460169018E0249800680F
:100DF000022105F0A3FA90FAA0F03A903A9820B9AF
:100E0000FFE720208DF8EF0005E03A98B0FA80F077
:100E10008DF8EF00FFE79DF8EF001690FFE71698BA
:100E2000159023980068400330B9FFE723980068C5
:100E3000C0F38460149015E02398006890FAA0F045
:100E40003890389820B9FFE720208DF8E70005E0BA
:100E50003898B0FA80F08DF8E700FFE79DF8E700DA
:100E60001490FFE715981499884207D1FFE724985A
:100E700000680221002205F05FFBFFE7249800686C
:100E8000032105F05BFA400348B9FFE724980068A6
:100E9000032105F053FAC0F38460139018E02498FE
:100EA0000068032105F04AFA90FAA0F036903698CF
:100EB00020B9FFE720208DF8DF0005E03698B0FA72
:100EC00080F08DF8DF00FFE79DF8DF001390FFE76B
:100ED0001398129023980068400330B9FFE72398D5
:100EE0000068C0F38460119015E02398006890FAC0
:100EF000A0F03490349820B9FFE720208DF8D70077
:100F000005E03498B0FA80F08DF8D700FFE79DF83F
:100F1000D7001190FFE712981199884207D1FFE797
:100F2000249800680321002205F006FBFFE7FFE795
:100F3000FFE72498006805F021FA002840F044817A
:100F4000FFE724980068239A1168D26805F078FAC0
:100F50002398C0680021C4F27F01884240F03381A9
:100F6000FFE724980068109023980068400330B988
:100F7000FFE723980068C0F384600F9015E0239882
:100F8000006890FAA0F03290329820B9FFE7202054
:100F90008DF8CF0005E03298B0FA80F08DF8CF00E0
:100FA000FFE79DF8CF000F90FFE70F98013000F0AA
:100FB0001F0009287DD8FFE723980068400330B957
:100FC000FFE723980068C0F384600E9015E0239833
:100FD000006890FAA0F03090309820B9FFE7202008
:100FE0008DF8C70005E03098B0FA80F08DF8C700A2
:100FF000FFE79DF8C7000E90FFE70E98013000F064
:101000001F0080060D9023980068400330B9FFE769
:1010100023980068C0F384600C9015E02398006862
:1010200090FAA0F02E902E9820B9FFE720208DF89E
:10103000BF0005E02E98B0FA80F08DF8BF00FFE702
:101040009DF8BF000C90FFE70D980C99013101F05D
:101050001F020121914008430B9023980068400330
:1010600030B9FFE723980068C0F384600A9015E068
:101070002398006890FAA0F02C902C9820B9FFE7F4
:1010800020208DF8B70005E02C98B0FA80F08DF89C
:10109000B700FFE79DF8B7000A90FFE70B980A99A1
:1010A000013101F01F0101EB410140EA01500990BB
:1010B00082E023980068400330B9FFE72398006876
:1010C000C0F38460089015E02398006890FAA0F0BF
:1010D0002A902A9820B9FFE720208DF8AF0005E07C
:1010E0002A98B0FA80F08DF8AF00FFE79DF8AF00C6
:1010F0000890FFE70898013000F01F008006079075
:1011000023980068400330B9FFE723980068C0F3D4
:101110008460069015E02398006890FAA0F028906B
:10112000289820B9FFE720208DF8A70005E028982F
:10113000B0FA80F08DF8A700FFE79DF8A7000690B1
:10114000FFE707980699013101F01F020121914044
:101150000843059023980068400330B9FFE72398BF
:101160000068C0F38460049015E02398006890FA4A
:10117000A0F02690269820B9FFE720208DF89F0048
:1011800005E02698B0FA80F08DF89F00FFE79DF803
:101190009F000490FFE705990498013000F01F00BC
:1011A00000EB40020020CFF6206000EB0250084325
:1011B00040F000700990FFE710980999239A92680F
:1011C00005F022F9FFE7FFE72398408848F208017D
:1011D000084200F01781FFE7249801680120B1F16F
:1011E000A04F03900CD0FFE7249800684FF60071E1
:1011F000CAF6FF710844B0FA80F040090390FFE797
:101200000398C10740F20070C5F2000000291CBF1E
:1012100040F20030C5F2000005F088F820902398D5
:10122000006840F20001CCF22131884208D0FFE78B
:10123000239800681021C9F2C00188425AD1FFE703
:101240009DF882000006002854D4FFE72498006827
:10125000B0F1A04F09D0FFE72498006840F2006188
:10126000C5F20001884244D1FFE7249801680120BB
:10127000B1F1A04F02900CD0FFE7249800684FF620
:101280000071CAF6FF710844B0FA80F0400902907C
:10129000FFE70298C10740F20070C5F20000002984
:1012A0001CBF40F20030C5F20000209941F400015B
:1012B00005F0EEF840F20000C2F2000000684FEACC
:1012C000901042F66351C0F23E51A0FB01104FEA6C
:1012D000901000EB40014FF00C0000EB81001F90DC
:1012E000FFE71F9820B1FFE71F9801381F90F8E72C
:1012F000FFE786E0239800680021CCF25271884213
:101300003ED1FFE79DF88300C007C8BBFFE72498E4
:10131000006840F20011C5F20001884209D1FFE7E0
:101320002498006840F20051C5F20001884226D09E
:10133000FFE7249801680120B1F1A04F01900CD083
:10134000FFE7249800684FF60071CAF6FF71084461
:10135000B0FA80F040090190FFE70198C10740F220
:101360000070C5F2000000291CBF40F20030C5F239
:101370000000209941F0807105F08AF8FFE73FE016
:10138000239800680021CCF68431884236D1FFE7EB
:101390009DF882004006002830D4FFE724980068BA
:1013A00040F20011C5F20001884226D0FFE72498E0
:1013B00001680120B1F1A04F00900CD0FFE7249804
:1013C00000684FF60071CAF6FF710844B0FA80F069
:1013D00040090090FFE70098C10740F20070C5F295
:1013E000000000291CBF40F20030C5F20000209927
:1013F00041F4800105F04CF8FFE700E0FFE7FFE76C
:10140000FFE7FFE708E02499C86D40F02000C865B9
:1014100001208DF88B00FFE7FFE72499002081F879
:101420005800FFE79DF88B008DF89700FFE79DF8C7
:10143000970044B080BD000080B58EB00C900020B5
:101440008DF82F0007900C9820B9FFE701208DF848
:101450003700DCE10C98406940B1FFE70C9890F848
:101460002400012801D1FFE7FFE7FFE70C98C06DDA
:1014700050B9FFE70C9800F0CFF90C9900200866EE
:101480000C9981F85800FFE70C98006804F06EFF93
:1014900028B1FFE70C98006804F02CFFFFE70C98D8
:1014A000006804F07BFFF0B9FFE70C98006804F0D7
:1014B0002DFF40F20000C2F200000068800942F6F1
:1014C0006351C0F23E51A0FB01108109022000EBE4
:1014D00041000790FFE7079820B1FFE70798013820
:1014E0000790F8E7FFE70C98006804F057FF70B921
:1014F000FFE70C99C86D40F01000C8650C99086EA4
:1015000040F00100086601208DF82F00FFE70C98DD
:10151000006804F04BFF09900C98C06DC0060028CD
:1015200000F16781FFE70998002840F06281FFE73A
:101530000C98C06D40F0020020F480700C99C865D2
:101540000C98006804F01AFF00287CD1FFE70C9883
:1015500001680120B1F1A04F06900CD0FFE70C9874
:1015600000684FF60071CAF6FF710844B0FA80F0C7
:1015700040090690FFE70698C10740F20070C5F2E7
:10158000000000291CBF40F20030C5F2000040F20C
:101590000031C5F20001884210D1FFE74FF0A040B2
:1015A00004F0ECFE049040F20010C5F2000004F0DC
:1015B000E5FE01460498084305901BE040F2004018
:1015C000C5F2000004F0DAFE029040F20050C5F2CD
:1015D000000004F0D3FE014602980843039040F255
:1015E0000060C5F2000004F0C9FE014603980843FC
:1015F0000590FFE7059828BBFFE70C9801680120DC
:10160000B1F1A04F01900CD0FFE70C9800684FF6A5
:101610000071CAF6FF710844B0FA80F040090190E9
:10162000FFE70198C10740F20070C5F200000029F1
:101630001CBF40F20030C5F200000C99496804F06C
:1016400019FFFFE7FFE70C994A7FC86B40EA423079
:101650008A68CB681843104391F8241040EA01408F
:101660000A900C9890F8240001280BD1FFE70C9801
:10167000816A0020CFF6FE7000EB41410A980843D2
:101680000A90FFE70C98C06A50B1FFE70C99C86A4E
:10169000096B00F4787001430A9808430A90FFE749
:1016A0000C980068C06844F20701CFF6F07108405A
:1016B0000A9908430C990968C8600C980068006989
:1016C00020F040600C9A1168526B104308610C982E
:1016D000006804F043FE08900998002868D1FFE7ED
:1016E0000898002864D1FFE70C99087F91F838101A
:1016F000800340EA41000A900C980068C06844F2F8
:10170000020188430A9908430C990968C8600C983B
:101710000069A0B1FFE70C980168086940F48030C7
:1017200008610C980068D0F8C00043F6FF71884348
:101730000C9A116812691043C1F8C00011E00C98AE
:101740000168086920F4803008610C980068D0F8BE
:10175000C00043F6FF7188430C990968C1F8C000C6
:10176000FFE70C9890F84000012819D1FFE70C988A
:101770000068006940F2FD7120EA01020C9B1968C3
:10178000586CD3F848E0D3F84CC040EA0E0040EA69
:101790000C001B6D1843104340F00100086106E087
:1017A0000C980168086920F001000861FFE7FFE775
:1017B0000C98406901280CD1FFE70C980068006B79
:1017C00020F00F000C9A1168126A013A1043086366
:1017D00006E00C980168086B20F00F000863FFE733
:1017E0000C98C06D40F0010020F002000C99C86513
:1017F00008E00C99C86D40F01000C86501208DF814
:101800002F00FFE79DF82F008DF83700FFE79DF8C8
:1018100037000EB080BD000080B5A4B0239000203A
:101820002290219020901F901E9009A85421FEF72D
:1018300016FE2398006840F20041C5F2000188427C
:1018400070D1FFE74FF4803009904FF000401B90BB
:1018500009A801F0C7FD18B1FFE7FEF703FFFFE796
:1018600040F29800C2F20000016801310160006896
:10187000012810D1FFE7FFE741F24C00C4F202005B
:10188000016841F480410160006800F480400890E4
:101890000898FFE7FFE7FFE741F24C00C4F20200BF
:1018A000016841F002010160006800F00200079049
:1018B0000798FFE702201E9003201F90002003904E
:1018C000209040F20040C4F600001EA900F0FEFE89
:1018D000039940F2B810C2F2000004900822C4F24A
:1018E00002020260252242608160C16080220261A2
:1018F0004FF4807242614FF480628261C161016283
:1019000000F03AF918B1FFE7FEF7ACFEFFE7FFE79A
:10191000239840F2B811C2F2000141652398886211
:10192000FFE77AE02398006840F20051C5F2000119
:10193000884271D1FFE74FF4803009904FF00040AA
:101940001B9009A801F04EFD18B1FFE7FEF78AFED3
:10195000FFE740F29800C2F2000001680131016027
:101960000068012810D1FFE7FFE741F24C00C4F204
:101970000200016841F480410160006800F4804089
:1019800006900698FFE7FFE7FFE741F24C00C4F23C
:101990000200016841F010010160006800F01000D1
:1019A00005900598FFE74FF4807000901E9003208B
:1019B0001F9000200190209041F20000C4F600002A
:1019C0001EA900F083FE009A019940F21820C2F28D
:1019D000000002901C23C4F202030360262343602C
:1019E0008160C1608023036142614FF48062826143
:1019F000C161016200F0C0F818B1FFE7FEF732FEE6
:101A0000FFE7FFE7239840F21821C2F20001416589
:101A100023988862FFE7FFE7FFE724B080BD00005E
:101A200080B584B003900398006C0068029003981E
:101A300000680068019002980399496C01F01F0149
:101A4000C8404007002825D5FFE79DF8040040075F
:101A500000281FD5FFE7039800680068800600286B
:101A600007D4FFE703980168086820F004000860C5
:101A7000FFE70398016C406C00F01F0204209040C7
:101A800048600398006B20B1FFE70398016B88471B
:101A9000FFE76EE002980399496C01F01F01C8400E
:101AA000800700282FD5FFE79DF804008007002855
:101AB00029D5FFE7039800680068800600280BD44A
:101AC000FFE703980168086820F00A00086003999E
:101AD000012081F82500FFE70398016C406C00F0BD
:101AE0001F02022090404860FFE70399002081F820
:101AF0002400FFE70398C06A20B1FFE70398C16A9A
:101B00008847FFE734E002980399496C01F01F0110
:101B1000C8400007002829D5FFE79DF8040000070A
:101B2000002823D5FFE703980168086820F00E001D
:101B300008600398026C406C00F01F01012000FA5D
:101B400001F151600399C863039981F82500FFE70B
:101B50000399002081F82400FFE70398406B20B12F
:101B6000FFE70398416B8847FFE700E0FFE7FFE7E7
:101B7000FFE704B080BD000080B584B002900298F9
:101B800020B9FFE701208DF80F009CE00298006863
:101B900040F20741C4F20201884218D8FFE70299D7
:101BA00008684FF6F872CBF6FD7210444CF6CD4241
:101BB000CCF6CC42A0FB02026FF0030000EA9200D8
:101BC000486402990020C4F20200086418E00299F7
:101BD00008684FF6F832CBF6FD7210444CF6CD4251
:101BE000CCF6CC42A0FB02026FF0030000EA9200A8
:101BF0004864029940F20040C4F202000864FFE722
:101C00000299022081F8250002980068006801907E
:101C1000019847F6F0718843019002998868D1F8DD
:101C20000CC00B694A6940EA0C00184310438A69EA
:101C30001043CA691043096A01430198084301909F
:101C400001980299096808600298FEF7B1FC0298B1
:101C50008068B0F5804F04D1FFE70299002048600A
:101C6000FFE702990879896C08600298C16C006DE1
:101C700048600298406888B1FFE7029840680428ED
:101C80000CD8FFE70298FEF7CDFC0298416D0020CA
:101C900008600298816DC06D486007E002990020DD
:101CA0004865029988650299C865FFE70299002096
:101CB000C863029A012182F82510029981F8240054
:101CC0008DF80F00FFE79DF80F0004B080BD000005
:101CD00081B0009001B0704782B00190009102B0D5
:101CE0007047000083B0029001910198402808D10C
:101CF000FFE702980068D0F8900000F00F00009015
:101D000007E002980068D0F8980000F00F000090FB
:101D1000FFE7009803B070478AB0089007910692D9
:101D2000059300200190089890F85C008DF803005E
:101D30009DF80300022840F0FA80FFE7079840284A
:101D40003ED1FFE708980068D0F89000000748B936
:101D5000FFE70899086E40F48070086601208DF84E
:101D60002700EDE008980068D0F8900000F080713E
:101D70000120B0EB116F0FD1FFE708980068D0F891
:101D8000800000F400710120B0EB512F03D1FFE778
:101D900001200190FFE7FFE708980068D0F8900065
:101DA00000F44071019800EB112001900898806CBC
:101DB000019901EBC10100EBC1000490FFE73DE098
:101DC00008980068D0F89800000748B9FFE708991C
:101DD000086E40F48070086601208DF82700AFE09F
:101DE00008980068D0F8980000F080710120B0EBEE
:101DF000116F0FD1FFE708980068D0F8800000F459
:101E000080710120B0EB112F03D1FFE70120019079
:101E1000FFE7FFE708980068D0F8980000F44071E9
:101E2000019800EB112001900898C06C019901EB1A
:101E3000C10100EBC1000490FFE7FFE704980068D0
:101E400000F08040069948600698406838B9FFE77E
:101E500004980068C0F38A400699086006E0049878
:101E6000006820F0604006990860FFE70498006869
:101E700000F00050069988600498006800F0004067
:101E80000699086104980430049004980088069923
:101E9000C86104980068C0F303400699C8600498BC
:101EA000006800F48010069948610498006800F406
:101EB00000100699886104980068C0F306600699CE
:101EC000086204980068C00F0699486204980430BC
:101ED00004900498039000200290FFE7029806996E
:101EE000CA6849F21821C0F60001895C88420AD20A
:101EF000FFE70398029A805C05998854FFE70298EF
:101F000001300290EAE70798402806D1FFE70198E0
:101F100008990968C1F8940005E0019808990968D2
:101F2000C1F89C00FFE700208DF8270008E0089921
:101F3000086E40F00800086601208DF82700FFE7D2
:101F40009DF827000AB0704781B0009001B070473B
:101F500080B58AB0099009980068006D00F4E050DF
:101F6000089009980068416D089808400890099801
:101F70000068006D00F00700079009980068416D47
:101F800007980840079009980068006D00F0380035
:101F9000069009980068416D0698084006900998D7
:101FA0000068006D00F47100059009980068416DAB
:101FB00005980840059009980068006D00F46020BD
:101FC000049009980068416D0498084004900998AD
:101FD0000068406D019009980068006D00909DF8C0
:101FE000000000F040010020B0EB911F12D0FFE78D
:101FF0009DF8040000F040010020B0EB911F08D0D4
:10200000FFE709980168402008650998FFF79CFFE1
:10201000FFE7FFE79DF80100C007E0B1FFE79DF88B
:102020000500C007B0B1FFE709980068D0F8D800F4
:10203000029009980068D0F8E010029808400290D9
:10204000099801684FF4807008650998029900F0BA
:1020500027FBFFE7FFE7089848B1FFE708980999D1
:10206000096808650998089900F026FBFFE70798BA
:1020700048B1FFE707980999096808650998079921
:1020800000F0F2FAFFE7069848B1FFE706980999D1
:10209000096808650998069900F0F0FAFFE79DF8CD
:1020A000010000F002010020B0EB510F13D0FFE758
:1020B0009DF8050000F002010020B0EB510F09D09F
:1020C000FFE7099801684FF400700865099800F06F
:1020D000F9FAFFE7FFE79DF800100020B0EBD11FF1
:1020E0001DD0FFE79DF804100020B0EBD11F15D0E4
:1020F000FFE709980068D0F8D400039009980068B9
:10210000D0F8DC10039808400390099801688020FB
:1021100008650998039900F0C9FAFFE7FFE79DF801
:10212000010000F020010020B0EB511F13D0FFE7A9
:102130009DF8050000F020010020B0EB511F09D0F0
:10214000FFE7099801684FF400500865099800F00E
:10215000A3FAFFE7FFE79DF801100020B0EBD11FC5
:1021600011D0FFE79DF805100020B0EBD11F09D07A
:10217000FFE7099801684FF400400865099800F0EE
:1021800087FAFFE7FFE79DF8010000F0400100201B
:10219000B0EB911F15D0FFE79DF8050000F040015E
:1021A0000020B0EB911F0BD0FFE7099801684FF4B6
:1021B000804008650999086E40F080000866FFE7D6
:1021C000FFE7049848B1FFE7049809990968086592
:1021D00009980499FFF780FDFFE7059850B1FFE7E4
:1021E0000598099909680865059A0999086E1043C8
:1021F0000866FFE70998006E20B1FFE70998FFF72E
:1022000067FDFFE70AB080BD80B584B002900298F8
:1022100020B9FFE701208DF80F0057E10298006810
:1022200046F20041C4F20001884201D1FFE7FFE716
:1022300002988068B0F5407F01D1FFE7FFE7029880
:1022400090F85C0040B9FFE70299002081F85D003A
:10225000029800F03FF9FFE702980168886920F0D2
:102260001000886100F0FCFB0190FFE70298006815
:1022700080690007002815D5FFE700F0F1FB019900
:10228000401A0B280DD3FFE70299086E40F00100B9
:1022900008660299032081F85C0001208DF80F0088
:1022A00014E1E3E702980168886940F00100886161
:1022B00000F0D6FB0190FFE7029800688069C00734
:1022C000A8B9FFE700F0CCFB0199401A0B280DD309
:1022D000FFE70299086E40F00100086602990320AA
:1022E00081F85C0001208DF80F00EFE0E4E7029830
:1022F0000168886940F0020088610298006846F22F
:102300000041C4F20001884208D1FFE7029840680A
:1023100046F20051C4F200010860FFE70298007C19
:10232000012807D1FFE702980168886920F0400082
:10233000886106E002980168886940F04000886181
:10234000FFE70298407C012807D1FFE70298016867
:10235000886940F48040886106E0029801688869D5
:1023600020F480408861FFE70298807C012807D133
:10237000FFE702980168886920F48050886106E0D0
:1023800002980168886940F480508861FFE70298EC
:102390000068806920F44070029A116892681043C6
:1023A000886102980168886920F0A4008861029819
:1023B0000168086920F0100008610298C0680128CF
:1023C00007D1FFE702980168886940F0040088613E
:1023D0002BE00298C06830B3FFE70298C06802287B
:1023E00019D0FFE702980168886940F08000886191
:1023F00002980168086940F0100008610298C068FE
:10240000032807D1FFE702980168886940F020009F
:102410008861FFE706E002980168886940F02000C3
:102420008861FFE700E0FFE7FFE7029A1168536960
:102430009069D2F81CE0A0F1010C6FF0FF0000EBF6
:102440000E2040EA4C60126A013A10430022CFF697
:10245000FF7202EB03421043C86102988068B0F536
:10246000407F1CD1FFE7029A1168536A906AD2F844
:102470002CE001386FF0FF0C0CEB0E2C40EA0C0046
:10248000D2F830C06FF00F0202EB0C1210430022A2
:10249000CFF6FF7202EB03421043C860FFE70298D9
:1024A0000168C26BD1F8C0001043C1F8C0000298A7
:1024B000FEF760F902990020886502990866029A81
:1024C000012182F85C108DF80F00FFE79DF80F00E6
:1024D00004B080BD80B5A4B023900020229021904C
:1024E00020901F901E9009A85421FDF7B8FF239853
:1024F000006846F20041C4F20001884253D1FFE770
:102500004FF4805009904FF00070179009A800F028
:1025100069FF18B1FFE7FEF7A5F8FFE740F29C005E
:10252000C2F200000168013101600068012810D189
:10253000FFE7FFE741F25800C4F20200016841F0F2
:1025400000710160006800F0007008900898FFE7D3
:10255000FFE7FFE741F24C00C4F20200016841F0DE
:1025600008010160006800F0080007900798FFE785
:1025700003201E9002201F900020039020902190A5
:102580000920229040F60040C4F600001EA900F089
:102590009DF8039A15200490114600F007FD049859
:1025A00000F0FAFC5DE02398006846F60001C4F2F2
:1025B0000001884254D1FFE74FF4805009904FF05A
:1025C0000070179009A800F00DFF18B1FFE7FEF7A3
:1025D00049F8FFE740F29C00C2F2000001680131B7
:1025E00001600068012810D1FFE7FFE741F25800C1
:1025F000C4F20200016841F000710160006800F05F
:10260000007006900698FFE7FFE7FFE741F24C00F5
:10261000C4F20200016841F002010160006800F0AC
:10262000020005900598FFE74FF440501E900220ED
:102630001F9000200190209021900920229040F2CC
:102640000040C4F600001EA900F040F8019A57208F
:102650000290114600F0AAFC029800F09DFCFFE7F2
:10266000FFE724B080BD000080B582B001900091EA
:1026700001984021FEF70EF802B080BD80B582B00F
:102680000190009101984121FEF704F802B080BD4D
:1026900081B0009001B0704781B0009001B07047E8
:1026A00082B00190009102B07047000082B00190AA
:1026B000009102B07047000082B00190009102B01A
:1026C0007047000081B0009001B070478BB00A9055
:1026D000099100200890FFE7099800680899C84010
:1026E000002800F0A581FFE709980068089A0121F9
:1026F0009140084007900798002800F09581FFE777
:102700000998406800F00300012807D0FFE7099806
:10271000406800F0030002282FD1FFE70A98806884
:10272000069008984100032000FA01F106988843BA
:1027300006900998C0680899490000FA01F10698C6
:102740000843069006980A9988600A98406806909F
:102750000899012000FA01F106988843069009982B
:102760004068C0F30010089900FA01F10698084388
:10277000069006980A994860FFE70998406800F0BB
:102780000300032818D0FFE70A98C068069008984D
:102790004100032000FA01F1069888430690099849
:1027A00080680899490000FA01F1069808430690EC
:1027B00006980A99C860FFE70998406800F003008E
:1027C000022826D1FFE70A9808996FF0030202EA6F
:1027D00051010844006A0690089800F00700810043
:1027E0000F2000FA01F106988843069009980069C5
:1027F000089901F00701890000FA01F106980843E1
:10280000069006980A99089B02EA5302114408624E
:10281000FFE70A980068069008984100032000FA34
:1028200001F10698884306900998406800F003007B
:102830000899490000FA01F10698084306900698A5
:102840000A990860099880798007002800F0EB80D9
:10285000FFE7FFE741F26000C4F20200016841F0C7
:1028600001010160006800F0010005900598FFE794
:10287000089820F003000821C4F201014058069096
:10288000089800F0030081000F2000FA01F106987B
:10289000884306900A98B0F1904F03D1FFE70020DB
:1028A000049042E00A9840F20041C4F600018842D8
:1028B00003D1FFE70120039034E00A9840F60001BD
:1028C000C4F60001884203D1FFE70220029026E00F
:1028D0000A9840F60041C4F60001884203D1FFE7A0
:1028E0000320019018E00A9841F20001C4F60001AB
:1028F000884203D1FFE7042000900AE00A9941F2E0
:102900000042C4F600020620914208BF0520009054
:10291000FFE700980190FFE701980290FFE7029817
:102920000390FFE703980490FFE70498089901F0EB
:102930000301890000FA01F1069808430690069801
:10294000089921F003010822C4F20102885040F2E4
:102950000840C4F201000068069007990698884371
:10296000069009988079C006002805D5FFE70799E9
:10297000069808430690FFE7069840F20841C4F223
:102980000101086040F20C40C4F2010000680690AA
:102990000799069888430690099880798006002850
:1029A00005D5FFE70799069808430690FFE70698C4
:1029B00040F20C41C4F20101086040F20440C4F24C
:1029C00001000068069007990698884306900998C8
:1029D00080798007002805D5FFE707990698084306
:1029E0000690FFE7069840F20441C4F20101086036
:1029F00040F20040C4F20100006806900799069872
:102A00008843069009988079C00728B1FFE70799A5
:102A1000069808430690FFE7069840F20041C4F28A
:102A200001010860FFE7FFE708980130089053E6CE
:102A30000BB0704782B00190ADF802108DF8012004
:102A40009DF8010028B1FFE7BDF8020001998861F7
:102A500004E0BDF8020001998862FFE702B0704708
:102A600040F68C60C2F200000068704783B00190AD
:102A70000091019890F8410020283BD1FFE7FFE743
:102A8000019890F84000012804D1FFE702208DF85A
:102A90000B0033E00199012081F84000FFE7FFE7D8
:102AA0000199242081F8410001980168086820F00C
:102AB0000100086001980168086820F480500860EF
:102AC000009A01980168086810430860019801683D
:102AD000086840F0010008600199202081F8410059
:102AE000FFE70199002081F84000FFE700208DF802
:102AF0000B0003E002208DF80B00FFE79DF80B00B0
:102B000003B0704784B002900191029890F84100A0
:102B1000202840D1FFE7FFE7029890F84000012805
:102B200004D1FFE702208DF80F0038E00299012060
:102B300081F84000FFE7FFE70299242081F8410077
:102B400002980168086820F0010008600298006897
:102B500000680090009820F470600090019900983F
:102B600040EA0120009000980299096808600298E4
:102B70000168086840F0010008600299202081F88F
:102B80004100FFE70299002081F84000FFE70020A4
:102B90008DF80F0003E002208DF80F00FFE79DF88D
:102BA0000F0004B07047000080B582B0009000981C
:102BB00020B9FFE701208DF807007BE0009890F82E
:102BC000410040B9FFE70099002081F840000098DB
:102BD00000F074F8FFE70099242081F84100009884
:102BE0000168086820F001000860009801684068EA
:102BF00020F07060086100980168886820F4004047
:102C000088600098C068012807D1FFE70098016834
:102C1000806840F40040886006E0009801688068A1
:102C200040F404408860FFE70098C068022807D19C
:102C3000FFE700980168486840F40060486006E0DB
:102C400000980168486820F400604860FFE7009839
:102C50000168486848F20002C0F200221043486050
:102C600000980168C86820F40040C860009A1168A4
:102C7000106953699269184340EA0220C860009ABB
:102C80001168D069126A10430860009801680868EA
:102C900040F001000860009900204864009A20215B
:102CA00082F8411000990863009981F842008DF87C
:102CB0000700FFE79DF8070002B080BD80B5A2B015
:102CC0002190002020901F901E901D901C9007A81E
:102CD0005421FDF7C4FB2198006845F60001C4F2B9
:102CE000000188423AD1FFE78020079000200F9032
:102CF00007A800F077FB18B1FFE7FDF7B3FCFFE78B
:102D0000FFE741F24C00C4F20200016841F001010A
:102D10000160006800F0010006900698FFE74FF49C
:102D200040701C9012201D9000201E901F900420C7
:102D300020904FF090401CA9FFF7C8FCFFE741F23C
:102D40005800C4F20200016841F48001016000688B
:102D500000F4800005900598FFE78CE0219800685A
:102D600047F60001C4F2000188423DD1FFE74FF46D
:102D7000807007900020109007A800F033FB18B176
:102D8000FFE7FDF76FFCFFE7FFE741F24C00C4F2FD
:102D90000200016841F004010160006800F00400D5
:102DA00004900498FFE74FF440701C9012201D908F
:102DB00000201E901F900820209040F60000C4F6CE
:102DC00000001CA9FFF782FCFFE741F25800C4F2A3
:102DD0000200016841F080410160006800F080401D
:102DE00003900398FFE745E02198006848F200410E
:102DF000C4F2000188423CD1FFE74FF40030079055
:102E00000020119007A800F0EDFA18B1FFE7FDF7D8
:102E100029FCFFE7FFE741F24C00C4F20200016821
:102E200041F004010160006800F004000290029883
:102E3000FFE7C0201C9012201D9000201E901F90C4
:102E40000820209040F60000C4F600001CA9FFF7FF
:102E50003DFCFFE741F25C00C4F20200016841F072
:102E600002010160006800F0020001900198FFE794
:102E7000FFE7FFE7FFE722B080BD000040F204005B
:102E8000C2F20000026840F68C61C2F200010868DC
:102E9000104408607047000080B582B000208DF8B3
:102EA0000700032000F09AF80F2000F00DF820B181
:102EB000FFE701208DF8070002E000F049F8FFE786
:102EC0009DF8070002B080BD80B582B0019000205F
:102ED0008DF8030040F20400C2F20000006878B3ED
:102EE000FFE740F20000C2F20000006840F2040177
:102EF000C2F200010A684FF47A71B1FBF2F1B0FB43
:102F0000F1F001F0D9FCB0B9FFE701980F280DD816
:102F1000FFE701994FF0FF30002200F047F80198D9
:102F200040F20801C2F20001086003E001208DF8C0
:102F30000300FFE703E001208DF80300FFE703E053
:102F400001208DF80300FFE79DF8030002B080BD6B
:102F500080B582B0FFE741F26000C4F20200016870
:102F600041F001010160006800F00100019001984A
:102F7000FFE7FFE741F25800C4F20200016841F0A8
:102F800080510160006800F0805000900098FFE7D9
:102F900000F01EFA02B080BD80B582B08DF8070047
:102FA0009DF9070006F054F802B080BD80B586B0E8
:102FB0008DF817000491039206F062F802909DF9D3
:102FC0001700019002980499039A04F02BFC014623
:102FD000019806F05DF806B080BD000080B582B0B3
:102FE0000190019806F076F802B080BD82B00190A1
:102FF00001980068009001990120C1F8D002019960
:10300000002081F8C802009AB2F8541041F0010182
:10301000A2F85410009AB2F8541041F00201A2F83C
:10302000541002B07047000080B584B0029002983E
:1030300020B9FFE701208DF80F00BBE0029890F85F
:10304000910240B9FFE70299002081F890020298AE
:1030500000F0B4F8FFE70299032081F8910202988A
:10306000006805F0E3FF00208DF80700FFE79DF8FA
:10307000070002990979884239DAFFE702989DF83A
:10308000071001EB810100EBC101012048749DF89C
:103090000700029900EB800201EBC201087402985C
:1030A0009DF8071001EB810100EBC1010020C874FD
:1030B00002999DF8072002EB820201EBC20108622F
:1030C00002999DF8072002EB820201EBC2014862DF
:1030D00002999DF8072002EB820201EBC20188628F
:1030E000FFE79DF8070001308DF80700BFE70020DB
:1030F0008DF80700FFE79DF80700029909798842DB
:103100003EDAFFE702989DF8071001EB810100EB22
:10311000C101002081F851019DF80710029A01EBCE
:10312000810302EBC30282F8501102999DF8072037
:1031300002EB820201EBC20181F8530102999DF872
:10314000072002EB820201EBC201C1F86001029983
:103150009DF8072002EB820201EBC201C1F8640175
:1031600002999DF8072002EB820201EBC201C1F82F
:103170006801FFE79DF8070001308DF80700BAE706
:10318000029A10685168926805F03CFF029900208D
:1031900008730299012081F891020298807A01282F
:1031A00004D1FFE70298FFF721FFFFE700208DF829
:1031B0000F00FFE79DF80F0004B080BD80B598B008
:1031C000179002A85421FDF74AF91798006845F6B0
:1031D0000041C4F2000188421DD1FFE74FF40050C6
:1031E00002900020119002A800F0FCF818B1FFE74F
:1031F000FDF738FAFFE7FFE741F25800C4F202009A
:10320000016841F400010160006800F400000190D1
:103210000198FFE7FFE718B080BD000085B003907C
:10322000039800285ED1FFE747F20000C4F20000D7
:10323000006800F4C060B0F5806F49D1FFE747F245
:103240008001C4F20001086820F48070086047F231
:103250000002C4F200021168012060F34A211160EB
:1032600040F20001C2F200010968322251434DF6DA
:103270008362C4F21B32A1FB022100EB9140029059
:10328000FFE747F21400C4F200000168002049057E
:103290000029019006D5FFE70298002818BF0120F9
:1032A0000190FFE70198C00720B1FFE702980138BD
:1032B0000290E6E747F21400C4F2000000684005FF
:1032C000002804D5FFE703208DF813007CE008E018
:1032D00047F28001C4F20001086820F480700860A1
:1032E000FFE76DE00398B0F5007F5ED1FFE747F29E
:1032F0000000C4F20000006800F4C060B0F5806F08
:1033000049D1FFE747F28001C4F20001086840F4A8
:103310008070086047F20002C4F2000211680120C8
:1033200060F34A21116040F20001C2F20001096815
:10333000322251434DF68362C4F21B32A1FB0221BB
:1033400000EB91400290FFE747F21400C4F2000046
:103350000168002049050029009006D5FFE7029882
:10336000002818BF01200090FFE70098C00720B197
:10337000FFE7029801380290E6E747F21400C4F232
:10338000000000684005002804D5FFE703208DF801
:10339000130019E008E047F28001C4F20001086858
:1033A00040F480700860FFE709E047F20001C4F2D2
:1033B00000010868022262F34A200860FFE7FFE785
:1033C00000208DF81300FFE79DF8130005B070474B
:1033D00047F20801C4F20001086840F48040086028
:1033E0007047000080B586B0059000208DF80B0076
:1033F0008DF80A00059880780007002840F1B58014
:10340000FFE700208DF8090041F25800C4F20200E5
:103410000068C000002813D4FFE7FFE741F258001E
:10342000C4F20200016841F080510160006800F0C0
:10343000805001900198FFE701208DF80900FFE717
:1034400047F20001C4F20001086840F4807008608F
:10345000FFF706FB0390FFE747F20000C4F200000D
:103460000068C00500280CD4FFE7FFF7F9FA0399BC
:10347000401A032804D3FFE703208DF80B0000E077
:10348000EAE79DF80B0000285BD1FFE741F29000CE
:10349000C4F20200006800F4407004900498C8B1BF
:1034A000FFE704980599096D884213D0FFE741F2C0
:1034B0009001C4F20201086820F44070049008688A
:1034C00040F480300860086820F480300860049878
:1034D0000860FFE79DF81000C007E0B1FFE7FFF7C5
:1034E000BFFA0390FFE741F29000C4F202000068C7
:1034F000800700280ED4FFE7FFF7B2FA0399401ABD
:1035000041F28931884204D3FFE703208DF80B0094
:1035100000E0E8E7FFE79DF80B0060B9FFE741F244
:103520009001C4F20201086820F44070059A126DFF
:103530001043086004E09DF80B008DF80A00FFE7D7
:1035400004E09DF80B008DF80A00FFE79DF80900E4
:10355000012809D1FFE741F25801C4F202010868CD
:1035600020F080500860FFE7FFE705980078C0076B
:1035700060B1FFE741F28801C4F20201086820F05F
:103580000300059A526810430860FFE70598007829
:10359000800700280CD5FFE741F28801C4F2020140
:1035A000086820F00C00059A926810430860FFE755
:1035B00005980078400700280CD5FFE741F2880104
:1035C000C4F20201086820F03000059AD268104366
:1035D0000860FFE705980078000700280CD5FFE792
:1035E00041F28801C4F20201086820F0C000059A87
:1035F000126910430860FFE705980078C0060028AC
:103600000CD5FFE741F28801C4F20201086820F4FA
:103610004070059A526910430860FFE705980078EA
:10362000800600280CD5FFE741F28801C4F20201B0
:10363000086820F44060059A926910430860FFE72B
:1036400005980078400600280CD5FFE741F2880174
:10365000C4F20201086820F44050059AD269104370
:103660000860FFE705980078000600280CD5FFE702
:1036700041F28801C4F20201086820F44040059A32
:10368000126A10430860FFE705984078C00760B1F0
:10369000FFE741F28801C4F20201086820F44030DB
:1036A000059A526A10430860FFE705988078800702
:1036B00000280CD5FFE741F29C01C4F20201086822
:1036C00020F00300059A926A10430860FFE705980E
:1036D0004078800700280CD5FFE741F28801C4F24A
:1036E0000201086820F44020059AD26A104308605D
:1036F000FFE705984078400700281BD5FFE741F217
:103700008801C4F20201086820F44010059A126B87
:10371000104308600598006BB0F5801F09D1FFE7E2
:1037200041F20C01C4F20201086840F48010086004
:10373000FFE7FFE705984078000700281BD5FFE763
:1037400041F28801C4F20201086820F44000059AA1
:10375000526B104308600598406BB0F5800F09D19B
:10376000FFE741F20C01C4F20201086840F4801046
:103770000860FFE7FFE705984078C00600281BD5E2
:10378000FFE741F28801C4F20201086820F04070AE
:10379000059A926B104308600598806BB0F1807FAA
:1037A00009D1FFE741F20C01C4F20201086840F4BC
:1037B00080100860FFE7FFE7059840788006002842
:1037C0001BD5FFE741F28801C4F20201086820F02E
:1037D0004060059AD26B104308600598C06BB0F149
:1037E000006F09D1FFE741F20C01C4F20201086841
:1037F00040F480100860FFE7FFE705984078400636
:1038000000281BD5FFE741F28801C4F202010868D5
:1038100020F04060059A126C104308600598006C17
:10382000B0F1006F09D1FFE741F20C01C4F20201CF
:10383000086840F480100860FFE7FFE705984078CB
:10384000000600281BD5FFE741F28801C4F20201FF
:10385000086820F04050059A526C104308600598A3
:10386000406CB0F1805F09D1FFE741F20C01C4F276
:103870000201086840F480300860FFE7FFE7059820
:103880008078C007D8B1FFE741F28801C4F2020195
:10389000086820F04040059A926C10430860059833
:1038A000806CB0F1804F09D1FFE741F20C01C4F206
:1038B0000201086840F480300860FFE7FFE70598E0
:1038C0008078400700281BD5FFE741F29C01C4F235
:1038D0000201086820F44010059AD26C1043086079
:1038E0000598C06CB0F5001F09D1FFE741F20C014B
:1038F000C4F20201086840F480100860FFE7FFE7A7
:103900009DF80A0006B080BD80B586B00490039192
:1039100000200090049820B9FFE701208DF81700DF
:1039200081E1039842F20001C4F20201096801F04A
:103930000F01884216D9FFE742F20000C4F20200EC
:10394000016821F00F01039A11430160006800F043
:103950000F000399884204D0FFE701208DF817007B
:1039600061E1FFE704980078C007002800F0A38019
:10397000FFE704984068032839D1FFE741F20000CF
:10398000C4F2020000688001002804D4FFE701208F
:103990008DF8170047E103F07DFF019001984BF28D
:1039A0000141C0F2C441884220D3FFE741F2080040
:1039B000C4F20200006810F0F00F0AD0FFE704988C
:1039C00000788007002810D5FFE70498806860B968
:1039D000FFE741F20801C4F202010868082262F31D
:1039E0000710086080200090FFE7FFE738E00498A8
:1039F000406802280ED1FFE741F20000C4F2020045
:103A000000688003002804D4FFE701208DF8170028
:103A100009E10DE041F20000C4F202000068400537
:103A2000002804D4FFE701208DF81700FBE0FFE732
:103A300000F02CF9019001984BF20141C0F2C44111
:103A400088420CD3FFE741F20801C4F20201086882
:103A5000082262F30710086080200090FFE7FFE76C
:103A600041F20801C4F20201086820F00300049A40
:103A7000526810430860FEF7F3FF0290FFE741F23F
:103A80000800C4F20200006800F00C0004994968C4
:103A9000B0EB810F0ED0FFE7FEF7E2FF0299401A6C
:103AA00041F28931884204D3FFE703208DF81700E3
:103AB000B9E0E4E7FFE704980078800700282CD5F8
:103AC000FFE7049800784007002809D5FFE741F296
:103AD0000801C4F20201086840F4E0600860FFE7F2
:103AE00004980078000700280BD5FFE741F2080191
:103AF000C4F20201086840F4E06020F460500860FD
:103B0000FFE741F20801C4F20201086820F0F0006A
:103B1000049A9268104308600DE00098802809D14B
:103B2000FFE741F20801C4F20201086820F0F0004A
:103B30000860FFE7FFE7039842F20001C4F20201C8
:103B4000096801F00F01884228D2FFE742F2000124
:103B5000C4F20201086820F00F00039A10430860C5
:103B6000FEF77EFF0290FFE742F20000C4F202007F
:103B7000006800F00F00039988420ED0FFE7FEF7BF
:103B80006FFF0299401A41F28931884204D3FFE75E
:103B900003208DF8170046E0E6E7FFE70498007879
:103BA000400700280CD5FFE741F20801C4F20201EA
:103BB000086820F4E060049AD26810430860FFE7C8
:103BC00004980078000700280DD5FFE741F20801AE
:103BD000C4F20201086820F46050049A126940EAB5
:103BE000C2000860FFE700F051F841F20801C4F29A
:103BF00002010968C9B20A0949F20021C0F60001B0
:103C0000895C01F01F01C84040F20001C2F20001CE
:103C1000086040F20800C2F200000068FFF754F9A3
:103C20008DF81700FFE79DF8170006B080BD000073
:103C300040F20000C2F200000068704780B5FFF754
:103C4000F7FF41F20801C4F202010968C1F3022240
:103C500049F21021C0F60001895C01F01F01C84043
:103C600080BD000080B5FFF7E3FF41F20801C4F218
:103C700002010968C1F3C22249F21021C0F6000115
:103C8000895C01F01F01C84080BD000086B041F290
:103C90000800C4F20200006800F00C00042806D1FD
:103CA000FFE742F20040C0F2F400019069E041F207
:103CB0000800C4F20200006800F00C00082806D1D9
:103CC000FFE743F20060C0F26E10019058E041F24D
:103CD0000800C4F20200006800F00C000C284BD170
:103CE000FFE741F20C00C4F20200016801F0030199
:103CF00004910068C1B2012000EB111002900498F9
:103D00000090022815D0FFE70098032812D1FFE7A2
:103D1000029943F20060C0F26E10B0FBF1F041F284
:103D20000C01C4F202010968C1F306214843059061
:103D300011E0FFE7029942F20040C0F2F400B0FB4C
:103D4000F1F041F20C01C4F202010968C1F306214D
:103D500048430590FFE741F20C00C4F202000068FE
:103D600000F0C061022000EB1160039005980399F8
:103D7000B0FBF1F0019002E000200190FFE7FFE7C7
:103D8000FFE7019806B07047B0B588B00690069876
:103D900020B9FFE701208DF81F00CCE306980078DA
:103DA000C007002800F09B80FFE741F20800C4F242
:103DB0000200006800F00C00049041F20C00C4F214
:103DC0000200006800F00300039004980C2804D15E
:103DD000FFE70398032804D0FFE70498082812D1CE
:103DE000FFE741F20000C4F20200006880030028EF
:103DF00008D5FFE70698406820B9FFE701208DF855
:103E00001F0098E36AE0FFE706984068B0F5803F3E
:103E100009D1FFE741F20001C4F20201086840F451
:103E20008030086020E006984068B0F5A02F0DD1E2
:103E3000FFE741F20001C4F20201086840F480206B
:103E40000860086840F4803008600CE041F200012E
:103E5000C4F20201086820F480300860086820F489
:103E600080200860FFE7FFE7FFE706984068D0B1D1
:103E7000FFE7FEF7F5FD0590FFE741F20000C4F211
:103E800002000068800300280CD4FFE7FEF7E8FD7D
:103E90000599401A652804D3FFE703208DF81F0019
:103EA00049E3EAE719E0FEF7DBFD0590FFE741F2A1
:103EB0000000C4F202000068800300280CD5FFE770
:103EC000FEF7CEFD0599401A652804D3FFE70320CD
:103ED0008DF81F002FE3EAE7FFE7FFE7FFE706980B
:103EE00000788007002840F19F80FFE741F208003A
:103EF000C4F20200006800F00C00049041F20C00D3
:103F0000C4F20200006800F00300039004980C283B
:103F100004D1FFE70398022804D0FFE7049804289F
:103F20002CD1FFE741F20000C4F202000068400516
:103F3000002808D5FFE70698C06820B9FFE70120F0
:103F40008DF81F00F7E241F20401C4F20201086893
:103F500020F0FE40069A126940EA0260086040F2D2
:103F60000800C2F200000068FEF7AEFF20B1FFE7D4
:103F700001208DF81F00DEE2FFE754E00698C068DC
:103F800070B3FFE741F20001C4F20201086840F497
:103F900080700860FEF764FD0590FFE741F20000C5
:103FA000C4F202000068400500280CD4FFE7FEF7C9
:103FB00057FD0599401A032804D3FFE703208DF825
:103FC0001F00B8E2EAE741F20401C4F20201086806
:103FD00020F0FE40069A126940EA0260086021E083
:103FE00041F20001C4F20201086820F48070086008
:103FF000FEF736FD0590FFE741F20000C4F2020033
:104000000068400500280CD5FFE7FEF729FD05995B
:10401000401A032804D3FFE703208DF81F008AE22B
:10402000EAE7FFE7FFE7FFE70698007800070028C8
:1040300049D5FFE70698406910B3FFE741F29401C4
:10404000C4F20201086840F001000860FEF708FDB4
:104050000590FFE741F29400C4F202000068800777
:1040600000280CD4FFE7FEF7FBFC0599401A032853
:1040700004D3FFE703208DF81F005CE2EAE721E0AC
:1040800041F29401C4F20201086820F001000860C6
:10409000FEF7E6FC0590FFE741F29400C4F202004F
:1040A0000068800700280CD5FFE7FEF7D9FC0599CA
:1040B000401A032804D3FFE703208DF81F003AE2DB
:1040C000EAE7FFE7FFE7069800784007002840F19D
:1040D000C680FFE700208DF80B0041F25800C4F2C3
:1040E00002000068C000002813D4FFE7FFE741F298
:1040F0005800C4F20200016841F08051016000687C
:1041000000F0805001900198FFE701208DF80B002E
:10411000FFE747F20000C4F200000068C005002875
:1041200022D4FFE747F20001C4F20001086840F41E
:1041300080700860FEF794FC0590FFE747F20000EE
:10414000C4F200000068C00500280CD4FFE7FEF7A9
:1041500087FC0599401A032804D3FFE703208DF854
:104160001F00E8E1EAE7FFE7FFE70698806801281B
:1041700009D1FFE741F29001C4F20201086840F062
:10418000010008601FE00698806805280DD1FFE750
:1041900041F29001C4F20201086840F00400086096
:1041A000086840F0010008600CE041F29001C4F2A0
:1041B0000201086820F001000860086820F004008F
:1041C0000860FFE7FFE7FFE706988068E0B1FFE7D8
:1041D000FEF746FC0590FFE741F29000C4F20200B2
:1041E0000068800700280ED4FFE7FEF739FC059928
:1041F000401A41F28931884204D3FFE703208DF849
:104200001F0098E1E8E71BE0FEF72AFC0590FFE7B6
:1042100041F29000C4F202000068800700280ED529
:10422000FFE7FEF71DFC0599401A41F289318842EB
:1042300004D3FFE703208DF81F007CE1E8E7FFE7E8
:104240009DF80B00012809D1FFE741F25801C4F2A3
:104250000201086820F080500860FFE7FFE7069839
:1042600000788006002849D5FFE70698806910B3DA
:10427000FFE741F29801C4F20201086840F0010032
:104280000860FEF7EDFB0590FFE741F29800C4F2ED
:1042900002000068800700280CD4FFE7FEF7E0FB6F
:1042A0000599401A032804D3FFE703208DF81F0067
:1042B00041E1EAE721E041F29801C4F20201086815
:1042C00020F001000860FEF7CBFB0590FFE741F20C
:1042D0009800C4F202000068800700280CD5FFE7B0
:1042E000FEF7BEFB0599401A032804D3FFE703201D
:1042F0008DF81F001FE1EAE7FFE7FFE70698C069B6
:10430000002800F01481FFE741F20800C4F2020027
:10431000006800F00C000C2800F0B080FFE7069861
:10432000C06902287CD1FFE741F20001C4F202011A
:10433000086820F080700860FEF792FB0590FFE7A8
:1043400041F20000C4F202000068800100280CD590
:10435000FFE7FEF785FB0599401A032804D3FFE722
:1043600003208DF81F00E6E0EAE741F20C01C4F2F9
:104370000201086848F20C02C0F29F121040DDF8FA
:1043800018C0DCF82020DCF82450DCF828E0DCF849
:104390002C306FF00F0404EB0514224342EA0E2286
:1043A000DCF8304040F2000ECFF6E07E0EEA045E0C
:1043B000AEF5001E42EA0E02DCF834E04FF07E4C0F
:1043C0000CEA0E6C0CF17E4C42EA0C0242EAC3622B
:1043D0001043086041F20002C4F20202106840F08B
:1043E00080701060086840F080700860FEF738FB4D
:1043F0000590FFE741F20000C4F20200006880016E
:1044000000280CD4FFE7FEF72BFB0599401A032880
:1044100004D3FFE703208DF81F008CE0EAE72CE0CF
:1044200041F20001C4F20201086820F080700860C7
:10443000FEF716FB0590FFE741F20000C4F2020010
:104440000068800100280CD5FFE7FEF709FB0599FD
:10445000401A032804D3FFE703208DF81F006AE009
:10446000EAE741F20C01C4F2020108684FF6FC725F
:10447000CFF6EE6210400860FFE757E00698C0698B
:10448000012804D1FFE701208DF81F0053E041F21D
:104490000C00C4F2020000680390039800F00300CF
:1044A0000699096A88423BD1FFE7039800F0F000C3
:1044B00006994A6A6FF00F0101EB021188422FD171
:1044C000FFE7039800F4FE400699896AB0EB012FDC
:1044D00026D1FFE7039800F078400699C96AB0EB4F
:1044E000C16F1DD1FFE7039800F4C00006990A6B65
:1044F0000021CFF6E07101EA0251A1F500118842D6
:104500000ED1FFE7039800F0C06006994A6B4FF0A8
:104510007E4101EA026101F17E41884204D0FFE759
:1045200001208DF81F0006E0FFE7FFE7FFE700200E
:104530008DF81F00FFE79DF81F0008B0B0BD000018
:1045400080B584B00290029820B9FFE701208DF871
:104550000F0099E00298406A60B9FFE7029840684E
:10456000B0F5827F01D1FFE703E002990020C86126
:10457000FFE705E002990020086102994861FFE722
:10458000029900208862029890F85D0040B9FFE728
:104590000299002081F85C00029800F079F8FFE7AA
:1045A0000299022081F85D0002980168086820F0F5
:1045B000400008600298C068B0F5E06F03D9FFE7DB
:1045C0000020019003E04FF480500190FFE7029833
:1045D000C068B0F5706F0AD0FFE70298C068B0F508
:1045E000E06F04D0FFE7029900208862FFE7029A9B
:1045F000009211685068D2F808C0136900F4827004
:104600000CF4044C604403F002031844536903F0B3
:1046100001031844936903F400731844D36903F049
:1046200038031844136A03F080031844926A02F4B2
:10463000005210430860029B1968DA68D3F818E04A
:10464000D3F824C0042000EA1E400CF0100C604493
:104650005B6B03F00803184402F470621044019A83
:1046600002F480521044486002980168C86920F43E
:104670000060C861029900200866029A012182F850
:104680005D108DF80F00FFE79DF80F0004B080BDAE
:1046900080B594B0139000201290119010900F905C
:1046A0000E901398006843F20001C4F201018842A1
:1046B0002DD1FFE7FFE741F26000C4F2020001687C
:1046C00041F480510160006800F480500D900D9815
:1046D000FFE7FFE741F24C00C4F20200016841F03D
:1046E00001010160006800F001000C900C98FFE7E8
:1046F000E0200E9002200F900020109011900520D5
:1047000012904FF090400EA9FDF7E0FFD2E0139811
:10471000006843F60001C4F20001884255D1FFE76A
:10472000FFE741F25800C4F20200016841F4804101
:104730000160006800F480400B900B98FFE7FFE7F2
:1047400041F24C00C4F20200016841F02001016016
:10475000006800F020000A900A98FFE7FFE741F2A6
:104760004C00C4F20200016841F0020101600068DF
:1047700000F0020009900998FFE74FF480600E9066
:10478000022001900F9000200290109011900520BF
:104790000390129041F20040C4F600000EA904916B
:1047A000FDF794FF019B029A039804994FF4004C83
:1047B000CDF838C00F9310921192129040F2004041
:1047C000C4F60000FDF782FF73E01398006843F61B
:1047D0000041C4F20001884230D1FFE7FFE741F217
:1047E0005800C4F20200016841F400410160006811
:1047F00000F4004008900898FFE7FFE741F24C0002
:10480000C4F20200016841F004010160006800F098
:10481000040007900798FFE74FF4E0500E90022045
:104820000F900020109011900620129040F600008A
:10483000C4F600000EA9FDF749FF39E0139800689F
:1048400043F60041C4F20101884230D1FFE7FFE79F
:1048500041F26000C4F20200016841F400410160CD
:10486000006800F4004006900698FFE7FFE741F279
:104870004C00C4F20200016841F0100101600068C0
:1048800000F0100005900598FFE74FF4E0400E900F
:1048900002200F900020109011900520129041F2FC
:1048A0000000C4F600000EA9FDF710FFFFE7FFE7C8
:1048B000FFE7FFE714B080BD80B582B0019001989A
:1048C00003F038F802B080BD81B0009001B07047AD
:1048D00081B0009001B0704781B0009001B0704786
:1048E00084B00290019100200090FFE7029890F8B8
:1048F0003C00012804D1FFE702208DF80F008CE076
:104900000299012081F83C00FFE7FFE7009820F0C2
:10491000FF000199C96808430090009820F4407096
:104920000199896808430090009820F480600199FB
:10493000496808430090009820F4006001990968D4
:1049400008430090009820F48050019909690843B9
:104950000090009820F400500199496908430090A4
:10496000009820F480400199096B0843009000985A
:1049700020F470200199896940EA01400090009874
:1049800020F080500199C96908430090029800689E
:1049900042F60041C4F20101884212D0FFE70298BA
:1049A000006843F20041C4F20101884209D0FFE7E8
:1049B0000298006845F20001C4F2010188421ED14C
:1049C000FFE7009820F470000199896A40EA0150DD
:1049D0000090009820F080700199096A08430090C7
:1049E000009820F000700199496A084300900098EF
:1049F00020F000500199C96A08430090FFE7009831
:104A0000029909684864FFE70299002081F83C0098
:104A1000FFE700208DF80F00FFE79DF80F0004B0BE
:104A20007047000081B0009001B0704781B00090E5
:104A300001B0704781B0009001B0704785B003901D
:104A40000291FFE7039890F83C00012804D1FFE7AA
:104A500002208DF81300A7E00399012081F83C00A3
:104A6000FFE7FFE70399022081F83D000398006803
:104A7000406801900398006880680090039800687F
:104A800042F60041C4F20101884212D0FFE70398C8
:104A9000006843F20041C4F20101884209D0FFE7F7
:104AA0000398006845F20001C4F2010188420AD16E
:104AB000FFE7019820F47000019002984168019886
:104AC00008430190FFE701984FF68F71CFF6FF5131
:104AD00008400190029801680198084301900198EC
:104AE0000399096848600398006842F60041C4F2DF
:104AF000010188423CD0FFE703980068B0F1804F85
:104B000036D0FFE70398006840F20041C4F200018C
:104B100088422DD0FFE70398006840F60001C4F2F8
:104B20000001884224D0FFE70398006840F6004166
:104B3000C4F2000188421BD0FFE70398006843F2EB
:104B40000041C4F20101884212D0FFE703980068D7
:104B500044F20001C4F20101884209D0FFE7039842
:104B6000006845F20001C4F2010188420ED1FFE75E
:104B7000009820F080000090029881680098084317
:104B800000900098039909688860FFE70399012065
:104B900081F83D00FFE70399002081F83C00FFE722
:104BA00000208DF81300FFE79DF8130005B0704753
:104BB00081B0009001B0704780B582B0009000983D
:104BC00020B9FFE701208DF8070045E0009890F834
:104BD0003D0040B9FFE70099002081F83C000098B3
:104BE00000F03EF8FFE70099022081F83D000099AF
:104BF00051F8040B02F028FF0099012081F84800C9
:104C0000FFE70099012081F83E00009981F83F00FC
:104C1000009981F84000009981F84100009981F8DD
:104C20004200009981F84300FFE7FFE70099012067
:104C300081F84400009981F84500009981F8460008
:104C4000009981F84700FFE70099012081F83D00B5
:104C500000208DF80700FFE79DF8070002B080BD37
:104C600080B58CB00B900B98006842F60041C4F2FE
:104C70000101884219D1FFE7FFE741F26000C4F269
:104C80000200016841F400610160006800F4006006
:104C90000A900A98FFE71920029000221146FEF7B9
:104CA00085F90298FEF778F9C7E00B98006841F2A1
:104CB0000001C4F20001884219D1FFE7FFE741F289
:104CC0005800C4F20200016841F010010160006860
:104CD00000F0100009900998FFE7362001900022AB
:104CE0001146FEF763F90198FEF756F9A4E00B9818
:104CF000006841F20041C4F20001884210D1FFE790
:104D0000FFE741F25800C4F20200016841F02001BF
:104D10000160006800F0200008900898FFE78AE032
:104D20000B98006843F20041C4F20101884210D19F
:104D3000FFE7FFE741F26000C4F20200016841F4BE
:104D400000510160006800F4005007900798FFE7E9
:104D500070E00B98006844F20001C4F2010188423F
:104D600010D1FFE7FFE741F26000C4F202000168E2
:104D700041F480310160006800F4803006900698AC
:104D8000FFE756E00B98006844F20041C4F20101CD
:104D9000884219D1FFE7FFE741F26000C4F2020048
:104DA000016841F400310160006800F400300590B2
:104DB0000598FFE71920009000221146FEF7F6F84B
:104DC0000098FEF7E9F833E00B98006844F600011C
:104DD000C4F20101884210D1FFE7FFE741F2600011
:104DE000C4F20200016841F480210160006800F40F
:104DF000802004900498FFE719E00B98006845F2C2
:104E00000001C4F20101884210D1FFE7FFE741F23F
:104E10006000C4F20200016841F480110160006882
:104E200000F4801003900398FFE7FFE7FFE7FFE738
:104E3000FFE7FFE7FFE7FFE7FFE70CB080BD0000FB
:104E400080B586B00490039100208DF80B00FFE739
:104E5000049890F83C00012804D1FFE702208DF867
:104E60001700E0E00499012081F83C00FFE7FFE72C
:104E70000499022081F83D00049800688068019040
:104E800001984FF68871CFF6CE71084001900198D5
:104E900020F47F4001900198049909688860039884
:104EA00000680090002800F0A480FFE70098102818
:104EB00000F09F80FFE70098202800F09A80FFE72D
:104EC0000098302800F09580FFE70098402800F017
:104ED0008380FFE70098502864D0FFE7009860289F
:104EE0006DD0FFE70098702838D0FFE70098B0F544
:104EF000805F32D0FFE70098B0F5005F43D0FFE756
:104F00000098B0F5801F74D0FFE70098B0F1101F33
:104F10006FD0FFE700982021C0F21001884268D0CE
:104F2000FFE700983021C0F21001884261D0FFE70E
:104F300000984021C0F2100188425AD0FFE7009843
:104F40005021C0F21001884253D0FFE70098702131
:104F5000C0F2100188424CD052E055E0049800683D
:104F6000039B5A689968DB6802F07EFE049800682B
:104F700080680190019840F07700019001980499B1
:104F80000968886040E004980068039B5A68996843
:104F9000DB6802F069FE04980168886840F480408C
:104FA000886031E004980068039A5168D26803F081
:104FB00083FA04980068502102F070FE24E00498FF
:104FC0000068039A5168D26803F09EFA049800685A
:104FD000602102F063FE17E004980068039A5168AC
:104FE000D26803F069FA04980068402102F056FE86
:104FF0000AE0049800680399096802F04FFE03E094
:1050000001208DF80B00FFE70499012081F83D0095
:10501000FFE70499002081F83C00FFE79DF80B00B2
:105020008DF81700FFE79DF8170006B080BD00005F
:1050300080B586B004900391049820B9FFE7012061
:105040008DF817008AE0049890F83D0040B9FFE71A
:105050000499002081F83C00049800F083F8FFE7F1
:105060000499022081F83D000498016888684BF695
:10507000F872CFF6FE7210408860049951F8040B64
:1050800002F0E2FC049800688068029004980068CE
:105090008069019004980068006A00900398016894
:1050A000029808430290019840F20331884301902E
:1050B00003998868896940EA0121019808430190B1
:1050C000019840F60C418843019001984FF2F0019D
:1050D000884301900399C868C96940EA0121019891
:1050E0000843019003990869096A000140EA013107
:1050F000019808430190009820F022000090009849
:1051000020F08800009003994868496940EA01113D
:1051100000980843009002980499096888600198F3
:1051200004990968886100980499096808620499DB
:10513000012081F84800049981F83E00049981F823
:105140003F00049981F84400049981F845000499CE
:1051500081F83D0000208DF81700FFE79DF817004B
:1051600006B080BD80B58EB00D9000200C900B90E5
:105170000A90099008900D980068B0F1804F2ED1E8
:10518000FFE7FFE741F25800C4F20200016841F076
:1051900001010160006800F0010007900798FFE737
:1051A000FFE741F24C00C4F20200016841F008013F
:1051B0000160006800F0080006900698FFE71820DC
:1051C00008900220099000210A910B910C9040F662
:1051D0000040C4F6000008A9FDF778FAA6E00D9893
:1051E000006840F20041C4F2000188422ED1FFE77E
:1051F000FFE741F25800C4F20200016841F00201E9
:105200000160006800F0020005900598FFE7FFE7E5
:1052100041F24C00C4F20200016841F00201016059
:10522000006800F0020004900498FFE73020089026
:105230000220099000210A910B910C9040F200404D
:10524000C4F6000008A9FDF741FA6EE00D98006869
:1052500040F60001C4F2000188422FD1FFE7FFE7CA
:1052600041F25800C4F20200016841F004010160FB
:10527000006800F0040003900398FFE7FFE741F2A5
:105280004C00C4F20200016841F0080101600068AE
:1052900000F0080002900298FFE74FF44050089099
:1052A0000220099000210A910B910C9040F60040D9
:1052B000C4F6000008A9FDF709FA35E00D9800686A
:1052C00040F60041C4F2000188422CD1FFE7FFE71D
:1052D00041F25800C4F20200016841F00801016087
:1052E000006800F0080001900198FFE7FFE741F235
:1052F0004C00C4F20200016841F001010160006845
:1053000000F0010000900098FFE7032008900220C1
:10531000099000210A910B910C904FF0904008A940
:10532000FDF7D4F9FFE7FFE7FFE7FFE70EB080BD29
:1053300080B586B004900391049890F83E008DF8F3
:105340000B00049890F83F008DF80A00049890F83C
:1053500044008DF80900049890F845008DF8080085
:105360000398B8B9FFE79DF80B00012805D1FFE7C6
:105370009DF80900012804D0FFE701208DF81700EF
:1053800079E00499022081F83E00049981F84400F4
:10539000FFE742E00398042817D1FFE79DF80A00D1
:1053A000012805D1FFE79DF80800012804D0FFE798
:1053B00001208DF817005EE00499022081F83F007B
:1053C000049981F84500FFE726E09DF80B000128CD
:1053D0000FD1FFE79DF80A0001280AD1FFE79DF8E9
:1053E0000900012805D1FFE79DF80800012804D035
:1053F000FFE701208DF817003DE00499022081F8B5
:105400003E00049981F83F00049981F84400049912
:1054100081F84500FFE7FFE7FFE70398019020B11F
:10542000FFE70198042807D00DE0049800680021E8
:10543000012202F0FDFB14E004980068042101221F
:1054400002F0F6FB0DE004980068002101220092B2
:1054500002F0EEFB009A04980068042102F0E8FBD9
:10546000FFE704980168086840F001000860002028
:105470008DF81700FFE79DF8170006B080BD00000B
:1054800081B0009001B0704780B584B0039003985C
:105490000068C068029003980068006901909DF858
:1054A00004008007002824D5FFE79DF80800800746
:1054B00000281DD5FFE7039801686FF0020008611E
:1054C000039901200877039800688069800720B15C
:1054D000FFE70398FFF7D4FF06E0039800F038FADF
:1054E000039800F069FBFFE7039900200877FFE7C6
:1054F000FFE79DF804004007002825D5FFE79DF849
:105500000800400700281ED5FFE7039801686FF0E8
:1055100004000861039902200877039800688069F5
:1055200010F4407F04D0FFE70398FFF7A9FF06E0DF
:10553000039800F00DFA039800F03EFBFFE7039993
:1055400000200877FFE7FFE79DF804000007002828
:1055500024D5FFE79DF80800000700281DD5FFE7C8
:10556000039801686FF00800086103990420087728
:1055700003980068C069800720B1FFE70398FFF730
:105580007FFF06E0039800F0E3F9039800F014FBB6
:10559000FFE7039900200877FFE7FFE79DF8040085
:1055A000C006002825D5FFE79DF80800C0060028A2
:1055B0001ED5FFE7039801686FF01000086103999A
:1055C0000820087703980068C06910F4407F04D071
:1055D000FFE70398FFF754FF06E0039800F0B8F9DF
:1055E000039800F0E9FAFFE7039900200877FFE746
:1055F000FFE79DF80400C00778B1FFE79DF80800B9
:10560000C00748B1FFE7039801686FF00100086127
:10561000039800F021FCFFE7FFE7019800F080000D
:10562000802806D0FFE79DF805008006002810D5E9
:10563000FFE79DF808000006002809D5FFE703985A
:1056400001686FF4025008610398FFF741F9FFE722
:10565000FFE79DF80500C00780B1FFE79DF808004F
:105660000006002809D5FFE7039801686FF48070F1
:1056700008610398FFF728F9FFE7FFE79DF80400AA
:105680004006002810D5FFE79DF8080040060028D6
:1056900009D5FFE7039801686FF04000086103989F
:1056A00000F0DEFBFFE7FFE79DF80400800600281E
:1056B00010D5FFE79DF808008006002809D5FFE710
:1056C000039801686FF0200008610398FFF704F960
:1056D000FFE7FFE79DF80600C006002810D5FFE7AA
:1056E0009DF80A00C006002809D5FFE70398016865
:1056F0006FF4801008610398FFF798F9FFE7FFE760
:105700009DF806008006002810D5FFE79DF80A00E6
:105710008006002809D5FFE7039801686FF40010A0
:1057200008610398FFF77EF9FFE7FFE79DF80600A1
:105730004006002810D5FFE79DF80A004006002823
:1057400009D5FFE7039801686FF4800008610398AA
:10575000FFF770F9FFE7FFE79DF806000006002855
:1057600010D5FFE79DF80A000006002809D5FFE7DD
:10577000039801686FF4000008610398FFF718FAB6
:10578000FFE7FFE704B080BD80B592B01190002024
:1057900010900F900E900D900C901198006842F6AA
:1057A0000041C4F2010188421FD1FFE7FFE741F247
:1057B0004C00C4F20200016841F00401016000687D
:1057C00000F004000B900B98FFE70F200C900220D4
:1057D0000D9000210E910F91109040F60000C4F63C
:1057E00000000CA9FCF772FFAFE01198006843F2CB
:1057F0000041C4F20101884233D1FFE7FFE741F2E3
:105800004C00C4F20200016841F00201016000682E
:1058100000F002000A900A98FFE740200C90022056
:1058200003900D90002004900E900F900520109092
:1058300040F20040C4F6000005900CA90691FCF768
:1058400045FF039B049A059806994FF4807CCDF898
:1058500030C00D930E920F920A221092FCF736FF81
:1058600072E01198006844F20001C4F2010188421C
:105870001ED1FFE7FFE741F24C00C4F202000168CD
:1058800041F001010160006800F0010009900998F1
:10589000FFE70C200C9002200D9000200E900F903E
:1058A000092010904FF090400CA9FCF70FFF4AE040
:1058B0001198006845F20001C4F20101884241D10B
:1058C000FFE7FFE741F24C00C4F20200016841F03B
:1058D00010010160006800F0100008900898FFE7D0
:1058E000FFE741F24C00C4F20200016841F02001E0
:1058F0000160006800F0200007900798FFE70E2085
:105900000C90022001900D90002000900E900F90BE
:105910000620109041F20000C4F600000CA902918C
:10592000FCF7D4FE009A0198029904230C930D9081
:105930000E920F92109041F20040C4F60000FCF766
:10594000C5FEFFE7FFE7FFE7FFE712B080BD0000FD
:1059500081B0009001B0704780B586B0049003918B
:10596000029200208DF80700FFE7049890F83C00B1
:10597000012804D1FFE702208DF81700C0E0049948
:10598000012081F83C00FFE7FFE70298009014280F
:1059900000F2A7800099DFE801F00BA4A4A424A4DE
:1059A000A4A43EA4A4A457A4A4A471A4A4A48A005B
:1059B00004980068039902F089F9049801688869DD
:1059C00040F00800886104980168886920F00400AC
:1059D00088610398026904980168886910438861A6
:1059E00083E004980068039902F02AFA0498016899
:1059F000886940F40060886104980168886920F42F
:105A0000806088610398026904980168886940EAA7
:105A10000220886169E004980068039902F0D8FACE
:105A200004980168C86940F00800C86104980168DA
:105A3000C86920F00400C8610398026904980168ED
:105A4000C8691043C86150E004980068039902F0E7
:105A500087FB04980168C86940F40060C861049835
:105A60000168C86920F48060C861039802690498DD
:105A70000168C86940EA0220C86136E004980068FD
:105A8000039902F035FC04980168086D40F00800A5
:105A9000086504980168086D20F004000865039803
:105AA000026904980168086D104308651DE00498B8
:105AB0000068039902F08EFC04980168086D40F4B8
:105AC0000060086504980168086D20F4806008652E
:105AD0000398026904980168086D40EA022008658D
