:020000040800F2
:1000000070270020A502000841510008E53F0008C4
:100010003D5100089D040008555B000800000000E9
:10002000000000000000000000000000495100082E
:10003000B904000800000000455100084D510008B7
:10004000BF020008BF020008BF020008BF0200088C
:10005000BF020008BF020008BF020008BF0200087C
:10006000BF020008BF020008BF020008A104000888
:10007000AD040008BF020008BF020008BF0200086C
:10008000BF020008BF020008BF020008BF0200084C
:10009000BF020008BF020008BF020008BF0200083C
:1000A000BF02000865510008BF020008BF02000837
:1000B000BF020008BF020008BF020008BF0200081C
:1000C000BF020008BF020008BF020008BF0200080C
:1000D000BF020008BF020008BF020008BF020008FC
:1000E000BF020008BF020008BF020008BF020008EC
:1000F000BF020008BF020008BF020008BF020008DC
:10010000BF020008BF020008BF020008BF020008CB
:10011000BF020008BF02000885510008BF020008A6
:10012000BF020008BF020008BF020008BF020008AB
:10013000BF020008BF020008BF020008BF0200089B
:10014000BF020008BF020008BF0200080000000054
:10015000000000000000000000000000000000009F
:10016000000000000000000000000000BF020008C6
:10017000BF020008BF020008BF020008BF0200085B
:10018000BF020008BF020008BF020008BF0200084B
:10019000BF02000800000000BF020008BF02000804
:1001A000BF020008BF020008BF020008BF0200082B
:1001B000BF020008BF020008BF020008BF0200081B
:1001C000BF020008BF020008BF020008BF0200080B
:1001D000BF020008BF02000800F002F800F052F869
:1001E00014A696E8000CB244B344DA4501D100F0FD
:1001F00049F8BAE80F000FA696E83000A5EB040511
:1002000004EB0607AAEB0704A7F101074FEA15154F
:100210004FEA3414A4F10104AC4201D300F032F8E7
:1002200013F0010F18BFFB1A43F0010300F001F8AF
:10023000DBE71847805A0000A05A0000103A24BF9C
:1002400078C878C1FAD8520724BF30C830C144BF3B
:1002500004680C6070470000704700000023002411
:1002600000250026103A28BF78C1FBD8520728BFC6
:1002700030C148BF0B6070471FB505F0E6FC1FBDDD
:1002800010B510BD00F0D0F81146FFF7F5FF05F0EE
:1002900063FC00F0EEF803B4FFF7F2FF03BC00F0DC
:1002A000F5F800000948804709480047FEE7FEE7E7
:1002B000FEE7FEE7FEE7FEE7FEE7FEE7FEE7FEE716
:1002C00004480549054A064B704700005151000893
:1002D000D9010008700F002070270020701F002037
:1002E000701F002053EA020C00F069802DE9F04BEA
:1002F0004FF00006002B1FBFB3FA83F503FA05F495
:1003000024FA05F65E4012BF1643B2FA82F502FAED
:1003100005F4C5F120051EBF22FA05FC44EA0C04D1
:10032000203556EA044C4FEA144418BF641C4FF0C1
:1003300000084FF00009904271EB030C39D30029FB
:1003400019BFB1FA81F701FA07F6B0FA80F700FA9F
:1003500007F6C7F120071EBF20FA07FC46EA0C0685
:100360002037B6FBF4FCA7EB0507103F07F01F0B87
:10037000CBF120062CFA06F60CFA0BFB44BFB34671
:100380000026202FA4BF5E464FF0000B5BEA060C50
:1003900008BF4FF0010B19EB0B0948EB0608ABFB4C
:1003A000027C06FB02CC0BFB03CCC01B71EB0C01E7
:1003B000C1E70B46024641464846BDE8F08B13B5FF
:1003C000084318BF4FF0FF300146AFF30080BDE88F
:1003D0001C4070474FF0000200B513469446964605
:1003E000203922BFA0E80C50A0E80C50B1F1200148
:1003F000BFF4F7AF090728BFA0E80C5048BF0CC0F6
:100400005DF804EB890028BF40F8042B08BF704753
:1004100048BF20F8022B11F0804F18BF00F8012BC5
:100420007047704770477047754600F02BF8AE462E
:1004300005006946534620F00700854618B020B5F0
:10044000FFF73EFFBDE820404FF000064FF00007E9
:100450004FF000084FF0000BAC46ACE8C009ACE828
:10046000C009ACE8C009ACE8C00921F007018D461D
:10047000704710B50446AFF300802046BDE8104039
:10048000FFF709BF004870471000002001491820FD
:10049000ABBEFEE72600020070470000FEE700004A
:1004A00040F27400C2F2000000F074BC40F2B010E0
:1004B000C2F2000000F06EBC70470000EFF3108045
:1004C00072B600BFFEE7000090F85820012A04BF72
:1004D0000220704770B582B000220192009202683B
:1004E00040F2080EC5F2000EB2F1A04F0EF1F80571
:1004F00008D040F20043C5F200039A4234D10EF511
:100500009F6300E02B469B68946823435B072BD4D2
:100510004FF4E063D1F800C0AA4208BF4FF4407323
:10052000B2F1A04F08BF4FF440735EF80340BCF136
:10053000000F24F4604425D04D6890F8386042F4F0
:10054000807245EA46352C4340F20015C5F200059D
:10055000AA424EF8034027D1DEF80020DEF8004121
:100560002243D20748D129E0C16D41F02001C16585
:100570000121002280F8582002B0BDE870400846F2
:10058000704700BF42F4807140F20012C5F20002D1
:1005900091424EF803401BD1DEF80010DEF8002136
:1005A0001143C90728D11DE0DEF80044DEF80055EC
:1005B000DEF800262C432243D2071DD15EF803202B
:1005C00040F61F748968A243114341EA0C010EE012
:1005D000DEF80024DEF80065DEF800163243114331
:1005E000C90709D15EF8031040F61F7291434EF817
:1005F00003100021BDE700BF0021BAE7F0B581B0CC
:100600000022009290F85820012A03D102210846C6
:1006100001B0F0BD0123076880F85830BB685B0764
:1006200034D4D1E900351F26C5F3012407EB840437
:10063000226B05F01F05AE40C3F38463B243AB40A9
:100640001A432263BA68BB6802F0040203F008038D
:10065000D21840F0BC800A6807F114030426C2F3E4
:100660004064D1F808E006EAD25C53F82440C2F3B3
:1006700004550722AA40BEF1004F24EA02040BD120
:1006800043F80C401A6842F000430DE0C16D41F0A0
:100690002001C165012167E10EFA05F2224343F80A
:1006A0000C201A6822F000437B61D1E90435FC6814
:1006B000042B5FD13A6E3A6E0B68C2F3846293FAF0
:1006C000A3F6C3F3846C6FF3DF43B6FA86F5002B11
:1006D0002C464FF6FF7E08BF6446A242C0F2070ECA
:1006E0000CD13A6E22F000423A660A6802EA0E0322
:1006F000C2F3846C92FAA2F2B2FA82F57A6E7A6E42
:10070000002BC2F384622C4608BF6446A2420CD17F
:100710007A6E22F000427A660A6802EA0E03C2F399
:10072000846C92FAA2F2B2FA82F5BA6EBA6E002B1B
:10073000C2F384622C4608BF6446A2420CD1BA6E52
:1007400022F00042BA660A6802EA0E03C2F3846C21
:1007500092FAA2F2B2FA82F5FA6EFA6E002BC2F3A6
:10076000846208BF6546AA4231D1FA6E22F0004287
:10077000FA662CE0062202EA940205FA02FC0E68F0
:1007800007F1600555F823404FF20002C0F2FF3236
:1007900006F0F846224046EA0C06324342F0004298
:1007A00045F823200A698B6955F8226026F0807687
:1007B000334345F822300A690B7F55F82260012B3C
:1007C00026F0007608BF06F1007645F82260BA6888
:1007D0000D68D20750D1CA68D7F8B0602B466FF3C6
:1007E000DF4326EA030C4FF6FF7602F01804C0F24E
:1007F0000706E64000242E40C4F27F0446EA0C06B9
:10080000A242C7F8B06037D193B195FAA5F2B2FA17
:1008100082F2013202F01E03092B02F01F0310D8EE
:1008200001229A4003EB430342EA035315E000BF61
:10083000012202EB956202F01E030A2B02F01F0355
:10084000EED3012200269A4003EB4303CFF6206645
:1008500006EB03531A4342F00073C3F3406607EB01
:1008600086068A687569C3F3045307249C40A54330
:100870009A402A4372610D680021C8F208010D42B6
:1008800071D040F2001CC5F2000C4FF4C161674505
:1008900008BF4FF40271B7F1A04F08BF4FF40271C7
:1008A00051F80C400022CCF22132954204F0E07E57
:1008B00004D01022C9F2C002954241D1220252D482
:1008C00040F20062C5F20002974202D0B7F1A04F99
:1008D00049D15CF8012022F0E07242EA0E0242F4B3
:1008E00000024CF8012040F20801C2F20001096840
:1008F00042F663528909C0F23E52A1FB02129109ED
:1009000001EB41010C2202EB81010091009951B3EE
:10091000009901390091009929B30099013900919A
:10092000009901B30099013900910099D9B100995A
:1009300001390091009900294FF00001E8D113E03E
:100940000022CCF25272954214D10022B2EB1E6FFB
:1009500010D15CF8012022F0E07242EA0E0242F06F
:1009600080724CF801200021002280F858200846AF
:1009700001B0F0BD0021CCF684318D424FF0000172
:1009800008BF14F48002EFD1B7F1A04F06D067453D
:10099000EAD0674502D00CF5C06101E00CF50071AA
:1009A0008A6822F0E07242EA0E0242F480028A6013
:1009B000D9E7000070B582B000210028019153D022
:1009C000C16D39B9044600F021F9204600212166A5
:1009D00084F858100268916889004FF6C071C5F616
:1009E000FF7102D593680B4093609368DB002ED4AF
:1009F000936801F18051194041F08051916040F2BB
:100A00000801C2F20001096842F663538909C0F285
:100A10003E53A1FB03139909022303EB410101910A
:100A20000199A1B1019901390191019979B1019916
:100A300001390191019951B101990139019101994E
:100A400029B101990139019101990029EAD19168EF
:100A5000C9000DD4C16D012641F01001C165016EC0
:100A600041F00101016604E00126304602B070BD8C
:100A700000269368C46D03F0040304F010041B19EE
:100A8000C36D77D123F481730233C3659368DB07A9
:100A90002AD140F2001442F48073C5F2000440F2FF
:100AA000080CA342C5F2000C40F0A280DCF8004024
:100AB000DCF800312343DB0716D10CF1F8034FF4C7
:100AC000E064D0F804E09A4208BF4FF44074B2F1F9
:100AD000A04F08BF4FF440745CF8043023F47C133B
:100AE00043EA0E034CF80430437FC46BD0E902158F
:100AF00044EA43332B4390F824501943012D41EA33
:100B0000054306D1816A0025CFF6FE7505EB41410C
:100B10000B43C46A24B1016B04F4787529430B4379
:100B2000D16844F20705CFF6F07529401943D1602A
:100B30001169436B21F04061194311619168090704
:100B400043D490F83810037F490041EA8331D368D9
:100B500044F20205AB431943D160036914698BB1B8
:100B600044F480311161D2F8C01043F6FF75A943F7
:100B70000B4310E043F010020126C265304602B07C
:100B800070BD00BF24F480311161D2F8C01043F66B
:100B9000FF7321EA0303C2F8C03090F840101369D4
:100BA00001290FD140F2FD7123EA010CD0E9113582
:100BB000D0E9134143EA0C032B432343194341F08B
:100BC000010301E023F0010313614169136B012963
:100BD00023F00F0302D1016A01390B431363C26D85
:100BE000012161F30102C265304602B070BD00BF51
:100BF000DCF800E4DCF80035DCF8004643EA0E03DC
:100C00002343DB073FF459AF6EE70000F0B59BB01C
:100C1000044600201A90CDE91800CDE9160001A87D
:100C20005421FFF7D7FB206840F20051C5F20001C4
:100C3000884253D040F20041C5F20001884240F0A2
:100C4000A7804FF4803001904FF00040139001A82E
:100C500001F09CF8002818BFFFF730FC40F2700547
:100C6000C2F20005296841F24C00C4F202004A1C9D
:100C70002A6041B9016841F480410160016801F4D2
:100C80008041009100990168002641F00201016055
:100C9000006816A900F0020000900098022016904B
:100CA0000320179040F20040C4F60000189600F0B0
:100CB0004BFB0820C4F2020045F8040F25208021D8
:100CC0004FF48072C5E9010605F114004FF480630A
:100CD000C5E903614CC02E624FE000BF4FF4803085
:100CE00001904FF00040139001A801F04FF8002848
:100CF00018BFFFF7E3FB40F27001C2F200010A687F
:100D000041F24C00C4F20200531C0B6042B901686E
:100D100041F480410160016801F480410091009933
:100D200001684FF4807641F01001016000680027EF
:100D300000F01000009000980320179040F200404F
:100D4000C4F6000000F5406016A91696189700F04A
:100D5000FBFA0820C4F2020040F2B0151430C2F2CF
:100D6000000580224FF48063262185E88300C5E9D1
:100D70000372C5E90563C5E90777284600F060F806
:100D8000002805F1280618BFFFF798FB6565346059
:100D90001BB0F0BDB0B5D0E910C30268DCF800109C
:100DA00003F01F030424D2F800E09C400C4218BF5B
:100DB0001EF0040520D102249C400C4218BF1EF0F6
:100DC000020529D1D940090714D51EF0080108BF32
:100DD000B0BD116821F00E011160012101FA03F28A
:100DE000CCF80420C16380F82510416B002280F804
:100DF000242069B9B0BD00BF1168890603D4116809
:100E000021F004011160CCF80440016B0029F1D0FD
:100E1000BDE8B040084700BF1168890606D41168D4
:100E200021F00A011160012180F82510CCF804405E
:100E3000C16A0022002980F82420E9D1DAE7000005
:100E400000284FF0010100F085802DE9F04740F2C5
:100E5000000CC4F2020C03684FF6F8320CF5816EF8
:100E6000CBF6FD72734538BF02F580624CF6CD4477
:100E70001A44CCF6CC44A2FB042903F0FC02A2F1F4
:100E80000802A2FB04280CF580646FF00305D0E98A
:100E900002A607693CBF0024C4F2020405EA9905D2
:100EA000C0E91045022480F825401C6847F6F0721E
:100EB00024EA0202324346693A4387693243C669EB
:100EC0003A43076A32433A4342EA0A021A600CF58F
:100ED0000262734538BF0CF50062AB180CF508626E
:100EE000C264C8F3041201FA02F540F68401BAF5AF
:100EF000804FC4F202018364056505D1002242607F
:100F00001A600D6018E000BF4268D4B2013A032AAB
:100F10004FF000021C600D600ED8631E01EB8307CA
:100F200047F87C2F03F01F0201239340C1F8C03023
:100F3000BC313A4602E000BF00210023C0E9152180
:100F400000210122C365C16380F8252080F82410A8
:100F5000BDE8F04708467047002804BF01207047ED
:100F6000F0B581B0044690F85C0028B9002084F800
:100F70005D00204600F024F92068816921F010010D
:100F8000816100F0C1FA054620688169090705D52D
:100F900000F0BAFA401B0B28F6D310E0816941F04B
:100FA0000101816100F0B0FA054600BF2068816947
:100FB000C9070FD100F0A8FA401B0B28F6D3206E0A
:100FC000032140F001002066012084F85C1001B08C
:100FD000F0BD00BF826946F2004CC4F2000C42F042
:100FE00002026045826102D16268CCF80021227C55
:100FF0008369012A23F0400318BF40338361627C78
:101000008369012A23F4804308BF03F58043836189
:10101000A27C8369012A23F4805318BF03F580530F
:1010200083618569D4E902E325F4407545EA0E053C
:101030008561856925F0A4058561056925F01005A0
:1010400005619BB1012B0DD0022B09D08569032BC3
:1010500045F080058561056945F01005056105D1FC
:10106000202300E0042385692B43836104F11405E8
:101070002ACD226A6FF0FF075E1E07EB052545EAC1
:101080004665013A2A430025CFF6FF7505EB01417D
:101090001143BEF5407FC16110D104F1240646CE54
:1010A000236B013A07EB06273A436FF00F0707EB74
:1010B00003131A4305EB01411143C160D4E90D1339
:1010C000E26BD0F8C0704AF250763A43C0F8C020C4
:1010D0000CF580670CF58042B84204BF4AF25072AA
:1010E000C4F200020CF50067C4F20006B84208BF63
:1010F00006F554722264D0F8807027F4F81747EA96
:101100000141C0F8801002F170016164D0F88010D4
:1011100021F0706141EA0361C0F8801002F1B00073
:10112000A06402F5C470E06402F51870206502F551
:101130001E70606502F55470002100BFC2E9001105
:10114000C2E90211C2E90411C2E90611C2E908119B
:10115000C2E90A11C2E90C11C2E90E11C2E910116B
:10116000C2E91211C2E91411C2E91611C2E918113B
:10117000C2E91A11C2E91C11C2E91E11C2E920110B
:10118000C2E92211C2E92411C2E92611C2E92811DB
:10119000C2E92A11C2E92C11C2E92E11C2E93011AB
:1011A000C2E93211C2F8D010D4328242C6D3002034
:1011B0000121A065206684F85C1001B0F0BD00003C
:1011C00010B59CB0044600201B90CDE91900CDE974
:1011D000170002A85421FFF7FDF8206846F60041E9
:1011E000C4F20001884271D046F60001C4F2000149
:1011F00088423BD046F20041C4F20001884240F0F0
:10120000A0804FF4805002904FF00070109002A820
:1012100000F0BCFD002818BFFFF750F940F2D401E0
:10122000C2F200010A6841F24C00C4F20200531CF1
:101230000B6042B9C16841F00071C160C16801F042
:10124000007101910199016841F008010160006895
:10125000092100F00800019001980320179040F246
:101260000040C4F6000000F5006061E04FF48050DB
:1012700002904FF00070109002A800F087FD002847
:1012800018BFFFF71BF940F2D401C2F200010A684F
:1012900041F24C00C4F20200531C0B6042B9C16819
:1012A00041F00071C160C16801F0007101910199C4
:1012B000016841F0020101600068092100F00200AC
:1012C000019001984FF440502DE000BF4FF4805042
:1012D00002904FF00070109002A800F057FD002817
:1012E00018BFFFF7EBF840F2D401C2F200010A6820
:1012F00041F24C00C4F20200531C0B6042B9C168B9
:1013000041F00071C160C16801F000710191019963
:10131000016841F00201016000680B2100F0020049
:10132000019001981820179040F20040C4F6000088
:101330000222189200221B9117A9CDE9192200F070
:1013400003F81CB010BD00002DE9F04F83B00E680B
:10135000002E00F0CF8000F1200241F2004C0092FC
:1013600000F13847C4F6000C06224FEAB725604565
:1013700008BF0522052D38BF4FEAB72200250027F8
:101380004FF0000801920AE00E6808F1010836FAF1
:1013900008F207F1020705F1040500F0AB80012215
:1013A00002FA08FE16EA0E09EED0D1F804C00322B4
:1013B0000CF0030BABF1010602FA07F4012E6FEA01
:1013C000040A11D88468CE6804EA0A04BE40344393
:1013D0008460446824EA0E06CCF3001404FA08F48E
:1013E0002643466006E000BFBBF1030F02D14FF079
:1013F000030B21E0C6688C6806EA0A06BC40264357
:10140000BBF1020FC66017D16FF00302009B02EA26
:10141000580605F01C020F2453F806C004FA02FE19
:101420000C692CEA0E0C04FA02F242EA0C029A5100
:10143000D1F804C00CF0030B02680BFA07F302EAC0
:101440000A021A431CF4403F02609DD041F260033F
:10145000C4F202031A6840F2004E42F001021A6020
:101460001A68C4F2010E02F001020292029A28F0F8
:1014700003024FF6084C7244CFF6FF7C52F80C3052
:1014800005F00C060F24B440A343019C04FA06F6B1
:10149000334342F80C30DEF808204B6842EA090674
:1014A00040F20C4CDC0258BF22EA0906CEF8086074
:1014B000C4F2010CDCF800209C0242EA090658BF85
:1014C00022EA0906CCF80060DEF804209C0342EA18
:1014D000090658BF22EA0906CEF80460DEF80020AB
:1014E000DB0342EA090658BF22EA0906CEF800608B
:1014F0004AE700BF03B0BDE8F08F00001823002AC0
:1015000008BF2823C150704740F66C70C2F200003B
:101510000068704790F84120202A03D190F84020BD
:10152000012A01D102207047242280F8412002685C
:10153000136823F001031360136823F480531360CE
:10154000136819431160116841F0010111602021F5
:1015500080F84110002180F8401000207047000002
:1015600090F84120202A03D190F84020012A01D18F
:1015700002207047242280F841200268136823F07B
:1015800001031360136823F4706343EA01211160BF
:10159000116841F001011160202180F84110002103
:1015A00080F8401000207047002804BF01207047D9
:1015B00010B590F8411031B9002180F84010044670
:1015C00000F04AF82046242180F8411090E81210DB
:1015D000C3680A68012B22F001020A6024F07062DD
:1015E0000A618A6822F400428A6003D14CF4004206
:1015F0008A6009E04CF40442022B8A6004D14A68F4
:1016000042F4006203E000BF4A6822F400624A60CC
:101610004A6800F1100C42F0007242F400424A6045
:10162000CA6822F40042CA609CE81C101A4342EACD
:101630000422CA60026A42EA0C020A600A6842F0A6
:1016400001020A6000212022416480F841200163E8
:1016500080F84210002010BD2DE9F0419CB00446F6
:1016600000201B90CDE91900CDE9170002A85421F4
:10167000FEF7B0FE206847F2FF71C4F20001884215
:101680003ADC45F20041C4F20001884272D045F6CE
:101690000001C4F20001884240F0E5808020029001
:1016A00002A800F073FB002818BFFEF707FF41F205
:1016B0004C04C4F20204206817A940F00100206025
:1016C000206800F00100019001984FF440701790DD
:1016D000122018900020CDE9190004201B904FF033
:1016E0009040FFF731FEE06840F48000E060E06881
:1016F00000F48000B5E000BF47F60001C4F200012D
:10170000884200F07F8048F20041C4F20001884224
:1017100040F0A9804FF40030029002A800F036FBA0
:10172000002818BFFEF7CAFE41F24C04C4F20204BE
:10173000206817A940F004002060206800F0040031
:1017400001900198C0201790122018900020CDE938
:10175000190008201B9040F60000C4F60000FFF7B7
:10176000F3FD206940F002002061206900F00200D2
:1017700077E000BF4020029002A800F007FB00289D
:1017800018BFFEF79BFE41F24C05C4F20205286823
:1017900017AC40F00100286028684FF0120800F0F4
:1017A0000100019001982868002740F0020028609D
:1017B0002868042600F00200019001984FF40040D0
:1017C00017904FF090402146CDF86080CDE9197711
:1017D0001B96FFF7B9FD8020CDE9170840F6000001
:1017E000C4F60000A0F580602146CDE919771B966C
:1017F000FFF7AAFDE86840F40010E860E86800F42C
:1018000000102EE04FF48070029002A800F0BEFAA3
:10181000002818BFFEF752FE41F24C04C4F2020445
:10182000206817A940F004002060206800F0040040
:10183000019001984FF440701790122018900020EA
:10184000CDE9190008201B9040F60000C4F6000006
:10185000FFF77AFDE06840F08040E060E06800F06B
:101860008040019001981CB0BDE8F08140F200007A
:1018700040F66C71C2F20000C2F2000140680A68D2
:10188000104408607047000080B5032000F08CF819
:101890000F2000F009F800281CBF012080BD00F0D7
:1018A0002BF8002080BD0000B0B540F20005C2F268
:1018B00000056968F1B1044640F20800C2F2000078
:1018C0004FF47A720068B2FBF1F1B0FBF1F001F075
:1018D0007BF901460F2C4FF001000AD8002918BFF0
:1018E000B0BD4FF0FF302146002200F031F800205B
:1018F0002C60B0BD0120B0BD82B041F25800C4F2EE
:101900000200816841F001018160816801F00101FC
:1019100001910199016841F080510160006800F077
:1019200080500090009802B000F026BA002848BF0E
:10193000704700F01F01012202FA01F11C2202EAA5
:10194000D0004EF20012CEF200028150704700002B
:1019500010B54EF60C5CCEF2000CDCF80030C3F390
:10196000022E8EF00704042C28BF0424BEF10303CA
:101970004FF0FF3E0EFA04F438BF0023A143994014
:101980000EFA03F39A43114300F00F0200F1604393
:101990000901043A03F564436244002848BF02F198
:1019A0000C03197010BD00004EF60C51CEF2000170
:1019B0000A684FF6FF031A4060F30A2242F0806083
:1019C00040F0FD700860704701220168C0F8D02225
:1019D000002280F8C822B1F8540040F00100A1F8BC
:1019E0005400B1F8540040F002020020A1F8542045
:1019F00070470000002804BF01207047F0B581B097
:101A0000044690F8910228B9002084F890022046FC
:101A100000F0FEF8032084F89102206804F090F8AA
:101A200094F804E0BEF1000F00F0E0800EF0030C2B
:101A3000BEF1040F4FF0000238D30EF0FC03A4F106
:101A4000A0000321012500BFCE1E80F8B0608E1ECD
:101A500080F8D8604E1E80F8006180F828110E1DB5
:101A6000013180F8B15080F8B320C0E93022C0F8CD
:101A7000C82080F8D95080F8DB20C0E93A22C0F8AD
:101A8000F02080F8015180F80321C0E94422C0F819
:101A9000182180F8295180F82B21C0E94E22C0F886
:101AA0004021A03099423146CED1F21EBCF1000F48
:101AB0002ED004F1100002EB820100EBC1050123DE
:101AC00000F831200021BCF1010F6B70E970C5E90D
:101AD0000411A9611CD0551C05EB850600EBC60757
:101AE000BCF1020F7B7000F83650F970C7E90411A1
:101AF000B9610DD0911C01EB810200EBC2030125FD
:101B000000F8321000205D70D870C3E904009861BD
:101B1000BEF1000F6AD0BEF1040F4FF0000235D3C2
:101B20000EF0FC0003212346CF1E83F850718F1E58
:101B300083F878714F1E83F8C8110D1D013183F8A9
:101B4000512183F85321C3E95822C3F8682183F84F
:101B5000792183F87B21C3E96222C3F8902183F8BD
:101B6000A12183F8A07183F8A321C3E96C22C3F8F3
:101B7000B82183F8C92183F8CB21C3E97622C3F8C1
:101B8000E021A03381422946CED1EA1EBCF1000FEC
:101B90002CD004F5A87002EB820300EBC3070021F0
:101BA000BCF1010F797000F83320F970C7E9041116
:101BB000B9611BD0531C03EB830700EBC706BCF1D4
:101BC000020F717000F83730F170C6E90411B1618D
:101BD0000CD0911C01EB810200EBC20300275F7067
:101BE00000F83210DF70C3E904779F6194E80700C2
:101BF00003F098FF00200121207384F89112A17A4C
:101C0000012903D12046FFF7DFFE002001B0F0BD1F
:101C100010B596B0044601A804305021FEF7DAFB57
:101C2000206845F60041C4F20001884202D016B097
:101C300010BD00BF4FF40050019001A800F0A6F8BD
:101C4000002818BFFEF73AFC41F25800C4F2020027
:101C5000016841F400010160006800F40000009098
:101C6000009816B010BD000047F21401C4F2000144
:101C700051F8142CB0F5007F3CD0002874D1C86E08
:101C800002F4C06220F48070B2F5806FC8662FD174
:101C900051F8140C012262F34A2041F8140C40F26E
:101CA0000800C2F200000068322250434DF6836201
:101CB000C4F21B32A0FB0202900C00BF0A6852055E
:101CC00011D5421C0FD00A6852050CD558B10A68CC
:101CD000520508D5012806D00A68520503D5022806
:101CE000A0F10400EAD10868400544BF0320704712
:101CF00000207047C86E02F4C06240F48070B2F5F4
:101D0000806FC866F4D151F8140C012262F34A20A6
:101D100041F8140C40F20800C2F2000000683222C0
:101D200050434DF68362C4F21B32A0FB0202900CBA
:101D30000A68520511D5421C0FD00A6852050CD50D
:101D400058B10A68520508D5012806D00A6852051C
:101D500003D50228A0F10400EAD10868400544BF79
:101D600003207047C4E700BF022060F34A2241F815
:101D7000142C00207047000047F20800C4F2000055
:101D8000016841F480410160704700002DE9F04195
:101D900082B00446807841F288060007C4F2020649
:101DA00002D400202FE000BF56F8300C5FEAC008D4
:101DB0000BD456F8300C40F0805046F8300C56F8F2
:101DC000300C00F080500190019847F20007C4F2F7
:101DD0000007386840F480703860FFF795FB0546CF
:101DE0003868C00500F10C81FFF78EFB401B02280C
:101DF000F6D90320B8F1000F05D456F8301C21F0B5
:101E0000805146F8301C2168CA0717D18A071DD4B3
:101E10004A0723D40A0729D4CA062FD48A0635D400
:101E20004A063BD40A0641D4CA0547D48A034DD496
:101E30008A0553D44A0559D467E000BF3268636805
:101E400022F003021A4332608A07E1D53268A368A0
:101E500022F00C021A4332604A07DBD53268E3688D
:101E600022F030021A4332600A07D5D5326823695E
:101E700022F0C0021A433260CA06CFD532686369C5
:101E800022F440721A4332608A06C9D53268A369C7
:101E900022F440621A4332604A06C3D53268E369CD
:101EA00022F440521A4332600A06BDD53268236AD2
:101EB00022F440421A433260CA05B7D53268636AD9
:101EC00022F440321A4332608A03B1D57269A36AA0
:101ED00022F003021A4372618A05ABD53268E36AC5
:101EE00022F440221A4332604A050ED53268236B31
:101EF00022F440121A43B3F5801F326005D156F820
:101F00007C2C42F4801246F87C2C0A050ED53268EF
:101F1000636B22F440021A43B3F5800F326005D19F
:101F200056F87C2C42F4801246F87C2CCA040ED55C
:101F30003268A36B22F040721A43B3F1807F3260A3
:101F400005D156F87C2C42F4801246F87C2C8A0489
:101F50000ED53268E36B22F040621A43B3F1006F92
:101F6000326005D156F87C2C42F4801246F87C2C65
:101F70004A040ED53268236C22F040621A43B3F152
:101F8000006F326005D156F87C2C42F4801246F87E
:101F90007C2C0A040ED53268636C22F040521A433E
:101FA000B3F1805F326005D156F87C2C42F4803268
:101FB00046F87C2CCA030ED53268A36C22F040424E
:101FC0001A43B3F1804F326005D156F87C2C42F4AD
:101FD000803246F87C2C49030ED57169E26C21F4FD
:101FE00040111143B2F5001F716105D156F87C1CF8
:101FF00041F4801146F87C1C02B0BDE8F08100BFBE
:10200000B06810F4407010D0216D88420BD0B068D9
:10201000B16820F4407041F48031B160B16821F4BE
:102020008031B160B060C0070CD1B068216D20F480
:1020300040700843B0600020B8F1000F3FF5E3AEF8
:10204000DBE600BFFFF760FA054641F2883700BFC4
:10205000B0688007E9D4FFF757FA401BB842F7D9B8
:10206000C7E600002DE9F047002863D042F2000ADD
:10207000C4F2020A0446DAF800000D4600F00F0030
:1020800088420CD2DAF8000020F00F002843CAF88A
:102090000000DAF8000000F00F00A8424AD12168E1
:1020A00041F20808C807C4F2020803D1880740F1CA
:1020B000D080B5E0606858F8082C022838D0032892
:1020C0003CD1920136D5D8F80420D8F8043042F239
:1020D0000046C3F3031302F00302D8F8047001337F
:1020E000C0F2F406032A04BF43F20066C0F26E1683
:1020F000B6FBF3F2D8F80430C7F306277A43C3F3EC
:102100004163022707EB4303B2FBF3F24BF20043B8
:10211000C0F2C4439A4259D9D8F8002012F0F00F07
:1021200049D0890752D5A16800294FD143E000BFAB
:10213000910305D40120BDE8F08700BF5105F9D512
:10214000D8F8001001F00C0104293FD0D8F8001095
:1021500001F00C01082939D0D8F8001001F00C0169
:102160000C2933D1D8F80410D8F8042042F20047E3
:10217000C2F3031201F00301D8F804300132C0F2B7
:10218000F407032904BF43F20067C0F26E17B7FBE0
:10219000F2F1D8F80420C3F306235943C2F3416295
:1021A000022303EB4202B1FBF2F14BF20042C0F218
:1021B000C44291420AD9D8F80010082262F30711EC
:1021C0004FF00109C8F8001002E000BF4FF000090D
:1021D000D8F8001021F003010843C8F80000FFF709
:1021E00093F9064641F28837D8F80000616800F09C
:1021F0000C00B0EB810F07D0FFF786F9801BB842C7
:10220000F2D90320BDE8F0872168880708D4B9F126
:10221000000F1ED0D8F8000020F0F00017E000BF3B
:10222000480705D5D8F8000040F4E060C8F8000081
:10223000080706D5D8F80000072262F30D20C8F879
:102240000000D8F80000A26820F0F0001043C8F8A1
:102250000000DAF8000000F00F00A8421BD9DAF8FD
:10226000000020F00F002843CAF80000FFF74CF9E7
:10227000064641F2883700BFDAF8000000F00F0090
:10228000A84207D0FFF740F9801BB842F4D90320D9
:10229000BDE8F0872168480707D5D8F80000E26854
:1022A00020F4E0601043C8F80000080708D5D8F80B
:1022B0000000216920F4605040EAC100C8F8000025
:1022C000D8F8000042F20041C0F2F40100F00C0026
:1022D000042808462DD0D8F8000000F00C0008288B
:1022E00043F20060C0F26E1023D0D8F8002002F054
:1022F0000C020C2A1CD1D8F80420D8F8043002F0C3
:102300000302C3F30313D8F804700133032A08BF90
:102310000146B1FBF3F0D8F80410C7F30627C1F368
:1023200041610222784302EB4101B0FBF1F000E091
:102330000020D8F8001045F66442C1F30311C0F63E
:102340000002515C40F2080201F01F0120FA01F185
:1023500040F20000C2F200000068C2F20002116008
:10236000BDE8F047FFF7A0BA40F2080041F20801CB
:10237000C2F20000C4F202010068096845F6744226
:10238000C1F30221C0F60002515C01F01F01C840F8
:102390007047000040F2080041F20801C2F200005C
:1023A000C4F202010068096845F67442C1F3C22113
:1023B000C0F60002515C01F01F01C84070470000E8
:1023C00041F20C01C4F2020151F8040C42F2004245
:1023D000C0F2F40200F00C000428104608BF704759
:1023E00051F8040C00F00C00082843F20060C0F221
:1023F0006E1025D051F8043C03F00C030C2B1CBFCD
:102400000020704780B5D1F800C00B680CF0030CB9
:10241000C3F3031E0B680EF1010EBCF1030F08BFDE
:1024200002460968B2FBFEF0C3F30623C1F3416123
:102430000222584302EB4101B0FBF1F0BDE88040BD
:1024400070470000002804BF012070472DE9F041CB
:1024500082B00446007841F20006C007C4F20206CA
:102460001ED1207880073DD42078000764D42078DE
:10247000400700F187802078800600F1D980E56967
:10248000002D00F04282B06800F00C000C2840F0F3
:102490003181012D40F08E81012002B0BDE8F08134
:1024A000B06800F00C01F068082961D0032281F0C7
:1024B0000C0122EA00000844B0FA80F0400957D12C
:1024C00061683068B1F5803F07D0B1F5A02F40F0CA
:1024D000E38040F480203060306840F48030306029
:1024E000E4E000BFB068F16800F00C00042871D08F
:1024F00001F0030180F00C0081F002010844B0FA01
:1025000080F0400966D1E1683068002900F0E08081
:1025100040F480703060FEF7F7FF054630684005F4
:1025200000F10A81FEF7F0FF401B0228F6D90320D4
:1025300002B0BDE8F08100BF6169D6F894000029BF
:1025400000F0948040F00100C6F89400FEF7DCFF34
:10255000054600BFD6F8940080073FF588AFFEF728
:10256000D3FF401B0228F5D9032002B0BDE8F0815B
:10257000306880037FF575AF606800287FF471AF25
:102580003EE000BFB06D5FEAC00808D4B06D40F017
:102590008050B065B06D00F080500190019847F216
:1025A0000007C4F200073868C0052DD4386840F42D
:1025B00080703860FEF7A8FF054600BF3868C00588
:1025C00022D4FEF7A1FF401B0228F7D9032002B056
:1025D000BDE8F0813068400501D5E06880B17068E1
:1025E000216920F0FE4040EA0160706040F2000086
:1025F000C2F200000068FFF757F900283FF434AF3B
:10260000012002B0BDE8F081A168D6F89000012950
:1026100008D0052940F0AE8040F00400C6F89000D4
:10262000D6F8900040F00100C6F89000AEE000BF80
:10263000A169D6F89800002900F0868040F00100DA
:10264000C6F89800FEF760FF054600BFD6F8980070
:1026500080073FF514AFFEF757FF401B02284FF0ED
:102660000300F3D902B0BDE8F08100BF20F0010003
:10267000C6F89400FEF748FF054600BFD6F8940060
:1026800080077FF5F4AEFEF73FFF401B0228F5D927
:10269000032002B0BDE8F08120F480303060306863
:1026A000002920F48020306000F0BE80FEF72CFF6F
:1026B000054600BF306880033FF5D3AEFEF724FF28
:1026C000401B6428F6D9032002B0BDE8F08100BFAA
:1026D00020F480703060FEF717FF05463068400533
:1026E0007FF5C2AEFEF710FF401B02284FF003003B
:1026F000F4D9B7E7306820F080703060FEF704FF4F
:10270000022D05460CD100BF3068800140F1B88031
:10271000FEF7FAFE401B02284FF00300F4D9A1E7B0
:102720003068800140F1EA80FEF7EEFE401B02288F
:102730004FF00300F4D995E77068216920F0FE405E
:1027400040EA016070608FE620F00100C6F8980052
:10275000FEF7DAFE054600BFD6F8980080077FF541
:102760008EAEFEF7D1FE401B02284FF00300F3D9D6
:1027700078E700BF20F00100C6F89000D6F890007E
:10278000002920F00400C6F890005DD0FEF7BCFEE2
:10279000054641F2883700BFD6F89000800765D41F
:1027A000FEF7B2FE401BB842F6D9032002B0BDE8E6
:1027B000F08100BFF068216A00F003028A427FF4D2
:1027C0001FAF626A6FF00F0300F0F00103EB02121B
:1027D00091427FF415AFA16A00F4FE42B2EB012FE3
:1027E0007FF40EAFE16A00F07842B2EBC16F7FF484
:1027F00007AF226B0023CFF6E07303EA025200F426
:10280000C001A2F5001291427FF4FAAE616B4FF065
:102810007E4202EA016100F0C06001F17E4188421F
:102820007FF4EEAE71E000BFFEF76EFE054600BF1E
:10283000306880037FF515AEFEF766FE401B642806
:102840004FF00300F4D90DE7FEF75EFE054641F2B6
:10285000883700BFD6F89000800707D5FEF754FEF2
:10286000401BB8424FF00300F4D9FBE6B8F1000F6B
:102870003FF501AEB06D20F08050B065FBE500BFC4
:10288000F06848F20C01C0F29F1104F1200700EA41
:10289000010C8ECF6FF00F00D4E90C5400EB021046
:1028A0000022CFF6E07241EA0C0102EA0552084329
:1028B000A2F500124FF07E4540EA032005EA0465C8
:1028C000104305F17E4540EAC7602843F060306858
:1028D00040F080703060F06840F08070F060FEF78B
:1028E00013FE0446306880010FD4FEF70DFE001B76
:1028F00002284FF00300F5D9B4E600BFF0684FF6A8
:10290000FC71CFF6EE610840F060002002B0BDE837
:10291000F0810000002804BF01207047416A19B10E
:1029200000210161142104E04168B1F5827F02D0E9
:102930001C2100224250B0B50025856290F85D1040
:1029400029B980F85C50044600F056F82046022170
:1029500080F85D100168D0F80CE00B68BEF5E06F00
:1029600023F040030B6098BF01254EF40063B3F5DC
:10297000706F4FEA053C1CBF00258562D0E9015409
:10298000D0E9043205F4827504F404442C4403F0C5
:1029900002032344846902F00102C5691A4404F465
:1029A00000731A4405F03803056A1A4405F08003E1
:1029B000856A1A4405F400531A430A600422436AE4
:1029C0000EF4706502EA1442446B45EA0C0503F00C
:1029D00010032A4304F008041A4322434A60CA69D8
:1029E00022F40062CA6100210122016680F85D20A4
:1029F000BDE8B04008467047F0B587B0006842F6C1
:102A0000FF71C4F2010188424FF000010691CDE947
:102A10000411CDE9021141DC43F60001C4F20001CA
:102A200088426BD043F60041C4F20001884240F076
:102A3000C98041F24C00C4F20200C16840F2004477
:102A400041F40041C160C168C4F6000401F40041D2
:102A5000019101990168022541F0040101600168BA
:102A6000002601F00401019101990168062741F057
:102A700002010160006802A900F0020001900198C3
:102A80004FF44060029004F580600395CDE9046640
:102A90000697FEF759FC202064E000BF43F6004192
:102AA000C4F20101884263D043F20001C4F2010183
:102AB000884240F0878041F24C00C4F20200416934
:102AC0004FF0904441F480514161416901F48051DB
:102AD00001910199016841F001010160006800F075
:102AE000010001900198E020029002200390002054
:102AF000CDE904000520069060E000BF41F24C00E3
:102B0000C4F20200C16840F2004441F48041C16057
:102B1000C168C4F6000401F4804101910199016883
:102B2000022541F0200101600168002601F020012A
:102B3000019101990168052741F0020101600068D7
:102B400002A900F00200019001984FF48060029009
:102B500004F580500395CDE904660697FEF7F4FB73
:102B60004FF440400290039504960596069725E0A1
:102B700041F24C00C4F20200416941F4004141615C
:102B8000416901F4004101910199016841F010018E
:102B90000160006800F01000019001984FF4E040DF
:102BA0000290022003900020CDE904000520069049
:102BB00040F20040C4F6000000F5406402A920463F
:102BC000FEF7C2FB07B0F0BD411E0020B0EB116F55
:102BD0001CBF012070474EF21002CEF2000251607D
:102BE0004EF62351CEF20001F0230B7007219060C6
:102BF0001160704770470000704700007047000088
:102C000090F83C20012A04BF02207047B0B5D1E9FA
:102C10000232D1E900CE22F47C5223F4705343EA0D
:102C2000020448F2FF73CEF6F0730EEA0302224369
:102C300003F5006404EA0C0442EA040C0C6903F591
:102C4000C05222404C6942EA0C02224303F5605410
:102C500022400C6B03F5F04323401A438B6940F28A
:102C6000000CCC69CEF6FF7C0CEA034C14430268DE
:102C700042F60043C4F201039A4244EA0C030BD02B
:102C800045F20004C4F20104A24205D043F200441C
:102C9000C4F20104A24217D14FF6FF74CDF60F44DF
:102CA00003EA040ED1E9084CD1E90A310025CDF63A
:102CB000F04505EA035343EA0E0324F008552B437D
:102CC0002CF000552B430B430021536480F83C103B
:102CD0000020B0BD70470000704700007047000042
:102CE00090F83C20012A4FF0020266D070B580F8BF
:102CF0003D20026842F6004C54689368C4F2010C0F
:102D000045F2000E6245C4F2010E18BF72452BD188
:102D10004D6824F470042C434FF68F75CFF6FF55A1
:102D20000E682C4042F6FF35C4F201053443AA4236
:102D300054600DDC40F2FF76C4F20006B2421BDCA8
:102D4000B2F1804F2CD040F20046C4F2000625E0DC
:102D500043F6FF74C4F20104A24219DC62451FD09D
:102D600043F2004618E000BF43F20045C4F20105FB
:102D7000AA42CDD0D0E700BF40F60006C4F200065C
:102D8000B2420DD040F60046C4F2000606E000BF95
:102D9000724505D044F20006C4F20106B24204D1E5
:102DA000896823F08003194391600121002280F893
:102DB0003D1080F83C20BDE8704010467047000090
:102DC00070470000002804BF0120704710B504467A
:102DD00090F83D0028B9002084F83C00204600F01F
:102DE00023F8022084F83D002068211D02F0D0F96C
:102DF000012084F8480084F83E0084F83F0084F8FD
:102E0000400084F8410084F8420084F8430084F8CC
:102E1000440084F8450084F8460084F8470084F8AC
:102E20003D00002010BD000080B582B0006843F670
:102E3000FF71C4F20101884222DC42F6FF31C4F284
:102E4000010188423CDC41F20001C4F200018842E9
:102E500066D041F20041C4F20001884240F0AD80EA
:102E600041F26000C4F2020050F8081C41F0200159
:102E700040F8081C50F8080C00F020009BE000BF50
:102E800044F2FF71C4F20101884231DC44F20001D6
:102E9000C4F2010188425FD044F20041C4F2010152
:102EA000884240F08A8041F26000C4F2020001686A
:102EB00041F400310160006800F4003063E000BFBD
:102EC00042F60041C4F20101884251D043F2004170
:102ED000C4F20101884270D141F26000C4F20200E4
:102EE000016841F400510160006800F4005062E0A4
:102EF00044F60001C4F20101884251D045F20001BC
:102F0000C4F20101884258D141F26000C4F20200CB
:102F1000016841F480110160006800F480104AE00B
:102F200041F26000C4F2020050F8081C002241F097
:102F3000100140F8081C50F8080C002100F01000A7
:102F4000019001983620FEF703FD362002B0BDE85F
:102F50008040FEF7EBBC00BF41F26000C4F202000B
:102F6000016841F480310160006800F4803022E0A3
:102F700041F26000C4F20200016841F400610160A6
:102F8000006800F4006001900198192000210022DF
:102F9000FEF7DEFC192002B0BDE88040FEF7C6BC9B
:102FA00041F26000C4F20200016841F48021016036
:102FB000006800F480200190019802B080BD0000FC
:102FC00090F83C20012A4FF0020200F0C08080B54A
:102FD00080F83D20D0F800C08822DCF80830CFF619
:102FE000CE721A40CCF808200B68B3F5805F19DB6D
:102FF0001F22C0F2100293421EDD3F21C0F21001D9
:103000008B4240F385804021C0F210018B4200F0DA
:1030100089805021C0F210018B4200F08380702122
:103020007CE000BF3F2B25DC1F2B53DC002B79D02D
:10303000102B77D0D2E000BFB3F5801F44DAB3F590
:10304000805F7BD0B3F5005F40F0C880D1E901E339
:10305000C968DCF8082043EA0E0322F47F4243EA01
:1030600001211143CCF80810DCF8081041F480412C
:1030700062E000BF5F2B33DC402B6BD0502B40F065
:10308000AD80D1F804E0C968DCF82030DCF82020FD
:1030900022F00102CCF82020DCF8182022F0F00207
:1030A00042EA011123F00A0242EA0E02CCF818109B
:1030B000CCF82020DCF808104FF68872CFF6CF72DB
:1030C0001140573138E000BF2CD0B3F1101F29D088
:1030D00084E000BF202B25D0302B23D07EE000BF22
:1030E000602B59D0702B79D1D1E901E3C968DCF8A4
:1030F000082043EA0E0322F47F4243EA01211143F0
:10310000CCF80810DCF8081041F0770114E000BF9B
:103110002021C0F210018B4204D03021C0F21001F6
:103120008B425BD1DCF808104FF68872CFF6CF7275
:103130001140194341F00701CCF808100022012189
:1031400080F83D10002180F83C10BDE8804010461A
:10315000704700BFD1F804E0C968DCF82030DCF823
:10316000202022F00102CCF82020DCF8182022F0E8
:10317000F00242EA011123F00A0242EA0E02CCF800
:103180001810CCF82020DCF808104FF68872CFF623
:10319000CF7211404731CFE7D1F804E0C968DCF8BD
:1031A0002030DCF8202022F01002CCF82020DCF8BF
:1031B000182022F4704242EA013123F0A00242EAD0
:1031C0000E12CCF81810CCF82020DCF808104FF6BE
:1031D0008872CFF6CF7211406731ADE70122AEE7BA
:1031E000002804BF012070472DE9F047044690F8FD
:1031F0003D000D4628B9002084F83C00204600F030
:103200004BF8022084F83D0020684BF6F872816884
:10321000CFF6FE7211408160211D01F0B9FF2068D8
:103220004FF6FF7881688269D0F820C0D5E9003E6A
:10323000D5E9026A43EA0109AB6922EA080246EAD3
:1032400003234FF6FC46B343D5E9076742EA0A0277
:1032500029691A4342EA062242EA01112CF0AA0225
:103260006B6942EA0E0241EA073142EA0312C0F8F2
:10327000089081610262012084F8480084F83E00D1
:1032800084F83F0084F8440084F8450084F83D0049
:103290000020BDE8F087000080B586B000680021FE
:1032A00000F140404FEAB02003280591CDE9031119
:1032B0000291019100F27D80DFE800F002541A389B
:1032C00041F24C00C4F20200C16841F00101C1604A
:1032D000C16801F0010100910099016841F0080105
:1032E0000160006800F0080000900098182017E0C6
:1032F00041F24C00C4F20200C16841F00401C16017
:10330000C16801F0040100910099016841F00801D1
:103310000160006800F00800009000984FF44050F1
:10332000019040F60040C4F6000039E041F24C0044
:10333000C4F20200C16841F00801C160C16801F037
:10334000080100910099016841F0010101600068E5
:1033500000F0010000900098032001904FF0904091
:103360001EE000BF41F24C00C4F20200C16841F00F
:103370000201C160C16801F0020100910099016879
:1033800041F010010160006800F01000009000980A
:103390000C20019040F60040C4F6000000F580606B
:1033A000022102910022059101A9CDE90322FDF736
:1033B000CBFF06B080BD000070470000F0B581B0C3
:1033C00004460068C5680669B10717D515F0020103
:1033D00014D06FF00201016101212177806980071B
:1033E00004D02046FFF7E8FF06E000BF204600F0CB
:1033F000B7F9204600F0E8FB00202077700719D5C8
:1034000015F0040016D020686FF00401016102215C
:103410002177806910F4407F04D02046FFF7CCFF6D
:1034200006E000BF204600F09BF9204600F0CCFBF0
:1034300000202077300717D515F0080014D0206839
:103440006FF00801016104212177C069800703D072
:103450002046FFF7B1FF05E0204600F081F9204645
:1034600000F0B2FB00202077F00619D515F010000F
:1034700016D020686FF01001016108212177C06922
:1034800010F4407F04D02046FFF796FF06E000BF0F
:10349000204600F065F9204600F096FB00202077DA
:1034A000F00718BF15F0010006D020686FF0010189
:1034B0000161204600F08AFB16F4025F05F08007E8
:1034C00018BF002F02D1F00509D410E020686FF476
:1034D000025101612046FFF78FFBF00507D537B198
:1034E00020686FF4807101612046FFF783FB70064E
:1034F00009D515F0400006D020686FF04001016149
:10350000204600F065FBB00609D515F0200006D076
:1035100020686FF0200101612046FFF76FFBF00289
:1035200009D515F4801006D020686FF48011016170
:103530002046FFF7D1FBB00209D515F4001006D0E4
:1035400020686FF4001101612046FFF7C3FB700291
:1035500009D515F4800006D020686FF48001016160
:103560002046FFF7BBFB30020CD515F4000009D054
:1035700021686FF4000220460A6101B0BDE8F04006
:10358000FFF71EBC01B0F0BD2DE9F04387B0006825
:103590000021A0F18040A0F596304FEAB020092824
:1035A0000691CDE904110391029100F2D580DFE884
:1035B00000F005D34DD3D333D3D3D37541F24C00B0
:1035C000C4F202000168022441F0040101600168B4
:1035D000002501F0040101910199016841F0010108
:1035E0000160006802A900F00100019001980B2021
:1035F000029040F20040C4F6000000F580600394A1
:10360000CDE904550694FDF79FFE4FF4806002A9B2
:1036100031C10595062014E041F24C00C4F20200CD
:10362000016841F001010160006800F001000190B3
:1036300001980C200290022003900020CDE90400A4
:10364000092006904FF0904083E000BF41F24C000B
:10365000C4F20200016840F2004441F0020101603E
:103660000068C4F6000400F00200019001984020B8
:103670000290052002250026069002A92046039507
:10368000CDE90466FDF760FE4FF4807102AA62C2C4
:103690000A212046059606915BE000BF41F24C00EE
:1036A000C4F20200016840F2004441F004010160EC
:1036B0000168C4F6000401F0040101910199016858
:1036C00002AD41F02001016001684FF0040901F0F2
:1036D0002001019101990168022641F00201016077
:1036E0000168002701F002010191019901684FF082
:1036F000060841F0100101600068294600F0100042
:103700000190019804F58060CDF808900396CDE90A
:103710000477CDF81880FDF717FE04F58050294690
:10372000CDE90296CDE904770696FDF70DFE03205C
:10373000069020462946CDE90296CDE90477FDF7AB
:1037400003FE04F54060CDE90266CDE90477CDF8CB
:10375000188002A9FDF7F8FD07B0BDE8F08300006E
:103760007047000090F83C30012B04BF02207047E6
:103770004FEAB202052A00F2ED812DE9F041DFE8BF
:1037800012F0070047019300ED0055009F0100BFB4
:1037900003681D6A1A6AA3F1804622F001021A62C8
:1037A0001A46D3F8048052F818CF8F68A6F59636DB
:1037B000D1F800E025F002054FEAB626092E45EAC9
:1037C00007050BD80127B74040F2E52427421FBF69
:1037D000CC6825F00C0524F004042543092E0CD8F0
:1037E0000124B44040F2E52634421FBFD1E905462A
:1037F00028F440773C4344EA06084FF68C74CFF631
:10380000FE740CEA040747EA0E07C3F804809F61C0
:103810004F6809695F631D629F6947F008079F61F0
:103820009F6927F004079F6188E100BF0368D3F810
:1038300020C01A6AA3F1804722F480321A621A4625
:10384000A7F596375D6852F8508FD1F800E08E6882
:103850004FEAB727092F0AD80124BC4040F2E527D8
:103860003C421EBF4C6925F4803545EA04252CF402
:10387000003747EA06474FF68C76CFF6FE760336DA
:1038800006EA080646EA0E065D601E654E6809698E
:103890009E641F621F6D47F008071F651F6D27F0AC
:1038A00004071F654AE100BF036842F600461D6A2F
:1038B0001A6AC4F2010622F480721A621A46D3F818
:1038C00004C052F81CEFB3428E68D1F8008025F492
:1038D000007545EA06250BD045F20006C4F2010644
:1038E000B34205D043F20046C4F20106B34207D109
:1038F000CE6840F2FF47360225F44065BE433543AB
:10390000A3F18046A6F596364FEAB626092E0DD8C5
:10391000012707FA06F640F2E5273E421FBFD1E92C
:1039200005672CF44054374344EA071C4FF68C7467
:10393000CFF6FE740EEA040747EA0807C3F804C08E
:10394000DF614F680969DF631D62DF6947F00807BF
:10395000DF61DF6927F00407DF61EFE0036842F60B
:1039600000461D6A1A6AC4F2010622F480521A62E5
:103970001A46D3F804C052F81C8FB3428E68D1F8AF
:1039800000E025F4005545EA06350BD045F2000667
:10399000C4F20106B34205D043F20046C4F2010668
:1039A000B34207D1CE6844F6FF77360325F440458D
:1039B000BE433543A3F18046A6F596364FEAB626B8
:1039C000092E0DD8012707FA06F640F2E5273E42F8
:1039D0001FBFD1E905672CF44044374344EA871CF4
:1039E00048F6FF44CFF6FF6404EA080444EA0E27D1
:1039F000C3F804C0DF614F6809691F641D62DF6995
:103A000047F40067DF61DF6927F48067DF6194E0D6
:103A1000036842F600461D6A1A6AC4F2010622F0E3
:103A200010021A621A465C6852F818CFB3428E68C8
:103A3000D1F800E025F0200545EA06150BD045F247
:103A40000006C4F20106B34205D043F20046C4F2B8
:103A50000106B34207D1CE686FF0400725F0C005DC
:103A600007EA06163543A3F18046A6F596364FEAD7
:103A7000B626092E0DD8012707FA06F640F2E527EB
:103A80003E421FBFD1E9056724F440643E4344EA47
:103A9000860448F6FF46CFF6FF660CEA060747EABB
:103AA0000E275C609F614F6809699F631D629F6973
:103AB00047F400679F619F6927F480679F613CE03E
:103AC0000368D3F820C01A6AA3F1804722F4801259
:103AD0001A621A46A7F596375D6852F8508FD1F8EA
:103AE00000E08E684FEAB727092F0AD80124BC40AE
:103AF00040F2E5273C421EBF4C6925F4802545EA8B
:103B000084252CF4001747EA065748F6FF46CFF6FF
:103B1000FF6606F5407606EA080646EA0E265D6070
:103B20001E654E680969DE641F621F6D47F40067F9
:103B30001F651F6D27F480671F650902136819430D
:103B400011600021BDE8F041002280F83C200846C9
:103B5000704700BF0121002280F83C2008467047D2
:103B6000002804BF0120704710B5044690F83D00BE
:103B700028B9002084F83C00204600F023F80220F9
:103B800084F83D002068211D01F002FB012084F82B
:103B9000480084F83E0084F83F0084F8400084F830
:103BA000410084F8420084F8430084F8440084F81B
:103BB000450084F8460084F8470084F83D00002062
:103BC00010BD000070470000704700007047000003
:103BD0007047000090F88410012904BF022070474C
:103BE0002421C0F8881001680A680B6822F000528E
:103BF00023F001030B60002343660A602021C0F814
:103C0000881080F8843000207047000090F88420ED
:103C1000012A04BF02207047B0B52422C0F88820D2
:103C20000268D0F864E0D2F800C01368BEF1000F5B
:103C300023F001031360936823F0606341EA0301FA
:103C4000916019D09368916845F6A44E490FC0F66B
:103C5000000E45F6AC451EF80140C0F60005695C53
:103C6000C3F34263E400B4FBF1F11EF80340EB5CE4
:103C7000E500B5FBF3F301E001210123A0F86A1090
:103C80002021A0F86830C2F800C0C0F888100021D8
:103C900080F884100020B0BD90F88420012A04BF71
:103CA00002207047B0B52422C0F888200268D0F8FE
:103CB00064E0D2F800C01368BEF1000F23F00103E6
:103CC0001360936823F0604341EA0301916019D0C7
:103CD0009368916845F6A44E490FC0F6000E45F66C
:103CE000AC451EF80140C0F60005695CC3F34263B1
:103CF000E400B4FBF1F11EF80340EB5CE500B5FB1A
:103D0000F3F301E001210123A0F86A102021A0F8BB
:103D10006830C2F800C0C0F88810002180F8841014
:103D20000020B0BD10B5D0B10446D0F8880028B945
:103D3000002084F88400204600F026F82420C4F8EF
:103D400088002068A16A026822F00102026011B1B5
:103D5000204601F0C7FA204601F0EEFB10B1012029
:103D600010BD00BF2168486820F490404860886812
:103D700020F02A008860086840F0010220460A60AE
:103D8000BDE8104001F022BBF0B59BB00446002016
:103D90001A90CDE91800CDE9160001A85421FCF7CE
:103DA00019FB206844F6FF71C4F20001884243DD2C
:103DB00045F20001C4F20001884271D043F60001CF
:103DC000C4F20101884200F0AD8048F20001C4F263
:103DD0000001884240F004812020019001A8FDF7F5
:103DE000D5FF002818BFFCF769FB41F24C00C4F274
:103DF0000200016941F001010161016901F0010165
:103E000000910099016841F002010160006800F032
:103E10000200009000984FF4406016900220179026
:103E20000020CDE9180008201A9040F60040C4F6A2
:103E30000000A0F50060D0E044F20041C4F20001AF
:103E4000884200F09F8044F60001C4F200018842DD
:103E500040F0C6800420019001A8FDF797FF0028DC
:103E600018BFFCF72BFB41F24C00C4F20200C16802
:103E700041F48021C160C16801F480210091009962
:103E8000016841F008010160006800F0080000903E
:103E900000984FF4407016900220179094E000BFF5
:103EA0001020019001A8FDF771FF002818BFFCF752
:103EB00005FB41F24C00C4F20200C16840F6004725
:103EC00041F48011C160C168C4F6000701F480119B
:103ED000009100990168022441F004010160016829
:103EE000002501F00401009100990168052641F0C8
:103EF00008010160006816A900F008000090009811
:103F00004FF480501690A7F580601794CDE91855AE
:103F10001A96FDF719FA042116AA384632C2CDE9DD
:103F200019565AE00120019001A8FDF72FFF002843
:103F300018BFFCF7C3FA41F24C00C4F20200416919
:103F400041F480414161416901F48041009100994F
:103F5000016841F004010160006800F00400009075
:103F6000009830201690022017900020CDE918000C
:103F700007201A9040F60040C4F60000A0F58060CB
:103F80002BE000BF022401A80194FDF7FFFE0028EA
:103F900018BFFCF793FA41F24C00C4F20200C1686A
:103FA00041F40031C160C16801F400310091009911
:103FB000016841F008010160006800F0080000900D
:103FC00000986020CDE91604002018901990072071
:103FD0001A9040F60040C4F6000016A9FDF7B4F9A7
:103FE0001BB0F0BDFEE7000010B58CB040F2D80069
:103FF00040F200410024C2F20000C5F200014FF47B
:104000004032042380E81600C0E9054301214FF443
:10401000F8624FF48063CDE90A44CDE90744CDE965
:104020000544CDE90344CDE90144C0E90344848358
:10403000016280F82440C0E90B2380F83810C46383
:1040400080F84040FCF7B6FC002818BFFCF736FAB1
:1040500040F2D800C2F2000009A90994FCF734FA32
:10406000002818BFFCF72AFA0220C0F23040019065
:1040700006207F2102900020049104210390CDE9C5
:10408000051040F2D800C2F2000001A9FCF7B6FA10
:10409000002818BFFCF712FA0CB010BDB0B588B0FC
:1040A00040F2441040F20051C2F20000C5F200019B
:1040B00000244FF4403280E81600012104250162FB
:1040C0004FF4F8614FF48062CDE90644C0E903443F
:1040D000C0E90545848380F82440C0E90B1280F8CC
:1040E0003840C46380F84040FCF764FC002818BFE7
:1040F000FCF7E4F94020C1F6201000900620CDE93D
:1041000001047F20CDE9030540F24410C2F2000013
:1041100069460594FCF772FA002818BFFCF7CEF93F
:1041200008B0B0BD80B582B041F24800C4F20200D0
:104130000168002241F004010160016801F00401FE
:1041400001910199016841F00101016000680021BD
:1041500000F00100009000980B20FDF7F9FB0B2008
:10416000FDF7E4FB0C2000210022FDF7F1FB0C2001
:1041700002B0BDE88040FDF7D9BB000080B540F239
:10418000102046F20041C2F20000C4F200010022F9
:10419000C0E9001210210123C0E90222C0F80F205B
:1041A000C0E90513C0E90733C0E90933C0E90B339F
:1041B000C0E90D22C263FCF7CFFE002808BF80BD16
:1041C000BDE88040FCF77AB980B540F2742046F62D
:1041D0000001C2F20000C4F200010022C0E9001296
:1041E00010210123C0E90222C0F80F20C0E9051305
:1041F000C0E90733C0E90933C0E90B33C0E90D2238
:10420000C263FCF7A9FE002808BF80BDBDE880405E
:10421000FCF754B980B540F2D82046F60041C2F20E
:104220000000C4F200010022C0E9001210210123A5
:10423000C0E90222C0F80F20C0E90513C0E9073326
:10424000C0E90933C0E90B33C0E90D22C263FCF7B2
:1042500083FE002808BF80BDBDE88040FCF72EB972
:104260002DE9F04F87B0002541F24C000695CDE9CD
:104270000455CDE90255C4F20200016840F200483D
:1042800041F0100101600168C4F6000801F010015E
:1042900001910199016808F5406A41F0040101604B
:1042A0000168002201F0040101910199016848F2BE
:1042B000710441F020010160016801F020010191C9
:1042C0000199016841F001010160016801F00101FB
:1042D00001910199016841F002010160016801F05A
:1042E000020101910199016841F008010160006833
:1042F00048F2710100F00800019001985046FDF766
:10430000FDF808F5806630464FF400510022FDF7B5
:10431000F5F808F5805738464FF400710022FDF794
:10432000EDF84FF0904010210022FDF7E7F808F576
:10433000006948464CF280010022FDF7DFF8404654
:104340004FF400710022FDF7D9F8029402AC4FF04F
:10435000010B50462146CDE903B50595FCF7F4FF66
:104360004FF40050CDE9020B30462146CDE904550B
:10437000FCF7EAFF4FF400700290384621464FF4F4
:104380000076CDE903B50595FCF7DEFF1020CDE9F9
:10439000020B4FF090402146CDE90455FCF7D4FFC5
:1043A0004CF28000CDE9020B48462146CDE9045588
:1043B000FCF7CAFF40462146CDE9026BCDE9045522
:1043C000FCF7C2FF07B0BDE8F08F000080B540F2F7
:1043D0003C3045F20041C2F20000C4F2000148F254
:1043E000C2520023C4F2B2024FF0010C80E80E105A
:1043F000C0E90433C0E906330362FDF7D5F80028AD
:1044000018BFFCF75BF840F23C30C2F2000000211C
:10441000FDF780F8002818BFFCF750F840F23C3058
:10442000C2F200000021FDF79BF8002808BF80BD04
:10443000BDE88040FCF742B880B540F2903045F6C8
:104440000001C2F20000C4F2000148F2C25200238F
:10445000C4F2B2024FF0010C80E80E10C0E9043340
:10446000C0E906330362FDF79FF8002818BFFCF788
:1044700025F840F29030C2F200000021FDF74AF822
:10448000002818BFFCF71AF840F29030C2F2000082
:104490000021FDF765F8002808BF80BDBDE8804019
:1044A000FCF70CB880B540F2E43047F60001C2F2E8
:1044B0000000C4F2000148F2C2520023C4F2B2026A
:1044C0004FF0010C80E80E10C0E90433C0E9063358
:1044D0000362FDF769F8002818BFFBF7EFFF40F211
:1044E000E430C2F200000021FDF714F8002818BFE4
:1044F000FBF7E4FF40F2E430C2F200000021FDF7D8
:104500002FF8002808BF80BDBDE88040FBF7D6BF6C
:1045100080B540F2384048F20041C2F20000C4F2D7
:10452000000148F2C2520023C4F2B2024FF0010C63
:1045300080E80E10C0E90433C0E906330362FDF7DA
:1045400033F8002818BFFBF7B9FF40F23840C2F239
:1045500000000021FCF7DEFF002818BFFBF7AEFFCC
:1045600040F23840C2F200000021FCF7F9FF0028B9
:1045700008BF80BDBDE88040FBF7A0BF80B540F21A
:104580008C4048F20001C2F20000C4F2000143F284
:10459000243200234FF00C0CC0F2030280E80E001E
:1045A000C0E90333C0E905C3C0E908338362FFF7FC
:1045B000B9FB002818BFFBF781FF40F28C40C2F224
:1045C00000000021FFF768FB002818BFFBF776FF0B
:1045D00040F28C40C2F200000021FFF717FB0028D8
:1045E00018BFFBF76BFF40F28C40C2F20000FFF7F0
:1045F000F1FA002808BF80BDBDE88040FBF75EBF30
:1046000010B540F2FC7043F20001C2F20000C4F2A7
:1046100001014FF4827200234FF4407C4FF4007E7E
:10462000182480E80E1007210822C0E90433C0E9ED
:1046300006E4C0E90833C0E90A31C0E90C32FEF7EC
:1046400069F9002808BF10BDBDE81040FBF736BF70
:1046500010B540F6600043F60001C2F20000C4F25B
:1046600000014FF4827200234FF4407C4FF4007E2F
:10467000102480E80E1007210822C0E90433C0E9A5
:1046800006E4C0E90833C0E90A31C0E90C32FEF79C
:1046900041F9002808BF10BDBDE81040FBF70EBF70
:1046A00010B540F6C40043F60041C2F20000C4F267
:1046B00000014FF4827200234FF4407C4FF4007EDF
:1046C000182480E80E1007210822C0E90433C0E94D
:1046D00006E4C0E90833C0E90A31C0E90C32FEF74C
:1046E00019F9002808BF10BDBDE81040FBF7E6BE71
:1046F00010B540F6281043F60041C2F20000C4F2A3
:1047000001014FF4827200234FF4407C4FF4007E8D
:10471000082480E80E100721C0E90433C0E906E44C
:10472000C0E90833C0E90A31C0E90C34FEF7F2F8F9
:10473000002808BF10BDBDE81040FBF7BFBE000059
:1047400010B59CB0002401A834211B94CDE9194474
:10475000CDE91644CDE91444CDE91244CDE9104425
:10476000CDE90E44FBF736FE40F6D81044F20001C6
:10477000C2F20000C4F201014FF6FF72C0E900145A
:10478000C0E90242C0E904448461FEF71BFB002833
:1047900018BFFBF793FE4FF48050189040F6D810E6
:1047A000C2F2000018A9FEF70BFC002818BFFBF7A7
:1047B00085FE40F6D810C2F20000FFF7D1F90028BC
:1047C00018BFFBF77BFE40F6D8100024C2F20000B1
:1047D00015A915941794FEF783FA002818BFFBF764
:1047E0006DFE6020CDE90E0440F6D810C2F2000044
:1047F0000EA90022CDE91044CDE912441494FEF72D
:10480000B1FF002818BFFBF759FE40F6D810C2F2DE
:1048100000000EA90422FEF7A5FF002818BFFBF731
:104820004DFE00204FF400510590CDE90300CDE985
:104830000100CDE906100D9040F6D810C2F200003C
:1048400001A9FEF7DDF9002818BFFBF737FE40F697
:10485000D810C2F20000FEF797FE1CB010BD000099
:1048600080B540F6242044F20041C2F20000C4F2B8
:10487000010100224FF6FF73C0E90012C0E90223D4
:10488000C0E904228261FEF79DFA002808BF80BDBE
:10489000BDE88040FBF712BE80B540F6702044F6BC
:1048A0000001C2F20000C4F2010100224FF6FF73C2
:1048B000C0E90012C0E90223C0E904228261FEF7C8
:1048C00081FA002808BF80BDBDE88040FBF7F6BD37
:1048D00010B59CB0002401A834211B94CDE91944E3
:1048E000CDE91644CDE91444CDE91244CDE9104494
:1048F000CDE90E44FBF76EFD40F68C1042F6004108
:10490000C2F20000C4F2010140F2E7328023C0E9A4
:104910000014C0E90242C0E904448361FEF752FA80
:10492000002818BFFBF7CAFD4FF48050189040F6DE
:104930008C10C2F2000018A9FEF742FB002818BF35
:10494000FBF7BCFD40F68C10C2F20000FFF708F93F
:10495000002818BFFBF7B2FD40F68C100024C2F20D
:10496000000015A9CDE915441794FEF7B9F9002800
:1049700018BFFBF7A3FD6020CDE90E0440F68C10B4
:10498000C2F200000EA90022CDE91044CDE9124484
:104990001494FEF7E7FE002818BFFBF78FFD40F6E2
:1049A0008C10C2F200000EA90422FEF7DBFE0028E4
:1049B00018BFFBF783FD40F68C10C2F200000EA971
:1049C0000822FEF7CFFE002818BFFBF777FD40F660
:1049D0008C10C2F200000EA90C22FEF7C3FE0028C4
:1049E00018BFFBF76BFD00204FF40051CDE9061016
:1049F0004FF000710590CDE90300CDE90100CDE94C
:104A00000800CDE90A10CDE90C0040F68C10C2F286
:104A1000000001A9FEF7F4F8002818BFFBF74EFDCF
:104A200040F68C10C2F20000FEF7AEFD1CB010BDC7
:104A300010B59CB0002401A834211B94CDE9194481
:104A4000CDE91644CDE91444CDE91244CDE9104432
:104A5000CDE90E44FBF7BEFC40F6083045F20001FC
:104A6000C2F20000C4F201014FF6FF72C0E9001467
:104A7000C0E90242C0E904448461FEF7A3F90028BA
:104A800018BFFBF71BFD4FF48050189040F608301C
:104A9000C2F2000018A9FEF793FA002818BFFBF72E
:104AA0000DFD40F60830C2F20000FFF759F800286B
:104AB00018BFFBF703FD40F608300024C2F20000E7
:104AC00015A9CDE915441794FEF70AF9002818BF77
:104AD000FBF7F4FC6020CDE90E0440F60830C2F28A
:104AE00000000EA90022CDE91044CDE9124414942F
:104AF000FEF738FE002818BFFBF7E0FC40F6083050
:104B0000C2F200000EA90422FEF72CFE002818BFF6
:104B1000FBF7D4FC40F60830C2F200000EA90822D0
:104B2000FEF720FE002818BFFBF7C8FC40F608304F
:104B3000C2F200000EA90C22FEF714FE002818BFD6
:104B4000FBF7BCFC00204FF40051CDE906104FF0FC
:104B500000710590CDE90300CDE90100CDE9080021
:104B6000CDE90A10CDE90C0040F60830C2F2000091
:104B700001A9FEF745F8002818BFFBF79FFC40F697
:104B80000830C2F20000FEF7FFFC1CB010BD0000B0
:104B900010B58CB040F6BC200024C2F200004FF0EB
:104BA0008041C0E9001401214FF6FF72CDE90314E2
:104BB000CDE90514CDE9091403A90194C0E9024225
:104BC00004618461CDE907440B94FEF709FB0028DA
:104BD00018BFFBF773FC40F6BC20C2F20000694628
:104BE00000940294FEF77CF8002818BFFBF766FCDF
:104BF0000CB010BD10B58CB040F6543040F20041FE
:104C00000024C2F20000C4F20001C0E90014012136
:104C10004FF6FF72CDE90314CDE90514CDE909146F
:104C200003A90194C0E9024204618461CDE907440B
:104C30000B94FEF7D5FA002818BFFBF73FFC40F6AF
:104C40005430C2F20000694600940294FEF748F81E
:104C5000002818BFFBF732FC0CB010BD10B58CB0AB
:104C600040F6A03040F600010024C2F20000C4F279
:104C70000001C0E9001401214FF6FF72CDE90314D1
:104C8000CDE90514CDE9091403A90194C0E9024254
:104C900004618461CDE907440B94FEF7A1FA002872
:104CA00018BFFBF70BFC40F6A030C2F200006946CB
:104CB00000940294FEF714F8002818BFFBF7FEFBDF
:104CC0000CB010BD10B58CB040F6EC3040F6004191
:104CD0000024C2F20000C4F20001C0E90014012166
:104CE0004FF6FF72CDE90314CDE90514CDE909149F
:104CF00003A90194C0E9024204618461CDE907443B
:104D00000B94FEF76DFA002818BFFBF7D7FB40F6AF
:104D1000EC30C2F20000694600940294FDF7E0FF17
:104D2000002818BFFBF7CAFB0CB010BD10B584B04B
:104D300040F6384041F200010024C2F20000C4F203
:104D40000001A923029440F6B73280E81600C36040
:104D50008461FEF737F8002818BFFBF7AFFB40F679
:104D60003840C2F2000001A901940394FDF7B8FF96
:104D7000002818BFFBF7A2FB04B010BD10B584B02B
:104D800040F6844041F200410024C2F20000C4F227
:104D9000000177230294012280E81600C360846139
:104DA000FEF710F8002818BFFBF788FB20200190C1
:104DB00040F68440C2F2000001A90394FDF790FF81
:104DC000002818BFFBF77AFB04B010BD10B59CB0EB
:104DD000002401A834211B94CDE91944CDE91644DF
:104DE000CDE91444CDE91244CDE91044CDE90E4497
:104DF000FBF7F0FA40F6D04043F20041C2F2000067
:104E0000C4F201017722C0E90014C0E90242C0E9FE
:104E100004448461FDF7D6FF002818BFFBF74EFB62
:104E20004FF48050189040F6D040C2F2000018A90C
:104E3000FEF7C6F8002818BFFBF740FB40F6D0404D
:104E4000C2F20000FEF78CFE002818BFFBF736FB0D
:104E500040F6D0400024C2F2000015A9CDE9154467
:104E60001794FDF73DFF002818BFFBF727FB6020D4
:104E7000CDE90E0440F6D040C2F200000EA9002297
:104E8000CDE91044CDE912441494FEF76BFC0028E0
:104E900018BFFBF713FB40F6D040C2F200000EA98A
:104EA0000422FEF75FFC002818BFFBF707FB002079
:104EB0004FF40051CDE906104FF000710590CDE997
:104EC0000300CDE90100CDE90800CDE90A10CDE9E4
:104ED0000C0040F6D040C2F2000001A9FDF790FEA0
:104EE000002818BFFBF7EAFA40F6D040C2F20000F3
:104EF000FEF74AFB1CB010BD80B540F6D86045F205
:104F00000001C2F20000C4F2000100234FF00C0CBB
:104F10004FF4E13280E80E00C0E90333C0E905C375
:104F2000C0E90733C0E90933FEF7FCFE002818BFCB
:104F3000FBF7C4FA40F6D860C2F200000021FEF789
:104F4000ABFE002818BFFBF7B9FA40F6D860C2F2F2
:104F500000000021FEF75AFE002818BFFBF7AEFA4A
:104F600040F6D860C2F20000FEF734FE002808BF09
:104F700080BDBDE88040FBF7A1BA000080B540F6D7
:104F80001C5043F60001C2F20000C4F201010023EC
:104F90004FF00C0C4FF4E13280E80E00C0E903330F
:104FA000C0E905C3C0E90733C0E90933FEF7BAFE1B
:104FB000002818BFFBF782FA40F61C50C2F200002E
:104FC0000021FEF769FE002818BFFBF777FA40F6CC
:104FD0001C50C2F200000021FEF718FE002818BF86
:104FE000FBF76CFA40F61C50C2F20000FEF7F2FD2F
:104FF000002808BF80BDBDE88040FBF75FBA000015
:1050000080B540F6B05044F20041C2F20000C4F254
:10501000000100234FF00C0C4FF4E13280E80E0049
:10502000C0E90333C0E905C3C0E90733C0E9093368
:10503000FEF778FE002818BFFBF740FA40F6B050A4
:10504000C2F200000021FEF727FE002818BFFBF780
:1050500035FA40F6B050C2F200000021FEF7D6FD4E
:10506000002818BFFBF72AFA40F6B050C2F2000041
:10507000FEF7B0FD002808BF80BDBDE88040FBF70B
:105080001DBA000080B540F6446044F60001C2F24B
:105090000000C4F2000100234FF00C0C4FF4E13289
:1050A00080E80E00C0E90333C0E905C3C0E9073357
:1050B000C0E90933FEF736FE002818BFFBF7FEF9FA
:1050C00040F64460C2F200000021FEF7E5FD002832
:1050D00018BFFBF7F3F940F64460C2F2000000216C
:1050E000FEF794FD002818BFFBF7E8F940F644608E
:1050F000C2F20000FEF76EFD002808BF80BDBDE8CB
:105100008040FBF7DBB9000080B540F2205045F647
:105110000041C2F20000C4F2000101604FF40271CC
:1051200081800221C17100218160FCF763FC0028AD
:1051300008BF80BDBDE88040FBF7C0B9FEE70000B6
:10514000FEE700007047000070470000FCF78EBBD0
:105150004EF68850CEF20000016841F47001016003
:105160007047000080B540F68C10C2F20000FEF7D8
:1051700025F940F62420C2F20000BDE88040FEF789
:105180001DB9000040F63840C2F20000FEF716B923
:1051900040F6FF330268C4F2000343F2FF3C98423A
:1051A000C4F2010C0ADD60452EDC40F60043C4F277
:1051B0000003984234D042F600432DE0B0F1804F16
:1051C0002ED040F20043C4F20003984228D040F6AB
:1051D0000003C4F20003984222D0604526DC40F26E
:1051E000FF73C4F20003984236DD40F60003C4F2B8
:1051F0000003984246D040F60043C4F200039842B0
:1052000040D042F6004339E045F20003C4F2010306
:10521000984205D043F20043C4F201039842DCD126
:105220004B6822F070021A436045D8DD44F2FF3328
:10523000C4F20103984219DD44F20043C4F20103B1
:1052400098421FD045F20003C4F20103984219D0DE
:1052500044F6000312E000BFB0F1804F12D040F2DC
:105260000043C4F2000398420CD00FE043F2004325
:10527000C4F20103984205D044F20003C4F20103D2
:10528000984203D1CB6822F440721A4380B54B692F
:1052900022F0800E8A6843EA0E03D1F800C0036052
:1052A000C262A0F18042A2F596324FEAB222092AE8
:1052B000C0F828C0BDE8804008D8012303FA02F2F4
:1052C00040F2E5231A421CBF0969016301214161D3
:1052D0000169C90708BF7047016921F00101016137
:1052E00070470000816A0A070CD4CA0715D18A07E3
:1052F0001ED44A0727D4CA0630D48A0639D44A06AF
:1053000042D457E00268D0F838C0536823F4004311
:1053100043EA0C035360CA07E9D00268D0F82CC0F6
:10532000536823F4003343EA0C0353608A07E0D543
:105330000268D0F830C0536823F4803343EA0C038A
:1053400053604A07D7D50268D0F834C0536823F4B5
:10535000802343EA0C035360CA06CED50268D0F816
:105360003CC0936823F4805343EA0C0393608A069D
:10537000C5D50268D0F840C0936823F4005343EACF
:105380000C0393604A0615D5D0F800C0436CDCF8D6
:105390000420B3F5801F22F4801242EA0302CCF805
:1053A000042007D1DCF80420836C22F4C0021A43E5
:1053B000CCF80420090658BF70470168C06C4A68E1
:1053C00022F400221043486070470000B0B582B05C
:1053D00004460020C4F89000FCF796F821680546C2
:1053E0000A68120737D56FF07E4C20464FF4001143
:1053F00000222B46CDF800C000F0F8F950B300BFF2
:10540000206850E8000F216820F0800041E8000289
:10541000DAB1206850E8000F216820F0800041E8F0
:10542000000292B1206850E8000F216820F080004F
:1054300041E800024AB1206850E8000F216820F0DE
:10544000800041E80002002ADAD1032020218822CE
:105450006BE000BF2168086840075DD56FF07E4CA7
:1054600020464FF4800100222B46CDF800C000F00A
:10547000BDF9002850D000BF206850E8000F216817
:1054800020F4907041E80002BAB3206850E8000FA1
:10549000216820F4907041E8000272B3206850E85F
:1054A000000F216820F4907041E800022AB32068C0
:1054B00050E8000F216820F4907041E80002002AB3
:1054C000DAD11AE0206850E8020F216820F00100CC
:1054D00041E80202DAB1206850E8020F216820F0AA
:1054E000010041E8020292B1206850E8020F2168F1
:1054F00020F0010041E802024AB1206850E8020FA2
:10550000216820F0010041E80202002ADAD10320DC
:1055100020218C2209E000BF2020C4F88800C4F8B4
:105520008C00002170220020E166A150002184F847
:10553000841002B0B0BD000070B5054605F1080446
:105540001ECC0068194341EA0403EE69046846F67C
:10555000F311CCF6FF7121401943314301604168DA
:1055600048F2000C21F4405111434160AA69C4F291
:10557000000C60451CBF296A0A4381684FF2FF4353
:10558000C1F2FF13194011438160C16AD5F824E0CC
:1055900021F00F0141EA0E01C16244F6FF71C4F22D
:1055A000000188424FF0100318DC44F20041C4F2BD
:1055B0000001884228D044F60001C4F2000188426C
:1055C00032D044F60041C4F20001884242D141F297
:1055D0008801C4F2020109688B0933E045F2000139
:1055E000C4F20001884217D0604525D043F600017F
:1055F000C4F2010188422DD141F28801C4F20201B6
:105600000B6876A222E000BF41F28801C4F20201D9
:1056100009688B0816E000BF41F28801C4F202015C
:1056200009680B0A0EE000BF41F28801C4F20201D2
:1056300009680B0906E000BF41F28801C4F20201CB
:1056400009688B0A45F69442C0F6000203F0030194
:1056500052F82130604542F20040C0F2F40015D00B
:10566000B6F5004F22D1082B4FF0010100F2AD80BA
:10567000DFE803F0065C74AB64ABABAB720000BF59
:10568000FCF772FE002840F05D809AE0082B4FF096
:10569000010100F29A80DFE803F0059825981B9835
:1056A00098982300FCF760FEB0B98AE0082B4FF011
:1056B000010100F28A80DFE803F0053D6F88498828
:1056C00088886D00FCF750FE002842D179E000BFC9
:1056D000FCF776FE002874D0D5F824E002E000BF85
:1056E0004FF4004045F67C41C0F6000131F81E1031
:1056F0006A68B0FBF1F002EB420188424FF0010111
:1057000063D31303984260D8010E000210EB5200DD
:1057100041F100010023FAF7E5FD4FF60052A0F534
:105720004071C0F20F02914249D34DE0FCF732FEC6
:1057300040B946E0FCF72EFE58B942E0FCF740FEC7
:1057400000283ED0D5F824E008E000BFFCF738FE82
:10575000B8B3D5F824E01FE04FF4004045F67C4193
:10576000C0F6000131F81E106A68B0FBF1F0510874
:1057700001EB4000B0FBF2F04FF6EF72A0F1100128
:10578000914221D84FF6F0710140C0F34200084425
:1057900015E000BF4FF4004045F67C41C0F6000123
:1057A00031F81E104FF6EF72B0FBF1F0696800EBB4
:1057B0005100B0FBF1F0A0F11001914204D829682A
:1057C000C860002101E000BF01214FF00110A86670
:1057D000002208466A67AA6770BD00BF010000008A
:1057E0000400000002000000080000002DE9F04164
:1057F000804600681546C2690E461140891BB1FA01
:1058000081F14909A94223D1069C2CB3611C29D1FD
:10581000C1693140891BB1FA81F14909A94217D107
:10582000C1693140891BB1FA81F14909A9420FD1FF
:10583000C1693140891BB1FA81F14909A94207D1F7
:10584000C1693140891BB1FA81F14909A942DFD010
:105850000020BDE8F08100BFFBF756FE0320BDE845
:10586000F08100BF1F4607E0C0693040801BB0FADE
:1058700080F04009A842EBD1FBF746FEC01BA042D6
:1058800000F2AE80D8F8000001684907ECD5402E40
:10589000EAD0802EE8D0C169090700F1A580C1696E
:1058A0000905E1D54FF400610162D8F8000050E825
:1058B000000FD8F8001020F4907041E800020AB3FD
:1058C000D8F8000050E8000FD8F8001020F49070CD
:1058D00041E80002B2B1D8F8000050E8000FD8F853
:1058E000001020F4907041E800025AB1D8F800008E
:1058F00050E8000FD8F8001020F4907041E8000242
:10590000002AD2D14FF6FE70CEF6FF70D8F8001004
:1059100051E8021FD8F80020014042E80213F3B119
:10592000D8F8001051E8021FD8F80020014042E8E2
:105930000213A3B1D8F8001051E8021FD8F80020D4
:10594000014042E8021353B1D8F8001051E8021F99
:10595000D8F80020014042E80213002BD6D1D8F835
:105960006C0001282CD1D8F8000050E8000FD8F8BE
:10597000001020F0100041E800020AB3D8F800003F
:1059800050E8000FD8F8001020F0100041E80002A5
:10599000B2B1D8F8000050E8000FD8F8001020F09D
:1059A000100041E800025AB1D8F8000050E8000F9A
:1059B000D8F8001020F0100041E80002002AD2D1EF
:1059C00020200021C8F88C00C8F86C10C8F87410AA
:1059D000C8F89000032088F88410BDE8F08100BF6B
:1059E0000320BDE8F08100BF08210162D8F8000063
:1059F00050E8000FD8F8001020F4907041E8000241
:105A00000AB3D8F8000050E8000FD8F8001020F4CE
:105A1000907041E80002B2B1D8F8000050E8000FE1
:105A2000D8F8001020F4907041E800025AB1D8F87C
:105A3000000050E8000FD8F8001020F4907041E802
:105A40000002002AD2D14FF6FE70CEF6FF70D8F8D1
:105A5000001051E8021FD8F80020014042E802136C
:105A6000F3B1D8F8001051E8021FD8F80020014027
:105A700042E80213A3B1D8F8001051E8021FD8F889
:105A80000020014042E8021353B1D8F8001051E859
:105A9000021FD8F80020014042E80213002BD6D1A3
:105AA000D8F86C0001282CD1D8F8000050E8000F7D
:105AB000D8F8001020F0100041E800020AB3D8F82E
:105AC000000050E8000FD8F8001020F0100041E866
:105AD0000002B2B1D8F8000050E8000FD8F800106A
