:020000040800F2
:10000000700F0020510200089F350008872B000860
:100010009D3500087D0800087542000800000000BA
:10002000000000000000000000000000753B000818
:10003000B10A000800000000353900080D3C000836
:100040006B0200086B0200086B0200086B020008DC
:100050006B0200086B0200086B0200086B020008CC
:100060006B0200086B0200086B0200086B020008BC
:100070006B0200086B0200086B0200086B020008AC
:100080006B0200086B0200086B0200086B0200089C
:100090006B0200086B0200086B0200086B0200088C
:1000A0006B0200086B0200086B0200086B0200087C
:1000B0006B020008B53C00086B0200086B020008E8
:1000C0006B0200086B0200086B0200086B0200085C
:1000D0006B0200086B020008694200086B0200080E
:1000E0006B0200086B0200086B0200086B0200083C
:1000F0006B0200086B0200086B0200086B0200082C
:100100006B0200086B0200086B0200086B0200081B
:100110006B0200086B0200086B0200086B0200080B
:100120006B0200086B0200086B0200086B020008FB
:100130006B02000800000000000000006B020008D5
:100140006B0200086B0200086B0200086B020008DB
:100150006B0200086B0200086B0200086B020008CB
:100160006B0200086B0200086B0200086B020008BB
:100170006B0200086B020008000000000000000095
:100180006B0200086B02000800F002F800F051F862
:100190000AA090E8000C82448344AAF10107DA45E2
:1001A00001D100F046F8AFF2090EBAE80F0013F0E3
:1001B000010F18BFFB1A43F001031847B4A1000058
:1001C000D4A100000A4410F8014B14F00F0508BF39
:1001D00010F8015B240908BF10F8014B6D1E05D013
:1001E00010F8013B6D1E01F8013BF9D1641E03D0EC
:1001F000641E01F8015BFBD19142E4D3704700001B
:100200000023002400250026103A28BF78C1FBD81F
:10021000520728BF30C148BF0B607047642900F007
:100220001381002070471FB508F0D7FB1FBD10B524
:1002300010BD00F061FA1146FFF7F5FF06F06AFC09
:1002400000F07FFA03B4FFF7F2FF03BC05F08CFB6C
:100250000948804709480047FEE7FEE7FEE7FEE75A
:10026000FEE7FEE7FEE7FEE7FEE7FEE70448054996
:10027000054A064B70470000A53C000889010008AC
:1002800070090020700F0020700B0020700B002000
:10029000704753EA020C00F069802DE9F04B4FF0F3
:1002A0000006002B1FBFB3FA83F503FA05F424FA06
:1002B00005F65E4012BF1643B2FA82F502FA05F463
:1002C000C5F120051EBF22FA05FC44EA0C042035C6
:1002D00056EA044C4FEA144418BF641C4FF000085F
:1002E0004FF00009904271EB030C39D3002919BF7C
:1002F000B1FA81F701FA07F6B0FA80F700FA07F6CB
:10030000C7F120071EBF20FA07FC46EA0C0620377B
:10031000B6FBF4FCA7EB0507103F07F01F0BCBF172
:1003200020060CFA0BFB2CFA06F644BFB346002657
:10033000202FA4BF5E464FF0000B5BEA060C08BFFF
:100340004FF0010B19EB0B09ABFB027C48EB0608E5
:10035000C01B06FB02CC0BFB03CC71EB0C01C1E70D
:100360000B46024641464846BDE8F08B13B54FF0B8
:1003700000004FF00001AFF30080BDE81C40704763
:1003800010B54C1084EA530404D54042C1F1000179
:1003900038BF491E1B4204D55242C3F1000338BF87
:1003A0005B1EFFF776FF14F0804F04D04042C1F18E
:1003B000000138BF491E14F0004F04D05242C3F16F
:1003C000000338BF5B1E10BD0FB4044910B503AA6B
:1003D000029800F05BF910BC5DF814FB600000208F
:1003E0002DE9F0410E460446002020622046E168D7
:1003F000884730B3252805D0D4E901219047206AE9
:10040000401CF2E7E168204600278847050018D025
:10041000A5F14100192802D820354FF40067324673
:10042000294620462760FFF7F9FE40B1012804D095
:10043000F61D26F007060836D8E7361DD6E728460B
:10044000DAE7206ABDE8F0812DE9F0410646002494
:1004500010687529314616A510D0AFF3008000282A
:1004600002DA404213A507E031688A0701D512A5D8
:1004700002E0490704D511A5012401E0AFF3008093
:1004800000210A2206F1240709E0B0FBF2FCB0FBD0
:10049000F2F302FB1C00303078541846491C002847
:1004A000F3D123462A463046BDE8F04100F094B827
:1004B000000000002D0000002B00000020000000C4
:1004C00040EA010310B59B070FD1042A0DD310C8D1
:1004D00008C9121F9C42F8D020BA19BA884201D923
:1004E000012010BD4FF0FF3010BD1AB1D30703D06B
:1004F000521C07E0002010BD10F8013B11F8014B21
:100500001B1B07D110F8013B11F8014B1B1B01D13C
:10051000921EF1D1184610BD02F0FF0343EA0322F8
:1005200042EA024200F002B84FF000020429C0F093
:10053000128010F0030C00F01B80CCF1040CBCF115
:10054000020F18BF00F8012BA8BF20F8022BA1EB67
:100550000C0100F00DB85FEAC17C24BF00F8012B4C
:1005600000F8012B48BF00F8012B70474FF0000244
:1005700000B5134694469646203922BFA0E80C5099
:10058000A0E80C50B1F12001BFF4F7AF090728BF74
:10059000A0E80C5048BF0CC05DF804EB890028BFF0
:1005A00040F8042B08BF704748BF20F8022B11F019
:1005B000804F18BF00F8012B704770477047704795
:1005C000704710B500F074F8006810BD10B504460F
:1005D00000F06EF8046010BD2DE9F0470D46994615
:1005E0009246044600F124080168880604D5E069B3
:1005F00021F01001216000E00120A84201DD471B2D
:1006000000E00027A1697A1902EB0900081AA0612D
:100610002078C00602D42046AFF30080002608E010
:10062000D4E901211AF806009047206A401C761C84
:1006300020624E45F4DB2078C0060AD52046AFF391
:10064000008006E0D4E9012130209047206A401C58
:100650002062381EA7F10107F4DC07E0D4E901218C
:1006600018F805009047206A401C2062281EA5F15A
:100670000105F3DC2046AFF300802078000602D5A8
:100680000220BDE8F0870120FBE70000074B70B5B2
:100690000D467B4400F015F80446284600F024F887
:1006A00010B14FF0FF3070BD204670BDA75E000056
:1006B000004870471009002001694A1C026108784F
:1006C000704700B58FB0CDE9013100210591054992
:1006D0007944CDE9031011466846FFF781FE0FB05B
:1006E00000BD0000E5FFFFFF007B00F080007047C9
:1006F00000487047100900207546FFF7F9FFAE4625
:1007000005006946534620F00700854618B020B51D
:10071000FFF7ACFDBDE820404FF000064FF00007AA
:100720004FF000084FF0000B21F00701AC46ACE899
:10073000C009ACE8C009ACE8C009ACE8C0098D4606
:10074000704710B50446AFF300802046BDE8104066
:10075000FFF778BD464910B54A6822F440324A6036
:100760004A6843681A434A6001684A6822F4807202
:100770004A6001684A68036942EA03224A600168E4
:100780004A6822F040724A6001684A6883681A43E6
:100790004A6001688A6822F400628A6001688A6897
:1007A000C3681A438A60816A6FF07062D14201683F
:1007B0008A6822F070628A6001688A680CD0836A55
:1007C0001A438A6001688A6822F040528A60016890
:1007D0008A68C36A1A4301E022F040528A600168C5
:1007E0008A6822F002028A6001688A68037E42EA0F
:1007F00043028A6090F82010002901684A680FD0EF
:1008000042F400624A6001684A6822F460424A6029
:1008100001684A68174C436A04EB43331A4301E00A
:1008200022F400624A600168CA6A22F47002CA6255
:100830000168CA6A838B104C04EB03531A43CA62E3
:1008400001688A6822F400728A6001688A6890F8F8
:10085000303042EA43228A6001688A6822F480626A
:100860008A6001688A68406942EA8020886010BD19
:100870000023014000E0FFFF0000F0FFFEE7000062
:10088000F8B500266B46012275216820009606F017
:10089000BBF8334F0120387032A0FFF795FD9DF86B
:1008A000000068280CD0BFF34F8F37480168374AE3
:1008B00001F4E06111430160BFF34F8F00BFFDE71A
:1008C00006F02AFA002848D1782006F0E3FE10B995
:1008D00024A0FFF779FD782006F04AF910B92CA082
:1008E000FFF772FDC82006F095FE10B932A0FFF7A1
:1008F0006BFD05F095FA10B939A0FFF765FD454885
:10090000044606F0E3F80546E01C06F0DFF845EA89
:10091000C005A01D06F0DAF845EA801080B205F0A7
:1009200041FC10B93CA0FFF74FFD40F2731005F0F9
:100930004FF910B942A0FFF747FDC82005F09AFB18
:1009400010B949A0FFF740FD07F052F8012006F06A
:1009500087FD10B94DA0FFF737FD3E70F8BD0000D0
:10096000030000206D70755F7365745F73656E734F
:100970006F7220636F6D706C657465202E2E2E2E45
:100980002E2E0D0A000000000CED00E00400FA0518
:100990006D70755F636F6E6669677572655F6669B6
:1009A000666F20636F6D706C657465202E2E2E2E21
:1009B0002E2E0D0A000000006D70755F7365745F68
:1009C00073616D706C655F7261746520636F6D70CB
:1009D0006C657465202E2E2E2E2E2E0D0A00000022
:1009E000646D705F6C6F61645F6D6F74696F6E5F73
:1009F0006472697665725F6669726D77617265208F
:100A0000636F6D706C657465202E2E2E2E2E2E0D4C
:100A10000A00000078010020646D705F7365745FE8
:100A20006F7269656E746174696F6E20636F6D704B
:100A30006C657465202E2E2E2E2E2E0D0A000000C1
:100A4000646D705F656E61626C655F66656174752B
:100A5000726520636F6D706C657465202E2E2E2E6E
:100A60002E2E0D0A00000000646D705F7365745FC8
:100A70006669666F5F7261746520636F6D706C6527
:100A80007465202E2E2E2E2E2E0D0A006D70755F91
:100A90007365745F646D705F737461746520636FF8
:100AA0006D706C657465202E2E2E2E2E2E0D0A0074
:100AB00070470020401C1E28FCDB704772B6FEE722
:100AC00070B539483949052402880C7013460D78F1
:100AD00030F815609E4200D333466D1CEDB20D70A8
:100AE0007B2DF4D38A820C700E7830F81650954224
:100AF00000D82A46761CF5B20D707B2DF4D38A827D
:100B00001A442B4BC2F347021A700C700C7830F861
:100B10001430934212D900EB44035D8895420DD9FD
:100B20009D8895420AD9DD88954207D21D89954254
:100B300004D25B89934201D28C7004E0641CE3B25E
:100B40000B70762BE2D376234B70DCB230F8143086
:100B5000934212D200EB44035D8895420DD29D88EA
:100B600095420AD2DD88954207D91D89954204D95C
:100B70005B89934201D9CC7004E0641EE3B24B70F0
:100B8000052BE2D8C8788A7810440A4A40081070C9
:100B90000B79C01A06F004FE462801DD08791070B2
:100BA0001078087170BD00008401002098000020BA
:100BB0005D0000205C0000201FB569460090072002
:100BC0000290012001900B4800F044F9094800F020
:100BD000BBFA1E21074800F061FA064800F0E0F970
:100BE000800503D5034800F0DDF984B204B0204647
:100BF00010BD0000840200202DE9F04107462DEDD4
:100C0000068B02F087FF6549654C664D664EDFF83E
:100C10009C810860012F7CD04421D02001F0B4FFDA
:100C200007464321D02001F0AFFF07EB002000EE84
:100C3000100A4821D020F8EE408A01F0A5FF0746AF
:100C40004721D02001F0A0FF07EB002000EE100AA2
:100C50003E21D020F8EE409A01F096FF07463D2154
:100C6000D02001F091FF07EB002000EE100A402198
:100C7000D020B8EE409A01F087FF07463F21D020F0
:100C800001F082FF07EB002000EE100A18EE900A38
:100C90004FF08E41B8EE408A9FED450A884201DD53
:100CA00078EEC08A19EE900A884201DD79EEC09A8A
:100CB00019EE100A884201DD39EE409A18EE100A4A
:100CC000884201DD38EE408AC5ED008A18EE100A30
:100CD00007F012FE41EC1A0B19EE100A07F00CFE99
:100CE00041EC100BB0EE4A1AF0EE6A1A03F03CFE2B
:100CF0009FED301B51EC100B53EC112B07F006FB52
:100D00009FED2E1B53EC112B07F0A8F806F0B8FF4F
:100D100000E00CE09FED2B1A00EE100A2A48C8EE06
:100D2000810A007802282AD003282BD02CE002F078
:100D300043FE264890ED000A2548B1EE400A84EDB6
:100D4000000AB0F90010494200EE101AB8EEC00ACD
:100D500085ED000AB0F9040000EE100A1D48B8EE57
:100D6000C00A86ED000AB0F9040000EE100AB8EEE1
:100D7000C00A88ED000ABDEC068BBDE8F08102F0E8
:100D8000ABF801E003F092FA134890ED000A84ED0D
:100D9000000AC6ED009A88ED008AECE738000020D2
:100DA000400000204400002048000020580000209F
:100DB000000080470000000000806640F1D4C85366
:100DC000FB210940333383410000002068010020EB
:100DD0006C010020720100201401002010B514489D
:100DE00000F0B2F91E21124800F058F9104800F046
:100DF000D9F880B207F03AFA9FED0E1B53EC112B95
:100E000007F084FA9FED0D1B53EC112B07F07EFACF
:100E10009FED0C1B53EC112B07F078FA9FED0B1B89
:100E200053EC112B07F072FABDE8104007F0AAB995
:100E3000CC0200206666666666660A400000000016
:100E400000002640000000000000594000000000A3
:100E50000000303F78B50024009490F83C20012A2F
:100E600019D0012280F83C200A6807230568092A66
:100E700013D9EE680A3A02EB420293409E43EE60B9
:100E80000B788A680A3B03EB43039A400368DD68EA
:100E90002A43DA6010E0022078BD2E6902EB42029C
:100EA00093409E432E610B788A6803EB43039A407C
:100EB00003681D692A431A614A681F23072A13D24F
:100EC00005686E6B521E02EB820293409E436E6376
:100ED0000B790A885B1E92B203EB83039A40036886
:100EE0005D6B2A435A6327E005680D2A12D22E6BE8
:100EF000D21F02EB820293409E432E630B790A8835
:100F0000DB1F92B203EB83039A4003681D6B2A43F5
:100F10001A6311E0EE6A0D3A02EB820293409E439F
:100F2000EE620B790A880D3B92B203EB83039A4081
:100F30000368DD6A2A43DA62164B0568144A9D424B
:100F400006D10D68122D03D1556845F48005556012
:100F500005689D4218D10B68102B01D0112B13D1BD
:100F6000536843F400035360096810290CD10A49FF
:100F70000A4A0968B1FBF2F101EB8101490000E086
:100F8000491E00910029FBD180F83C40002078BD2B
:100F900000230140002001407000002040420F006B
:100FA000006C70470068C06C704770B504004FF06B
:100FB000000503D0206C002610B107E0012070BDB1
:100FC000204600F01DF8666484F83C60206CC00682
:100FD00010D4206C20F4885040F002002064204699
:100FE000FFF7B8FB6664206C20F0020040F00100BF
:100FF000206400E0012584F83C60284670BD0000B4
:1010000030B587B0044614216846FFF7AFFA1F4891
:1010100024681D4D00221D4914380323AC4216D10B
:101020000C6844F480740C60096801F480710591C7
:10103000016841F0010101600068694600F00100AB
:1010400005901020CDE900030292114818E0114DDF
:10105000AC4217D10C6844F400740C60096801F4C8
:1010600000710591016841F0020101600068694664
:1010700000F0020005900220CDE90003029206482C
:1010800000F03CF907B030BD002001404438024078
:101090000000024000210140000402402DE9F0411F
:1010A000044600680D4681684FF0000749050BD5DE
:1010B0008068C00508D5206C40F02000206484F8CA
:1010C0003C700120BDE8F08100F016FA064613E0FE
:1010D000681C11D025B100F00FFA801BA8420BD973
:1010E00020680068800707D4206C40F0040020646A
:1010F00084F83C700320E5E7206800688007E7D5A6
:1011000021686FF012000860206C40F400702064C9
:101110002068816811F0405F13D1217E89B9C16ACE
:1011200011F4700F02D0806840050AD4206C20F4BE
:1011300080702064206CC00403D4206C40F0010057
:1011400020640020BEE7000018B50021009190F84F
:101150003C20012A07D0012280F83C2002689368D5
:10116000DB0702D011E0022018BD936843F00103B1
:1011700093602E4A2E4B1268B2FBF3F202EB42024E
:1011800000E0521E0092002AFBD102689368DB0740
:1011900042D0036C40F20164A34343F480730364C0
:1011A00053685B0505D5036C23F4005343F4805367
:1011B0000364036CDB0404D5436C23F0060343642F
:1011C00000E0416480F83C101A496FF0220313607C
:1011D00049680068CA06184906D0884224D1816847
:1011E00011F0405F13D01FE08842F8D0134A9042BC
:1011F00003D1D1F80423D206F1D0114A904213D181
:10120000D1F8041301F01F011029E8D30CE0816824
:1012100041F08041816007E0016C41F01001016400
:10122000416C41F001014164002018BD70000020B4
:1012300040420F00002301400020014000210140F6
:10124000002201402DE9F0410446876D00F054F979
:10125000064694F835000025022806D080206065F7
:1012600084F834500120BDE8F0812068016821F045
:10127000160101602068416921F080014161206C04
:1012800008B9A06C20B12068016821F00801016054
:101290002068016821F0010101600CE000F02CF9E8
:1012A000801B052807D920206065032084F83500BD
:1012B00084F83450D7E720680068C007EED194F86E
:1012C0005C103F208840B860012084F8350084F825
:1012D00034500020C7E790F83510022903D0802150
:1012E000416501207047052180F8351000680168CC
:1012F00021F0010101600020704700002DE9F84F46
:10130000DFF8BCA1002201250AF1040B03264FF0EF
:101310000F090BF1040E00BF0B6805FA02F423401D
:10132000A34270D10F7907F00307012F01D0022FDC
:1013300016D187684FEA420806FA08FC27EA0C072C
:10134000D1F80CC00CFA08FC4CEA070CC0F808C035
:101350004768A7430C79C4F3001494403C434460AD
:101360000C79E443A4070AD0C4684FEA420C06FA99
:101370000CF7BC438F6807FA0CF72743C7600C795A
:1013800004F00304022C12D1D40800EB840CDCF826
:1013900020405707FF0E09FA07F824EA0804D1F89D
:1013A000108008FA07F848EA0408CCF8208004689E
:1013B0004FEA420C06FA0CF7BC430F7907F003071B
:1013C00007FA0CF7274307604C6814F4403F70D0CD
:1013D0003C4C276847F480472760246822F00307C5
:1013E00004F480440094384C07EB040CDCF8084803
:1013F00097074FEA177809FA08F7BC43334FB8420A
:1014000002D1002724E054E0314FB84201D1012736
:101410001EE0304FB84201D1022719E02E4FB842EA
:1014200001D1032714E02D4FB84201D104270FE06A
:101430002B4FB84201D105270AE02A4FB84201D10B
:10144000062705E0284FB84201D1072700E008270A
:1014500007FA08F72743CCF80878DAF8004057462F
:10146000D1F804C09C435FEACC3C00D51C433C60EF
:10147000DBF800405F46D1F804C09C435FEA8C3C37
:1014800000D51C433C60DEF800407746D1F804C02C
:101490009C435FEACC2C00D51C433C60084F0C37C2
:1014A0003C68D1F804C09C435FEA8C2C00D51C43F7
:1014B0003C60521C102AFFF42FAFBDE8F88F0000EB
:1014C000003C01404438024000300140000002402E
:1014D0000004024000080240000C024000100240DC
:1014E0000014024000180240001C02400AB1816151
:1014F00070470904FBE7000001488068704700005E
:1015000064000020024881680278114481607047BD
:10151000640000200B4810B5016841F400710160BF
:10152000016841F480610160016841F480710160EB
:10153000032000F06FF80F2000F006F800F024F808
:10154000002010BD003C024070B50D4D04464FF424
:101550007A712878B1FBF0F00A490968B1FBF0F024
:1015600000F00AFB48B9102C07D200222146501E79
:1015700000F030F800206C6070BD012070BD0000EC
:1015800064000020700000200A4808B5016841F49A
:1015900080410160006800F4804000900548001F11
:1015A000016841F080510160006800F080500090B7
:1015B00008BD000044380240002809DB00F01F028B
:1015C000012191404009800000F1E020C0F80011A5
:1015D00070470000F0B40E4B1B680C46C3F30223A7
:1015E000C3F10705042D00D90425191D072901D2CF
:1015F000002300E0DB1E012606FA05F1491E21400A
:1016000099409E40761E16403143F0BC02F07EBEEB
:101610000CED00E0064900F0070208684FF6FF03F2
:10162000184040EA0220034A104308607047000057
:101630000CED00E00000FA052DE9F0470E4605002C
:1016400065D0DFF81481D8F80000F7B200F0070089
:10165000B04207D288F80070D8F8000000F0070008
:10166000B04254D128683D4C810712D5400703D5BC
:10167000206840F4E05020602878000703D52068F7
:1016800040F4604020602068A96820F0F000084322
:1016900020602878C0072DD03049686808390128B3
:1016A00012D0022813D0032811D009688907002915
:1016B0002DDA216821F0030101432160FFF71CFFAF
:1016C000814641F2883A0EE009688903EFE709682C
:1016D0008901ECE7FFF710FFA0EB0901514502D9A2
:1016E0000320BDE8F0872068696800F00C00B0EBCB
:1016F000810FEFD1D8F80010404601F00701B14248
:1017000007D90770006800F00700B04201D001203F
:10171000E7E72878400705D52068E96820F4E0501D
:10172000084320602878000706D52068296920F43E
:10173000604040EAC100206000F038F82168084AA3
:10174000C1F30311515CC8400649086006480068AF
:10175000FFF7FAFE0020C4E7003C024008380240D0
:10176000DE8A000870000020680000200448054957
:1017700000680968044AC1F38221515CC84070477F
:101780007000002008380240EE8A0008044805492D
:1017900000680968044AC1F34231515CC84070478F
:1017A0007000002008380240EE8A0008154810B585
:1017B000006810F00C02144813D04110042A0FD016
:1017C000082A0ED10F4C241F2268236802F03F0222
:1017D0005B0207D52068C0F38810A0FB010106E07A
:1017E000084610BD2168C1F38811A1FB0001002348
:1017F000FEF74FFD2168C1F30141491C4900B0FBD0
:10180000F1F010BD083802400024F4002DE9F84F33
:1018100004006ED02078DFF84C93C007A9F10405CE
:101820004AD009F104000168C1F38101012908D0FF
:101830000068C0F3810002280AD1D9F800004002F4
:1018400006D52868800337D560680028E1D033E0EA
:101850006068B0F5803F10D0B0F5A02F286810D098
:1018600020F480302860286820F480202860606898
:10187000A8B1FFF741FE06460DE0286840F480302D
:10188000F4E740F480202860F7E700BFFFF734FE5C
:10189000801B642873D828688003F7D50CE0FFF715
:1018A0002BFE064605E000BFFFF726FE801B6428DE
:1018B000F0D828688003F7D42078DFF8AC8280075E
:1018C0004FF0000A3ED5A748001D016811F00C0F2B
:1018D00008D00068C0F3810002280BD1D9F80000BD
:1018E000400207D42868800716D5E068012800D197
:1018F00012E033E1E068B8B10120C8F80000FFF75A
:10190000FBFD064605E000BFFFF7F6FD801B022841
:10191000C0D828688007F7D52868216920F0F8002A
:1019200040EAC10028600DE0C8F800A0FFF7E4FD20
:10193000064604E0FFF7E0FD801B02281FD8286858
:101940008007F7D42078000722D5864F8748616941
:10195000703771B101210160FFF7CEFD064604E04A
:10196000FFF7CAFD801B022809D838688007F7D521
:101970000EE0C0F800A0FFF7BFFD064605E082E0DC
:10198000FFF7BAFD801B02287DD838688007F7D49E
:101990002078400768D5DFF8CCB100270BF13C0B6D
:1019A000DBF80000C0000BD4DBF8001041F08051E0
:1019B000CBF80010DBF80000012700F08050009009
:1019C0006B4E3068C00510D4306840F480703060D1
:1019D000FFF792FD009005E0FFF78EFD0099401A99
:1019E000022850D83068C005F6D55E4EA0686C3627
:1019F00001280FD00528306810D020F00100306099
:101A0000306820F004003060A068B8B1FFF774FDC2
:101A100000900FE0306840F00100F4E740F004006F
:101A20003060F7E7FFF768FD0099411A41F288300E
:101A3000814266D830688007F4D50EE0FFF75CFD80
:101A4000009007E0FFF758FD0099411A41F28830F5
:101A5000814256D830688007F4D42FB1DBF80010EB
:101A600021F08051CBF80010A069C8B33D49091D91
:101A70000968C1F3810102294AD00228504607D0E3
:101A8000C8F8600000E03CE0FFF736FD04463BE0AC
:101A90004746C8F86000FFF72FFD064605E000BF87
:101AA000FFF72AFD801B02282BD828688001F7D475
:101AB000D4E907010843A16A2E4A490802EB014113
:101AC000626A41EA8211084394F82C1040EA0161ED
:101AD000C9F8001001203866FFF70EFD044606E045
:101AE0003EE000BFFFF708FD001B022809D8286868
:101AF0008001F7D534E000BFFFF7FEFC001B022891
:101B000002D90320BDE8F88F28688001F4D427E0CB
:101B10000128F7D0D9F80000E26900F48001914271
:101B20001CD1226A00F03F01914217D147F6C071E3
:101B3000626A0140B1EB821F10D1A26A4FF0FF33FD
:101B400000F4403103EB5202B1EB024F06D194F89E
:101B50002C1000F07060B0EB016F01D00120D1E7D4
:101B60000020CFE70438024000004742800E474281
:101B7000007000400000FFFF10B5401EB0F1807FF4
:101B800001D3012010BD4FF0E02460610F216017E8
:101B900002F0BCFB0020A06107202061002010BDE6
:101BA0007047704710B590F83C20012A22D00122DE
:101BB00080F83C20CA688C6822F4407222434C684A
:101BC00022F4806222430C6822F4006222430C69F2
:101BD00022F4805222434C6922F400522243C96904
:101BE000002322F480420A4301684A6480F83C30B2
:101BF000002010BD022010BD70B590F83C20012AD5
:101C000032D0012480F83C40022280F83D20036855
:101C10005A689D6822F070060A6832435A60134B76
:101C200002689A4214D0B2F1804F11D0104B9A4200
:101C30000ED0104B9A420BD00F4B9A4208D00F4B4C
:101C40009A4205D00E4B9A4202D00E4B9A4204D1D2
:101C5000496825F080031943916080F83D400021D8
:101C600080F83C10084670BD022070BD00000140A5
:101C70000004004000080040000C00400004014047
:101C8000004001400018004010B5040003D094F853
:101C90003D0010B107E0012010BD002084F83C0099
:101CA000204600F01FF8022084F83D00211D206826
:101CB00002F006F8012084F8460084F83E0084F81B
:101CC0003F0084F8400084F8410084F8420084F822
:101CD000430084F8440084F8450084F83D00002067
:101CE00010BD000008B500681149884209D11148AB
:101CF000016841F001010160006800F001000090FE
:101D000008BD0D498842FBD10A48001F016841F017
:101D1000020101600068002200F0020000901146FC
:101D20001D20FFF757FCBDE808401D20FFF744BC0D
:101D300000000140443802400004004090F83D108B
:101D4000012901D001207047022180F83D1001686F
:101D5000CA6842F00102CA6000681149884214D082
:101D6000B0F1804F11D00F4988420ED00E49884201
:101D70000BD00E49884208D00D49884205D00D4944
:101D8000884202D00C49884204D1816801F00701E1
:101D9000062903D0016841F001010160002070476D
:101DA000000001400004004000080040000C00401A
:101DB00000040140004001400018004070B5044696
:101DC00090F83C000025012817D0012684F83C60DB
:101DD000022084F83D002068826822F0770222F415
:101DE0007F4282600868502838D00DDC20284FD010
:101DF00005DC90B3102811D14AE0022070BD3028D4
:101E000046D040280AD13BE060282FD070280DD062
:101E1000B0F5805F03D0B0F5005F12D0012584F8E3
:101E20003D60002084F83C00284670BDCB68D1E9B5
:101E30000121206801F0B5FF2068816841F0770139
:101E400009E0CB68D1E90121206801F0AAFF2068F0
:101E5000816841F480418160E1E719E0CA6849681E
:101E6000206802F073F85021206806E0CA684968CB
:101E7000206802F07CF86021206801F09CFFCEE72A
:101E8000CA684968206802F061F840212068F4E7D8
:101E9000226801461046F0E72DE9F0410D460400A6
:101EA00003D094F83D0018B108E00120BDE8F081AE
:101EB000002084F83C00204600F040F8022084F81E
:101EC0003D002068816844F2070291438160211D32
:101ED000206801F0F5FE226890689169166A2B6807
:101EE000AF69034340F20330814341EA0721A86808
:101EF000EF6908434FF6FC418843E96840EA072050
:101F0000014328692F6A000140EA073008436968E5
:101F10006D6926F0AA0646EA0515294393602268F2
:101F2000906154F8460B0162012004F81F09E07526
:101F30002076E0762077A0750020B7E730B587B02F
:101F4000044614216846FEF711FB2148246800224C
:101F50001F4910380223B4F1804F1FD01D4DAC42F1
:101F60001AD10C6844F004040C60096801F0040103
:101F70000591016841F0020101600068694600F0C6
:101F800002000590C0200090CDE901321248CDE951
:101F9000032300BFFFF7B2F907B030BD0C6844F06F
:101FA00001040C60096801F001010591016841F02C
:101FB000010101600068694600F0010005900320FE
:101FC0000090CDE901320120CDE903200348E1E78B
:101FD0004038024000080040000402400000024077
:101FE00070B590F83E60044690F83F5090F842304B
:101FF00090F84320022021B104290ED0012E1BD1DC
:1020000014E0012E18D1012B16D184F83E0084F87B
:10201000420001220021206820E0012D0CD1012A7C
:102020000AD184F83F0084F8430014E0012D03D165
:10203000012B01D1012A01D0012070BD84F83E009E
:1020400084F83F0084F8420084F843000122002114
:10205000206801F099FE01220421206801F094FE1D
:102060002068016841F001010160002070BD7047E7
:1020700070B50446006801694FF00005C94389073F
:1020800015D4C168C943890711D4E91E0161012033
:102090002077206880698007204602D0FFF7E7FF9D
:1020A00004E000F0C3F8204600F055F925772068D9
:1020B0000169C943490717D4C168C943490713D403
:1020C0006FF004010161022020772068806910F41C
:1020D000407F204602D0FFF7CAFF04E000F0A6F8D8
:1020E000204600F038F9257720680169C9430907BF
:1020F00016D4C168C943090712D46FF00801016101
:10210000042020772068C0698007204602D0FFF7AE
:10211000AEFF04E000F08AF8204600F01CF92577B5
:1021200020680169C943C90617D4C168C943C906F3
:1021300013D46FF010010161082020772068C06976
:1021400010F4407F204602D0FFF791FF04E000F03A
:102150006DF8204600F0FFF8257720680169C94333
:10216000C90708D1C168C943C90704D1891E0161E3
:10217000204600F055F920680169C943090609D4D1
:10218000C168C943090605D46FF08001016120468A
:10219000FFF706FD20680169C943490609D4C168F3
:1021A000C943490605D46FF040010161204600F0A3
:1021B000C1F920680169C94389060BD4C168C943C4
:1021C000890607D46FF0200101612046BDE8704008
:1021D000FFF7E7BC70BD000010B586B004461421BF
:1021E0006846FEF7C3F90E492068884216D10D48AB
:1021F0000021026842F001020260006800F0010064
:1022000005904FF4106000900220CDE901010120FB
:10221000CDE9031069460448FFF770F806B010BD19
:10222000000001403038024000000240704770B5A5
:10223000044690F83C0000260D4601280FD00120EE
:1022400084F83C006AB1042A1DD0082A2FD00C2A39
:102250003FD00126002084F83C00304670BD0220AB
:1022600070BD206801F0B0FD2068816941F008016F
:1022700081612068816921F00401816120688169A0
:102280002A69114311E0206801F0CEFD20688169C0
:1022900041F4006181612068816921F4806181617C
:1022A000206881692A6941EA02218161D2E72068B8
:1022B00001F0F0FD2068C16941F00801C1612068AA
:1022C000C16921F00401C1612068C1692A69114313
:1022D00011E0206801F012FE2068C16941F400613C
:1022E000C1612068C16921F48061C1612068C16950
:1022F0002A6941EA0221C161ACE710B5040003D0AC
:1023000094F83D0010B107E0012010BD002084F8D2
:102310003C00204600F01EF8022084F83D00211DFC
:10232000206801F0CDFC012084F8460084F83E00CE
:1023300084F83F0084F8400084F8410084F84200AB
:1023400084F8430084F8440084F8450084F83D0094
:10235000002010BD7047704710B50446022249B1F5
:1023600004290ED0082913D094F84100012816D072
:10237000012010BD94F83E000128F9D184F83E20D8
:102380000FE094F83F000128F2D184F83F2008E0E4
:1023900094F840000128EBD184F8402001E084F853
:1023A00041200122206801F0EFFC16492068164AFE
:1023B000884201D0904203D1436C43F4004343640C
:1023C0002068884213D0B0F1804F10D00F49884266
:1023D0000DD00F4988420AD00E49884207D090425A
:1023E00005D00D49884202D00C49884204D1816849
:1023F00001F00701062903D0016841F001010160E5
:10240000002010BD00000140000401400004004015
:1024100000080040000C004000400140001800404F
:102420002DE9F0413549884265D1354C607930B1AC
:102430000021344A61711078012802D00BE001219B
:10244000F7E7314803785B1CDBB20370012B02D144
:10245000002303701370DFF8B48029B101F06CFA27
:10246000FEF7BCFCC8F800006079002843D10220C8
:1024700001F036FB264D2860042001F031FB254E8B
:10248000306025480078FEF7B7FB642000F0C8FDF7
:10249000FEF716FB00F09EFD2048214FD0ED000A0C
:1024A00097ED000A03F0B2FA20633168286805F05E
:1024B0006DFB60631B4890ED000A1B48007805F037
:1024C00051FBA061D4E90C121144184C0A1A184DA2
:1024D00008442260286001F0CFFED8F8000097ED94
:1024E000000A01F057FD002805D129682068BDE8E1
:1024F000F04101F041BBBDE8F0810000A4030020E1
:102500009800002055000020540000203C000020CE
:10251000280000202C0000200000002044000020A3
:1025200040000020480000205C0000203000002017
:10253000340000207047704770470000F8B501680C
:1025400004460868CA684B6910F00F0F4FF0000589
:1025500059D003F0010602F49077374365D0C107E4
:1025600005D0D10503D5216C41F00101216441075B
:1025700005D5D90703D0216C41F002012164810700
:1025800005D5D90703D0216C41F00401216401076E
:1025900007D502F02001314303D0216C41F008013E
:1025A0002164216C00293AD0800604D5900602D51A
:1025B000204601F056FD20684069216CC0F3801070
:1025C000090700D460B3204601F024FD206840696B
:1025D000400621D52068143050E8001F21F040014A
:1025E00040E80012002AF5D1A06BA8B16C49016542
:1025F000A06BFEF770FE002811D0A06B016D01B03A
:10260000BDE8F040084783060FD593060DD5204658
:10261000BDE8F84001F025BD2046FFF78DFFF8BD6D
:102620002046FFF789FF2564F8BD266B2023012E85
:1026300079D1C60677D5D60675D508684868009062
:102640004869400640D5A16B086840680004000C4A
:10265000EAD0A28D8242E7D9E085C869B0F5807FD3
:102660002DD020680C3050E8001F21F4807140E824
:102670000012002AF5D12068143050E8001F21F024
:10268000010140E80012002AF5D12068143050E81A
:10269000001F21F0400140E80012002AF5D184F823
:1026A0003E30256320680C3050E8001F21F01001F7
:1026B00040E80012002AF5D1A06BFEF7C3FDA08D03
:1026C000E18D401A81B229E0A08DE18D401A81B2DE
:1026D000E08D0028A8D00029A6D020680C3050E852
:1026E000002F22F4907240E80026002EF5D12068D9
:1026F000143050E8002F22F0010240E80026002E9E
:10270000F5D184F83E30256320680C3050E8002F66
:1027100022F0100240E80023002BF5D12046FFF7FD
:102720000AFFF8BDFFE705062BD5150629D594F855
:102730003D002128F5D1A068B0F5805F01D1206966
:10274000B0B1206A411C2162216800784860E08CA9
:10275000401E0004000CE084E3D12068C16821F031
:102760008001C1602068C16841F04001C160D8E7C4
:10277000206A0088C0F308004860206A801C20623C
:10278000E5E74006CDD55006CBD5CA68204622F0F5
:102790004002CA6084F83D3000F0F4F9C1E700005F
:1027A0000540000870B5040004D094F83D000025F1
:1027B00010B106E0012070BD84F83C50204600F0C6
:1027C00023F8242084F83D002068C16821F40051DA
:1027D000C160204601F0A6FC2068016921F4904107
:1027E00001612068416921F02A0141612068C168C6
:1027F00041F40051C1602564202084F83D0084F834
:102800003E00002070BD0000F0B587B004461421E2
:102810006846FDF7ABFE2A4F2368002229490224AF
:10282000032507262848BB4221D1264B14331F68B5
:1028300047F010071F601B6803F0100305930B6837
:1028400043F001030B60096802AB01F0010105913F
:102850006902CDE9001483E864006946FEF74EFD85
:10286000002211462520FEF7B5FE252023E0174F54
:10287000BB4222D1134B10331F6847F400371F604F
:102880001B6803F4003305930B6843F001030B60EE
:10289000096802AB01F0010105910C21CDE900149A
:1028A00083E864006946FEF729FD002211462620D0
:1028B000FEF790FE2620FEF77FFE07B0F0BD000079
:1028C0000010014030380240000002400044004047
:1028D00090F83E30202B0ED159B152B190F83C30D7
:1028E000012B08D0012380F83C300023036301F062
:1028F0009FBC012070470220704700002DE9F0477F
:1029000088492DED028B0068884272D18648874B3A
:10291000421F07781771906801214FF0020959286A
:1029200006D0582807D0622807D061280DD010E0C3
:1029300083F800900DE019700BE07D4B1C7814B10A
:1029400000241C7005E00124FBE7D37853B3002377
:10295000D370784C237813B1D3785B1C23709246E4
:10296000DFF8D4C1DFF8D481754A764B764D774EC7
:1029700000240A2825DDCCF80040C8F800405A2879
:1029800035D0412836D0452812D0422814D04328CB
:1029900012D0442810D046282ED047282CD04828C2
:1029A0002AD024E00123D3E71C7003E0347027E031
:1029B000147019702C70F9E714701C702C70317041
:1029C0001EE01DDACCF80040C8F8004078B10128BC
:1029D00010D00528ECD00228EED00328ECD0042833
:1029E000EAD0062808D0072806D0082804D014709A
:1029F000DAE793E01170D7E714701C702970D5E7FF
:102A00004948534E401F554640787B2F07D07D2FB5
:102A10000BD02A78012A03D0022A08D075E0297049
:102A20003754401C8AF801006FE085F8009000EEF2
:102A3000100A484AB8EE400A82ED000AF278502A9D
:102A400006D0572A06D07178232953D0A8702BE0DE
:102A5000414800E0414801704CE06978081A05F0EF
:102A6000EEFB41EC110B9FED3E0B02F07DF8AF78D1
:102A7000B0EE408AF019F0EE608A10F8010C3038A0
:102A800005F0DDFB53EC182B05F040FC41EC180B76
:102A9000E86805F031FF53EC182B05F023F905F039
:102AA000EFF87F1EE860AF70A8780428D5D2707860
:102AB0009FED2D0A303804281CD2DFE800F0020810
:102AC0000E14D5ED030A294880EE801A10E0D5EDEA
:102AD000030A274880EE801A0AE0D5ED030A25484C
:102AE00080EE801A04E0D5ED030A234880EE801AB8
:102AF00080ED001A2C706C709FED200AAC7085ED93
:102B0000030A32211248FDF70FFDBDEC028B0122B2
:102B1000BDE8F04704491A48FFF7DABEBDEC028B66
:102B2000BDE8F0870044004089000020010000203B
:102B300004000020050000201C00002020000020D0
:102B4000240000202500002026000020270000206F
:102B5000BC0800204C000020560000205700002038
:102B600000000000000024400000C84208000020CF
:102B70000C000020100000201400002000000000C5
:102B8000780400207047FEE770B50D46044600F05B
:102B9000BFF8204600F08CF800F002F9284600F05B
:102BA00087F800F0FDF800F0B3F8641CE0B200F024
:102BB0007FF800F0F5F8002000F046F8044600F039
:102BC000CFF8204670BD000070B50D4C0025C4F84C
:102BD000A8520C48016821F440010160016841F4E9
:102BE00080010160C4F8AC52012004F52A7402F09F
:102BF0009DFF0120206002F099FF256070BD00005C
:102C0000008040420004024070B50D4C0025C4F81D
:102C1000A8520C48016821F440010160016841F4A8
:102C2000800101600126C4F8AC62304604F52A74C4
:102C300002F07CFF2660012002F078FF256070BD65
:102C400000804042000402402DE9F04781461648CA
:102C50000024016821F44001016001680160134E05
:102C6000254627464FF00108C6F8A872022002F058
:102C70005DFFC6F8A8826006040ED6F82C0208B1E3
:102C8000641CE4B2022002F051FF6D1CEDB2082D6D
:102C9000EAD3B9F1000F02D0FFF796FF01E0FFF78A
:102CA000B3FF2046BDE8F0870004024000804042A8
:102CB0002DE9F04106461448016821F44001016005
:102CC000016841F480010160104C0027C4F8A8722B
:102CD0003D464FF00108F009C4F8AC027006060E3C
:102CE000012002F023FFC4F8A882012002F01EFF99
:102CF000C4F8A872012002F019FF6D1CEDB2082D76
:102D0000E9D3BDE8F08100000004024000804042A9
:102D100070B51148016821F440010160016841F477
:102D2000800101600D4C0120C4F8AC02D4F82C12D3
:102D300049B1C4F8A80202F0F9FE0025C4F8AC526B
:102D4000D4F82C0208B1002070BD012002F0EEFE84
:102D5000C4F8A852012070BD000402400080404227
:102D60000D4810B5016821F440010160016841F48B
:102D700080010160094C0020C4F8A802C4F8AC022C
:102D8000012004F52A7402F0D1FE01202060606069
:102D9000BDE8104002F0CABE00040240008040427C
:102DA00070B512480024016821F4400101600168F7
:102DB00001600F4D0126C5F8AC62304602F0B6FE48
:102DC000C5F8A86207E0641CE4B2322C03D9FFF70F
:102DD000C7FF002070BD012002F0A8FED5F82C022C
:102DE0000028F0D1C5F8A802012070BD00040240FF
:102DF0000080404210B51446FFF7C6FE2070012047
:102E000010BDF8B515461C460E4607466A46FFF744
:102E1000F1FF01209DF80010A8400CB1084301E02B
:102E200021EA0000C2B28DF800203146384600F099
:102E30002BF8F8BD2DE9F84314461D460F46804691
:102E40006A46089EFFF7D6FF00281BD0611CFF20B2
:102E5000C4F1080200FA01F12A44521ED040014395
:102E6000C5F108008640F2B2C4F10700C2409DF8E7
:102E70000000084010438DF80000C2B239464046B9
:102E800000F002F8BDE8F88307B502AB012200F0BC
:102E900001F80EBD2DE9F0411E461546884607464D
:102EA0000024FFF735FF3846FFF702FFFFF778FFF2
:102EB0004046FFF7FDFEFFF773FF06E0305DFFF7CA
:102EC000F7FEFFF76DFF641CE4B2AC42F6D3FFF7E8
:102ED00047FF0120BDE8F0813C483D4A00F1440134
:102EE00090ED083A90ED054AD0ED064A30EEC31A4F
:102EF000D0ED021A41EE044A91ED011A31EEC12AD9
:102F0000D1ED021A72EE615AC2ED005A91ED032A18
:102F1000F1EE422AC2ED012AC2ED022A90ED035AD7
:102F200002EE841A82ED035AD1ED003A42EE841A81
:102F300005EE042A45EE843A70EE645AC0ED095A53
:102F4000027802EE902A00EE102AF8EE622AB8EE1D
:102F5000400A21EEA26A23EE800A02EE902A80ED5A
:102F60000A0A80ED0B6AF8EE622A90ED044A02EE3E
:102F7000804A80ED0C4A80EE045AC6EE042A04EE24
:102F8000102A80ED0D5A45EE403AB8EE444A45EE1F
:102F9000254A21EE044A05EE441AC0ED0E2A80EDC2
:102FA0000F0A02EEC42A02EEA53A80ED104A42EE64
:102FB000C01AE1EC013A81EC031A30EEC30AC0ED0D
:102FC000064A80ED083A80ED070A7047FC000020B1
:102FD0000009002010B5322002F032FD012802D095
:102FE00002280DD002E00B480BE0017000F030F831
:102FF000012804D10848017849B10021017010BDB1
:103000000648017809B10021EFE70121EDE7012130
:10301000F4E700000200002005000020030000206B
:1030200010B5094A002360B108490C68641C0C60A3
:10303000844205D1D2F8B402C043C2F8B4020B6096
:1030400010BDC2F8B43210BD0080404280000020A4
:103050000C48002142891AB90B4BD3F838320BB116
:1030600001810AE003895B1C9BB20381C82B04D950
:1030700001224281018110467047012A00D141811D
:1030800000207047740000200080404210B50220EC
:1030900000F011F8032000F020F8002000F014F8F0
:1030A000002000F02FF8002000F026F8BDE81040C6
:1030B000002000F01BB808B50323009002226B210A
:1030C000D020FFF7B7FE08BD08B502230090042208
:1030D0001C21D020FFF7AEFE08BD08B502230090EA
:1030E00004221B21D020FFF7A5FE08BD03460122C4
:1030F0003721D020FFF785BE034605226A21D02064
:10310000FFF77FBE034606226B21D020FFF779BE72
:103110001FB500211648009101910291134A0391B5
:1031200002604FF48032C0E901210161017680F82C
:103130002010104AC0E90A210124C461C16080F84E
:1031400030104461FDF731FF08B1FDF7B7FC0420F2
:10315000CDE900040720029069460548FDF77AFE94
:10316000002801D0FDF7AAFC1FBD0000002001408F
:10317000840200200100000F1FB5002116480091B5
:1031800001910291134A039102604FF48032C0E929
:1031900001210161017680F82010104AC0E90A215E
:1031A0000124C461C16080F830104461FDF7FDFE68
:1031B00008B1FDF783FC0920CDE900040720029047
:1031C00069460548FDF746FE002801D0FDF776FC6C
:1031D0001FBD000000210140CC0200200100000FB3
:1031E0002DE9F04F87B014216846FDF7BFF9384844
:1031F0000024016841F004010160016801F004014C
:103200000591016841F080010160016801F08001D1
:103210000591016841F001010160016801F00101BF
:103220000591016841F0020101600068DFF8A49097
:1032300000F002004EF2190505900022294648468A
:10324000FEF754F9DFF890A042F230060022314632
:103250005046FEF74BF9DFF884B04FF410470022D8
:1032600039465846FEF742F94FF44068012241467C
:103270005046FEF73BF900950125CDE9015469461A
:1032800048460394FEF73AF80096CDE901546946A2
:1032900050460394FEF732F80220CDE90250CDE902
:1032A000008569465046FEF729F8A803CDE90004D9
:1032B000694650460294FEF721F80097CDE9015483
:1032C000694658460394FEF719F807B0BDE8F08F39
:1032D0003038024000080240000402400000024072
:1032E00010B596B000240F94109411941294139476
:1032F0001C2168461494FDF739F9202107A8FDF731
:1033000035F93248304901600121C0E9011442F227
:10331000D001C0E903148021C0E90541FEF7B4FCE7
:1033200008B1FDF7CBFB4FF480500F900FA9274851
:10333000FEF744FD08B1FDF7C1FB2448FEF7DDFFB1
:1033400008B1FDF7BBFB139413A920481494FEF7B2
:1033500053FC08B1FDF7B2FB7020CDE90004022058
:1033600002900820CDE9030405940022694617481D
:103370000694FEF75CFF08B1FDF7A0FB0C2269463E
:103380001248FEF754FF08B1FDF798FB0794089424
:1033900009944FF400500A94CDE90B4007A90B485B
:1033A0000E94FEF7FFFB08B1FDF788FB00210748EC
:1033B000FEF7D2FF0C210548FEF7CEFF0348FEF7CB
:1033C0000BFF16B010BD00000000014014030020E8
:1033D00010B58CB024216846FDF7C8F800241948C0
:1033E00009944FF080410A94C0E900144FF6FF7130
:1033F000C0E902418021046181610320CDE900041C
:103400000120CDE902040494CDE905400794694602
:103410000C480894FEF740FD08B1FDF74FFB0994F6
:1034200009A908480A94FEF7E7FB08B1FDF746FB37
:1034300000210448FEF7D4FD04210248FEF7D0FD28
:103440000CB010BD5C03002010B586B000241748F6
:103450000094019402940394049413490594016028
:1034600042F2CF01C0E901143121C0E903148021E7
:103470008161FEF709FC08B1FDF720FB4FF4805095
:10348000009069460948FEF799FC08B1FDF716FB64
:10349000049404A905480594FEF7AEFB002801D06A
:1034A000FDF70CFB06B010BD00040040A403002093
:1034B00010B58CB024216846FDF758F800241A484E
:1034C000099418490A94C0E900144FF6FF71C0E945
:1034D00002418021046181610320CDE900040120C3
:1034E000CDE902040494CDE90540079469460E48ED
:1034F0000894FEF7D1FC08B1FDF7E0FA099409A998
:1035000009480A94FEF778FB08B1FDF7D7FA0021C5
:103510000548FEF765FD04210348FEF761FD0CB088
:1035200010BD000000080040EC0300200C4810B55E
:103530000A4901604FF4E1314160002181600C22B1
:10354000C160C0E904128161C161FFF72BF9002855
:1035500003D0BDE81040FDF7B1BA10BD0010014026
:10356000340400200C4810B50A4901604FF416518C
:103570004160002181600C22C160C0E904128161B8
:10358000C161FFF70FF9002803D0BDE81040FDF737
:1035900095BA10BD0044004078040020FEE7FEE725
:1035A00010B40021084B0A465FF0000003EBC00492
:1035B000401CC0B262548028F8D3491CC9B2082903
:1035C000F2D310BC00F0B0B8BC04002010B57F28C6
:1035D00016D83F2914D80723A3EBD10301F0070124
:1035E000C1F107040121A140064CDBB204EBC0008D
:1035F000002AC25CC9B201D00A4300E08A43C25427
:1036000010BD0000BC0400202DE9F04116460D4617
:1036100007460024FFF7DAFF324629463846FFF70F
:10362000D5FF2819C1B232463846FFF7CFFF641CD8
:10363000E4B2082CF5D3BDE8F081000010B5394C98
:103640000020C4F8BC02642004F52F7402F054FA80
:10365000012020600021AE2000F04AF90021D52091
:1036600000F046F90021502000F042F90021A82086
:1036700000F03EF900213F2000F03AF90021D3206C
:1036800000F036F90021084600F032F90021402010
:1036900000F02EF900218D2000F02AF900211420DD
:1036A00000F026F90021202000F022F9002102205C
:1036B00000F01EF90021A12000F01AF90021C0201D
:1036C00000F016F90021DA2000F012F90021122092
:1036D00000F00EF90021812000F00AF90021EF200E
:1036E00000F006F90021D92000F002F90021F120B4
:1036F00000F0FEF80021DB2000F0FAF80021302075
:1037000000F0F6F80021A42000F0F2F80021A62035
:1037100000F0EEF80021AF2000F0EAF8BDE810401C
:10372000FFF73EBF0000414270B5114E002400BFBC
:1037300004F1B000C0B2002100F0DAF80021084620
:1037400000F0D6F80021102000F0D2F85FF000055C
:1037500006EBC5000121005D00F0CAF86D1CEDB25A
:10376000802DF5D3641CE4B2082CE1D370BD0000B9
:10377000BC0400202DE9FF4F203A1F460C46894625
:1037800002F0FF0A0025DDF834B032E00C2F09D03A
:103790001A4901EB0A104FF00008465D300607D5C4
:1037A0005A4609E016490AEB4A0001EB8000F2E7AD
:1037B000BBF1000F12D0002221460098FFF706FF50
:1037C0007006641C060EE4B2A4EB0900B84207D1EF
:1037D00000984C46401CC0B2009008E00122EBE784
:1037E00008F1010000F0FF08B8F1080FD6D36D1CF6
:1037F000EDB2BD42CAD3BDE8FF8F00006A8F00085A
:10380000F68A00082DE9FF4F81B00026DDF838A0C8
:103810001D469346814634464FF001084FEA5A0749
:1038200027E0281B401EC1B20A2003F0BEFFBBFBED
:10383000F0F00A21B0FBF1F201FB120026B9691E7B
:103840008C4201DA48B101263030C2B207FB049045
:10385000C0B25346CDF8008006E007FB0490C0B22A
:1038600053462022CDF800800299FFF783FF641CA5
:10387000E4B2AC42D5D305B0BDE8F08FF8B516463A
:103880000D460446012714E07A2C02D90024103595
:10389000EDB23A2D03D900242546FFF781FE0097AB
:1038A00032780C2329462046FFF764FF0834E4B23F
:1038B000761C30780028E7D1F8BD000070B50A4DBD
:1038C0000A4E002435F814003178884201D20122D2
:1038D00000E0002200212046FFF796FE641CE4B2BF
:1038E000802CEFD370BD0000840100205D0000201B
:1038F00030B500230E4A012411B1C2F8804201E024
:10390000C2F880325FF00001C2F8B432050602D579
:10391000C2F8B84201E0C2F8B832C2F8B442400678
:10392000491C000EC9B20829EED3C2F8804230BD4E
:1039300000004142704700002DE9F04700271C4C71
:1039400001253E46C4F890523946C4F88C7204F5FD
:103950002374FDF7AEF861602560FDF7AAF8FDF766
:10396000A8F8FDF7A6F865602560FDF7A2F8656088
:103970002160A4F52374FDF79CF8DFF838908846A1
:10398000C4F89082FDF795F8FDF793F80420FDF751
:1039900013F9010929F81610761CF6B2C4F89052F2
:1039A000FDF787F87F1CFFB2802FE9D3BDE8F087D1
:1039B000000041428401002010B5454C2DED088BDC
:1039C00088B007A804F1220106ABCDE9004002AAA5
:1039D000881F02F02FFA2088C00575D59DED020AD8
:1039E000B8EE009AB0EE008AF8EEC00A9FED390AF0
:1039F00020EE801A84ED011ADDED030A21EE081A8B
:103A0000F8EEE00A60EE801AC4ED021ADDED040A59
:103A100061EE891AF8EEE00A60EE800AC4ED030A4E
:103A20009DED052AB8EEC22A22EE000A84ED040AB2
:103A300021EE800A01EE200A10EE100A04F05CFF6D
:103A400041EC100B00F074FC9FED23AB51EC100B1C
:103A500053EC1A2B04F05AFC04F012F96061D4ED17
:103A6000028A28EE890A60EE280A94ED030A20EE05
:103A700008BA4BEE400AB7EE000A30EE800A10EEAC
:103A8000100A04F039FF94ED040AD4ED010A41EC68
:103A9000190B2BEE000A60EE880A00EEA80A10EE61
:103AA000100A04F029FF41EC100BB0EE491AF0EEB9
:103AB000691A00F059FF53EC1A2B51EC100B04F06B
:103AC00025FC04F0DDF8A06108B0BDEC088B10BD4A
:103AD00050010020000080306666666666A64C4095
:103AE0000021022805D0032809D0042809D000208D
:103AF00070474FF08042506A516200B27047034AEB
:103B000000E0034A1068116000B2704724040040CE
:103B10002408004010B54221D020FFF735F80446B4
:103B20004121D020FFF730F804EB002000EE100A0E
:103B3000B8EE400A10EE100AB0F18E4F03DDDFED53
:103B40000A0A30EE600A9FED091AC0EE010A9FEDE5
:103B5000080A30EE800AF2EE040A20EE200ABDEEDA
:103B6000C00A10EE100A10BD000080470000AA43F2
:103B7000B81E1242704700002DE9F04700241E4D88
:103B800001261E4F89462DED028B002804DDC5F865
:103B9000BC42C7F8946203E0C5F8BC62C7F894421F
:103BA00003F0FEFD04F04BFB9FED158B53EC182B3F
:103BB00004F0ACFB04F016FBDFF84C80C8F84000C2
:103BC000B9F1000004DDC7F89042C5F8B06203E027
:103BD000C7F89062C5F8B04203F0E2FD04F02FFB95
:103BE00053EC182B04F092FB04F0FCFAC8F83400F4
:103BF000BDEC028BBDE8F0870000404200804042EF
:103C0000B81E85EB51B8F23F00000140FDF77ABCC9
:103C100030B593B030216846FCF7A8FC14210CA8FD
:103C2000FCF7A4FC1D480025016841F080510160AB
:103C3000006800F0805011901948016841F48041FB
:103C400001600068022400F480401190012000907F
:103C5000000401908001CDE9064008AA0420A821B3
:103C600082E813000B906846FDF7D0FD08B172B6EC
:103C7000FEE70CA90F2081E831004FF4A0500F900F
:103C80004FF48050109005210CA8FDF7D5FC0028BA
:103C900001D072B6FEE713B030BD000040380240DC
:103CA000007000400248016841F4700101607047F3
:103CB00088ED00E00148FEF7DBB90000A403002016
:103CC000F0B50268254C264D264E274F274B4FF066
:103CD000804CA04209D0604507D0A84205D0B04230
:103CE00003D0B84201D0984204D122F0700E4A6845
:103CF00042EA0E02A0421BD0604519D0A84217D05C
:103D0000B04215D0B84213D0984211D0184DA842F5
:103D10000ED0184DA8420BD0174DA84208D0174D11
:103D2000A84205D0164DA84202D0164DA84203D194
:103D300022F44075CA682A434D6922F080022A4362
:103D400002608A68C2620A688262A04201D0984218
:103D500001D10969016301214161F0BD0000014009
:103D60000004004000080040000C00400004014036
:103D7000004001400044014000480140001800405C
:103D8000001C00400020004010B501F01F0301217D
:103D9000046A99408C430462016A9A4011430162AB
:103DA00010BD10B5846842EA032224F47F440A431C
:103DB0002243826010BD826822F070020A4342F002
:103DC0000701816070470000F0B5026A22F001022D
:103DD0000262036A42688469124E24F073050C681B
:103DE0002C4323F002058B682B430D4DA84201D0D4
:103DF000B04205D123F00807CB683B4323F004030E
:103E0000A84201D0B04205D14D6922F44072154359
:103E10008A692A4342608461496841630362F0BD54
:103E20000000014000040140F0B5026A22F01002D7
:103E30000262026A436884690D6824F4E64444EA35
:103E400005248D6822F0200242EA05120F4D104E23
:103E5000A84201D0B04206D1CF6822F0800242EAE7
:103E6000071222F04002A84201D0B04207D14D69AA
:103E700023F4406343EA85038D6943EA8503436085
:103E80008461496881630262F0BD00000000014066
:103E900000040140F0B5026A22F480720262026AF4
:103EA0004368C46922F4007224F073050C68124E52
:103EB0002C438D6842EA05220E4DA84201D0B04243
:103EC00006D1CF6822F4006242EA072222F480621F
:103ED000A84201D0B04207D14D6923F4405343EAD0
:103EE00005138D6943EA05134360C4614968C163E2
:103EF0000262F0BD000001400004014030B5026ADA
:103F000022F480520262046A4268C3690D6823F495
:103F1000E64343EA05238D6824F4005444EA05345B
:103F2000084DA84202D0084DA84204D14D6922F4A0
:103F3000804242EA85124260C361496801640462BA
:103F400030BD0000000001400004014010B5036ACC
:103F5000046A24F001040462846924F0F00444EA51
:103F6000021423F00A020A438461026210BD10B5F4
:103F7000036A23F0100303628369046A23F4704325
:103F800043EA023224F0A00343EA01118261016294
:103F900010BD000015499FED161AD1ED000A30EE54
:103FA000811AB4EEC01AF1EE10FA10DC9FED111A6E
:103FB00070EE810AF4EEC00AF1EE10FA07D30E4952
:103FC0000978012903D040F2564188420CDA0B4AA5
:103FD00001200021C2F89412094BC3F8BC12C2F8A8
:103FE0009012C3F8B01270470020704718000020EC
:103FF000000020C200002042020000200080404259
:104000000000404210B5806B0021C185C184FEF7DD
:1040100093FA10BD01680C3151E8002F22F4907220
:1040200041E80023002BF5D10168143151E8002F3D
:1040300022F0010241E80023002BF5D1016B012998
:1040400009D101680C3151E8002F22F0100241E83B
:104050000023002BF5D1202180F83E1000210163C0
:10406000704708B590F83E10222901D0022008BD03
:1040700082684FF480539A4201D1016921B1816A6B
:104080009A421BD04AB10AE00268816A5268C2F3C0
:1040900008020A80816A891C08E0026972B102681C
:1040A000526802F07F020A70816A491C8162C18DE8
:1040B000491E0904090CC18503D019E00268526841
:1040C000F1E70168CA6822F02002CA600168CA6884
:1040D00022F48072CA6001684A6922F001024A61D2
:1040E000202180F83E10016B012903D0FEF706FC69
:1040F000002008BD0021016301680C3151E8002F48
:1041000022F0100241E80023002BF5D101680A6873
:10411000D20602D50A6849680091818DFEF70BFA34
:10412000E6E7000070B5044600680169E26821F422
:104130004051114301612169A068E2690843616946
:10414000114308432168CA6849F20C639A43024349
:10415000CA6020684169A26921F44071114341613C
:1041600031492068884202D03049884202D1FDF7A7
:104170000DFB01E0FDF7FAFAE2690023192164253D
:104180003226B2F5004F626828D0A0FB0101930FE0
:104190009200FCF77EF80146B0FBF5F06FF01802D4
:1041A000504301EB800006EB0010B0FBF5F000F08F
:1041B000F002B1FBF5F002EB0012B1FBF5F06FF08D
:1041C0001803584301EB800006EB0010B0FBF5F03C
:1041D00000F00F0021681044886070BDA0FB010151
:1041E00092185B41FCF755F80146B0FBF5F002016F
:1041F000B1FBF5F06FF01803584301EB800006EBBC
:10420000C000B0FBF5F000F0F80002EB4002B1FB9B
:10421000F5F0584301EB800006EBC000B0FBF5F071
:1042200000F00700D6E70000001001400014014034
:1042300081628285C28500210164222280F83E20AD
:1042400080F83C100168CA6842F48072CA60016854
:104250004A6942F001024A610068C16841F02001E8
:10426000C1600020704700000148FEF767B90000F8
:1042700078040020FEE700000A4942F208004242AA
:104280000B68934201DA0A6002E0834200DD0860B5
:1042900005490B68934201DA0A6070478342FCDDEE
:1042A0000860704730000020340000200948F7EE15
:1042B000001ADFED092A90ED011A31EEC12AD0ED86
:1042C000061A40EEA21A62EE210A41EE000AC0ED83
:1042D000060A7047FC0000200AD7233C03B401986B
:1042E0004100009850EAC12018BF04204A0D18BFB1
:1042F00040F0010040F2FF72B2EB515F08BF40F0A6
:104300000200012808BF052002B070470907090E06
:10431000002804DB00F1E02080F80014704700F072
:104320000F0000F1E02080F8141D7047000000002D
:1043300070B5C1482DED020B2DED0E8B82B0119D95
:1043400025F000449FEDBEDB9FEDBFEB84423EDBDA
:10435000A4F140511098A1F17F6108430FD0BC48EF
:10436000844202DC28D1109830B39DED100B02B0CE
:10437000BDEC0E8B02B0BDE8704001F0B1BA9DED0E
:10438000100B53EC1D2B51EC100B03F0BFFF9DEDF8
:10439000100B41EC180B53EC1E2B51EC100B03F0DF
:1043A000B5FF53EC182B03F09DFC41EC100B02B051
:1043B000BDEC0E8B02B070BD0120FCF707F902B016
:1043C000BDEC0E8B02B0BDE8704001F09DBAA14873
:1043D0009FEDA18B844256DA9DED100BB4F1795F0D
:1043E0000ADA51EC100BFFF779FF042808BF01F03F
:1043F000ABFA9DED100BDAE753EC102B51EC100BE0
:1044000003F084FF41EC190B95480621B0EE490AF0
:10441000F0EE690A784401F0CFF953EC192B51EC16
:10442000100B03F073FF41EC1A0B8E48B0EE490AF3
:10443000F0EE690A0421784401F0BEF953EC192B1F
:1044400051EC100B03F062FF53EC182B03F04AFC05
:1044500041EC100B51EC1A0B53EC102B03F0FEFC4B
:10446000CDE900019DED000B53EC102B9DED100BE1
:1044700051EC100B03F04AFF9DED101B53EC112B78
:1044800003F030FCD2E09DED100B51EC100B02F06C
:1044900049F853EC182B04F06DF89FED730BCDE940
:1044A000000153EC102B9DED000B51EC100B03F0B1
:1044B0002DFF41EC190B6E480621B0EE490AF0EED3
:1044C000690A784401F078F953EC192B51EC100B80
:1044D00003F01CFF41EC1B0B6648B0EE490AF0EEFE
:1044E000690A0421784401F067F953EC192B51EC67
:1044F000100B03F00BFF53EC182B03F0F3FB41EC14
:104500001C0B51EC190B03F0F5FA41EC180B5A484F
:104510009FED5BABA04222DC53EC1C2B51EC1B0B40
:1045200003F09CFCCDE900019DED000B51EC180B54
:1045300053EC102B03F0EAFE53EC182B03F0D2FBE4
:1045400053EC1A2B03F0E2FE53EC1D2B04F0EAF8B7
:1045500053EC1E2B04F00EF841EC100B5FE08DEDD8
:10456000008B002000909DED000B51EC180B53ECDC
:10457000102B03F0B7FB9DED000B41EC1E0B53EC31
:10458000102B51EC100B03F0C1FE53EC192B03F070
:10459000F1FF53EC1E2B03F061FC41EC190B53ECC3
:1045A0001C2B51EC1B0B03F059FC41EC1B0B53EC87
:1045B0001A2B51EC190B03F0A9FE53EC1D2B03F041
:1045C000D9FF41EC190B53EC1A2B51EC180B03F0EB
:1045D0009DFE53EC1B2B03F099FE53EC192B04F0BA
:1045E000A1F89DED000B41EC180B53EC1A2B51EC8C
:1045F000100B03F08BFE9FED249B53EC192B03F063
:10460000B9FF41EC100B51EC180B53EC102B04F0DC
:1046100089F853EC192B03F0ADFF41EC100B002D82
:104620003FF7C5AE51EC100B03F01EFB41EC100B35
:10463000BDE60000000000000000F03F00000000A8
:10464000075C143326A6913C182D4454FB21F93FF6
:104650000000F07F0000E03F000000000000F03F9D
:10466000905D00009E5D0000000000000000E03F43
:10467000E25C0000F05C00003333EF3F000000001C
:104680000000000000000040182D4454FB21E93FC9
:1046900070B59B482DED020B2DED068B079D25F087
:1046A0000044A04218DC9748844202DC0AD10698F4
:1046B00040B19DED060BBDEC068B02B0BDE870402D
:1046C00001F00EB9002DCCBF9FED8F0B9FED900B2D
:1046D000BDEC068B02B070BD8F48A04215DD8F483F
:1046E000A042D8BF4FF0FF3458DD9DED060B51ECD2
:1046F000100BFFF7F3FD042808BF01F025F99DED2D
:10470000060BBDEC068B02B070BD9DED060B51ECA7
:10471000100B01F007FFCDE9060181489FED828B68
:10472000A0423CDD8248A0421FDD00249FED82AB09
:104730009DED060B53EC1A2B51EC100B03F0D2FA43
:104740009DED060B41EC190B53EC1A2B51EC100BA1
:1047500003F0DCFD53EC182B03F0E4FF53EC192BB2
:1047600003F07CFBCDE9060149E09DED060B012439
:1047700053EC182B51EC100B03F0B4FA9DED060B23
:1047800041EC190B53EC182B51EC100B03F0CAFF42
:1047900053EC192B03F062FBCDE906012FE06848CA
:1047A000A0421FDD02249FED689B9DED060B53EC9C
:1047B000192B51EC100B03F0A9FD53EC182B03F04F
:1047C00091FA9DED060B41EC180B53EC192B51ECB3
:1047D000100B03F0A7FF53EC182B03F03FFBCDE9C0
:1047E00006010CE09DED060B032453EC102B9FED0E
:1047F000580B51EC100B03F031FBCDE906019DED98
:10480000060B53EC102B51EC100B03F07FFD41EC29
:10481000180B53EC182B03F079FD41EC190B4E48A3
:104820000621B0EE490AF0EE690A784400F0C4FFB0
:1048300053EC182B51EC100B03F068FD41EC180BF6
:104840004648B0EE490AF0EE690A0521784400F0C6
:10485000B3FF53EC192B51EC100B03F057FD41EC57
:10486000100B51EC180B53EC102B002C0EDA03F04C
:1048700039FA9DED061B53EC112B03F047FD9DED1E
:10488000061B53EC112B03F075FE35E003F02AFAFA
:104890009DED061B53EC112B03F038FD41EC100B82
:1048A0002F48784400EBC40090ED001B51EC100B36
:1048B00053EC112B03F036FF9DED061B53EC112B2F
:1048C00003F030FF41EC100B2648784400EBC400A5
:1048D00090ED001B51EC100B53EC112B03F04AFE32
:1048E00041EC100B002DA2BFBDEC068B02B070BDD9
:1048F00051EC100B03F0B8F941EC100B01E700008C
:10490000000010440000F07F182D4454FB21F93FB3
:10491000182D4454FB21F9BF0000DC3F0000203E6D
:104920000000F33F00000000000000000000F03F26
:104930000000E63F00000000000000000000004012
:104940000080034000000000000000000000F83F6D
:10495000000000000000F0BFBA5A0000705A0000CA
:10496000FA590000B259000070B56F4E2DED040BDE
:104970002DED048B82B0DDF824C0DDE907235C4215
:104980002CF000411C4341EAD474069D22F0004003
:10499000B44205D86C422C4340EAD474B4420BD9DB
:1049A0009DED081B9DED060B02B0BDEC048B04B021
:1049B000BDE8704000F09EBFACF14054A4F17F64AC
:1049C0001C430BD0022404EAAC7444EAD2740543BD
:1049D0009FED578B9FED582B07D015E09DED060BF3
:1049E00051EC100B01F00AF842E0002C11BF012C31
:1049F0009DED060B02B0BDEC048B04BF04B070BD8E
:104A0000022C38D0032C3BD00B439FED4D1B9FED68
:104A10004E0B0AD0B14218D1B04209D121F08041E9
:104A200020F08040099107900FE0002A15DA10E08D
:104A3000474B7B44002C08BF93ED000B0DD0012C9D
:104A400010D0022C17D0032C1AD0B0421DD1002A4E
:104A500003DAB0EE410AF0EE610A02B0BDEC048B5D
:104A600004B070BD93ED000B51EC100B03F0FCF89B
:104A700041EC100BF1E7B0EE480AF0EE680AECE703
:104A8000B0EE420AF0EE620AE7E7401A00159FED29
:104A9000329B3C28C8BF8DED000B17DCBCF1000F2A
:104AA000BCBF10F13C0F8DED009B0FDB9DED080BA3
:104AB00053EC102B9DED060B51EC100B03F0CEF9CF
:104AC00001F030FD00F09AFFCDE90001B4B1012CF6
:104AD00010D0022C9FED220B53EC102B9DED000B00
:104AE00051EC100B19D003F01DFE53EC182B03F002
:104AF00019FEBDE7019880F0004001909DED000B8C
:104B000053EC192B51EC100B03F000FB04BF0220F7
:104B1000FBF75CFD9DED000B9FE703F003FE53ECFC
:104B2000182B03F027FDA3E70000F07F0000000032
:104B3000182D4454FB210940182D4454FB2109C071
:104B4000182D4454FB21F9BF182D4454FB21F93F83
:104B5000E25800000000000000000000000000001B
:104B6000075C143326A6A13C2DE9F04D2DED040B76
:104B70002DED0E8B96B0DDE92550279CDDF890A039
:104B800025F0004624F00048BAF1000F14BF0121BF
:104B9000002101EB4502FC4953184A1093422AD3E5
:104BA000002814BF0123002303EB44030B44F749FF
:104BB0008B4220D358EA00019FEDF59B76D0DFF8B9
:104BC000D8B35D4503D1BAF1000F05D188E0BAF141
:104BD000000F08BF002100D0012101EB450111F5B4
:104BE000001F08D8002814BF0121002101EB440157
:104BF00011F5001F0BD99DED261B9DED240B16B062
:104C0000BDEC0E8B04B0BDE8F04D00F073BE002784
:104C1000002DBCBFE149884521DAE1498845A8BF9C
:104C200002271CDAC3451ADCDE4901EB285114299E
:104C300008DDC1F1340220FA02F101FA02F28242E7
:104C40000DD108E058B9C1F1140228FA02F101FAB5
:104C500002F2424503D101F00101C1F1020756EA17
:104C60000A0124D1002C22DA002D18BF022F01D016
:104C7000012F0AD00220FBF7A9FC16B0BDEC0E8B69
:104C800004B0BDE8F04D00F013BE0220FBF79EFC1F
:104C900000F00EFE51EC100B02F0E6FF41EC100BA1
:104CA00016B0BDEC0E8B04B0BDE8F08D18E09FEDA2
:104CB000BEAB9FEDBF8B002871D1B848804522D193
:104CC00005F1804010F5801008BFBAF1000F07D041
:104CD000B3450ADC002CA8BF9DED260BE0DA0DE001
:104CE000B0EE490AF0EE690ADAE7002C06DA9DED2B
:104CF000260B51EC100B02F0B7FF6FE0AE48784482
:104D000090ED000BCCE7D8454DD1002C48DA2EB100
:104D100086423AD1BAF1000F42D126E0BAF1000F33
:104D200013D00220FBF752FC00F0FEFD8DED020BCC
:104D30009DED240B8DED000B10EE900A039961F3AD
:104D40001E0003909DED020BAAE78DED02AB9DEDD9
:104D5000240B1AEE901A10EE900A8DED000B61F301
:104D60001E0003909DED020B9AE78DED028B9DEDE9
:104D7000240B18EE901A10EE900A8DED000B61F3E3
:104D80001E0003909DED020B8AE709DA9DED240BCE
:104D900051EC190B53EC102B03F060F81EE020E0EF
:104DA0009DED240B7CE786421BDAB4F1804F0DD0D9
:104DB000A4F10050B0F1FF5013D1002D11DB9DED97
:104DC000240B51EC100B02F095FE07E09DED240B37
:104DD00053EC102B51EC100B00F0C2BC41EC100B4B
:104DE0005EE79DED240B51EC100B01F09BFBBAF13B
:104DF000000FCDE90E0142D19FED710B46B3A6F134
:104E0000E040B0F17F600CD05E4538D1002D00DA73
:104E1000A7B3022F0CBF01204FF0FF3003F00FFAB1
:104E2000DCE7002D01DD002C0DDA002D01DD002C6A
:104E30001FDB002D16DA002C14DB012F08BF9FEDBD
:104E4000620B3FF42DAFB0EE4A0AF0EE6A0A27E794
:104E5000022F18BF002D0CD0012F0AD1002DFFF614
:104E60001FAF06E0002DB8BF002C08DA012F3FF479
:104E700017AFB0EE480AF0EE680A11E71BE0012018
:104E800000EBE57050EA070115D0791EB0EE498AB3
:104E9000F0EE698A084308BF9FED4D8B4E48002510
:104EA000804570DD4D494E48884514DDB0420DDB2C
:104EB000002C19DB2FE00120FBF788FB16B0BDECBE
:104EC0000E8B04B0BDE8F04D00F01EBDB34502DC12
:104ED000002C09DC1FE0864202DA002C1BDA03E01A
:104EE0005E452BDD002C16DD0220FBF76FFB00F08A
:104EF0001BFD8DED020B53EC1A2B51EC180B03F03C
:104F000005FACDE900010399019861F31E000390B1
:104F10009DED020BC4E60220FBF758FB00F014FDE8
:104F200010EE901A18EE900A8DED020B8DED008BAD
:104F300061F31E0003909DED020BB1E69DED0E0B9B
:104F400053EC192B51EC100B03F0ECFB9FED260BEF
:104F5000CDE9080153EC102B9DED080B51EC100B23
:104F600003F0D4F99FED221B53EC112B03F002FB4D
:104F70009DED081B53EC112B03F0C8F99FED1E1B90
:104F800053EC112B3CE08CE0FFFF1F00FFFF0F00F4
:104F9000000000000000F03F0000F03F0000F07F44
:104FA0000000404301FCFFFF000000000000F07F14
:104FB0000000000000000000165600000000000085
:104FC0000000000000000080000000000000F0FF72
:104FD000000000000000F0BF0000E0410000F043CE
:104FE000FFFFEF3F00000000000000000000D03F86
:104FF000555555555555D53F000000000000E03F80
:1050000003F0B8FA9DED080B41EC1A0B53EC102B92
:1050100051EC100B03F07AF953EC1A2B03F076F9EC
:1050200041EC1A0B9FEDFE0B53EC102B9DED080B82
:1050300051EC100B03F06AF941EC1B0B9FEDFA0BDE
:1050400051EC1A0B53EC102B03F060F941EC1A0BE6
:105050009FEDF70B53EC102B9DED080B51EC100B53
:1050600003F054F953EC1A2B03F05CFB41EC1A0BE0
:1050700051EC1B0B53EC1A2B02F034FE0690CDE9D9
:1050800006519DED060B53EC1B2B51EC100B03F05E
:1050900049FB53EC1A2B03F06DFA41EC100B00F0B6
:1050A000A1B90020B6F5801F0EDA9FEDE30B53EC9B
:1050B000102B9DED0E0B51EC100B03F027F9CDE9F1
:1050C0000E016FF034000E4600EB2650A0F2FF37C1
:1050D000C6F31300DA4940F07F6646F04056884236
:1050E000D8BF002408DDD7498142C8BF012403DCB2
:1050F0000024A6F580167F1CD348784400EBC4003A
:105100000F9690ED00CB9DED0E0B53EC1C2B51EC4C
:10511000100B03F007FB9DED0E0B41EC1B0B53EC4A
:105120001C2B51EC100B02F0DDFD41EC100B51EC8F
:10513000190B53EC102B02F091FE41EC1D0B51ECBE
:105140001B0B53EC1D2B03F0E1F841EC1A0BBF488D
:105150008DED10AB7844109590ED000B4FF00050A2
:1051600040EA660000EB84408DED080B00F500205E
:1051700009909DED080B53EC1C2B51EC100B03F028
:10518000D1FA9DED0E1B53EC112B03F0F3F941EC1A
:10519000100B53EC102B9DED100B51EC100B03F08A
:1051A000B5F89DED080B41EC1C0B53EC102B9DED5D
:1051B000100B51EC100B03F0A9F853EC1B2B03F070
:1051C000D9F953EC1C2B03F0ADFA53EC1D2B03F073
:1051D0009DF841EC1C0B53EC1A2B51EC1A0B03F00D
:1051E00095F841EC1B0B9A480621B0EE4B0AF0EE05
:1051F0006B0A784400F0E0FAB0EE401AF0EE601A64
:10520000B0EE41DAF0EE61DA53EC1B2B51EC1B0BE4
:1052100003F07CF853EC1D2B03F078F89DED100B98
:1052200041EC1B0B53EC1A2B51EC100B02F05AFD06
:1052300053EC1C2B03F06AF853EC1B2B02F052FDCD
:105240009DED100B41EC1B0B53EC102B51EC100B94
:1052500003F05CF841EC1D0B9FED7FEB53EC1E2B34
:1052600002F040FD53EC1B2B02F03CFD0890CDE911
:1052700008519DED080B53EC1E2B51EC100B03F065
:1052800051FA53EC1D2B03F04DFA53EC1B2B03F09A
:1052900071F99DED080B41EC1D0B53EC102B9DEDAE
:1052A000100B51EC100B03F031F841EC1B0B53ECDD
:1052B0001A2B51EC1D0B03F029F89DED080B41EC66
:1052C0001A0B53EC102B51EC1C0B03F01FF853EC92
:1052D0001A2B02F007FD41EC1A0B51EC1B0B53EC9F
:1052E0001A2B02F0FFFC0C90CDE90C519DED0C0B3C
:1052F00053EC1B2B51EC100B03F014FA53EC1A2B4C
:1053000003F038F941EC1B0B9FED550B53EC102BC0
:105310009DED0C0B51EC100B02F0F8FF41EC1A0B59
:105320009FED510B51EC1B0B53EC102B02F0EEFFD9
:1053300041EC1B0B9FED4E0B53EC102B9DED0C0B1A
:1053400051EC100B02F0E2FF53EC1B2B02F0CAFCF5
:1053500041EC100B4848784400EBC40090ED001B72
:1053600051EC100B53EC112B02F0BCFC41EC1B0B6D
:10537000384602F064FFCDE9080153EC1B2B51ECD9
:105380001A0B02F0AFFC41EC100B3C48784400EBE8
:10539000C40090ED00CB51EC100B53EC1C2B02F031
:1053A000A1FC9DED081B53EC112B02F09BFC069019
:1053B000CDE906519DED080B53EC102B9DED060B2E
:1053C00051EC100B03F0AEF953EC1C2B03F0AAF9CF
:1053D00053EC1A2B03F0A6F953EC1B2B03F0CAF87D
:1053E00041EC100B9DED261B53EC102B8DED001B9B
:1053F00000959DED260B51EC100B02F087FF9DED03
:10540000000B41EC1A0B53EC102B9DED260B51ECCD
:10541000100B03F087F99DED061B53EC112B2FE0C9
:10542000000000604715F73FFE822B654715F73FE8
:1054300044DF5DF80BAE543E000000000000404326
:105440008E9803007AB60B00FA500000C05100009D
:105450003250000000000000000000000000084082
:10546000000000E009C7EE3FFD033ADC09C7EE3F4C
:10547000F5015B14E02F3EBEBE4E0000784E0000EA
:1054800002F044FF53EC1A2B02F02CFC9DED060BAE
:1054900041EC1A0B53EC102B9DED000B51EC100B53
:1054A00002F034FFCDE90C019DED0C0B51EC1A0B11
:1054B00053EC102B02F016FCCDE902010C46AA4970
:1054C0008C422FDB611A084318D19DED0C0B53EC75
:1054D000102B9DED020B51EC100B03F023F941EC66
:1054E0001B0B9FEDA30B51EC1A0B53EC102B02F08E
:1054F000F9FB53EC1B2B03F007F82DD20220FBF72E
:1055000065F800F011FA10EE901A18EE900A8DED81
:10551000020B8DED008B61F31E0003909DED020BDD
:10552000FFF7BEBB944A24F00041914214D3934943
:10553000214408437FF4EFAC9DED0C0B53EC102B92
:105540009DED020B51EC100B03F0ECF853EC1A2B11
:1055500002F0DAFF7FF6DFAC24F000408849894A88
:10556000002601EB205182422BDA481C4FF48011B7
:1055700021FA00F02044844AC0F30A517A44A1F28F
:10558000FF3192ED000B814A8DED080BCA4020EAF5
:105590000202C0F3130040F48010C1F1140120FA9C
:1055A00001F60992002CB8BF76429DED080B53EC32
:1055B000102B9DED0C0B51EC100B03F0B3F8CDE963
:1055C0000C019DED0C0B51EC1A0B53EC102B02F05F
:1055D00089FB9FED6F0B0890CDE9085153EC102B20
:1055E0009DED080B51EC100B02F090FE41EC1B0BF3
:1055F0009FED690B53EC102B9DED080B51EC100B3C
:1056000002F084FE9DED0C0B41EC1C0B53EC102BB7
:105610009DED080B51EC100B03F084F853EC1A2BA2
:1056200002F0A8FF9FED5E1B53EC112B02F06EFE03
:1056300053EC1C2B02F056FB41EC1A0B51EC1B0BEC
:1056400053EC1A2B02F04EFBCDE902019DED020B4B
:1056500053EC1B2B51EC100B03F064F853EC1A2B9A
:1056600002F088FF9DED020B41EC1A0B53EC102B5E
:1056700051EC100B02F04AFECDE908014A489DEDBD
:10568000080B0521784400F097F89DED081B51ECBC
:10569000100B53EC112B02F039FE9DED021B53EC65
:1056A000112B02F067FFCDE906019DED020B53ECD3
:1056B0001A2B51EC100B02F029FE53EC1A2B02F0BE
:1056C00011FB9FED3B0B41EC1A0B53EC102B9DEDA6
:1056D000060B51EC100B03F025F89DED060B41EC89
:1056E0001B0B53EC102B9DED020B51EC100B02F039
:1056F0000DFE53EC1B2B02F0B1FB53EC1A2B03F005
:1057000011F89DED021B53EC112B03F00BF853EC39
:10571000192B02F02FFFCDE9020101EB0650011514
:105720000029C8BF039015DC9DED020B324651ECF9
:10573000100B03F08EF9FEF7D1FD042808BF00F02E
:1057400003F932469DED020B51EC100B03F081F989
:10575000CDE902019DED020B51EC180B53EC102B1F
:1057600002F0D4FDFFF73ABB0000904000000000BB
:10577000FE822B654715973C00CC904000346F3F6C
:1057800001FCFFFF0000E03F984D0000FFFF0F000D
:1057900000000000432EE63F396CA80C615C20BE7F
:1057A000EF39FAFE422EE63FD04B00000000000029
:1057B000000000000000004070B504462DED028B93
:1057C0004D1E00EBC500B0EE408AF0EE608A90ED11
:1057D000000B35F0060017D053EC182B51EC100BD2
:1057E00002F094FD41EC100B6D1E04EBC50090ED32
:1057F000001B51EC100B53EC112B02F073FA41EC2F
:10580000100B35F00600E7D1022D36D0042D1CD048
:10581000062D1CBFBDEC028B70BD53EC182B51EC58
:10582000100B02F073FD94ED0A1B53EC112B02F0E8
:1058300059FA53EC182B02F069FD94ED081B53EC58
:10584000112B02F04FFA41EC100B53EC182B51ECDA
:10585000100B02F05BFD94ED061B53EC112B02F0D4
:1058600041FA53EC182B02F051FD94ED040B53EC6C
:10587000102B02F037FA41EC100B53EC182B51ECC3
:10588000100B02F043FD94ED021B53EC112B02F0C0
:1058900029FA53EC182B02F039FD94ED001B53EC60
:1058A000112B02F01FFABDEC028B41EC100B70BD06
:1058B0009FED070B10B553EC102B9FED070B51EC30
:1058C000100B02F0CBFA41EC100B10BD00000000F1
:1058D0000000000000000000000000000000F03F99
:1058E00010B553EC102B51EC100B02F0FBF941EC0E
:1058F000100B10BD10B553EC112B51EC100B02F036
:10590000F1F941EC100B10BD9FED050B10B553ECF8
:10591000102B51EC100B02F0A1FA41EC100B10BD52
:1059200000000000000000009FED050B10B553ECD7
:10593000102B51EC100B02F0E9FC41EC100B10BDE8
:1059400000000000000000709FED050B10B553EC47
:10595000102B51EC100B02F0D9FC41EC100B10BDD8
:10596000000000000000001070470000FEB5064671
:105970000D460024684600F0F9FD00229FED1B1A39
:105980006B46012156F8227055F82200381A00D5CE
:10599000404200EE100A03EB8200B8EEC00AD0EDE0
:1059A000000A20EE010AF5EEC00AF1EE10FA0DD061
:1059B000C0EE201AB7EE000A0D4F31EEC00AB0EE6D
:1059C000C00A10EE100AB84207DC09E010EE100A17
:1059D000084F3844084FB84202D301FA02F004439A
:1059E000521C032ACEDB2046FEBD0000000080379B
:1059F000295C0F3E666666C19A99D90010B541ECE4
:105A0000100BFEF745FE51EC100B10BD094890ED50
:105A1000001A094830EE410A90ED001A074821EEBD
:105A2000000A90ED001A00EE810ABDEEC00A10EEE9
:105A3000100A704718000020080000200C00002009
:105A400030B5204BD3F838421F4900222CB1CA8010
:105A5000D3F83852012425B106E0CC88641CCC80F0
:105A6000F6E70D7805B90C704D784DB90D78012D1C
:105A700003D18D786D1C8D704C708C78022C04D005
:105A8000D3F83832012B04D005E08A708A800220D6
:105A900030BD0A704A708B78012B11D18B885B1C4A
:105AA0009BB28B80834206D9CB88834203D28A7013
:105AB0008A80012030BDCB88834201D98A708A80D8
:105AC000002030BD00804042740000204FF0E021F3
:105AD0000A6922F004020A610649C00800EB40028C
