:020000040800F2
:10000000200D0020ED010008F9900008798000081B
:10001000F5900008B115000861B400080000000068
:1000200000000000000000000000000069920008CD
:10003000E516000800000000C9910008C192000800
:10004000070200080702000807020008070200086C
:10005000070200080702000807020008070200085C
:10006000070200080702000807020008B51500088B
:10007000070200080702000807020008070200083C
:10008000070200080702000807020008070200082C
:10009000070200080702000807020008070200081C
:1000A000070200080702000807020008070200080C
:1000B0005193000807020008070200080702000821
:1000C00007020008070200080702000807020008EC
:1000D00007020008070200080702000807020008DC
:1000E00007020008070200080702000807020008CC
:1000F00007020008070200080702000807020008BC
:1001000007020008070200080702000807020008AB
:1001100007020008070200086193000807020008B0
:10012000070200080702000807020008070200088B
:10013000070200080702000807020008070200087B
:10014000070200080702000807020008000000007C
:10015000000000000000000000000000000000009F
:10016000000000000000000000000000070200087E
:10017000070200080702000807020008070200083B
:10018000070200080702000807020008070200082B
:10019000070200080000000007020008070200082C
:1001A000070200080702000807020008070200080B
:1001B00007020008070200080702000807020008FB
:1001C00007020008070200080702000807020008EB
:1001D0000702000807020008DFF80CD000F06EFEEE
:1001E00000480047F5B50008200D0020064880476C
:1001F00006480047FEE7FEE7FEE7FEE7FEE7FEE70C
:10020000FEE7FEE7FEE7FEE73D930008D9010008A0
:100210002DE9F05F0546002092469B46884606463B
:10022000814640241BE0284641464746224600F0CE
:10023000ECF853465A46C01A914110D3114618465D
:10024000224600F0D3F82D1A67EB01084F462246EC
:100250000120002100F0CAF817EB00094E41201ED2
:10026000A4F10104DFDC484631462A464346BDE896
:10027000F09FD2B201E000F8012B491EFBD270477B
:100280000022F6E710B513460A4604461946FFF762
:10029000F0FF204610BD421C10F8011B0029FBD1C5
:1002A000801A70470FB400B58DB010A909900B905B
:1002B00000914FF0FF300A9000200C900548069006
:1002C000054807906A4609A80F9900F025FC0DB073
:1002D0005DF814FB350B0008530B00082DE9FE4FA9
:1002E00081EA030404F0004421F0004100944FF03F
:1002F000000B23F0004350EA01045ED052EA0304ED
:100300005BD0C3F30A54C1F30A552C44A4F2F3346E
:100310000194A0FB0254C1F3130141F48011C3F313
:10032000130343F4801301FB024400FB034E840AD1
:10033000970A44EA815447EA8357A4FB0768029569
:100340008D0A05FB07854FEA932C04FB0C54270507
:10035000029D4FEA065847EA1637B5EB08056EEBE3
:10036000070C870E920E47EA811742EA8312A7FB19
:100370000201B6EB0B0164EB00042B0D43EA0C33D6
:100380005E1844EB1C50DA465146E7FB0201C5F308
:1003900013044FEA0B3343EA14534FEA0432019C2F
:1003A00043EA0603A4F10C040294009CCDE900B4D6
:1003B00000F0EFFB03B0BDE8F08F00200146F9E745
:1003C00030B50B46014600202022012409E021FA25
:1003D00002F59D4205D303FA02F5491B04FA02F522
:1003E0002844151EA2F10102F1DC30BD202A04DBF5
:1003F000203A00FA02F1002070479140C2F1200338
:1004000020FA03F3194390407047202A04DB203A76
:1004100021FA02F00021704721FA02F3D040C2F124
:10042000200291400843194670472DE9FF4F1C46B2
:1004300081B00021D4E9016791464FF0FF358A462B
:100440008846A1696D1C02988847216A83468847BF
:100450000028F6D1BBF1FF3F0CD026F4C066002F78
:100460001ADD700615D5BBF12B0F0AD0BBF12D0F8D
:100470000FD104E04FF0FF3005B0BDE8F08F46F437
:100480008066A1696D1C029888477F1E8346002FF5
:1004900002DDBBF1300F03D0B9F1000F2AD025E007
:1004A000A1696D1C46F400767F1E0298884783463A
:1004B000002F05DDBBF1780F06D0BBF1580F03D03C
:1004C000B9F1000F10D011E0B9F1000F02D0B9F16D
:1004D000100F0BD1A1696D1C26F400767F1E0298C7
:1004E00088478346102000E0082081464FEAE970E3
:1004F000009017E00A20F8E74346AAFB092803FB0F
:100500000980DDF800C07F1E0AFB0C0112EB0B0A0C
:1005100041EBEB78A16946F4007605F101050298FC
:1005200088478346002F06DD4946584600F0F5FC13
:100530005FEA000BE0D5E16902988847B00502D474
:100540006FF0010098E7F00718D1700610D570051C
:10055000514605D50023D1EB030163EB080200E00F
:1005600042462068031D23600068C0E9001205E0D0
:100570002068011D21600068C0E900A828467BE7CB
:100580002DE9FF5F1D464FF0FF3BD5E9014691463F
:100590005F464FF00008A9697F1C01988847296AC7
:1005A000824688470028F6D1BAF1FF3F0CD024F4E8
:1005B000C064002E19DD600614D5BAF12B0F09D0E6
:1005C000BAF12D0F0ED103E0584604B0BDE8F09FFC
:1005D00044F48064A9697F1C01988847761E82468E
:1005E000002E02DDBAF1300F03D0B9F1000F26D092
:1005F00032E0A969761E44F400747F1C0198884794
:100600008246002E05DDBAF1780F06D0BAF1580FF8
:1006100003D0B9F1000F10D01EE0B9F1000F02D0E5
:10062000B9F1100F18D1A969761E24F400747F1C4B
:10063000019888478246102002E0082000E00A2046
:10064000814609E008FB0908A969761E44F4007494
:100650007F1C019888478246002E05DD494650469A
:1006600000F05BFC0028EDDAE96901988847A005F5
:1006700002D46FF00100A8E7E00725D1600613D58A
:10068000600502D5C8F1000000E0404629680A1D57
:100690002A600968220501D5087015E0220701D5F6
:1006A000088011E008600FE02868011D29600068DB
:1006B000210502D580F8008006E0210702D5A0F8C8
:1006C000008001E0C0F8008038467EE72DE9FF5F3A
:1006D000D2E901A74FF00008916999461446DDF868
:1006E00038B0464601988847054659EA0B0005D0C0
:1006F00009E0A169761C019888470546216A2846C9
:1007000088470028F5D1681C03D05FEACA7005D07D
:1007100015E04FF0FF3004B0BDE8F09F2068011DE8
:100720002160D0F800800AE05FEACA7001D108F8C1
:10073000015BA169761C7F1E019888470546002F42
:100740001ADD681C18D0B9F1000F0DD0E81705EBC1
:10075000D060421120F01F0059F822102A1A0120FF
:1007600090400142E0D107E0BBF1000FDCD1216AEB
:10077000284688470028D7D0E16901988847BBF10F
:10078000000F07D1002E05DD5FEACA7002D10021FB
:1007900088F80010A068B84203DDBBF1000F03D059
:1007A00017B16FF00100B6E73046B4E72DE9FF4F0F
:1007B000087883B09946FF2805D0491C2D2804D01D
:1007C0000024002008E000200BE00124F9E700EB02
:1007D000800003EB4000491C0B78FF2BF7D104B1DC
:1007E000404200230293147819461D462D2C01D057
:1007F0002B2C04D1521C2D2C13D000240294AA4679
:100800001478FF2C0FD00A25A3FB057801FB058186
:100810004FF0000C03FB0C11521CE3194AEB0101D1
:10082000EEE70124EAE7814453EA010002D019F51A
:10083000C87F06DA03980021C0E9001107B0BDE8BF
:10084000F08F0025AE4E2F46DFF8B882184600F034
:1008500009FDCDE90001B9F1000002DAC9F1000497
:1008600000E004460023A74A1AEB030B42EB045AAC
:1008700012E0E00707D02A46334638464146FFF7E4
:100880002DFD074688462A46334610461946FFF78F
:1008900025FD05460E466410002CEAD1DDE9000175
:1008A000B9F1000F5A46534606DA00F067FA3A46A5
:1008B000434600F063FA05E0FFF710FD3A46434671
:1008C000FFF70CFD029A0AB181F00041039AC2E9D8
:1008D0000001B3E72DE9FF4F1F468DB0D7E9014670
:1008E0004FF0FF382E2045464FF000090B90B969B4
:1008F0006D1C0E988847396A824688470028F6D1D1
:10090000BAF1FF3F0AD024F4D064002E11DDBAF111
:100910002B0F08D0BAF12D0F0BD102E0404611B0D9
:100920008DE744F48064B9696D1C0E98884782464F
:10093000761E6946600501D52D2000E02B208DF83C
:10094000000001F1010B0DF1200809E0B9696D1CEF
:100950000E98884782460F9844F40074761E05600E
:10096000002E02DDBAF1300FF0D00B998A453ED14E
:1009700044F0800406E00F99681CA9F1010944F4D1
:1009800000740860B9696D1C761E0E98884782460F
:100990003028F0D02BE00B998A4505D1200603D4EE
:1009A00044F08004761E18E050460BF02BF808B394
:1009B0000DF11302761EAAF1300044F40074934541
:1009C00006D20BF8010B200607D5A9F1010003E0C0
:1009D000200602D409F101008146A00502D50F9935
:1009E000681C0860B9696D1C0E9888478246002E05
:1009F000D1DC53E0002E51DDBAF1650F02D0BAF11F
:100A0000450F4BD1A00549D5B9696D1C24F440743C
:100A1000761E0E9888478246002E0CDD2B2804D0C7
:100A2000BAF12D0F07D144F48074B9696D1C0E988A
:100A300088478246761EE00501D52D2100E02B2156
:100A400008F8011BCDF82C8021E00DF12901761E5C
:100A500044F4007488450CD2AAF1300010F0FF0075
:100A600088F8000002D10B99884509D908F10108DE
:100A700006E0E00501D5244801E042F20F7081460E
:100A8000B9696D1C0E98884782460F980560002E44
:100A900004DD50460AF0B6FF0028D6D1F9690E9859
:100AA0008847FF208BF8000088F80000002006909F
:100AB00007904B466A4608A906A8FFF777FEA005EF
:100AC00002D46FF001002AE714F0240F0AD0E007E7
:100AD00014D1DDE906123868031D3B600068C0E9E7
:100AE00000120BE0DDE9060100F0C8FB0146E0075B
:100AF00004D13868021D3A600068016028460EE79C
:100B0000000014400000F03FF1D8FFFF02681144DC
:100B10001378016018467047D16004495161044957
:100B2000116200211161114600F006BA0D0B000898
:100B3000110F0008426842B1016811F8013B23B16E
:100B4000521EC0E90012184670470121C160881E7C
:100B5000704742685AB1C368016843B983688B42E1
:100B600005D0491E521CC0E90012002070474FF00A
:100B7000FF30704710B5141E73F1000408DA401CF2
:100B800041F1000192185B411A4301D120F00100AC
:100B900010BD2DE9F04D92469B4611B1B1FA81F29C
:100BA00002E0B0FA80F220329046FFF71FFC0446C4
:100BB0000F4640EA0A0041EA0B0153465A460843F1
:100BC00013D0114653EA010019D0C8F14002504633
:100BD000FFF71BFC05460E46504659464246FFF7B6
:100BE00005FC084305D0012004E020463946BDE855
:100BF000F08D0020054346EAE0762C4337430A98FF
:100C00006305E40AA0EB08000022FD0A44EA475409
:100C10000A3002D500200146E9E7010510196941B3
:100C2000DDE9084500196941BDE8F04DA2E72DE96D
:100C3000FE4F804681EA0300C00F0C46009021F071
:100C4000004123F00045B8EB0200A94105D240461F
:100C5000214690461C460B46024623F000401043B6
:100C600047D0270DC7F30A00C3F30A510290401A78
:100C7000019040286BDAC3F3130040F4801B009806
:100C8000924620B10023D2EB030A63EB0B0B0198D1
:100C90005946C0F140025046FFF7A8FB06460D46F4
:100CA00050465946019A00F021F910EB08006141C5
:100CB000002487EA115284EAE7731A4340D0009A6D
:100CC00062B3019A012A4FEA075215DC001B61EB5F
:100CD00002014FF0004202EA0752CDE90042001C37
:100CE00041F5801132462B46FFF753FF03B0BDE8B4
:100CF000F08F40462146F9E7001B61EB0201001C22
:100D000041F5801300185B412018A2F5001747EB4E
:100D1000030140EAD570B6196D4111E06D084FEA44
:100D2000360645EAC0754FEA0752001B61EB020127
:100D3000001C41F5801149084FEA3000001951416B
:100D400032462B4603B0BDE8F04FFFF713BF0098C3
:100D5000012240000023D0EB020263EBE073009815
:100D600021464FEAE074B8EB000061EB0401E9E7CB
:100D700083F000435BE781F0004158E72DE9F04D37
:100D800081EA030404F0004B21F0004514464FF0C3
:100D9000000A23F0004150EA050220D054EA010283
:100DA0001DD0C5F30A570246C5F31303C1F3130060
:100DB000C1F30A5640F4801543F48013A7EB0608EC
:100DC000101BD64608F2FD3873EB050002D308F17C
:100DD000010801E092185B41B8F1000F03DA00202E
:100DE0000146BDE8F08D00204FF480110646844690
:100DF0000EE0171B73EB050705D3121B63EB05030E
:100E000006434CEA010C49084FEA300092185B4156
:100E100050EA0107EDD152EA030012D082EA040041
:100E200083EA0501084305D0101BAB4106D201221D
:100E3000002306E000224FF0004302E06FF00102C1
:100E400053101AEB06004CEB085110EB0A0041EB73
:100E50000B01BDE8F04DFFF78DBEC1F30A52C1F39F
:100E6000130140F2FF3341F480119A4202DA00206C
:100E70000146704740F233439A42A2F2334202DC09
:100E80005242FFF7C2BAFFF7B1BA000030B5041EF4
:100E900071F1000404DB4FF00044404264EB0101B7
:100EA000141E73F1000405DB1C464FF00043524250
:100EB00063EB0403994208BF904230BD1CB509485A
:100EC0000090094801900546009C06E0E06840F06B
:100ED000010394E8070098471034AC42F6D3FFF7BB
:100EE0007FF90000FCC100081CC20008202A06DBB4
:100EF000CB17203A41FA02F043EAE07306E041FAE8
:100F000002F3D040C2F120029140084319467047D5
:100F1000C0B24FF4F05100F0CDB93A2800D23038C9
:100F200020F02002412A01D3A2F13700884201D3E8
:100F30004FF0FF30704700002DE9F34F8BB04FF0BA
:100F4000000801F10C000C464FF0010B46460DF174
:100F5000080A01906269012101989047051E2DD071
:100F6000252D2CD0216A8847C0B1626901210198E2
:100F70009047216A88470028F7D1411E626901988D
:100F8000904700E0761CA1690B988847216A884742
:100F90000028F7D1E1690B988847DBE7A1690B9836
:100FA00088470746A84201D1761CD3E7E1690B9830
:100FB00088477F1C02D1B8F1000F6FD046E10027AF
:100FC00062693D463946019890472A2804D16269F2
:100FD0000121019890470125DFF88492626901217F
:100FE00001989047A0F130010A290AD24F45E5DC6B
:100FF00007EB870100EB4107303FDFD445F01005D8
:10100000ECE7E90601D46FF000476C280AD04C28C1
:1010100014D0682815D06A280DD074281CD07A28DE
:101020001AD01DE062690121019890476C2802D016
:1010300045F0040514E045F002050DE045F02005FB
:101040000AE06269012101989047682802D045F0C2
:10105000080505E045F400656269012101989047A3
:10106000C4E9015765283DD019DC58287AD00CDC3A
:10107000452837D004DC252826D0412831D131E05D
:1010800046282FD047282CD12CE05B2877D0612828
:1010900028D063287CD0642823D15AE0D0E06F2880
:1010A00048D008DC66281DD067281BD0692821D0CD
:1010B0006E2816D127E0702845D0732868D075288F
:1010C00047D078280DD14DE0A1690B988847054697
:1010D00025283FF469AFE1690B9888476D1C3FF400
:1010E0006AAFB3E023466A466FF001000B99FFF741
:1010F000F1FB9EE045F040006060A80723464FF0FA
:10110000000236D43EE0E8077FF447AF2068011DB7
:1011100021600068290501D506701BE7290701D564
:10112000068017E7A90703D5F117C0E9006111E7A9
:1011300006600FE745F040006060A80723464FF0C7
:10114000080216D41EE040F60E0125EA0100606098
:1011500016E045F040006060A80723464FF00A0201
:1011600007D40FE045F040006060A80708D523468B
:1011700010226FF001000B99FFF757F959E007E0D3
:10118000234610226FF001000B99FFF7F9F950E0A8
:101190004FF000094F464B46632802D05B2806D02B
:1011A00040E0E80601D40120A06001273AE062692E
:1011B0000121019890475E2805D14FF0010962692D
:1011C000494601989047216939B900210A4653469A
:1011D00043F82120491C0829FADBB0B3216969B919
:1011E000C11700EBD16253110AEB830122F01F02F9
:1011F000821A01200B68904003430B606269012151
:10120000019890475D28E8D1B9F1000F09D000207E
:10121000514651F82020D24341F82020401C082894
:10122000F7DB02AB224600976FF001000B99FFF746
:101230004DFA00280CDA401C08D1BBF1000F05D094
:101240004FF0FF300DB0BDE8F08FFFE74046F9E703
:10125000E90701D108F1010806444FF0000B79E6D7
:10126000CCCCCC0C0EB540F2334202920022CDE938
:1012700000221346FFF78DFC03B000BD01F00043D0
:1012800030B421F0004150EA010206D00A0DA2F567
:101290006072C1F31301002A02DC30BC00207047E9
:1012A000440F44EAC104C100E01830BC00EBC25056
:1012B00000F014B87F2801D9002208E0064A02EBAA
:1012C0005002C007127800D1120902F00F0201206B
:1012D00090400840704700004CC100080029A8BF9A
:1012E0007047401C490008BF20F00100704710B44F
:1012F000B0FA80FC00FA0CF050EA010404BF10BC04
:10130000704749B1CCF1200421FA04F411FA0CF130
:1013100018BF012121430843A3EB0C01CB1D4FEA69
:1013200000614FEA102042BF002010BC704700EB64
:10133000C35010440029A4BF10BC7047401C490092
:1013400008BF20F0010010BC7047000080B582B0DB
:1013500001900198806A00900098C06D10F0500FC5
:101360004BD1FFE70099C86D40F40070C865009844
:10137000006800680007002821D5FFE70098006892
:1013800006F0FEFED0B1FFE700980068C068800458
:10139000002812D4FFE70099C86D20F48070C8655A
:1013A0000098C06DC004002806D4FFE70099C86DFE
:1013B00040F00100C865FFE7FFE7FFE719E000988C
:1013C0000068C0688007002812D4FFE70099C86D44
:1013D00020F48070C8650098C06DC004002806D451
:1013E000FFE70099C86D40F00100C865FFE7FFE71F
:1013F000FFE7009801F0C8F910E00098C06DC00642
:10140000002804D5FFE7009801F0C6F905E0009830
:10141000406D416B01988847FFE7FFE702B080BD50
:1014200080B582B001900198806A00900099C86DE3
:1014300040F04000C8650099086E40F0040008665E
:10144000009801F0A9F902B080BD000080B582B01B
:1014500001900198806A0090009801F099F902B01B
:1014600080BD000080B586B00490002002900498F2
:10147000006806F05DFE002840F09280FFE70498C7
:10148000006880683F21C8F2000108420ED0FFE7E3
:101490000499C86D40F01000C8650499086E40F0CA
:1014A0000100086601208DF817007DE004980068AF
:1014B00006F0F0FD049801680120B1F1A04F019001
:1014C0000CD0FFE7049800684FF60071CAF6FF7170
:1014D0000844B0FA80F040090190FFE70198C10785
:1014E00040F20070C5F2000000291CBF40F200303D
:1014F000C5F2000006F0ECFD4FEA002000281CD5E4
:10150000FFE740F20400C2F200000068800942F6E2
:101510006351C0F23E51A0FB0110800900EB400175
:101520000C2000EB81000290FFE7029820B1FFE75A
:10153000029801380290F8E7FFE702F09FFA039063
:10154000FFE7049800680068C00740BBFFE7049805
:10155000006806F0EDFD28B9FFE70498006806F082
:1015600099FDFFE702F08AFA0399401A032815D380
:10157000FFE7049800680068C00770B9FFE70499A6
:10158000C86D40F01000C8650499086E40F0010075
:10159000086601208DF8170006E0FFE7D1E7FFE7B6
:1015A00000208DF81700FFE79DF8170006B080BDFA
:1015B000FFE7FEE780B540F2A410C2F2000001F0A0
:1015C00081FC80BD84B003900398006840F207411D
:1015D000C4F20201884206D8FFE740F60000C4F2D8
:1015E0000200009005E040F62000C4F202000090E6
:1015F000FFE7009802900398007808384CF6CD4138
:10160000CCF6CC41A0FB011000090190029803998F
:101610004A6C22F0030210448864039940F680006B
:10162000C4F20200C864019800F01F010120884044
:101630000399086504B0704782B001900198007961
:101640000090009940F6FC00C4F2020000EB81001B
:1016500001994865019940F64010C4F2020088657E
:101660000098013800F01F01012088400199C865E9
:1016700002B0704784B003900291019200930398E6
:10168000C16C006D48600398406D28B1FFE7039876
:10169000816DC06D4860FFE70398016C406C00F0FD
:1016A0001F02012090404860009803990968486033
:1016B00003988068102809D1FFE701980399096809
:1016C0008860029803990968C86008E00298039945
:1016D00009688860019803990968C860FFE704B049
:1016E000704700007047000081B0EFF3108072B6C1
:1016F0000090FFE7FEE7000083B002904AF200404E
:10170000C4F2000000900298006846F60001C4F29E
:101710000001884205D1FFE7009800F55470009061
:10172000FFE70298006846F60041C4F200018842D3
:1017300005D1FFE7009800F5D4600090FFE700981E
:101740000299086402980068D0F8800020F4F8102C
:10175000029A1168526B40EA0240C1F8800000987A
:1017600070300299486402980068D0F8800020F038
:101770007060029A1168926B40EA0260C1F88000C2
:101780000098B03002998864009800F5C4700299FE
:10179000C864009800F5187002990865009800F573
:1017A0001E700299486500980190FFE70198009922
:1017B00001F55471884208D2FFE7019900200860C2
:1017C000FFE7019804300190F0E703B07047000094
:1017D00040F23400C2F20000008840F21E01C2F262
:1017E0000001088040F21A01C2F2000105200880C1
:1017F000FFE740F21A00C2F2000000887A282DDCD0
:10180000FFE740F21E00C2F20000008840F21A0119
:10181000C2F200010A8840F23401C2F2000131F83C
:101820001210884211DCFFE740F21A00C2F20000F9
:10183000018840F23400C2F2000030F8110040F29A
:101840001E01C2F200010880FFE7FFE740F21A0123
:10185000C2F20001088801300880CAE740F2340073
:10186000C2F20000008840F22001C2F200010880AC
:1018700040F21A01C2F2000105200880FFE740F2A1
:101880001A00C2F2000000887A282DDCFFE740F23F
:101890002000C2F20000008840F21A01C2F20001EA
:1018A0000A8840F23401C2F2000131F81210884275
:1018B00011DBFFE740F21A00C2F20000018840F29B
:1018C0003400C2F2000030F8110040F22001C2F2F0
:1018D00000010880FFE7FFE740F21A01C2F20001B1
:1018E000088801300880CAE740F21E00C2F20000FA
:1018F000008840F22001C2F2000109880844400833
:1019000040F21201C2F20001088040F21A01C2F254
:10191000000105200880FFE740F21A00C2F2000033
:101920000088752800F38C80FFE740F21A00C2F2AD
:101930000000018840F23400C2F2000030F81100CB
:1019400040F21201C2F20001098888426FDDFFE710
:1019500040F21A00C2F20000018840F23400C2F2E4
:10196000000000EB4100408840F21201C2F2000189
:10197000098888425BDDFFE740F21A00C2F20000EE
:10198000018840F23400C2F2000000EB4100808880
:1019900040F21201C2F200010988884247DDFFE7E8
:1019A00040F21A00C2F20000018840F23400C2F294
:1019B000000000EB4100C08840F21201C2F20001B9
:1019C0000988884233DAFFE740F21A00C2F20000C9
:1019D000018840F23400C2F2000000EB41000089AF
:1019E00040F21201C2F20001098888421FDAFFE7C3
:1019F00040F21A00C2F20000018840F23400C2F244
:101A0000000000EB4100408940F21201C2F20001E7
:101A1000098888420BDAFFE740F21A00C2F20000A0
:101A2000008840F21601C2F20001088008E0FFE7DA
:101A300040F21A01C2F200010888013008806BE709
:101A400040F21C01C2F2000176200880FFE740F25C
:101A50001C00C2F2000000880628C0F28C80FFE75C
:101A600040F21C00C2F20000018840F23400C2F2D1
:101A7000000030F8110040F21201C2F200010988A2
:101A800088426FDAFFE740F21C00C2F200000188D2
:101A900040F23400C2F2000000EB4100408840F206
:101AA0001201C2F20001098888425BDAFFE740F2C6
:101AB0001C00C2F20000018840F23400C2F20000B3
:101AC00000EB4100808840F21201C2F20001098857
:101AD000884247DAFFE740F21C00C2F200000188AA
:101AE00040F23400C2F2000000EB4100C08840F236
:101AF0001201C2F200010988884233DDFFE740F29B
:101B00001C00C2F20000018840F23400C2F2000062
:101B100000EB4100008940F21201C2F20001098885
:101B200088421FDDFFE740F21C00C2F2000001887E
:101B300040F23400C2F2000000EB4100408940F264
:101B40001201C2F20001098888420BDDFFE740F272
:101B50001C00C2F20000008840F21801C2F200012D
:101B6000088008E0FFE740F21C01C2F2000108888B
:101B7000013808806BE740F21800C2F200000088CC
:101B800040F21601C2F2000109880844400840F200
:101B90001401C2F2000108807047000080B5AEB0A9
:101BA0002C902B9100208DF8AB002B98006808B189
:101BB000FFE7FFE7FFE72C9890F85800012804D1D1
:101BC000FFE702208DF8B7005DE12C99012081F834
:101BD0005800FFE7FFE70020259026902C9800682A
:101BE000B0F1A04F06D1FFE740F20010C5F20000AF
:101BF0000E9015E02C98006840F20041C5F20001FB
:101C0000884207D1FFE740F20050C5F200000E9075
:101C10000C9003E000200E900C90FFE70C98FFE77B
:101C20000E9878B9FFE72C99C86D40F02000C86580
:101C3000FFE72C99002081F85800FFE701208DF87C
:101C4000B70020E10E9806F093FA0D902C980068EA
:101C500006F08EFA002840F00281FFE70D98002878
:101C600040F0FD80FFE72C9801680120B1F1A04F02
:101C70000B900CD0FFE72C9800684FF60071CAF665
:101C8000FF710844B0FA80F040090B90FFE70B9811
:101C9000C10740F20070C5F2000000291CBF40F2ED
:101CA0000030C5F2000029902B980068002872D0FF
:101CB000FFE72998806820F460402B9949682C9AA6
:101CC00092F8382041EA42310843299988602C98DB
:101CD00001680120B1F1A04F0A900CD0FFE72C98C9
:101CE00000684FF60071CAF6FF710844B0FA80F040
:101CF00040090A90FFE70A98C10740F20070C5F258
:101D0000000000291CBF40F20030C5F2000040F284
:101D10000031C5F20001884210D1FFE74FF0A0402A
:101D200006F00EFA089040F20010C5F2000006F02E
:101D300007FA01460898084309901BE040F200406A
:101D4000C5F2000006F0FCF9069040F20050C5F222
:101D5000000006F0F5F9014606980843079040F2A6
:101D60000060C5F2000006F0EBF901460798084351
:101D70000990FFE7099868B9FFE72998806840F65D
:101D80001F7188432B9A116892681143084329995F
:101D90008860FFE762E02999886820F460408860E5
:101DA0002C9801680120B1F1A04F05900CD0FFE7FD
:101DB0002C9800684FF60071CAF6FF710844B0FA1B
:101DC00080F040090590FFE70598C10740F20070D8
:101DD000C5F2000000291CBF40F20030C5F200002F
:101DE00040F20031C5F20001884210D1FFE74FF008
:101DF000A04006F0A5F9039040F20010C5F20000E3
:101E000006F09EF901460398084304901BE040F257
:101E10000040C5F2000006F093F9019040F2005036
:101E2000C5F2000006F08CF90146019808430290C3
:101E300040F20060C5F2000006F082F90146029807
:101E400008430490FFE7049838B9FFE729998868A8
:101E500040F61F7290438860FFE7FFE708E02C9987
:101E6000C86D40F02000C86501208DF8AB00FFE789
:101E7000FFE72C99002081F85800FFE79DF8AB00A0
:101E80008DF8B700FFE79DF8B7002EB080BD0000C9
:101E900080B5C4B02490239100208DF88B001F9052
:101EA0002398C0680021C4F27F01884201D0FFE777
:101EB00000E0FFE7FFE7249890F85800012805D1DB
:101EC000FFE702208DF8970000F059BC249901200B
:101ED00081F85800FFE7FFE72498006806F040F912
:101EE000002840F03884FFE72498006823990A68A6
:101EF000496806F051F92498006806F031F91E90FF
:101F00002498006806F004F91D901E98002840F0FF
:101F1000B881FFE71D98002840F0B381FFE72398C0
:101F20008068B0F1004F0ED1FFE724980068239934
:101F30000968002206F05CF9249800684FF000411F
:101F400006F002FA0CE024980068239A116892685F
:101F500006F04EF924980068002106F0F5F9FFE735
:101F60002398406924990968C96801F01801890813
:101F7000884021902398006904281CD0FFE724980A
:101F8000006823990A680969219B06F083F924985F
:101F90000068239A1169926906F0AEF924980068E6
:101FA000239A1169127F013AB2FA82F2520952065B
:101FB00006F08EF964E124980068002106F098F894
:101FC000400348B9FFE724980068002106F090F824
:101FD000C0F384601C9018E024980068002106F08B
:101FE00087F890FAA0F04290429820B9FFE72020AD
:101FF0008DF80F0105E04298B0FA80F08DF80F01DE
:10200000FFE79DF80F011C90FFE71C981B90239899
:102010000068400330B9FFE723980068C0F384608C
:102020001A9015E02398006890FAA0F0409040982C
:1020300020B9FFE720208DF8070105E04098B0FAAD
:1020400080F08DF80701FFE79DF807011A90FFE780
:102050001B981A99884207D1FFE72498006800224C
:10206000114606F05DF9FFE724980068012106F0AB
:102070003FF8400348B9FFE724980068012106F0C3
:1020800037F8C0F38460199018E0249800680121A3
:1020900006F02EF890FAA0F03E903E9820B9FFE7A7
:1020A00020208DF8FF0005E03E98B0FA80F08DF812
:1020B000FF00FFE79DF8FF001990FFE719981890BF
:1020C00023980068400330B9FFE723980068C0F305
:1020D0008460179015E02398006890FAA0F03C9077
:1020E0003C9820B9FFE720208DF8F70005E03C98E8
:1020F000B0FA80F08DF8F700FFE79DF8F700179031
:10210000FFE718981799884207D1FFE724980068DD
:102110000121002206F004F9FFE72498006802215B
:1021200005F0E6FF400348B9FFE724980068022164
:1021300005F0DEFFC0F38460169018E02498006874
:10214000022105F0D5FF90FAA0F03A903A9820B914
:10215000FFE720208DF8EF0005E03A98B0FA80F014
:102160008DF8EF00FFE79DF8EF001690FFE7169857
:10217000159023980068400330B9FFE72398006862
:10218000C0F38460149015E02398006890FAA0F0E2
:102190003890389820B9FFE720208DF8E70005E057
:1021A0003898B0FA80F08DF8E700FFE79DF8E70077
:1021B0001490FFE715981499884207D1FFE72498F7
:1021C00000680221002206F0ABF8FFE724980068BF
:1021D000032105F08DFF400348B9FFE7249800680C
:1021E000032105F085FFC0F38460139018E0249864
:1021F0000068032105F07CFF90FAA0F03690369835
:1022000020B9FFE720208DF8DF0005E03698B0FA0E
:1022100080F08DF8DF00FFE79DF8DF001390FFE707
:102220001398129023980068400330B9FFE7239871
:102230000068C0F38460119015E02398006890FA5C
:10224000A0F03490349820B9FFE720208DF8D70013
:1022500005E03498B0FA80F08DF8D700FFE79DF8DC
:10226000D7001190FFE712981199884207D1FFE734
:10227000249800680321002206F052F8FFE7FFE7E8
:10228000FFE72498006805F053FF002840F04481E0
:10229000FFE724980068239A1168D26805F0C4FF0C
:1022A0002398C0680021C4F27F01884240F0338146
:1022B000FFE724980068109023980068400330B925
:1022C000FFE723980068C0F384600F9015E023981F
:1022D000006890FAA0F03290329820B9FFE72020F1
:1022E0008DF8CF0005E03298B0FA80F08DF8CF007D
:1022F000FFE79DF8CF000F90FFE70F98013000F047
:102300001F0009287DD8FFE723980068400330B9F3
:10231000FFE723980068C0F384600E9015E02398CF
:10232000006890FAA0F03090309820B9FFE72020A4
:102330008DF8C70005E03098B0FA80F08DF8C7003E
:10234000FFE79DF8C7000E90FFE70E98013000F000
:102350001F0080060D9023980068400330B9FFE706
:1023600023980068C0F384600C9015E023980068FF
:1023700090FAA0F02E902E9820B9FFE720208DF83B
:10238000BF0005E02E98B0FA80F08DF8BF00FFE79F
:102390009DF8BF000C90FFE70D980C99013101F0FA
:1023A0001F020121914008430B90239800684003CD
:1023B00030B9FFE723980068C0F384600A9015E005
:1023C0002398006890FAA0F02C902C9820B9FFE791
:1023D00020208DF8B70005E02C98B0FA80F08DF839
:1023E000B700FFE79DF8B7000A90FFE70B980A993E
:1023F000013101F01F0101EB410140EA0150099058
:1024000082E023980068400330B9FFE72398006812
:10241000C0F38460089015E02398006890FAA0F05B
:102420002A902A9820B9FFE720208DF8AF0005E018
:102430002A98B0FA80F08DF8AF00FFE79DF8AF0062
:102440000890FFE70898013000F01F008006079011
:1024500023980068400330B9FFE723980068C0F371
:102460008460069015E02398006890FAA0F0289008
:10247000289820B9FFE720208DF8A70005E02898CC
:10248000B0FA80F08DF8A700FFE79DF8A70006904E
:10249000FFE707980699013101F01F0201219140E1
:1024A0000843059023980068400330B9FFE723985C
:1024B0000068C0F38460049015E02398006890FAE7
:1024C000A0F02690269820B9FFE720208DF89F00E5
:1024D00005E02698B0FA80F08DF89F00FFE79DF8A0
:1024E0009F000490FFE705990498013000F01F0059
:1024F00000EB40020020CFF6206000EB02500843C2
:1025000040F000700990FFE710980999239A9268AB
:1025100005F06EFEFFE7FFE72398408848F20801C8
:10252000084200F01781FFE7249801680120B1F10B
:10253000A04F03900CD0FFE7249800684FF600717D
:10254000CAF6FF710844B0FA80F040090390FFE733
:102550000398C10740F20070C5F2000000291CBFBB
:1025600040F20030C5F2000005F0B2FD2090239843
:10257000006840F20001CCF22131884208D0FFE728
:10258000239800681021C9F2C00188425AD1FFE7A0
:102590009DF882000006002854D4FFE724980068C4
:1025A000B0F1A04F09D0FFE72498006840F2006125
:1025B000C5F20001884244D1FFE724980168012058
:1025C000B1F1A04F02900CD0FFE7249800684FF6BD
:1025D0000071CAF6FF710844B0FA80F04009029019
:1025E000FFE70298C10740F20070C5F20000002921
:1025F0001CBF40F20030C5F20000209941F40001F8
:1026000005F03AFE40F20400C2F2000000684FEA12
:10261000901042F66351C0F23E51A0FB01104FEA08
:10262000901000EB40014FF00C0000EB81001F9078
:10263000FFE71F9820B1FFE71F9801381F90F8E7C8
:10264000FFE786E0239800680021CCF252718842AF
:102650003ED1FFE79DF88300C007C8BBFFE7249881
:10266000006840F20011C5F20001884209D1FFE77D
:102670002498006840F20051C5F20001884226D03B
:10268000FFE7249801680120B1F1A04F01900CD020
:10269000FFE7249800684FF60071CAF6FF710844FE
:1026A000B0FA80F040090190FFE70198C10740F2BD
:1026B0000070C5F2000000291CBF40F20030C5F2D6
:1026C0000000209941F0807105F0D6FDFFE73FE062
:1026D000239800680021CCF68431884236D1FFE788
:1026E0009DF882004006002830D4FFE72498006857
:1026F00040F20011C5F20001884226D0FFE724987D
:1027000001680120B1F1A04F00900CD0FFE72498A0
:1027100000684FF60071CAF6FF710844B0FA80F005
:1027200040090090FFE70098C10740F20070C5F231
:10273000000000291CBF40F20030C5F200002099C3
:1027400041F4800105F098FDFFE700E0FFE7FFE7B7
:10275000FFE7FFE708E02499C86D40F02000C86556
:1027600001208DF88B00FFE7FFE72499002081F816
:102770005800FFE79DF88B008DF89700FFE79DF864
:10278000970044B080BD000081B0009001B0704758
:1027900081B0009001B0704781B0009001B07047E7
:1027A00080B58EB00C9000208DF82F0007900C980B
:1027B00020B9FFE701208DF83700DCE10C98406973
:1027C00040B1FFE70C9890F82400012801D1FFE701
:1027D000FFE7FFE70C98C06D50B9FFE70C9800F0D9
:1027E000CFF90C99002008660C9981F85800FFE792
:1027F0000C98006805F094FC28B1FFE70C9800687D
:1028000005F03CFCFFE70C98006805F0A1FCF0B96E
:10281000FFE70C98006805F04BFC40F20400C2F2A0
:1028200000000068800942F66351C0F23E51A0FBEF
:1028300001108109022000EB41000790FFE7079893
:1028400020B1FFE7079801380790F8E7FFE70C98F9
:10285000006805F07DFC70B9FFE70C99C86D40F089
:102860001000C8650C99086E40F001000866012050
:102870008DF82F00FFE70C98006805F071FC0990B7
:102880000C98C06DC006002800F16781FFE7099829
:10289000002840F06281FFE70C98C06D40F0020014
:1028A00020F480700C99C8650C98006805F040FC15
:1028B00000287CD1FFE70C9801680120B1F1A04FFE
:1028C00006900CD0FFE70C9800684FF60071CAF62E
:1028D000FF710844B0FA80F040090690FFE70698BF
:1028E000C10740F20070C5F2000000291CBF40F291
:1028F0000030C5F2000040F20031C5F2000188420C
:1029000010D1FFE74FF0A04005F012FC049040F218
:102910000010C5F2000005F00BFC014604980843C6
:1029200005901BE040F20040C5F2000005F000FCFD
:10293000029040F20050C5F2000005F0F9FB01469C
:1029400002980843039040F20060C5F2000005F0D1
:10295000EFFB0146039808430590FFE7059828BB65
:10296000FFE70C9801680120B1F1A04F01900CD055
:10297000FFE70C9800684FF60071CAF6FF71084433
:10298000B0FA80F040090190FFE70198C10740F2DA
:102990000070C5F2000000291CBF40F20030C5F2F3
:1029A00000000C99496805F059FCFFE7FFE70C9916
:1029B0004A7FC86B40EA42308A68CB6818431043AC
:1029C00091F8241040EA01400A900C9890F82400F5
:1029D00001280BD1FFE70C98816A0020CFF6FE702A
:1029E00000EB41410A9808430A90FFE70C98C06A3F
:1029F00050B1FFE70C99C86A096B00F47870014385
:102A00000A9808430A90FFE70C980068C06844F2EF
:102A10000701CFF6F07108400A9908430C9909683C
:102A2000C8600C980068006920F040600C9A11683A
:102A3000526B104308610C98006805F069FB089020
:102A40000998002868D1FFE70898002864D1FFE7BB
:102A50000C99087F91F83810800340EA41000A90F1
:102A60000C980068C06844F2020188430A99084340
:102A70000C990968C8600C980069A0B1FFE70C9830
:102A80000168086940F4803008610C980068D0F84B
:102A9000C00043F6FF7188430C9A11681269104315
:102AA000C1F8C00011E00C980168086920F480307A
:102AB00008610C980068D0F8C00043F6FF718843A5
:102AC0000C990968C1F8C000FFE70C9890F8400025
:102AD000012819D1FFE70C980068006940F2FD71E8
:102AE00020EA01020C9B1968586CD3F848E0D3F82F
:102AF0004CC040EA0E0040EA0C001B6D1843104326
:102B000040F00100086106E00C980168086920F0B7
:102B100001000861FFE7FFE70C98406901280CD12C
:102B2000FFE70C980068006B20F00F000C9A11680A
:102B3000126A013A1043086306E00C980168086BBA
:102B400020F00F000863FFE70C98C06D40F0010013
:102B500020F002000C99C86508E00C99C86D40F09F
:102B60001000C86501208DF82F00FFE79DF82F00A9
:102B70008DF83700FFE79DF837000EB080BD0000EC
:102B800080B5A2B02190002020901F901E901D9033
:102B90001C9007A85421FDF773FB2198006840F2B0
:102BA0000041C5F20001884240F08480FFE74FF405
:102BB000803007904FF00040199007A802F026FAE5
:102BC00018B1FFE7FEF790FDFFE7FFE741F24C0089
:102BD000C4F20200016841F480410160006800F421
:102BE000804006900698FFE7FFE741F24C00C4F2F0
:102BF0000200016841F002010160006800F002007B
:102C000005900598FFE7FFE741F24C00C4F202008F
:102C1000016841F010010160006800F010000490AC
:102C20000498FFE702201C90032000901D900020D4
:102C300002901E9040F20040C4F600001CA90191D1
:102C400000F052FD009A019902984FF400731C9312
:102C50001D921E9041F20000C4F6000000F044FDF9
:102C6000029940F2A410C2F2000003900822C4F2BC
:102C700002020260252242608160C16080220261FE
:102C80004FF4807242614FF480628261C1610162DF
:102C900000F0C4F918B1FFE7FEF726FDFFE7FFE7F4
:102CA000219840F2A411C2F2000141652198886286
:102CB000FFE7FFE722B080BD80B58AB0089007919A
:102CC0000692089801680120B1F1A04F03900CD042
:102CD000FFE7089800684FF60071CAF6FF710844D4
:102CE000B0FA80F040090390FFE70398C10740F273
:102CF0000070C5F2000000291CBF40F20030C5F290
:102D0000000005F0EDF904900898006805F028FA35
:102D1000002840F0CA80FFE7FFE7089890F85800C5
:102D2000012804D1FFE702208DF82700C6E00899AA
:102D3000012081F85800FFE7FFE70898006840F29B
:102D40000061C5F2000188420CD0FFE7049848B149
:102D5000FFE70498052805D0FFE70498092840F00C
:102D60009980FFE70898FEF77DFB8DF817009DF826
:102D70001700002840F08680FFE70898C06D40F4F7
:102D8000807040F6016188430899C865089800681A
:102D900040F20011C5F20001884204D1FFE74FF074
:102DA000A040029015E00898006840F20051C5F27A
:102DB0000001884206D1FFE740F20040C5F2000062
:102DC000019003E0089800680190FFE701980290E5
:102DD000FFE7029808990968884203D0FFE7049842
:102DE00030B9FFE70899C86D20F48010C865FFE787
:102DF0000898C06DC004002806D5FFE70899086E42
:102E000020F00600086603E0089900200866FFE746
:102E10000898416D41F24D30C0F60000C862089834
:102E2000416D41F24D40C0F6000008630898416DC5
:102E300041F22140C0F600004863089801681C2058
:102E40000860FFE70899002081F85800FFE708981C
:102E50000168486840F01000486008980168C86838
:102E600040F00100C86008980168406D4031079A41
:102E7000069B00F07FF98DF817000898006805F0B0
:102E8000A9F906E0FFE70899002081F85800FFE75C
:102E9000FFE709E001208DF81700FFE708990020FF
:102EA00081F85800FFE7FFE703E002208DF81700E4
:102EB000FFE79DF817008DF82700FFE79DF8270032
:102EC0000AB080BD80B584B003900398006C0068A0
:102ED0000290039800680068019002980399496C79
:102EE00001F01F01C8404007002825D5FFE79DF8E5
:102EF0000400400700281FD5FFE70398006800681A
:102F00008006002807D4FFE703980168086820F0CE
:102F100004000860FFE70398016C406C00F01F029A
:102F20000420904048600398006B20B1FFE70398AD
:102F3000016B8847FFE76EE002980399496C01F046
:102F40001F01C840800700282FD5FFE79DF8040027
:102F50008007002829D5FFE70398006800688006ED
:102F600000280BD4FFE703980168086820F00A00E6
:102F700008600399012081F82500FFE70398016CA0
:102F8000406C00F01F02022090404860FFE7039968
:102F9000002081F82400FFE70398C06A20B1FFE712
:102FA0000398C16A8847FFE734E002980399496CA7
:102FB00001F01F01C8400007002829D5FFE79DF850
:102FC00004000007002823D5FFE70398016808687C
:102FD00020F00E0008600398026C406C00F01F01A6
:102FE000012000FA01F151600399C863039981F847
:102FF0002500FFE70399002081F82400FFE70398EC
:10300000406B20B1FFE70398416B8847FFE700E082
:10301000FFE7FFE7FFE704B080BD000080B584B0A4
:103020000290029820B9FFE701208DF80F009CE084
:103030000298006840F20741C4F20201884218D8A1
:10304000FFE7029908684FF6F872CBF6FD7210445C
:103050004CF6CD42CCF6CC42A0FB02026FF003004E
:1030600000EA9200486402990020C4F20200086459
:1030700018E0029908684FF6F832CBF6FD7210445A
:103080004CF6CD42CCF6CC42A0FB02026FF003001E
:1030900000EA92004864029940F20040C4F2020043
:1030A0000864FFE70299022081F825000298006871
:1030B00000680190019847F6F071884301900299E9
:1030C0008868D1F80CC00B694A6940EA0C001843C3
:1030D00010438A691043CA691043096A0143019881
:1030E0000843019001980299096808600298FEF768
:1030F00069FA02988068B0F5804F04D1FFE7029921
:1031000000204860FFE702990879896C08600298FE
:10311000C16C006D48600298406888B1FFE7029872
:10312000406804280CD8FFE70298FEF785FA029859
:10313000416D002008600298816DC06D486007E015
:10314000029900204865029988650299C865FFE7E1
:1031500002990020C863029A012182F82510029981
:1031600081F824008DF80F00FFE79DF80F0004B0F0
:1031700080BD000080B586B0049003910292019357
:1031800000208DF80300FFE7049890F82400012840
:1031900004D1FFE702208DF8170065E004990120B3
:1031A00081F82400FFE7FFE7049890F82500012844
:1031B0004BD1FFE70499022081F8250004990020F3
:1031C000C86304980168086820F00100086004984A
:1031D0000399029A019BFEF74DFA0498006B38B1EF
:1031E000FFE704980168086840F00E0008600CE0F2
:1031F00004980168086820F00400086004980168D9
:10320000086840F00A000860FFE70498806C0068D6
:10321000C003002807D5FFE70498816C086840F4D4
:1032200080700860FFE70498406D38B1FFE70498AC
:10323000416D086840F480700860FFE704980168F9
:10324000086840F00100086009E0FFE704990020E9
:1032500081F82400FFE702208DF80300FFE79DF8C6
:1032600003008DF81700FFE79DF8170006B080BD3A
:1032700080B584B0039000F001FC029003980190A7
:103280000198013048B1FFE740F20800C2F20000A7
:103290000168019808440190FFE7FFE700F0EEFBAA
:1032A0000299401A0199884201D2FFE7F6E704B07B
:1032B00080BD000080B584B00290029820B9FFE77D
:1032C00001208DF80F0057E10298006846F2004196
:1032D000C4F20001884201D1FFE7FFE7029880684D
:1032E000B0F5407F01D1FFE7FFE7029890F85C005E
:1032F00040B9FFE70299002081F85D00029800F0D4
:103300003FF9FFE702980168886920F010008861A2
:1033100000F0B4FB0190FFE70298006880690007A5
:10332000002815D5FFE700F0A9FB0199401A0B28EA
:103330000DD3FFE70299086E40F00100086602997C
:10334000032081F85C0001208DF80F0014E1E3E711
:1033500002980168886940F00100886100F08EFBE6
:103360000190FFE7029800688069C007A8B9FFE7ED
:1033700000F084FB0199401A0B280DD3FFE7029956
:10338000086E40F0010008660299032081F85C0095
:1033900001208DF80F00EFE0E4E7029801688869EA
:1033A00040F0020088610298006846F20041C4F2D1
:1033B0000001884208D1FFE70298406846F20051B8
:1033C000C4F200010860FFE70298007C012807D1E1
:1033D000FFE702980168886920F04000886106E0F4
:1033E00002980168886940F040008861FFE7029810
:1033F000407C012807D1FFE702980168886940F402
:103400008040886106E002980168886920F4804065
:103410008861FFE70298807C012807D1FFE70298C6
:103420000168886920F48050886106E0029801688C
:10343000886940F480508861FFE7029800688069DD
:1034400020F44070029A11689268104388610298D3
:103450000168886920F0A400886102980168086901
:1034600020F0100008610298C068012807D1FFE72A
:1034700002980168886940F0040088612BE0029896
:10348000C06830B3FFE70298C068022819D0FFE790
:1034900002980168886940F080008861029801689C
:1034A000086940F0100008610298C068032807D13D
:1034B000FFE702980168886940F020008861FFE713
:1034C00006E002980168886940F020008861FFE703
:1034D00000E0FFE7FFE7029A116853699069D2F8AC
:1034E0001CE0A0F1010C6FF0FF0000EB0E2040EAA1
:1034F0004C60126A013A10430022CFF6FF7202EBD1
:1035000003421043C86102988068B0F5407F1CD127
:10351000FFE7029A1168536A906AD2F82CE00138EA
:103520006FF0FF0C0CEB0E2C40EA0C00D2F830C010
:103530006FF00F0202EB0C1210430022CFF6FF7265
:1035400002EB03421043C860FFE702980168C26BB8
:10355000D1F8C0001043C1F8C0000298FEF7CCF8C3
:1035600002990020886502990866029A012182F872
:103570005C108DF80F00FFE79DF80F0004B080BDD0
:1035800080B5A0B01F9000201E901D901C901B9035
:103590001A9005A85421FCF773FE1F98006846F2A4
:1035A0000041C4F20001884248D1FFE74FF4805047
:1035B00005904FF00070139005A801F027FD18B199
:1035C000FFE7FEF791F8FFE740F22400C2F20000A7
:1035D0000168013101600068012810D1FFE7FFE7B1
:1035E00041F25800C4F20200016841F0007101602C
:1035F000006800F0007004900498FFE7FFE7FFE721
:1036000041F24C00C4F20200016841F00101016086
:10361000006800F0010003900398FFE74FF4C050EA
:103620001A9002201B9000201C901D9009201E90D3
:103630004FF090401AA900F057F853E01F98006827
:1036400046F60001C4F2000188424AD1FFE74FF478
:10365000805005904FF00070139005A801F0D6FC43
:1036600018B1FFE7FEF740F8FFE740F22400C2F28E
:1036700000000168013101600068012810D1FFE7F6
:10368000FFE741F25800C4F20200016841F0007106
:103690000160006800F0007002900298FFE7FFE709
:1036A000FFE741F24C00C4F20200016841F0020160
:1036B0000160006800F0020001900198FFE74FF4FC
:1036C00040501A9002201B9000201C901D90092051
:1036D0001E9040F20040C4F600001AA900F004F861
:1036E000FFE7FFE720B080BD8BB00A900991002072
:1036F0000890FFE7099800680899C840002800F082
:10370000A581FFE709980068089A012191400840C7
:1037100007900798002800F09581FFE70998406816
:1037200000F00300012807D0FFE70998406800F087
:10373000030002282FD1FFE70A98806806900898B6
:103740004100032000FA01F1069888430690099889
:10375000C0680899490000FA01F1069808430690EC
:1037600006980A9988600A9840680690089901208E
:1037700000FA01F106988843069009984068C0F362
:103780000010089900FA01F106980843069006987F
:103790000A994860FFE70998406800F00300032891
:1037A00018D0FFE70A98C0680690089841000320E7
:1037B00000FA01F1069888430690099880680899F4
:1037C000490000FA01F106980843069006980A9904
:1037D000C860FFE70998406800F00300022826D17E
:1037E000FFE70A9808996FF0030202EA51010844C2
:1037F000006A0690089800F0070081000F2000FA88
:1038000001F106988843069009980069089901F02B
:103810000701890000FA01F106980843069006980E
:103820000A99089B02EA530211440862FFE70A98CA
:103830000068069008984100032000FA01F10698FC
:10384000884306900998406800F0030008994900F1
:1038500000FA01F106980843069006980A99086054
:10386000099880798007002800F0EB80FFE7FFE7E8
:1038700041F26000C4F20200016841F00101016000
:10388000006800F0010005900598FFE7089820F017
:1038900003000821C4F2010140580690089800F086
:1038A000030081000F2000FA01F10698884306907A
:1038B0000A98B0F1904F03D1FFE70020049042E056
:1038C0000A9840F20041C4F60001884203D1FFE7A4
:1038D0000120039034E00A9840F60001C4F600018C
:1038E000884203D1FFE70220029026E00A9840F6C2
:1038F0000041C4F60001884203D1FFE70320019094
:1039000018E00A9841F20001C4F60001884203D190
:10391000FFE7042000900AE00A9941F20042C4F651
:1039200000020620914208BF05200090FFE70098A2
:103930000190FFE701980290FFE702980390FFE7EC
:1039400003980490FFE70498089901F003018900A7
:1039500000FA01F10698084306900698089921F0AC
:1039600003010822C4F20102885040F20840C4F268
:103970000100006806900799069888430690099808
:103980008079C006002805D5FFE707990698084307
:103990000690FFE7069840F20841C4F20101086072
:1039A00040F20C40C4F201000068069007990698A6
:1039B00088430690099880798006002805D5FFE79E
:1039C0000799069808430690FFE7069840F20C41D5
:1039D000C4F20101086040F20440C4F20100006832
:1039E0000690079906988843069009988079800781
:1039F000002805D5FFE70799069808430690FFE7DA
:103A0000069840F20441C4F20101086040F200400F
:103A1000C4F2010000680690079906988843069052
:103A200009988079C00728B1FFE7079906980843ED
:103A30000690FFE7069840F20041C4F201010860D9
:103A4000FFE7FFE708980130089053E60BB0704796
:103A500082B00190ADF802108DF801209DF80100B0
:103A600028B1FFE7BDF802000199886104E0BDF8C4
:103A7000020001998862FFE702B0704740F61C100F
:103A8000C2F200000068704783B001900091019875
:103A900090F8410020283BD1FFE7FFE7019890F81C
:103AA0004000012804D1FFE702208DF80B0033E02D
:103AB0000199012081F84000FFE7FFE701992420E8
:103AC00081F8410001980168086820F00100086051
:103AD00001980168086820F480500860009A0198F5
:103AE000016808681043086001980168086840F0A0
:103AF000010008600199202081F84100FFE7019949
:103B0000002081F84000FFE700208DF80B0003E063
:103B100002208DF80B00FFE79DF80B0003B0704703
:103B200084B002900191029890F84100202840D181
:103B3000FFE7FFE7029890F84000012804D1FFE773
:103B400002208DF80F0038E00299012081F8400032
:103B5000FFE7FFE70299242081F8410002980168FD
:103B6000086820F001000860029800680068009072
:103B7000009820F4706000900199009840EA0120BC
:103B80000090009802990968086002980168086826
:103B900040F0010008600299202081F84100FFE711
:103BA0000299002081F84000FFE700208DF80F0007
:103BB00003E002208DF80F00FFE79DF80F0004B02E
:103BC0007047000080B582B00090009820B9FFE7F0
:103BD00001208DF807007BE0009890F8410040B983
:103BE000FFE70099002081F84000009800F074F889
:103BF000FFE70099242081F84100009801680868D7
:103C000020F00100086000980168406820F07060B2
:103C1000086100980168886820F400408860009876
:103C2000C068012807D1FFE700980168806840F468
:103C30000040886006E000980168806840F4044015
:103C40008860FFE70098C068022807D1FFE7009866
:103C50000168486840F40060486006E00098016828
:103C6000486820F400604860FFE7009801684868F1
:103C700048F20002C0F20022104348600098016838
:103C8000C86820F40040C860009A11681069536940
:103C90009269184340EA0220C860009A1168D0690E
:103CA000126A1043086000980168086840F001003B
:103CB0000860009900204864009A202182F8411091
:103CC00000990863009981F842008DF80700FFE72A
:103CD0009DF8070002B080BD80B5AAB029900020F1
:103CE000289027902690259024900FA85421FCF727
:103CF000C7FA2998006845F20041C4F200018842E1
:103D00005FD1FFE740200F90002016900FA801F030
:103D10007DF918B1FFE7FDF7E7FCFFE7FFE741F2A8
:103D20004C00C4F20200016841F00101016000682A
:103D300000F001000E900E98FFE7FFE741F24C0003
:103D4000C4F20200016841F002010160006800F065
:103D500002000D900D98FFE74FF4004024901220D0
:103D6000059025900020069026902790042007902B
:103D700028904FF0904024A90891FFF7B5FC059BCF
:103D8000069A079808994FF0800CCDF890C02593BB
:103D900026922792289040F20040C4F60000FFF7D8
:103DA000A3FCFFE741F25800C4F20200016841F4AD
:103DB00000110160006800F400100C900C98FFE7FF
:103DC00067E02998006845F60001C4F200018842C6
:103DD0005ED1FFE780200F90002017900FA801F020
:103DE00015F918B1FFE7FDF77FFCFFE7FFE741F2A8
:103DF0004C00C4F20200016841F004010160006857
:103E000000F004000B900B98FFE7FFE741F24C0035
:103E1000C4F20200016841F001010160006800F095
:103E200001000A900A98FFE71020249012200190C8
:103E3000259000200290269027900420039028903F
:103E400040F60000C4F6000024A90491FFF74CFCE2
:103E5000019B029A039804994FF4807CCDF890C09E
:103E600025932692279228904FF09040FFF73CFC34
:103E7000FFE741F25800C4F20200016841F48001FA
:103E80000160006800F4800009900998FFE7FFE7EF
:103E9000FFE72AB080BD000080B588B00690069884
:103EA00020B9FFE701208DF81F00D6E0069890F8B2
:103EB000350040B9FFE70699002081F834000698E4
:103EC00000F0D0F8FFE70699022081F83500069946
:103ED0000A68D16940F6BF739943D16106990968B0
:103EE000086206984069022865D0FFE70698C06816
:103EF00018B9FFE71020039002E020200390FFE7AD
:103F000006988068202804D8FFE7039840000390B3
:103F1000FFE74FF4006000F0B9FA019006980069DD
:103F2000B0F5007F23D1FFE70698C06878B1FFE7BE
:103F3000019803998900B0FBF1F000EB800040008C
:103F400006994969B0FBF1F0053002900EE0019846
:103F50000399C900B0FBF1F000EB80004000069926
:103F60004969B0FBF1F005300290FFE70DE00198E0
:103F70000399B0FBF1F000EB80004000069949691D
:103F8000B0FBF1F005300290FFE702984CF6CD410E
:103F9000CCF6CC41A0FB0110C0080290029800F0C2
:103FA0000100049002980499401A40080590049872
:103FB0000002049004E00220059000200490FFE736
:103FC0000598022805D3FFE70598B0F5807F09D34F
:103FD000FFE70699886B40F01000886301208DF898
:103FE0001F003AE00598049A069B19681B691A435A
:103FF0001043086206980068C06940F6BF7120EA65
:104000000102069B19685868D3F808E0D3F80CC081
:1040100040EA0E0040EA0C009B691843104340F44C
:104020000060C86106988068302805D0FFE70698D0
:104030008068B02807D1FFE706980168C86940F496
:104040008050C861FFE7069900208863069A012125
:1040500082F835108DF81F00FFE79DF81F0008B0AB
:1040600080BD000080B5A2B02190002020901F905C
:104070001E901D901C9007A85421FCF701F921986F
:10408000006843F60041C4F2000188425FD1FFE7B7
:104090004FF4006007900020149007A800F0B6FFCE
:1040A00018B1FFE7FDF720FBFFE7FFE741F25800FB
:1040B000C4F20200016841F400410160006800F4AC
:1040C000004006900698FFE7FFE741F24C00C4F27B
:1040D0000200016841F001010160006800F0010088
:1040E00005900598FFE7FFE741F24C00C4F202009B
:1040F000016841F002010160006800F002000490D4
:104100000498FFE710201C90022000901D900020D2
:1041100001901E901F900620029020904FF090403A
:104120001CA90391FFF7E0FA009B019A02980399FA
:104130004FF0280CCDF870C01D931E921F92209056
:1041400040F20040C4F60000FFF7CEFAFFE722B0CD
:1041500080BD000040F20800C2F20000026840F694
:104160001C11C2F20001086810440860704700008A
:1041700080B582B000208DF80700032000F09AF887
:104180000F2000F00DF820B1FFE701208DF80700A7
:1041900002E000F049F8FFE79DF8070002B080BD9B
:1041A00080B582B0019000208DF8030040F2080035
:1041B000C2F20000006878B3FFE740F20400C2F2E8
:1041C0000000006840F20801C2F200010A684FF4E2
:1041D0007A71B1FBF2F1B0FBF1F002F0E9F8B0B99D
:1041E000FFE701980F280DD8FFE701994FF0FF3046
:1041F000002200F047F8019840F20C01C2F20001E1
:10420000086003E001208DF80300FFE703E00120D0
:104210008DF80300FFE703E001208DF80300FFE7BE
:104220009DF8030002B080BD80B582B0FFE741F287
:104230006000C4F20200016841F001010160006801
:1042400000F0010001900198FFE7FFE741F25800FC
:10425000C4F20200016841F080510160006800F082
:10426000805000900098FFE700F006F902B080BD92
:1042700080B582B08DF807009DF9070007F0F2F8CD
:1042800002B080BD80B586B08DF81700049103920E
:1042900007F000F902909DF9170001900298049927
:1042A000039A04F02BFF0146019807F0FBF806B0D3
:1042B00080BD000080B582B00190019807F014F92C
:1042C00002B080BD85B00390039800285ED1FFE75F
:1042D00047F20000C4F20000006800F4C060B0F5CE
:1042E000806F49D1FFE747F28001C4F200010868FE
:1042F00020F48070086047F20002C4F200021168E6
:10430000012060F34A21116040F20401C2F2000171
:104310000968322251434DF68362C4F21B32A1FB7D
:10432000022100EB91400290FFE747F21400C4F233
:1043300000000168002049050029019006D5FFE72B
:104340000298002818BF01200190FFE70198C007DC
:1043500020B1FFE7029801380290E6E747F2140027
:10436000C4F2000000684005002804D5FFE70320E0
:104370008DF813007CE008E047F28001C4F20001F0
:10438000086820F480700860FFE76DE00398B0F5DE
:10439000007F5ED1FFE747F20000C4F20000006832
:1043A00000F4C060B0F5806F49D1FFE747F28001AB
:1043B000C4F20001086840F48070086047F200020F
:1043C000C4F200021168012060F34A21116040F23A
:1043D0000401C2F200010968322251434DF68362A2
:1043E000C4F21B32A1FB022100EB91400290FFE7D7
:1043F00047F21400C4F200000168002049050029BA
:10440000009006D5FFE70298002818BF0120009011
:10441000FFE70098C00720B1FFE70298013802903B
:10442000E6E747F21400C4F20000006840050028E7
:1044300004D5FFE703208DF8130019E008E047F2E8
:104440008001C4F20001086840F480700860FFE752
:1044500009E047F20001C4F200010868022262F399
:104460004A200860FFE7FFE700208DF81300FFE710
:104470009DF8130005B0704747F20801C4F200012F
:10448000086840F4804008607047000080B588B03C
:104490000790002006900798B0F5002F41D1FFE764
:1044A00041F29000C4F20200016801F440710591EC
:1044B00000688007002809D5FFE70598B0F5807FE0
:1044C00004D1FFE74FF40040069028E041F2940049
:1044D000C4F2020000688007002809D5FFE70598AC
:1044E000B0F5007F04D1FFE74FF4FA40069015E0E5
:1044F00041F20000C4F202000068800300280BD5DE
:10450000FFE70598B0F5407F06D1FFE747F2B0100E
:10451000C0F20B00069000E0FFE7FFE7FFE700F0C6
:1045200072BD41F20C00C4F20200006800F003000A
:10453000022813D1FFE741F20000C4F20200006834
:104540004005002806D5FFE742F20040C0F2F40023
:10455000049002E000200490FFE720E041F20C000C
:10456000C4F20200006800F00300032813D1FFE743
:1045700041F20000C4F2020000688003002806D562
:10458000FFE743F20060C0F26E10049002E00020EA
:104590000490FFE702E000200490FFE7FFE70498A3
:1045A00041F20C01C4F202010968CAB2012101EB17
:1045B0001211B0FBF1F0049007980190012866D029
:1045C000FFE70198022800F0A380FFE70198042884
:1045D00000F0DF80FFE70198082800F01A81FFE76C
:1045E0000198102800F05581FFE70198202800F07D
:1045F0009381FFE70198402800F0D181FFE70198FF
:10460000802800F0FC81FFE70198B0F5807F00F082
:104610002682FFE70198B0F5007F00F07E82FFE779
:104620000198B0F5806F00F0C482FFE70198B0F503
:10463000006F00F01583FFE70198B0F5805F00F090
:104640006683FFE70198B0F5005F00F0A283FFE703
:104650000198B0F5804F00F0D383FFE70198B0F5E3
:10466000004F00F00484FFE70198B0F5803F00F0B0
:104670004784FFE70198B0F5003F00F02082FFE794
:104680000198B0F5802F00F0848400F0BABC41F2AC
:104690008800C4F20200006800F00300059005984D
:1046A00020B9FFE701F0F2F806902FE00598012805
:1046B00004D1FFE701F0FEF8069026E041F2000089
:1046C000C4F202000068400500280AD5FFE70598FB
:1046D000022806D1FFE742F20040C0F2F400069043
:1046E00012E041F29000C4F2020000688007002846
:1046F00008D5FFE70598032804D1FFE74FF40040F1
:10470000069000E0FFE7FFE7FFE7FFE700F07ABC75
:1047100041F28800C4F20200006800F00C0005902D
:10472000059820B9FFE701F09DF806902FE0059865
:10473000042804D1FFE701F0BDF8069026E041F21D
:104740000000C4F202000068400500280AD5FFE717
:104750000598082806D1FFE742F20040C0F2F400B5
:10476000069012E041F29000C4F202000068800757
:10477000002808D5FFE705980C2804D1FFE74FF47F
:104780000040069000E0FFE7FFE7FFE7FFE700F0EB
:1047900039BC41F28800C4F20200006800F0300029
:1047A0000590059820B9FFE701F05CF806902FE02E
:1047B0000598102804D1FFE701F07CF8069026E068
:1047C00041F20000C4F202000068400500280AD54A
:1047D000FFE70598202806D1FFE742F20040C0F22B
:1047E000F400069012E041F29000C4F2020000686A
:1047F0008007002808D5FFE70598302804D1FFE797
:104800004FF40040069000E0FFE7FFE7FFE7FFE717
:10481000F8E341F28800C4F20200006800F0C00032
:104820000590059820B9FFE701F01CF806902FE0ED
:104830000598402804D1FFE701F03CF8069026E0F7
:1048400041F20000C4F202000068400500280AD5C9
:10485000FFE70598802806D1FFE742F20040C0F24A
:10486000F400069012E041F29000C4F202000068E9
:104870008007002808D5FFE70598C02804D1FFE786
:104880004FF40040069000E0FFE7FFE7FFE7FFE797
:10489000B8E341F28800C4F20200006800F44070FE
:1048A0000590059820B9FFE700F0DCFF069032E0A4
:1048B0000598B0F5807F04D1FFE700F0FBFF06907C
:1048C00028E041F20000C4F2020000684005002820
:1048D0000BD5FFE70598B0F5007F06D1FFE742F260
:1048E0000040C0F2F400069013E041F29000C4F2E0
:1048F000020000688007002809D5FFE70598B0F599
:10490000407F04D1FFE74FF40040069000E0FFE74E
:10491000FFE7FFE7FFE775E341F28800C4F202001A
:10492000006800F440600590059820B9FFE700F0AA
:1049300099FF069032E00598B0F5806F04D1FFE74B
:1049400000F0B8FF069028E041F20000C4F2020037
:104950000068400500280BD5FFE70598B0F5006F0B
:1049600006D1FFE742F20040C0F2F400069013E0E7
:1049700041F29000C4F2020000688007002809D5C7
:10498000FFE70598B0F5406F04D1FFE74FF4004012
:10499000069000E0FFE7FFE7FFE7FFE732E341F2C1
:1049A0008800C4F20200006800F4405005900598A9
:1049B00020B9FFE700F056FF06901FE00598B0F51C
:1049C000805F04D1FFE700F075FF069015E041F22B
:1049D0000000C4F202000068400500280BD5FFE784
:1049E0000598B0F5005F06D1FFE742F20040C0F243
:1049F000F400069000E0FFE7FFE7FFE702E341F283
:104A00008800C4F20200006800F440400590059858
:104A100020B9FFE700F026FF06901FE00598B0F5EB
:104A2000804F04D1FFE700F045FF069015E041F20A
:104A30000000C4F202000068400500280BD5FFE723
:104A40000598B0F5004F06D1FFE742F20040C0F2F2
:104A5000F400069000E0FFE7FFE7FFE7D2E241F253
:104A60008800C4F20200006800F440300590059808
:104A700020B9FFE700F0F6FE06901FE00598B0F5BC
:104A8000803F04D1FFE700F015FF069015E041F2EA
:104A90000000C4F202000068400500280BD5FFE7C3
:104AA0000598B0F5003F06D1FFE742F20040C0F2A2
:104AB000F400069000E0FFE7FFE7FFE7A2E241F223
:104AC0009C00C4F20200006800F003000590059805
:104AD00020B9FFE700F0C6FE06901DE0059801280A
:104AE00004D1FFE700F0E6FE069014E041F200007A
:104AF000C4F202000068400500280AD5FFE70598C7
:104B0000022806D1FFE742F20040C0F2F40006900E
:104B100000E0FFE7FFE7FFE774E241F28800C4F23C
:104B20000200006800F440200590059820B9FFE7D6
:104B300000F098FE06903BE041F29400C4F20200BF
:104B400000688007002809D5FFE70598B0F5802F99
:104B500004D1FFE74FF4FA40069028E041F200004C
:104B6000C4F202000068400500280BD5FFE7059855
:104B7000B0F5002F06D1FFE742F20040C0F2F4008A
:104B8000069013E041F29000C4F202000068800732
:104B9000002809D5FFE70598B0F5402F04D1FFE7BD
:104BA0004FF40040069000E0FFE7FFE7FFE7FFE774
:104BB00028E241F28800C4F20200006800F44010CC
:104BC0000590059820B9FFE700F074FE069046E0D6
:104BD0000598B0F5801F1FD1FFE741F20C00C4F229
:104BE00002000068C002002815D5FFE741F20C0161
:104BF000C4F202010868C0F3062003900498039AE7
:104C00005043096801F4C002022101EB1251B0FBCC
:104C1000F1F00690FFE721E00598B0F5001F06D1FE
:104C2000FFE748F20000C0F2BB00069015E041F239
:104C30000000C4F202000068400500280BD5FFE721
:104C40000598B0F5401F06D1FFE742F20040C0F2E0
:104C5000F400069000E0FFE7FFE7FFE7FFE7D1E1A0
:104C600041F28800C4F20200006800F440000590A0
:104C7000059820B9FFE700F01DFE069046E0059874
:104C8000B0F5800F1FD1FFE741F20C00C4F2020023
:104C90000068C002002815D5FFE741F20C01C4F2FC
:104CA00002010868C0F3062003900498039A504359
:104CB000096801F4C002022101EB1251B0FBF1F0CE
:104CC0000690FFE721E00598B0F5000F06D1FFE759
:104CD00048F20000C0F2BB00069015E041F200006F
:104CE000C4F202000068400500280BD5FFE70598D4
:104CF000B0F5400F06D1FFE742F20040C0F2F400E9
:104D0000069000E0FFE7FFE7FFE7FFE77AE141F207
:104D10008800C4F20200006800F040700590059819
:104D2000B0F1007F04D1FFE700F09CFD06902FE07A
:104D3000059830B9FFE743F20060C0F26E100690AC
:104D400025E00598B0F1807F1FD1FFE741F20C000C
:104D5000C4F202000068C002002815D5FFE741F246
:104D60000C01C4F202010868C0F306200390049805
:104D7000039A5043096801F4C002022101EB125169
:104D8000B0FBF1F00690FFE700E0FFE7FFE7FFE789
:104D900038E141F28800C4F20200006800F040608F
:104DA00005900598B0F1006F15D1FFE741F20C01B5
:104DB000C4F202010868C0F3062003900498039A25
:104DC0005043096801F4C002022101EB1251B0FB0B
:104DD000F1F0069013E041F29800C4F2020000687E
:104DE0008007002809D5FFE7059830B9FFE746F6A8
:104DF0000040C0F2DC20069000E0FFE7FFE701E1A1
:104E000041F28800C4F20200006800F040600590A2
:104E10000598B0F1006F15D1FFE741F20C01C4F223
:104E200002010868C0F3062003900498039A5043D7
:104E3000096801F4C002022101EB1251B0FBF1F04C
:104E4000069013E041F29800C4F202000068800767
:104E5000002809D5FFE7059830B9FFE746F600407E
:104E6000C0F2DC20069000E0FFE7FFE7CAE041F275
:104E70008800C4F20200006800F0405005900598D8
:104E8000B0F1805F30D1FFE741F20C00C4F20200C4
:104E90000068C003002826D5FFE741F20C00C4F2E9
:104EA00002000168C1F3062103910068C00E029060
:104EB000029880B9FFE741F20C00C4F202000068DA
:104EC0008003002803D5FFE71120029002E00720AD
:104ED0000290FFE7FFE70498039948430299B0FB6B
:104EE000F1F00690FFE70AE00598B0F1005F04D109
:104EF000FFE700F0DFFC069000E0FFE7FFE781E05E
:104F000041F28800C4F20200006800F040400590C1
:104F10000598B0F1804F30D1FFE741F20C00C4F2A8
:104F200002000068C003002826D5FFE741F20C000C
:104F3000C4F202000168C1F3062103910068C00EAB
:104F40000290029880B9FFE741F20C00C4F202001F
:104F500000688003002803D5FFE71120029002E0DB
:104F600007200290FFE7FFE704980399484302995E
:104F7000B0FBF1F00690FFE70AE00598B0F1004FB2
:104F800004D1FFE700F096FC069000E0FFE7FFE7A2
:104F900038E041F29C00C4F20200006800F44010C6
:104FA00005900598B0F5001F15D1FFE741F20C01FF
:104FB000C4F202010868C0F3062003900498039A23
:104FC0005043096801F4C002022101EB1251B0FB09
:104FD000F1F0069014E00598B0F5801F06D1FFE7C8
:104FE00042F20040C0F2F400069008E0059820B9B3
:104FF000FFE700F05FFC069000E0FFE7FFE7FFE758
:1050000000E0FFE7FFE7069808B080BD80B586B0F6
:10501000059000208DF80B008DF80A000598807827
:105020000007002840F1B580FFE700208DF8090057
:1050300041F25800C4F202000068C000002813D4F6
:10504000FFE7FFE741F25800C4F20200016841F0B7
:1050500080510160006800F0805001900198FFE7E6
:1050600001208DF80900FFE747F20001C4F20001BA
:10507000086840F480700860FEF700FD0390FFE7C9
:1050800047F20000C4F200000068C00500280CD4FC
:10509000FFE7FEF7F3FC0399401A032804D3FFE768
:1050A00003208DF80B0000E0EAE79DF80B000028D4
:1050B0005BD1FFE741F29000C4F20200006800F407
:1050C000407004900498C8B1FFE704980599096DF1
:1050D000884213D0FFE741F29001C4F20201086850
:1050E00020F440700490086840F48030086008683C
:1050F00020F48030086004980860FFE79DF81000F5
:10510000C007E0B1FFE7FEF7B9FC0390FFE741F20B
:105110009000C4F202000068800700280ED4FFE768
:10512000FEF7ACFC0399401A41F28931884204D35E
:10513000FFE703208DF80B0000E0E8E7FFE79DF8AC
:105140000B0060B9FFE741F29001C4F20201086868
:1051500020F44070059A126D1043086004E09DF839
:105160000B008DF80A00FFE704E09DF80B008DF8B6
:105170000A00FFE79DF80900012809D1FFE741F285
:105180005801C4F20201086820F080500860FFE76F
:10519000FFE705980078C00760B1FFE741F288019A
:1051A000C4F20201086820F00300059A5268104317
:1051B0000860FFE705980078800700280CD5FFE716
:1051C00041F28801C4F20201086820F00C00059A3F
:1051D000926810430860FFE70598007840070028B0
:1051E0000CD5FFE741F28801C4F20201086820F003
:1051F0003000059AD26810430860FFE705980078F0
:10520000000700280CD5FFE741F28801C4F2020133
:10521000086820F0C000059A126910430860FFE793
:1052200005980078C00600280CD5FFE741F28801F8
:10523000C4F20201086820F44070059A52691043D4
:105240000860FFE705980078800600280CD5FFE786
:1052500041F28801C4F20201086820F44060059A16
:10526000926910430860FFE705980078400600281F
:105270000CD5FFE741F28801C4F20201086820F46E
:105280004050059AD26910430860FFE705980078FE
:10529000000600280CD5FFE741F28801C4F20201A4
:1052A000086820F44040059A126A10430860FFE73E
:1052B00005984078C00760B1FFE741F28801C4F269
:1052C0000201086820F44030059A526A10430860D1
:1052D000FFE705988078800700280CD5FFE741F2AA
:1052E0009C01C4F20201086820F00300059A926A4A
:1052F00010430860FFE705984078800700280CD528
:10530000FFE741F28801C4F20201086820F440205E
:10531000059AD26A10430860FFE705984078400775
:1053200000281BD5FFE741F28801C4F2020108689A
:1053300020F44010059A126B104308600598006B2A
:10534000B0F5801F09D1FFE741F20C01C4F2020160
:10535000086840F480100860FFE7FFE70598407890
:10536000000700281BD5FFE741F28801C4F20201C3
:10537000086820F44000059A526B104308600598B5
:10538000406BB0F5800F09D1FFE741F20C01C4F288
:105390000201086840F480100860FFE7FFE7059805
:1053A0004078C00600281BD5FFE741F28801C4F20F
:1053B0000201086820F04070059A926B1043086063
:1053C0000598806BB0F1807F09D1FFE741F20C01B5
:1053D000C4F20201086840F480100860FFE7FFE7AC
:1053E00005984078800600281BD5FFE741F2880128
:1053F000C4F20201086820F04060059AD26B1043A5
:1054000008600598C06BB0F1006F09D1FFE741F269
:105410000C01C4F20201086840F480100860FFE744
:10542000FFE705984078400600281BD5FFE741F2CA
:105430008801C4F20201086820F04060059A126CED
:10544000104308600598006CB0F1006F09D1FFE7C8
:1054500041F20C01C4F20201086840F480100860B7
:10546000FFE7FFE705984078000600281BD5FFE717
:1054700041F28801C4F20201086820F04050059A08
:10548000526C104308600598406CB0F1805F09D100
:10549000FFE741F20C01C4F20201086840F48030D9
:1054A0000860FFE7FFE705988078C007D8B1FFE7FD
:1054B00041F28801C4F20201086820F04040059AD8
:1054C000926C104308600598806CB0F1804F09D150
:1054D000FFE741F20C01C4F20201086840F4803099
:1054E0000860FFE7FFE705988078400700281BD594
:1054F000FFE741F29C01C4F20201086820F4401069
:10550000059AD26C104308600598C06CB0F5001F76
:1055100009D1FFE741F20C01C4F20201086840F42E
:1055200080100860FFE7FFE79DF80A0006B080BD25
:1055300080B586B00490039100200090049820B9B3
:10554000FFE701208DF8170081E1039842F2000186
:10555000C4F20201096801F00F01884216D9FFE781
:1055600042F20000C4F20200016821F00F01039A28
:1055700011430160006800F00F000399884204D0D5
:10558000FFE701208DF8170061E1FFE7049800783C
:10559000C007002800F0A380FFE7049840680328B4
:1055A00039D1FFE741F20000C4F202000068800137
:1055B000002804D4FFE701208DF8170047E103F02D
:1055C00005FE019001984BF20141C0F2C4418842AE
:1055D00020D3FFE741F20800C4F20200006810F097
:1055E000F00F0AD0FFE7049800788007002810D554
:1055F000FFE70498806860B9FFE741F20801C4F250
:1056000002010868082262F30710086080200090F9
:10561000FFE7FFE738E00498406802280ED1FFE773
:1056200041F20000C4F2020000688003002804D4A4
:10563000FFE701208DF8170009E10DE041F20000BD
:10564000C4F2020000684005002804D4FFE70120EE
:105650008DF81700FBE0FFE700F02CF901900198AE
:105660004BF20141C0F2C44188420CD3FFE741F242
:105670000801C4F202010868082262F307100860FA
:1056800080200090FFE7FFE741F20801C4F2020129
:10569000086820F00300049A526810430860FEF77F
:1056A000EDF90290FFE741F20800C4F20200006841
:1056B00000F00C0004994968B0EB810F0ED0FFE7B1
:1056C000FEF7DCF90299401A41F28931884204D38D
:1056D000FFE703208DF81700B9E0E4E7FFE704983F
:1056E0000078800700282CD5FFE704980078400751
:1056F000002809D5FFE741F20801C4F20201086859
:1057000040F4E0600860FFE7049800780007002894
:105710000BD5FFE741F20801C4F20201086840F42A
:10572000E06020F460500860FFE741F20801C4F235
:105730000201086820F0F000049A926810430860A3
:105740000DE00098802809D1FFE741F20801C4F27A
:105750000201086820F0F0000860FFE7FFE7039807
:1057600042F20001C4F20201096801F00F0188420F
:1057700028D2FFE742F20001C4F20201086820F0DB
:105780000F00039A10430860FEF778F90290FFE7D4
:1057900042F20000C4F20200006800F00F0003991A
:1057A00088420ED0FFE7FEF769F90299401A41F2EC
:1057B0008931884204D3FFE703208DF8170046E0C3
:1057C000E6E7FFE704980078400700280CD5FFE7DC
:1057D00041F20801C4F20201086820F4E060049A72
:1057E000D26810430860FFE704980078000700289B
:1057F0000DD5FFE741F20801C4F20201086820F468
:105800006050049A126940EAC2000860FFE700F0A5
:1058100051F841F20801C4F202010968C9B20A094B
:105820004CF28C11C0F60001895C01F01F01C840E8
:1058300040F20401C2F20001086040F20C00C2F222
:1058400000000068FEF7ACFC8DF81700FFE79DF83C
:10585000170006B080BD000040F20400C2F2000054
:105860000068704780B5FFF7F7FF41F20801C4F206
:1058700002010968C1F302224CF29C11C0F600013A
:10588000895C01F01F01C84080BD000080B5FFF7B2
:10589000E3FF41F20801C4F202010968C1F3C22228
:1058A0004CF29C11C0F60001895C01F01F01C84058
:1058B00080BD000086B041F20800C4F2020000681A
:1058C00000F00C00042806D1FFE742F20040C0F2CD
:1058D000F400019069E041F20800C4F2020000689F
:1058E00000F00C00082806D1FFE743F20060C0F288
:1058F0006E10019058E041F20800C4F20200006806
:1059000000F00C000C284BD1FFE741F20C00C4F270
:105910000200016801F0030104910068C1B2012096
:1059200000EB1110029004980090022815D0FFE7B8
:105930000098032812D1FFE7029943F20060C0F2F9
:105940006E10B0FBF1F041F20C01C4F202010968E3
:10595000C1F306214843059011E0FFE7029942F2A6
:105960000040C0F2F400B0FBF1F041F20C01C4F2CF
:1059700002010968C1F3062148430590FFE741F29F
:105980000C00C4F20200006800F0C061022000EBCD
:105990001160039005980399B0FBF1F0019002E0CB
:1059A00000200190FFE7FFE7FFE7019806B070478E
:1059B000B0B588B00690069820B9FFE701208DF8B1
:1059C0001F00CCE306980078C007002800F09B80F9
:1059D000FFE741F20800C4F20200006800F00C008A
:1059E000049041F20C00C4F20200006800F00300D1
:1059F000039004980C2804D1FFE70398032804D0EF
:105A0000FFE70498082812D1FFE741F20000C4F232
:105A1000020000688003002808D5FFE70698406868
:105A200020B9FFE701208DF81F0098E36AE0FFE747
:105A300006984068B0F5803F09D1FFE741F20001C8
:105A4000C4F20201086840F48030086020E0069843
:105A50004068B0F5A02F0DD1FFE741F20001C4F27C
:105A60000201086840F480200860086840F4803033
:105A700008600CE041F20001C4F20201086820F461
:105A800080300860086820F480200860FFE7FFE7A6
:105A9000FFE706984068D0B1FFE7FDF7EFFF0590FC
:105AA000FFE741F20000C4F2020000688003002812
:105AB0000CD4FFE7FDF7E2FF0599401A652804D3EF
:105AC000FFE703208DF81F0049E3EAE719E0FDF73F
:105AD000D5FF0590FFE741F20000C4F20200006824
