:020000040800F2
:10000000B01C00205D0200083D39000805320008E0
:1000100039390008150700089D4800080000000055
:1000200000000000000000000000000089450008FA
:100030002507000800000000854500088D450008E0
:1000400077020008770200087702000877020008AC
:10005000770200087702000877020008770200089C
:10006000770200087702000877020008770200088C
:10007000770200087702000877020008770200087C
:10008000770200087702000877020008770200086C
:10009000770200087702000877020008770200085C
:1000A000770200085546000877020008770200082A
:1000B000770200087702000877020008770200083C
:1000C000770200087702000877020008770200082C
:1000D000770200087702000877020008770200081C
:1000E000770200087702000877020008770200080C
:1000F00077020008770200087702000877020008FC
:1001000077020008770200087702000877020008EB
:100110007702000877020008754600087702000899
:100120001907000877020008770200087702000824
:1001300077020008770200087702000877020008BB
:1001400077020008770200087702000877020008AB
:10015000770200087702000877020008770200089B
:10016000770200087702000877020008770200088B
:1001700077020008770200087702000800000000FC
:10018000770200087702000800F002F800F057F844
:1001900014A696E8000CB244B344DA4501D100F04D
:1001A0004EF8BAE80F000FA696E83000A5EB04055C
:1001B00004EB0607AAEB0704A7F101074FEA1515A0
:1001C0004FEA3414A4F10104AC4201D300F037F833
:1001D00013F0010F18BFFB1A43F0010300F001F800
:1001E000DBE718470C5200002C520000103A24BFE5
:1001F00078C878C1FAD8520724BF30C830C144BF8C
:1002000004680C6070470000704700000023002461
:1002100000250026103A28BF78C1FBD8520728BF16
:1002200030C148BF0B607047642900F0F7800020A0
:1002300070471FB505F0B9F81FBD10B510BD00F02F
:10024000E8F91146FFF7F5FF04F05AFB00F006FA53
:1002500003B4FFF7F2FF03BC00F00EFA0948804731
:1002600009480047FEE7FEE7FEE7FEE7FEE7FEE798
:10027000FEE7FEE7FEE7FEE704480549054A064BB0
:10028000704700004146000889010008B0160020B0
:10029000B01C0020B0180020B018002053EA020C57
:1002A00000F069802DE9F04B4FF00006002B1FBFD6
:1002B000B3FA83F503FA05F424FA05F65E4012BF9B
:1002C0001643B2FA82F502FA05F4C5F120051EBF05
:1002D00022FA05FC44EA0C04203556EA044C4FEAA5
:1002E000144418BF641C4FF000084FF000099042FE
:1002F00071EB030C39D3002919BFB1FA81F701FA68
:1003000007F6B0FA80F700FA07F6C7F120071EBF1C
:1003100020FA07FC46EA0C062037B6FBF4FCA7EBF4
:100320000507103F07F01F0BCBF120062CFA06F64D
:100330000CFA0BFB44BFB3460026202FA4BF5E4639
:100340004FF0000B5BEA060C08BF4FF0010B19EBF6
:100350000B0948EB0608ABFB027C06FB02CC0BFB4F
:1003600003CCC01B71EB0C01C1E70B4602464146B2
:100370004846BDE8F08B13B5084318BF4FF0FF3077
:100380000146AFF30080BDE81C4070470FB41CB5B8
:10039000074B06AA7B4469460090059800F021F9B6
:1003A0000020694600F030F91CBC5DF814FB000029
:1003B000710200002DE9F0410E4604460020206243
:1003C0002046E168884730B3252805D0D4E90121CB
:1003D0009047206A401CF2E7E168204600278847E2
:1003E000050018D0A5F14100192802D820354FF496
:1003F00000673246294620462760FFF715FF40B1C7
:10040000012804D0F61D26F007060836D8E7361D69
:10041000D6E72846DAE7206ABDE8F0812DE9F04109
:100420000646002410687529314616A510D0AFF392
:100430000080002802DA404213A507E031688A07ED
:1004400001D512A502E0490704D511A5012401E058
:10045000AFF3008000210A2206F1240709E0B0FB77
:10046000F2FCB0FBF2F302FB1C003030785418466B
:10047000491C0028F3D123462A463046BDE8F04106
:1004800000F051B8000000002D0000002B0000001B
:100490002000000010B5431C02E010F8011B71B1F0
:1004A0008107FAD14FF0013202C88C1A8C4314EA4A
:1004B000C211F9D0C01A0A0603D0C01E10BDC01A5E
:1004C00010BD0A0401D0801E10BD0902FCD0401EE0
:1004D00010BD4FF0000200B51346944696462039F1
:1004E00022BFA0E80C50A0E80C50B1F12001BFF4ED
:1004F000F7AF090728BFA0E80C5048BF0CC05DF853
:1005000004EB890028BF40F8042B08BF704748BFA0
:1005100020F8022B11F0804F18BF00F8012B704714
:100520007047704770472DE9F0470D46994692464F
:10053000044600F124080168880604D5E06921F02A
:100540001001216000E00120A84201DD471B00E00E
:100550000027A1697A1902EB0900081AA061207826
:10056000C00602D42046AFF30080002608E0D4E99C
:1005700001211AF806009047206A401C761C206270
:100580004E45F4DB2078C0060AD52046AFF3008044
:1005900006E0D4E9012130209047206A401C206207
:1005A000381EA7F10107F4DC07E0D4E9012118F8AF
:1005B00005009047206A401C2062281EA5F1010515
:1005C000F3DC2046AFF300802078000602D502203D
:1005D000BDE8F0870120FBE701694A1C0261087849
:1005E000704700B58FB0CDE9013100210591054973
:1005F0007944CDE9031011466846FFF7DBFE0FB0E2
:1006000000BD0000E5FFFFFF0A6802F8010B0A6069
:100610007047754600F02CF8AE4605006946534613
:1006200020F00700854618B020B5FFF725FEBDE88D
:1006300020404FF000064FF000074FF000084FF049
:10064000000BAC46ACE8C009ACE8C009ACE8C00996
:10065000ACE8C00921F007018D46704710B504468B
:10066000AFF300802046BDE81040FFF7F1BD000069
:10067000004870472000002001491820ABBEFEE76B
:1006800026000200704700000146806B036C026C7C
:1006900013F0500F08D0D20648BF00F0F1B8806BBD
:1006A000C26C0846104700BF42F400710164016843
:1006B0008A6812F0405F01D000F0DEB8027E002AA6
:1006C000FAD1CA6A12F4700F02D08A685205F3D4C4
:1006D0004A6822F020024A60016C21F480710164B2
:1006E000016CC90448BF00F0C7B8016C41F00101BA
:1006F000016400F0C1B80000806B40210164416CCE
:1007000041F00401416400F0BBB80000806B00F0D0
:10071000B5B80000FEE7000041F28C20C2F20000F4
:1007200000F088BA70470000EFF3108072B600BF87
:10073000FEE7000070B581B00022009290F83C20E6
:10074000012A03D1022001B070BD00BFD1F800E042
:100750000122BEF10A0F1FFA8EFC80F83C2009D35B
:100760004FEA4C02036812FA8EF2A2F11E0403F162
:100770000C0204E003680EEB4E0403F1100207259F
:100780001668A54026EA050515608D68166805FA05
:1007900004F4344314604968062907D801EB810149
:1007A0004A1F194651F8345F0FE000BF0C2901EBD6
:1007B000810105D8A1F12302194651F8305F04E008
:1007C000A1F14102194651F82C5F1F24944025EAFB
:1007D00004040C600CFA02F20C6842F2043CC4F20D
:1007E000010C2243ACF54174A3420A603ED1BEF134
:1007F000120F07D1DCF8001041F48001CCF8001092
:1008000034E000BF2EF0010110292FD1DCF80010D8
:10081000BEF1100F41F40001CCF8001026D140F2D7
:100820001801C2F2000109684DF68362C4F21B325E
:10083000A1FB0212910C01EB81014900009100998A
:10084000A1B1009901390091009979B1009901395C
:100850000091009951B1009901390091009929B195
:1008600000990139009100990029EAD1002180F80E
:100870003C10002001B070BD7047000070470000C0
:1008800070470000002804BF0120704710B5016CBC
:1008900000293DD0016CC90645D4016C41F2021219
:1008A0009143023142F204320164C4F20102116840
:1008B00021F440311160136890E812102343D0F8FE
:1008C00010E013604A68012422F480724A604A688A
:1008D000C0F6007442EA0E224A604A6822F0407272
:1008E0004A604A6842EA0C024A608A6822F400625E
:1008F0008A60C2688B681A438A60826A8B68A242E7
:1009000023F070638B608B6810D123F0405216E0A7
:10091000044600F065F820460021616484F83C102C
:10092000016CC906B9D5012153E000BF1A438A60A2
:100930008A6822F040528A60C26A8B681A438A60D1
:100940008A6822F002028A608A68037E90F820405A
:1009500042EA43028A604A6884B142F400624A6013
:100960004A684EF2000322F460424A60426ACFF6BF
:10097000FF734C6803EB4232224301E022F4006231
:100980004A60CA6A40F2000C22F47002CA62C3696B
:100990004269CFF6F07CCC6A0CEB03532343CB6265
:1009A0008B6823F400738B6090F830308C6844EAD5
:1009B00043238B608B6823F480638B608B6843EAEE
:1009C00082228A6000214164026C012363F30102E8
:1009D0000264002280F83C20BDE8104008467047C1
:1009E00070B586B0044642F200002168C4F20100EE
:1009F000002681420596CDE903660296019601D054
:100A000006B070BD43F630010096C4F202014A6997
:100A100000F5684042F480724A614A6902F48072CB
:100A20000092009A00960A6842F004020A6009687F
:100A300001F0040100910099012101910321CDE908
:100A4000021601A900F0F0FA41F28C2546F210409E
:100A5000C2F20005C4F202004FF48061C5E900064D
:100A600005F110004FF400624FF400534EC02846C9
:100A7000C5E90266C5E9086600F0BEF9002818BF9E
:100A8000FFF752FEA563AC6306B070BDB0B582B08F
:100A90000023019390F83C30012B03D1022002B0D7
:100AA000B0BD00BF8E460123016880F83C308B68E2
:100AB0009446DB0729D18B684DF6836443F001032C
:100AC0008B6040F21803C2F200031B68C4F21B34AF
:100AD000A3FB0434A30C03EB43030193019BA3B1D9
:100AE000019B013B0193019B7BB1019B013B019366
:100AF000019B53B1019B013B0193019B2BB1019BD6
:100B0000013B0193019B002BEAD18B68DB0503D5E8
:100B10008B6823F480738B608C68036CE4070BD1C3
:100B200043F0100101644430012102681143016067
:100B3000002002B0B0BD00BF40F20174A34303F532
:100B4000807303644B685B0504D5036C012464F374
:100B50000D330364046C0023E4044FF0000444BF2D
:100B6000446C24F00604446480F83C30836B40F20B
:100B7000896440F20D72C0F60004C0F60002C3E9B9
:100B80000F4240F2F962C0F60002DA646FF022020E
:100B90000A604A6842F2043442F080624A608A681D
:100BA000054642F480728A604C31184672466346AC
:100BB000C4F2010400F0D2F921682868C90607D000
:100BC000A4F54171884227D0002002B0B0BD00BF1B
:100BD00042F20001C4F20101884215D042F2002124
:100BE000C4F2010188420CD042F20011C4F20101AA
:100BF0008842E9D12168C90606D0A4F582718842ED
:100C0000E2D12168C906DFD450F8081F11F0405F17
:100C1000DAD14FF0804188E74FF60450CFF6FF70ED
:100C2000205810F0405FCFD1A4F53F704FF08041C5
:100C30007BE70000F0B581B00021009140F218017F
:100C4000C2F200010B68D0E9166148F2B5153768A9
:100C50000822C1F64E358A403A42A3FB05350CD036
:100C600003681C68640708D51C6824F004041C6031
:100C7000B260426D42F00102426501228A403A426E
:100C800008D003685B691B0604D5B260426D42F070
:100C90000202426504228A403A4208D003681B6877
:100CA0009B0704D5B260426D42F0040242651022F7
:100CB0008A403A4219D001680B681B0715D5B2600B
:100CC0000B680A685B0309D4D20509D40A6822F0CC
:100CD00008020A60016C29B907E000BF110341D482
:100CE000016C11B1044688472046C26D202101FAEB
:100CF00002F33B4243D001680F68FF063FD5B36063
:100D000090F835700B68052F1CD123F016030B608B
:100D10004B6923F080034B61036C0BB9836C1BB1EF
:100D20000B6823F008030B603F219140B160012163
:100D300080F83510016D0022002980F8342054D14C
:100D400058E000BF0A685B0310D4D20512D40A68C9
:100D500022F010020A60012180F83510002180F88D
:100D6000341007E0816C0029BCD1BEE7110301D427
:100D7000416C00E0C16B11B1044688472046416DCB
:100D8000C1B3416DC9072ED0052180F83510016827
:100D9000AA0A0B6823F001030B60009B0133934206
:100DA00000931AD80B68DB0717D0009B01339342DE
:100DB000009312D80B68DB070FD0009B01339342DE
:100DC00000930AD80B68DB0707D0009B01339342DE
:100DD000009302D80B68DB07DFD1012180F83510C2
:100DE000002180F83410C16C21B101B0BDE8F040A1
:100DF000084700BF01B0F0BD2DE9F041044600F006
:100E0000E9F9ECB10546022084F83500002021689C
:100E100084F83400086820F0010008602168086840
:100E2000C00711D000F0D6F9401B0528F6D90325DC
:100E300020230320636584F83550BDE8F08100BFAE
:100E40000120BDE8F08100BF086848F23F02CFF200
:100E50001002D4E9013500EA020C04F10C0898E80C
:100E6000C10143EA0C032B431843D4E9072E304356
:100E700038431043626A40EA0E00042A40EA08033D
:100E80001CD1206BD4E90A2E40EA0E0018430860FA
:100E90004869BEF1000F20F0030040EA020040F074
:100EA000040C11D0B8F5005F36D0B8F1000F45D171
:100EB000022A46D0012A3BD032B942E00B60486991
:100EC00020F0070040EA020C01F0F8004AF6AB22DD
:100ED0001038CAF6AA22A0FB02231A0945F2E6330B
:100EE000C1F814C0C0F600039A5C40F2FF335F28DB
:100EF0004FF03F0021EA030100FA02F088BF0431FD
:100F0000C4E916128860002301250020636584F877
:100F10003550BDE8F08100BF032AD5D80125402314
:100F20000120DFE802F0030E030500BF82E700BFE7
:100F3000AEF1C070B0FA80F0400904E0032A04D397
:100F4000C2D1CEF300600028BED00125402301208D
:100F5000636584F83550BDE8F081000090F834C036
:100F6000BCF1010F04BF0220704770B54FF0010CB7
:100F700080F834C0D0F858E090F835C0BCF1010FCB
:100F800038D14FF0020C80F835C04FF0000CC0F89B
:100F900054C0D0F800C08468056CC06DDCF80060F7
:100FA000402C26F48026CCF80060CCF804300B46A8
:100FB00004BF13460A463F2101FA00F0CCF808307E
:100FC000CCF80C20CEF80800DCF8000040F0160049
:100FD000CCF800002DB1DCF8000040F00800CCF89F
:100FE0000000DCF8000040F00100CCF80000002018
:100FF00070BD00BF002180F83410022070BD0000D9
:10100000B0B5044600F0E6F8054640F21000C2F222
:1010100000000078611C18BF044400BF00F0DAF83B
:10102000401BA042FAD3B0BD2DE9F04F83B000F1D0
:10103000200200F13E4741F60045009207F1FF779C
:10104000C4F2020508224FEAB726A84208BF0722C9
:1010500000254FF000084FF00009072E38BF4FEA77
:10106000B72201920AE000BF09F1010908F1020864
:10107000B9F1100F05F1040500F0A2800F680122FC
:1010800002FA09FE17EA0E0AEED0D1F804C00322D4
:101090000CF003077E1E02FA08F4012E6FEA040B1F
:1010A00012D88468CE6804EA0B0406FA08F63443C2
:1010B0008460446824EA0E06CCF3001404FA09F4B0
:1010C0002643466004E000BF032F01D103271EE042
:1010D000C6688C6806EA0B0604FA08F42643022F59
:1010E000C66014D16FF00302009E02EA590756F859
:1010F00007C005F01C040F220B69A2402CEA020273
:10110000A3401A43F251D1F804C00CF0030702685F
:1011100007FA08F302EA0B021A431CF4403F02608C
:10112000A2D0002243F644030292C4F202031A68DA
:1011300043F6004442F480421A601A68C4F2010483
:1011400002F480420292029A29F003024FF6084C00
:101150002244CFF6FF7C52F80C3005F00C070F2626
:10116000BE40B343019E06FA07F73B4342F80C30FA
:10117000A2684B6842EA0A0743F60C4CDE0258BFED
:1011800022EA0A07A760C4F2010CDCF800209E02E4
:1011900042EA0A0758BF22EA0A07CCF800706268E0
:1011A0009E0342EA0A0758BF22EA0A0767602268DC
:1011B000DB0342EA0A0758BF22EA0A07276053E71F
:1011C00003B0BDE8F08F0000002A08BF0904816168
:1011D0007047000041F2AC60C2F200000068704746
:1011E000002804BF01207047F0B581B0044690F894
:1011F0003D0028B9002084F83C00204600F0AEFAFB
:10120000242084F83D002068016821F0010101607C
:10121000016841F400410160016821F4004101606E
:1012200000F040FC636848F2A16CC0F2010C40F68B
:101230000011C0F23D0163453CBF48F28041C0F25D
:101240001E01884202D2012001B0F0BD4DF683613B
:10125000C4F21B31A0FB01122168970CD1F804E005
:101260004FF496762EF03F0545EA92454D60774360
:1012700048F638160D6AC0F24106A7FB067625F03F
:101280003F07634538BF960C721C3A430A62CA692D
:1012900048F2A0664CF6FF77C0F20106B34222EA9C
:1012A00007020BD801385B00B0FBF3F001306FF39D
:1012B0001F30042898BF04201BE000BFA768013836
:1012C00057B119277B43B0FBF3F001306FF31F30A8
:1012D00070B100F5804007E003EB4303B0FBF3F08F
:1012E00001306FF31F3018B100F5004001E000BF7E
:1012F00001201043C8610868D4E9072320F0C0002A
:10130000104318430860886848F2FF3204F10C0764
:1013100090438CCF18431043A6698860C86820F0BA
:10132000FF0038433043C860086840F0010008609F
:1013300000202021206484F83D10206384F83E00C2
:1013400001B0F0BD2DE9F04381B01F461646884636
:101350000446FFF73FFF94F83D1020291ED10546B3
:1013600021688869800715D5FFF734FF401B1928CD
:10137000F6D900202021206384F83D1084F83E0037
:10138000216C41F02001216484F83C00022001B06E
:10139000BDE8F08394F83C00012803D1022001B09D
:1013A000BDE8F083012084F83C000868C00703D141
:1013B000086840F001000860086820F400600860D8
:1013C000212084F83D00102084F83E000020206495
:1013D00066626785608D20850020CFF6FF70E06231
:1013E000E06A10F5803F18BF012819D1086840F461
:1013F000807008604869DDF82090C00723D119F19A
:10140000010016D0B9F1000F00F07E80FFF7E2FE78
:10141000401B48457AD821684869C007F6D012E0D9
:101420000828E3D0206B1228E0D0E3E74869C00722
:1014300009D14869C00706D14869C00704BF486997
:101440005FEAC070F2D02069B0F5804F02D1FE2073
:1014500039E000BF062000EAD810F0300861486982
:1014600000072FD4486919F1010214D040057DD43A
:10147000B9F1000F00F03681FFF7ACFE401B484584
:1014800000F232812168486900071BD44869400591
:10149000F2D56BE04869400568D44869000711D46B
:1014A0004869400562D4486900070BD44869400583
:1014B0005CD44869000705D44869400556D448699A
:1014C0000007E7D5FF2000EA0800086148698007A7
:1014D00056D4486919F101024FEA40502CD0002837
:1014E00044D4B9F1000F00F0FD80FFF773FE401BFC
:1014F000484500F2F98021684869800740D448696E
:101500004005F2D532E000BFFFF764FE0020202145
:10151000206384F83D1084F83E00216C41F02001E6
:101520002164216884F83C000868C00544BF4FF47A
:10153000007020640EE100BF002817D448698007BE
:101540001ED44869400511D44869800718D44869F9
:1015500040050BD44869800712D44869400505D47A
:10156000486980070CD448694005E7D5086840F40D
:10157000007008606FF4806048610420B5E000BF2F
:10158000002000904A6900928A690092009A228D98
:10159000002A00F0998009F101080A4652F8143F28
:1015A0001B0637D4B8F1000F18D0B9F1000F00F0C6
:1015B000AD8000BF1068400500F1B080FFF70AFE63
:1015C000401B484500F2A78021680A4652F8140FD4
:1015D00000064FF00000EDD51CE000BF13685B056E
:1015E00000F19C8013681B0614D413685B0500F19E
:1015F000958013681B060DD413685B0500F18E807F
:1016000013681B0606D413685B0500F18780136816
:101610001B06E3D5676A3A4612F8013B0B6162622A
:10162000628D013A6285268D0A46A6F1010CA4F866
:1016300028C052F8143F5B070DD55FEA0C430AD06F
:101640007B78A6F1020C0B61BB1C6362638D013BCE
:101650006385A4F828C013685B0731D4B8F1000F84
:1016600016D0B9F1000F51D01068400556D4FFF7DD
:10167000B1FD401B48454ED821680A4652F8140F68
:1016800040074FF00000EFD5B4F828C018E000BFC5
:1016900013685B0542D413685B0711D413685B05BC
:1016A0003CD413685B070BD413685B0536D413680E
:1016B0005B0705D413685B0530D413685B07E7D577
:1016C0005FEA0C427FF469AF0A6842F400720A6074
:1016D000202184F83D1084F83E0084F83C0001B0DD
:1016E000BDE8F083FFF776FD202000212022216352
:1016F00084F83D2084F83E10226C1043206484F866
:101700003C10012001B0BDE8F08300BF1068400527
:1017100004D4FFF75FFD202004E000BF6FF4806079
:101720001060042000212022216384F83D2084F8E9
:101730003E10226C1043206484F83C10206C042876
:1017400008D12068016841F400710160012001B0F6
:10175000BDE8F083012001B0BDE8F083B0B586B0EC
:1017600045F200410068C4F200010024884205945B
:10177000CDE903440294019402D006B0B0BD00BF8D
:1017800043F630050094C4F20205286840F00200D8
:101790002860286800F0020000900098C0200190A6
:1017A0001220CDE90204032004900420059001F5E5
:1017B000D83001A9FFF738FC0094286940F40010E4
:1017C0002861286900F400100090009806B0B0BDB0
:1017D00040F2100041F2AC61C2F20000C2F200011E
:1017E00000780A68104408607047000080B543F62E
:1017F0000040C4F20200016841F400710160016818
:1018000041F480610160016841F48071016003204E
:1018100000F086F80F2000F005F800F027F800200F
:1018200080BD000070B540F21006C2F2000640F222
:1018300018013278C2F200014FF47A730968B3FBE1
:10184000F2F20446B1FBF2F1084600F05FFB0F2C08
:101850004FF0010508D838B94FF0FF30214600227B
:10186000002500F031F87460284670BD82B0002079
:1018700043F640010190C4F202014A6842F48042FA
:101880004A604A6802F480420192019A0090086816
:1018900040F080500860086800F080500090009888
:1018A00002B07047002848BF704700F01F010122B6
:1018B00002FA01F11C2202EAD0004EF20012CEF22E
:1018C000000281507047000010B54EF60C5CCEF25D
:1018D000000CDCF80030C3F3022E8EF00704042C59
:1018E00028BF0424BEF103034FF0FF3E0EFA04F4B8
:1018F00038BF0023A14399400EFA03F39A431143E2
:1019000000F00F0200F160430901043A03F564435B
:101910006244002848BF02F10C03197010BD00009A
:101920004EF60C51CEF200010A684FF6FF031A4042
:1019300060F30A2242F0806040F0FD70086070475A
:10194000002804BF012070472DE9F04143F6080844
:10195000C4F202080446D8F8F8030D4600F0070068
:10196000884207D288F8F853D8F8F80300F0070047
:10197000A84277D12068810717D5410705D5D8F847
:10198000001041F4E051C8F80010010705D5D8F85F
:10199000001041F46041C8F80010D8F80010A268A7
:1019A00021F0F0011143C8F80010C00740D1D8F869
:1019B000F80300F00700A84207D988F8F853D8F8D0
:1019C000F80300F00700A8424CD12068410707D572
:1019D000D8F80010E26821F4E0511143C8F8001073
:1019E000000708D5D8F80000216920F4604040EADB
:1019F000C100C8F8000000F07DF8D8F8001045F2EA
:101A0000CE32C1F30311C0F60002515C40F218025D
:101A100020FA01F140F21400C2F200000068C2F2A4
:101A200000021160FFF7FEFE0020BDE8F08100BF5C
:101A30006068811E022907D258F8081C89015CBF22
:101A40000120BDE8F08111E0012807D158F8081CF9
:101A500089035CBF0120BDE8F08107E058F8081C4D
:101A6000890703D40120BDE8F08100BFD8F8001039
:101A700021F003010843C8F80000FFF7ABFB06465E
:101A800041F28837D8F80000616800F00C00B0EB34
:101A9000810F8CD0FFF79EFB801BB842F2D9032048
:101AA000BDE8F08140F2180043F60801C2F20000E0
:101AB000C4F202010068096845F2DE32C1F38221F6
:101AC000C0F60002515CC8407047000040F21800A8
:101AD00043F60801C2F20000C4F20201006809687E
:101AE00045F2DE32C1F34231C0F60002515CC8401B
:101AF0007047000010B543F60404C4F202046068A5
:101B000000F00C0142F200400829C0F2F40007D0B6
:101B1000042918BF10BD41F20020C0F27A0010BDA8
:101B2000216801F03F02216823684902C3F388114C
:101B300006D4A1FB00010023FEF7B0FB07E000BFC5
:101B400041F20020C0F27A004843B0FBF2F0216875
:101B50000222C1F3014102EB4101B0FBF1F010BDE3
:101B6000002804BF012070472DE9F04182B00446EF
:101B7000007843F60006C007C4F202060CD0B06835
:101B800000F00C00042840F081803068800303D509
:101B90006068002800F06881207880071BD5B06855
:101BA00010F00C0F09D0B06800F00C00082840F0CD
:101BB00087807068400200F183803068800703D519
:101BC000E068012840F050813068216920F0F80079
:101BD00040EAC10030602078000713D42078400725
:101BE0002AD4A569002D00F03A81B06800F00C00FD
:101BF000082840F0A580012D40F00E81012002B0A0
:101C0000BDE8F0816069002800F082800020C4F205
:101C100047200121C0F8801EFFF7DCFA054600BF0F
:101C2000706F8007DAD4FFF7D5FA401B0228F7D986
:101C3000032002B0BDE8F081306C5FEAC0080AD42E
:101C400000200190306C40F080503064306C00F027
:101C500080500190019847F20007C4F200073868ED
:101C6000C00547D4386840F480703860FFF7B2FA96
:101C7000054600BF3868C0053CD4FFF7ABFA401BEF
:101C80000228F7D9032002B0BDE8F081B06800F067
:101C90000C00082803D1706840023FF576AF6168F8
:101CA0003068B1F5803F07D0B1F5A02F40F09A80A1
:101CB00040F480203060306840F4803030609AE03A
:101CC000E068002840F20000C4F247205CD0012107
:101CD0000160FFF77FFA0546306880073FF574AF73
:101CE000FFF778FA401B0228F6D9032002B0BDE8BE
:101CF000F08100BFA168306F012905D0052955D1B9
:101D000040F004003067306F40F00100306756E06B
:101D10000020C4F247200021C0F8801EFFF75AFAC5
:101D2000054600BF706F80077FF558AFFFF752FA86
:101D3000401B0228F6D9032002B0BDE8F08100BFA5
:101D40000027C4F2472700203866FFF743FA022D28
:101D500005460DD13068800140F18A80FFF73AFADC
:101D6000401B02284FF00300F4D902B0BDE8F08117
:101D70003068800173D5FFF72DFA401B02284FF021
:101D80000300F5D9F1E700BF00210160FFF722FA57
:101D9000054600BF306880077FF51DAFFFF71AFAD0
:101DA000401B02284FF00300F4D9DEE720F00100C9
:101DB0003067306F002920F0040030677AD0FFF7D9
:101DC00009FA054641F28837306F800700F18480B8
:101DD000FFF700FA401BB842F6D9032002B0BDE875
:101DE000F08100BF20F4803030603068002920F49A
:101DF000802030607AD0FFF7EDF905463068800327
:101E00003FF5CAAEFFF7E6F9401B6428F6D9032078
:101E100002B0BDE8F08100BF7068E16900F48002A3
:101E20008A4221D1216A00F03F028A421CD147F642
:101E3000C071626A0140B1EB821F15D1A16A4FF6F1
:101E4000FF73C903994300F44032A1F580318A42FF
:101E50000AD1E16A00F07060B0EB016F04D100209C
:101E600002B0BDE8F08100BF012002B0BDE8F08102
:101E700004F11C052FCD084340EA8210D9034FF628
:101E8000FF729143A1F5803140EA0560084370601C
:101E900001203866FFF79EF9044600BF30688001D4
:101EA000DDD4FFF797F9001B02284FF00300F5D9A6
:101EB0005BE700BFFFF78EF9054641F2883700BFA8
:101EC000306F800708D5FFF785F9401BB8424FF007
:101ED0000300F5D949E700BFB8F1000F3FF581AE27
:101EE000306C20F0805030647BE600BFFFF772F961
:101EF000054600BF306880037FF54EAEFFF76AF9F4
:101F0000401B64284FF00300F4D92EE7411E002047
:101F1000B0EB116F1CBF012070474EF21002CEF2E1
:101F2000000251604EF62351CEF20001F0230B70F7
:101F300007219060116070477047000070470000F3
:101F400090F83C20012A4FF0020254D010B580F8DE
:101F50003D200268D2F804E0D2F808C00C682EF0E8
:101F60007003234341F2FF74C4F20004A2425360A1
:101F70000EDC40F2FF73C4F200039A4216DCB2F1A9
:101F8000804F2BD040F20043C4F2000324E000BF96
:101F900040F2FF33C4F201039A4213DC41F600031E
:101FA000C4F200039A4219D0002313E040F6000364
:101FB000C4F200039A4211D040F60043C4F2000379
:101FC0000AE000BF44F20003C4F201039A4205D0C4
:101FD00040F20043C4F201039A4204D149682CF054
:101FE0008003194391600121002280F83D1080F8A0
:101FF0003C20BDE81040104670470000002804BF98
:102000000120704710B5044690F83D0028B9002023
:1020100084F83C00204600F01FF8022084F83D00C0
:102020002068211D02F02CFB012084F8460084F872
:102030003E0084F83F0084F8400084F8410084F8B2
:10204000420084F8430084F8440084F8450084F892
:102050003D00002010BD000080B582B0006840F255
:10206000FF31C4F2010188422CDD40F20041C4F28C
:10207000010188424CD044F20001C4F201018842BF
:1020800054D044F20041C4F2010188426ED10020D4
:10209000019043F64400C4F202000168002241F4BA
:1020A000003101600068012100F4003001900198C6
:1020B0001920FFF709FC192002B0BDE88040FFF7A6
:1020C000F1BB00BFB0F1804F3ED041F20001C4F23D
:1020D000000188424AD10020019043F64400C4F236
:1020E000020050F8041C002241F0100140F8041CCA
:1020F00050F8040C002100F01000019001983620E7
:10210000FFF7E2FB362002B0BDE88040FFF7CABB14
:102110000020019043F64400C4F20200016841F03F
:1021200002010160006800F002001DE00020019043
:1021300043F64400C4F20200016841F480310160BA
:10214000006800F480300FE00020019043F6440066
:10215000C4F2020050F8041C41F0010140F8041CD4
:1021600050F8040C00F001000190019802B080BD0D
:1021700090F83D1001291CBF01207047022180F812
:102180003D10006841F2FF71C4F2000188420DDC8D
:1021900040F2FF71C4F20001884215DCB0F1804FBB
:1021A0002AD040F20041C4F2000123E040F2FF31A6
:1021B000C4F20101884213DC41F60001C4F20001BF
:1021C000884219D0002113E040F60001C4F200015A
:1021D000884211D040F60041C4F200010AE000BF7D
:1021E00044F20001C4F20101884205D040F20041EE
:1021F000C4F20101884206D1816801F00701062975
:1022000004BF00207047016841F001010160002017
:102210007047000090F83D1001291CBF0120704755
:10222000022180F83D10006841F2FF72C168C4F2DB
:102230000002904241F00101C1600DDC40F2FF71EB
:10224000C4F20001884215DCB0F1804F2AD040F280
:102250000041C4F2000123E040F2FF31C4F2010169
:10226000884213DC41F60001C4F20001884219D013
:10227000002113E040F60001C4F20001884211D0B1
:1022800040F60041C4F200010AE000BF44F2000140
:10229000C4F20101884205D040F20041C4F20101BC
:1022A000884206D1816801F00701062904BF002099
:1022B0007047016841F00101016000207047000093
:1022C00090F83C20012A4FF002026CD080B580F8D3
:1022D0003D20D0F800C04FF67772DCF8083023EAD2
:1022E0000202CCF808200B684F2B29DC1F2B45DDA0
:1022F000202B46D0302B44D0402B40F0AF80D1F87B
:1023000004E0C968DCF82030DCF8202022F001026B
:10231000CCF82020DCF8182022F0F00242EA01116B
:1023200023F00A0242EA0E02CCF81810CCF8202062
:10233000DCF8081041F0470121F0300128E000BF2F
:102340006F2B33DDB3F5005F74D0B3F5805F21D020
:10235000702B40F08380D1E901E3C968DCF80820E4
:1023600043EA0E0322F47F4243EA01211143CCF8F1
:102370000810DCF8081041F0770109E00BB1102BD0
:102380006CD1DCF8081021F07001194341F007010D
:10239000CCF808100022012180F83D10002180F8BF
:1023A0003C10BDE880401046704700BF502B21D044
:1023B000602B53D1D1F804E0C968DCF8203023F059
:1023C0001003CCF82030DCF81830DCF8202023F49F
:1023D000704322F0A00243EA013142EA0E12CCF827
:1023E0001810CCF82020DCF8081041F0670121F02B
:1023F0001001CDE7D1F804E0C968DCF82030DCF842
:10240000202022F00102CCF82020DCF8182022F055
:10241000F00242EA011123F00A0242EA0E02CCF86D
:102420001810CCF82020DCF8081041F0570121F0FA
:102430002001ADE7D1E901E3C968DCF8082043EAEF
:102440000E0322F47F4243EA01211143CCF8081025
:10245000DCF8081041F480419AE700BF01229AE7B6
:10246000002804BF012070472DE9F047044690F88A
:102470003D000D4628B9002084F83C00204600F0BD
:1024800049F8022084F83D00206844F20702816880
:1024900091438160211D02F0F3F820684FF6FF7828
:1024A00081688269D0F820C0D5E9003ED5E9026A8A
:1024B00043EA0109AB6922EA080246EA03234FF620
:1024C000FC46B343D5E9076742EA0A0229691A4381
:1024D00042EA062242EA01112CF0AA026B6942EAA2
:1024E0000E0241EA073142EA0312C0F80890816106
:1024F0000262012084F8460084F83E0084F83F0020
:1025000084F8420084F8430084F83D000020BDE8D0
:10251000F087000080B586B0006840F20042C4F247
:10252000000200219042CDE90411CDE90211019190
:1025300038D00021C4F20101884258D1002043F66E
:1025400030010090C4F202014A6942F001024A617E
:102550004A6902F001020092009A00900A6842F073
:1025600010020A60096801F01001009100994FF40F
:10257000206101910221CDE9021004900120059013
:102580000020C4F2020000F5805001A9FEF74CFDC6
:10259000192001210022FFF797F91920FFF782F98E
:1025A00006B080BD43F630000091C4F2020002691B
:1025B00042F002020261026902F002020092009AF5
:1025C0000091026842F001020260006800F0010020
:1025D00000900098C02001900220CDE90201CDE9D1
:1025E00004100020C4F2020001A9FEF71DFD06B090
:1025F00080BD000080B590F83E2090F83F3090F804
:1026000042E090F843C004290AD0B9B9012A4FF03A
:10261000010208BFBEF1010F34D0104680BD00BFDB
:10262000012B4FF0010208BFBCF1010FF5D10221CF
:1026300080F83F1080F8431000681EE0012A4FF038
:10264000010208BF012BE8D1BEF1010FE5D1BCF1B9
:10265000010FE2D1022280F83E2080F83F2080F86E
:10266000422080F8432091B10068016A21F0010105
:102670000162016A41F00101016210216FF0100254
:1026800009E000BF022180F83E1080F84210006887
:1026900001216FF00102036A1A400262026A1143CB
:1026A00001620168002241F001010160104680BD15
:1026B0007047000010B5016804460869800744BFF0
:1026C000C8685FEA807039D40869400744BFC868A9
:1026D0005FEA40703ED40869000744BFC8685FEAFB
:1026E000007045D40869C00644BFC8685FEAC0608E
:1026F0004AD40869C0071CBFC8685FEAC07051D1DE
:102700000869000644BFC8685FEA006052D40869DF
:10271000400644BFC8685FEA406053D40869800639
:1027200046BFC8685FEA806010BD6FF02002204697
:102730000A61BDE81040FFF701BC00BF6FF0020066
:102740000861012020778869800743D02046FFF781
:10275000AFFF45E06FF00400086102202077886930
:1027600010F4407F40D02046FFF7A2FF42E000BFB8
:102770006FF00800086104202077C86980073DD009
:102780002046FFF795FF3FE06FF01000086108203A
:102790002077C86910F4407F3AD02046FFF788FFC1
:1027A0003CE000BF6FF001000861204600F008FA2D
:1027B0002168A5E76FF0800008612046FFF7BCFBA9
:1027C0002168A4E76FF040000861204600F06AFB32
:1027D0002168A3E7204600F025F8204600F064F9C0
:1027E0002168002020776FE7204600F01BF8204684
:1027F00000F05AF92168002020776CE7204600F0AD
:1028000011F8204600F050F921680020207769E790
:10281000204600F007F8204600F046F92168002025
:10282000207766E77047000090F83C30012B04BF2A
:10283000022070474FEAB202032A00F2FF802DE91E
:10284000F043DFE802F003B13F7F00BF036840F2CE
:1028500000461A6A43F4806522F001021A621C6A7B
:102860001A46D3F804C052F818EF8F6824F0020417
:10287000C4F20106B54244EA070405D1CF6824F04A
:102880000C0427F004073C430F68B54206D1D1E998
:1028900005582CF440762E4346EA080C2EF07306B9
:1028A0003743C3F804C09F614F6809695F631C62C6
:1028B0009F6947F008079F619F6927F004079F61A0
:1028C000B1E000BF036840F200481A6A43F4806533
:1028D00022F480721A621C6A1A46D3F804C052F8B5
:1028E0001CEF8F6824F40074C4F20108454544EAE3
:1028F000072408D1CF6840F2FF463F0224F4406429
:1029000027EA06063443D1F80090454506D1D1E9BF
:1029100005562CF440572E4347EA061C2EF0730749
:1029200047EA0907C3F804C0DF614F680969DF633C
:102930001C62DF6947F00807DF61DF6927F00407E1
:10294000DF6170E0036840F200451A6A43F4806773
:1029500022F480521A621A46D3F820C05C6852F8FA
:102960001C8FD1F800E08E68C4F20105AF4204D19B
:102970004D6924F4804444EA85142CF4005747EA56
:10298000063728F4E64646EA0E265C60DE614E68AD
:1029900009691E641F62DF6947F40067DF61DF6950
:1029A00027F48067DF613DE0036840F200481A6A5F
:1029B00043F4806522F010021A621C6A1A46D3F8AA
:1029C00004C052F818EF8F6824F02004C4F2010804
:1029D000454544EA071407D1CF686FF0400624F05C
:1029E000C00406EA07163443D1F80090454506D1E5
:1029F000D1E905562CF440672E4347EA860C2EF4A5
:102A0000E64747EA0927C3F804C09F614F68096990
:102A10009F631C629F6947F400679F619F6927F469
:102A200080679F6109021368194311600021BDE8A6
:102A3000F043002280F83C20084670470121002224
:102A400080F83C2008467047002804BF01207047EA
:102A500010B5044690F83D0028B9002084F83C00E9
:102A6000204600F01FF8022084F83D002068211D58
:102A700001F006FE012084F8460084F83E0084F848
:102A80003F0084F8400084F8410084F8420084F854
:102A9000430084F8440084F8450084F83D00002099
:102AA00010BD00007047000070470000C1B104294C
:102AB00008D0082914BF41224022825C012A05D097
:102AC00016E000BF3F22825C012A11D102220829B0
:102AD00010D0042914BF80F8412080F83F200BE07B
:102AE00090F83E20012A03D1022280F83E2003E024
:102AF0000120704780F84020006801F01F0101228A
:102B0000036A02FA01F123EA01020262026A114336
:102B100041F2FF72C4F20002904201620CDC40F20A
:102B2000FF71C4F20001884214DCB0F1804F37D04D
:102B300040F2004116E000BF40F2FF31C4F2010153
:102B4000884215DC41F60001C4F20001884227D01A
:102B5000002115E040F60001C4F2000188421FD0B8
:102B600040F60041C4F20001884219D01FE000BFC6
:102B700044F20001C4F20101884211D040F2004148
:102B8000C4F20101884212D1416C40F2004340F48A
:102B90008062C4F2010341F400419A42416406D1CB
:102BA000816801F00701062904BF00207047016811
:102BB00041F00101016000207047000000000000AA
:102BC0002DE9F04FA3B0016841F26040C2F200006D
:102BD000006881420AD041F28832C2F200021268D3
:102BE000914245D023B0BDE8F08F00BF40F20044D1
:102BF000C4F20204FEF7EEFA40F28006C2F20006CA
:102C0000F168401A0A28C0F0878004F580552846EC
:102C10004FF400510122FEF7D7FA20464FF48041CD
:102C20000022FEF7D1FA022001F040FE20464FF4C8
:102C300080410122FEF7C8FA042001F037FE284641
:102C40004FF400510022FEF7BFFA41F2442040F257
:102C50002C61C2F20000C2F2000140F20A62FDF7EC
:102C600015FFFEF7B7FAF06023B0BDE8F08F00BFA4
:102C700040F2000440F28006C2F20004C2F20006F4
:102C800094F800A0377896F801B0B378F578816AA7
:102C9000B28809B2F03A00EE102A94ED031AB8EEA9
:102CA000C00A02EE101AB8EEC22A20EE010A30EE77
:102CB000020ABDEEC00A10EE102A1E2AD8BF1E223C
:102CC000826241F24030C2F20000006841F21841D5
:102CD000C2F20001D0F8249009680024D1F82480C1
:102CE00044624C6203AC68A120460095FDF74EFBA0
:102CF0002046FDF7CFFB82B241F23850C2F200000D
:102D000021464FF47A7300F03BF93078802819D1CE
:102D100096ED041A35E000BF20464FF480410022B2
:102D2000FEF752FA022001F0C1FD20464FF4804127
:102D30000122FEF749FA042023B0BDE8F04F01F06C
:102D4000B5BD00BFBAF1000F08BF5F4600EE107AB4
:102D500041F21460DFED520AB8EE400AC2F2000000
:102D600002F0AEF810EE100A02F0AEFA9FED440B3E
:102D700053EC102B02F0AAF902F076F901EE100ADA
:102D8000306140F200050FFA88F0C2F200054042BF
:102D900095ED022A00EE100A41F26060B8EEC00A1A
:102DA00072EE010AC2F200000FFA89F402F088F80C
:102DB000B1EE400A8DED020A95ED011A96ED042A56
:102DC00000EE104A41F27C50B8EEC00A71EE420AA1
:102DD000C2F2000002F074F88DED010A9DED010AC7
:102DE000B2EE041A20EE010A9DED022ABDEEC00AE1
:102DF00010EE100A22EE010ABDEEC00A10EE107AA3
:102E0000B0F57A7F4FF47A764FF47A79B8BF0646F8
:102E1000B7F57A7FB8BFB946B0F1FF3F40F2004046
:102E2000C4F2020000F580554FF0000228464FF032
:102E300010014FF00004C8BF0122FEF7C5F941F2AE
:102E4000D03830B2C2F20008002848BF4042D8F85B
:102E50000010B7F1FF3F4863C8BF01242846402156
:102E60002246FEF7B1F90FFA89F0002848BF404228
:102E7000D8F80010886323B0BDE8F08F00BF00BF12
:102E80009A9999999999C93F58313D25642C2058B0
:102E9000323D25642C2058333D25640D0A00000086
:102EA0000000804270470000002804BF01207047E6
:102EB00010B5044690F83D0028B9002084F83C0085
:102EC000204600F021F8242084F83D002068C168E5
:102ED00021F40051C160204601F06CFC20680169BA
:102EE00021F490410161416921F02A014161C168E9
:102EF00041F40051C16000202021206484F83D107D
:102F000084F83E1010BD000080B586B041F200018B
:102F10000068C4F20101002288420592CDE9032233
:102F20000292019202D006B080BD00BF43F630008D
:102F30000092C4F20200436943F010034361436905
:102F400003F010030093009B0092036843F0010319
:102F50000360006800F00100009000984FF4C0602A
:102F600001900220CDE90202032004900720059081
:102F700001F5704001A9FEF757F806B080BD0000CA
:102F80002DE9F04381B0044690F83D0020280DD192
:102F90000F4600294FF0010018BF002A02D101B0EE
:102FA000BDE8F08394F83C00012803D1022001B071
:102FB000BDE8F083012084F83C000020206421203B
:102FC0001D4684F83D001646FEF704F9A684E68403
:102FD000A1680646B1F5805F03D12069002800F0A2
:102FE0000D81B8460027002084F83C00E18C206861
:102FF000002900F08F8005F101090CE0B8F1000F05
:1030000028D018F8011B4160E18C0139E184E18C82
:10301000002900F07F8001680906EFD4B9F1000FA4
:103020000AD0FDB1FEF7D6F8801BA8421AD8206856
:1030300001680906F6D5E1E701680906DED40168F2
:1030400009065CBF01685FEA0161D7D4016809061F
:10305000F2D5D3E737F8021B4FF000086FF35F217A
:10306000D1E700BF206850E8030F216820F4D0703A
:1030700041E80302BAB3206850E8030F216820F446
:10308000D07041E8030272B3206850E8030F216852
:1030900020F4D07041E803022AB3206850E8030FFF
:1030A000216820F4D07041E80302002ADAD11AE046
:1030B000206850E8050F216820F0010041E8050272
:1030C000DAB1206850E8050F216820F0010041E8DE
:1030D000050292B1206850E8050F216820F0010038
:1030E00041E805024AB1206850E8050F216820F048
:1030F000010041E80502002ADAD1202084F83D00D1
:1031000084F83E00002084F83C00032001B0BDE8B4
:10311000F08300BF016849060FD4F5B1691C17D1CF
:103120000168490609D4016849065CBF01685FEA85
:10313000416102D401684906F2D5202084F83D009F
:10314000002001B0BDE8F083206800684006F4D498
:10315000FEF740F8801BA842F6D9206850E8030F1C
:10316000216820F4D07041E80302E2B3206850E8FF
:10317000030F216820F4D07041E803029AB320685D
:1031800050E8030F216820F4D07041E8030252B3E5
:10319000206850E8030F216820F4D07041E8030252
:1031A000002ADAD11FE000BF206850E8050F21682F
:1031B00020F0010041E80502002A9ED0206850E876
:1031C000050F216820F0010041E80502002A94D093
:1031D000206850E8050F216820F0010041E8050251
:1031E000002A3FF48AAF206850E8050F216820F0DC
:1031F000010041E80502002AD6D17EE74FF0000821
:10320000F1E60000FEE700000021C4F22011016099
:10321000002180ED010AC0ED020AC1607047000084
:10322000B0B584B041F24420C2F2000042F2000185
:103230004FF080534FF060650024C4F20101C0E9F3
:103240000A53012503944FF48032047680F820401D
:10325000C56180F8304080E81600C0E9034445614C
:10326000FDF710FB002818BFFDF75EFA0A20CDE934
:10327000000541F24420C2F2000069460294FDF7C5
:1032800059FA002818BFFDF74FFA04B0B0BD00008E
:1032900080B582B00020019043F63000C4F20200F5
:1032A0000168002241F4800101600068002100F4FF
:1032B0008000019001983820FEF706FB382002B00C
:1032C000BDE88040FEF7EEBA2DE9F04F87B0002749
:1032D00043F630000697CDE90477CDE902770197F0
:1032E000C4F20200016841F2004441F010010160A3
:1032F0000168C4F2020401F01001019101990197E3
:103300000168002241F004010160016801F004013C
:10331000019101990197016841F020010160016864
:1033200001F02001019101990197016841F08001AC
:103330000160016801F08001019101990197016824
:1033400041F001010160016801F001010191019961
:103350000197016841F002010160016801F002017A
:10336000019101990197016841F0400101600168F4
:1033700001F04001019101990197016841F00801B4
:103380000160006842F2500100F0080001900198CD
:103390002046FDF719FF20464FF4855101224FF0DA
:1033A0000108FDF711FFA4F5805948464FF480410C
:1033B00001224FF4804AFDF707FF4FF2DF5002AEC3
:1033C00002900325A4F580603146CDE90357FDF74F
:1033D0002BFE4FF6FE7002A9A1C1A4F54060314654
:1033E000FDF722FE4CF60F7002A9A1C1204631461E
:1033F000FDF71AFE43F2F000CDE9020820463146FF
:10340000CDE90477FDF710FE49F63C1002A9A1C1F1
:10341000A4F5A0503146FDF707FE4BF63F7002A918
:10342000A1C148463146FDF7FFFD4FF6FF7B04F58D
:1034300080603146CDE902B50497FDF7F5FD4846B9
:103440003146CDE902A8CDE90475FDF7EDFDA4F5FF
:1034500000603146CDE902B50497FDF7E5FD07B000
:10346000BDE8F08F80B541F2EC2045F20041C2F298
:103470000000C4F2000141F6802200234FF4804C8A
:10348000C0F2060280E80E00C0E9033CC0E9053343
:10349000C0E90733FDF7A4FE002808BF80BDBDE8E2
:1034A0008040FDF741B9000080B541F2883044F218
:1034B0000041C2F20000C4F201010023A72241F240
:1034C000873C80E80E1003618361FEF797FD0028BA
:1034D00008BF80BDBDE88040FDF726B910B58CB0AF
:1034E00041F2403000210024C2F20000C4F2010188
:1034F000C0E9001403214FF6FF72CDE90314012146
:10350000C0E90242CDE905140A22CDE9091403A954
:10351000CDE90044C0E904448461CDE907240B925D
:10352000FEF79EFF002818BFFDF7FEF841F240307D
:10353000C2F200006946CDE90044FEF701FD002813
:1035400018BFFDF7F1F80CB010BD000010B594B035
:1035500041F2D0300021C2F200004FF080424FF41F
:103560007A730D91CDE90B110991CDE90711CDE9E0
:103570000511CDE90311CDE90111C0E90021C0E930
:10358000021301618161FEF739FD002818BFFDF7C4
:10359000CBF84FF480500A9041F2D030C2F20000D4
:1035A0000AA9FEF78DFE002818BFFDF7BDF841F20D
:1035B000D030C2F20000FFF747FA002818BFFDF72D
:1035C000B3F841F2D0300024C2F2000008A9CDE9DE
:1035D0000844FEF7B5FC002818BFFDF7A5F86020E9
:1035E000CDE9010441F2D030C2F2000001A900226D
:1035F00003940594FFF718F9002818BFFDF794F815
:1036000041F2D034C2F2000401A920460422FFF79F
:103610000BF9002818BFFDF787F8216844F2000273
:10362000C4F2010200209142CDE91200CDE9100060
:103630000F9017D0B1F1804F34D1002143F6300004
:103640000E91C4F202000268032342F001020260FC
:103650000068012200F001000E900E980020C4F2D4
:10366000020015E00E9043F63000C4F2020001683B
:10367000202341F0100101600068032100F01000D8
:103680000E900E980020C4F2020000F58050032234
:103690000F93022310930023CDE911310FA9139248
:1036A000FDF7C2FC14B010BD80B58CB041F21840DB
:1036B00040F200420021C2F20000C4F200024FF6C4
:1036C000FF73C0E900210322C0E90213CDE9032101
:1036D00001220A23CDE9001101618161CDE90521B3
:1036E000CDE90731CDE9092103A90B93FEF7B8FE17
:1036F000002818BFFDF718F841F21840C2F2000088
:103700006946FEF71DFC002818BFFDF70DF80CB048
:1037100080BD000080B582B041F260400021C2F25D
:10372000000041F200024FF0A70CCDE90011C4F2F5
:10373000000240F6B733C0E9021C8021C0E9002333
:103740008161FEF75BFC002818BFFCF7EDFF41F23A
:103750006040C2F200006946FEF7F2FB002818BF85
:10376000FCF7E2FF02B080BD80B586B0202000905B
:1037700041F2A84040F200420021C2F20000C4F22F
:10378000010201234FF0770C0591CDE9031101915E
:10379000C0E90023C0E9021CC0E904118161FEF701
:1037A0002DFC002818BFFCF7BFFF4FF4805002909B
:1037B00041F2A840C2F2000002A9FEF781FD0028F4
:1037C00018BFFCF7B1FF41F2A840C2F20000694601
:1037D000FEF7B6FB002818BFFCF7A6FF06B080BDB9
:1037E00070B592B044F2000541F2F040C4F2010518
:1037F0000021C2F2000077220B91CDE90911079157
:10380000CDE90511CDE90311CDE90111C0E9005160
:10381000C0E9021201618161FEF7F0FB002818BFC8
:10382000FCF782FF4FF48050089041F2F040C2F262
:10383000000008A9FEF744FD002818BFFCF774FF3C
:1038400041F2F040C2F20000FFF7FEF8002818BF76
:10385000FCF76AFF602001903C2041F2F0440290A6
:103860000420C2F200040026059001A9204600228F
:103870000396FEF7D9FF002818BFFCF755FF206814
:103880001196A842CDE90F660E960D9616D0B0F1AE
:10389000804F31D1002143F630000C91C4F2020078
:1038A0000268032342F0010202600068012200F076
:1038B00001000C900C9805F5404013E000200C909E
:1038C00043F63000C4F202000168202341F01001E9
:1038D00001600068032100F010000C900C9805F5C1
:1038E000504003220D9302230E930023CDE90F31A4
:1038F0000DA91192FDF798FB12B070BD80B541F291
:10390000385041F20001C2F20000C4F2010100236C
:103910004FF00C0C4FF4E13280E80E00C0E90333A5
:10392000C0E905C3C361FFF7BFFA002808BF80BD27
:10393000BDE88040FCF7F8BEFEE70000FEE70000AF
:10394000F0B583B04FF60045C820CFF6FF75FDF700
:1039500057FB41F2EC244FF42E40C2F20004ADF8C4
:103960000A004FF47A770DF10A02204678210223EB
:103970000097FDF7E7FC00260DF10A0220467821AA
:103980000223ADF80A600097FDF7DCFC4FF480508D
:10399000ADF80A000DF10A022046782102230097B3
:1039A000FDF7D0FC4FF48040ADF80A000DF10A029B
:1039B0002046782102230097FDF7C4FC4FF4014014
:1039C000ADF80A000DF10A02204678210223009783
:1039D000FDF7B8FC4FF44F40ADF80A000DF10A02B4
:1039E0002046782102230097FDF7ACFC4FF42140DC
:1039F000ADF80A000DF10A02204678210223009753
:103A0000FDF7A0FC4FF44840ADF80A000DF10A02A2
:103A10002046782102230097FDF794FC4FF42640BE
:103A2000ADF80A000DF10A02204678210223009722
:103A3000FDF788FC4FF42840ADF80A000DF10A02AA
:103A40002046782102230097FDF77CFC4FF47C5040
:103A5000ADF80A000DF10A022046782102230097F2
:103A6000FDF770FC4FF45340ADF80A000DF10A0267
:103A70002046782102230097FDF764FC0DF10A022D
:103A8000204678210223ADF80A600097FDF75AFC22
:103A90004FF45540ADF80A000DF10A022046782196
:103AA00002230097FDF74EFC4FF40040ADF80A00EA
:103AB0000DF10A022046782102230097FDF742FC0F
:103AC0004FF45940ADF80A000DF10A022046782162
:103AD00002230097FDF736FC4FF47140ADF80A0061
:103AE0000DF10A022046782102230097FDF72AFCF7
:103AF0004FF45A40ADF80A000DF10A022046782131
:103B000002230097FDF71EFC4FF49050ADF80A0019
:103B10000DF10A022046782102230097FDF712FCDE
:103B20004FF45B40ADF80A000DF10A0220467821FF
:103B300002230097FDF706FC4FF44050ADF80A0051
:103B40000DF10A022046782102230097FDF7FAFBC7
:103B50004FF40050ADF80A000DF10A02204678211A
:103B600002230097FDF7EEFB4FF40070ADF80A005A
:103B70000DF10A022046782102230097FDF7E2FBAF
:103B80004FF40D40ADF80A000DF10A0220467821ED
:103B900002230097FDF7D6FB4FF4A050ADF80A00C2
:103BA0000DF10A022046782102230097FDF7CAFB97
:103BB00040F2AC00C2F20000294600BF421811F5E5
:103BC000807182F8006482F8086482F8106482F8D8
:103BD000186482F8206482F8286482F8306482F8DD
:103BE000386482F8406482F8486482F8506482F84D
:103BF000586482F8606482F8686482F8706482F8BD
:103C0000786482F8806482F8886482F8906482F82C
:103C1000986482F8A06482F8A86482F8B06482F89C
:103C2000B86482F8C06482F8C86482F8D06482F80C
:103C3000D86482F8E06482F8E86482F8F06482F87C
:103C4000F864BBD100212A46831812F5807283F8EC
:103C5000011483F8091483F8111483F8191483F8F4
:103C6000211483F8291483F8311483F8391483F864
:103C7000411483F8491483F8511483F8591483F8D4
:103C8000611483F8691483F8711483F8791483F844
:103C9000811483F8891483F8911483F8991483F8B4
:103CA000A11483F8A91483F8B11483F8B91483F824
:103CB000C11483F8C91483F8D11483F8D91483F894
:103CC000E11483F8E91483F8F11483F8F914BBD1F3
:103CD00000212A46831812F5807283F8021483F8B3
:103CE0000A1483F8121483F81A1483F8221483F840
:103CF0002A1483F8321483F83A1483F8421483F8B0
:103D00004A1483F8521483F85A1483F8621483F81F
:103D10006A1483F8721483F87A1483F8821483F88F
:103D20008A1483F8921483F89A1483F8A21483F8FF
:103D3000AA1483F8B21483F8BA1483F8C21483F86F
:103D4000CA1483F8D21483F8DA1483F8E21483F8DF
:103D5000EA1483F8F21483F8FA14BBD100212A463E
:103D6000831812F5807283F8031483F80B1483F818
:103D7000131483F81B1483F8231483F82B1483F88B
:103D8000331483F83B1483F8431483F84B1483F8FB
:103D9000531483F85B1483F8631483F86B1483F86B
:103DA000731483F87B1483F8831483F88B1483F8DB
:103DB000931483F89B1483F8A31483F8AB1483F84B
:103DC000B31483F8BB1483F8C31483F8CB1483F8BB
:103DD000D31483F8DB1483F8E31483F8EB1483F82B
:103DE000F31483F8FB14BBD100212A46831812F583
:103DF000807283F8041483F80C1483F8141483F885
:103E00001C1483F8241483F82C1483F8341483F8D6
:103E10003C1483F8441483F84C1483F8541483F846
:103E20005C1483F8641483F86C1483F8741483F8B6
:103E30007C1483F8841483F88C1483F8941483F826
:103E40009C1483F8A41483F8AC1483F8B41483F896
:103E5000BC1483F8C41483F8CC1483F8D41483F806
:103E6000DC1483F8E41483F8EC1483F8F41483F876
:103E7000FC14BBD100212A46831812F5807283F806
:103E8000051483F80D1483F8151483F81D1483F8B2
:103E9000251483F82D1483F8351483F83D1483F822
:103EA000451483F84D1483F8551483F85D1483F892
:103EB000651483F86D1483F8751483F87D1483F802
:103EC000851483F88D1483F8951483F89D1483F872
:103ED000A51483F8AD1483F8B51483F8BD1483F8E2
:103EE000C51483F8CD1483F8D51483F8DD1483F852
:103EF000E51483F8ED1483F8F51483F8FD14BBD1B1
:103F000000212A46831812F5807283F8061483F87C
:103F10000E1483F8161483F81E1483F8261483F8FD
:103F20002E1483F8361483F83E1483F8461483F86D
:103F30004E1483F8561483F85E1483F8661483F8DD
:103F40006E1483F8761483F87E1483F8861483F84D
:103F50008E1483F8961483F89E1483F8A61483F8BD
:103F6000AE1483F8B61483F8BE1483F8C61483F82D
:103F7000CE1483F8D61483F8DE1483F8E61483F89D
:103F8000EE1483F8F61483F8FE14BBD1002100BFB1
:103F9000421915F5807582F8071482F80F1482F81B
:103FA000171482F81F1482F8271482F82F1482F84D
:103FB000371482F83F1482F8471482F84F1482F8BD
:103FC000571482F85F1482F8671482F86F1482F82D
:103FD000771482F87F1482F8871482F88F1482F89D
:103FE000971482F89F1482F8A71482F8AF1482F80D
:103FF000B71482F8BF1482F8C71482F8CF1482F87D
:10400000D71482F8DF1482F8E71482F8EF1482F8EC
:10401000F71482F8FF14BBD100F014F84FF42F40CE
:10402000ADF80A0041F2EC204FF47A77C2F20000BA
:104030000DF10A02782102230097FDF783F903B0FE
:10404000F0BD00002DE9F04FA3B040F2AC0BC2F27E
:10405000000B41F2EC26ABF180084FF47A75C2F206
:1040600000060DF10B094FF0000A00BF4AF0B00046
:1040700000248DF80C00304678214A4602238DF842
:104080000B400095FDF75EF9304678214A46022341
:10409000ADF80B400095FDF755F94FF48050ADF8A1
:1040A0000B00304678214A4602230095FDF74AF975
:1040B00040208DF80B004046002100BF10F8803FE3
:1040C00009EB0102D3700BEBC1031F7C93F8206056
:1040D000577193F82870D67193F83060177290F882
:1040E00038701C7A1D7E567290F84060977293F873
:1040F000487014719571D672177393F8507093F8D5
:10410000586093F8605093F8684093F8703010311D
:10411000537490F87830802957739673D57314745C
:104120009374CBD141F2EC26C2F2000630467821DE
:104130004A4683234FF47A750095FDF703F90AF197
:10414000010A08F10108BAF1080F0BF1010B8DD13A
:1041500023B0BDE8F08F00002DE9F04381B040F2BC
:10416000AC09C2F200090D46074648464FF490617B
:1041700098461646FCF7ADF9002D00F0CB804FF0C5
:10418000000C4FF0010E00BF402209EBCC0300BF32
:10419000013AC2F3C40102F007005C5C0EFA00F0C1
:1041A0002043585437F81C008001B0FBF6F0C0F1F2
:1041B0003F008242ECDC4CF00102402309EBC205D7
:1041C000013BC3F3C40403F00700295D0EFA00F0BD
:1041D0000843285537F812008001B0FBF6F0C0F113
:1041E0003F008342ECDC4CF002024023013BC3F36E
:1041F000C40109EBC20403F00700655C0EFA00F08D
:104200002843605437F812008001B0FBF6F0C0F18B
:104210003F008342EADC4CF003024023013BC3F33E
:10422000C40109EBC20403F00700655C0EFA00F05C
:104230002843605437F812008001B0FBF6F0C0F15B
:104240003F008342EADC4CF004024023013BC3F30D
:10425000C40109EBC20403F00700655C0EFA00F02C
:104260002843605437F812008001B0FBF6F0C0F12B
:104270003F008342EADC4CF005024023013BC3F3DC
:10428000C40109EBC20403F00700655C0EFA00F0FC
:104290002843605437F812008001B0FBF6F0C0F1FB
:1042A0003F008342EADC4CF006024023013BC3F3AB
:1042B000C40109EBC20403F00700655C0EFA00F0CC
:1042C0002843605437F812008001B0FBF6F0C0F1CB
:1042D0003F008342EADC4CF007024023013BC3F37A
:1042E000C40109EBC20403F00700655C0EFA00F09C
:1042F0002843605437F812008001B0FBF6F0C0F19B
:104300003F008342EADC0CF1080CBCF1800F7FF423
:104310003BAFB0E007F1080C00216FF0FF024FF057
:10432000010E00BF0CEB0207B7F8F85010324FEA4D
:104330008515B5FBF6F5C5F13F05ECB24FEAD4049F
:1043400005F0070009EBC1052B5D0EFA00F040EA0D
:1043500003002855B7F8FA0001F108014FEA801070
:10436000B0FBF6F0C0F13F00C3B205EBD30300F0A1
:1043700007001C7A0EFA00F040EA04001872B7F841
:10438000FC004FEA8010B0FBF6F0C0F13F00C3B272
:1043900005EBD30300F007001C7C0EFA00F040EAA6
:1043A00004001874B7F8FE004FEA8010B0FBF6F076
:1043B000C0F13F00C3B205EBD30300F007001C7E41
:1043C0000EFA00F040EA04001876B7F800014FEA50
:1043D0008010B0FBF6F0C0F13F00C3B205EBD30391
:1043E00000F0070093F820400EFA00F040EA0400C5
:1043F00083F82000B7F802014FEA8010B0FBF6F016
:10440000C0F13F00C3B205EBD30300F0070093F8FF
:1044100028400EFA00F040EA040083F82800B7F8BC
:1044200004014FEA8010B0FBF6F0C0F13F00C3B2C8
:1044300005EBD30300F0070093F830400EFA00F0CC
:1044400040EA040083F83000B7F806014FEA801014
:10445000B0FBF6F0C0F13F00C3B205EBD30300F0B0
:10446000070093F838400EFA00F040EA040083F8A1
:1044700038007FF457AF3820A0EB8810C0F3C40099
:1044800000217F22002300BFD7B209EBC7073E5CA3
:10449000002946F080063E54C8BF013AD7B209EB66
:1044A000C7073E5CD8BF7F3146F080063E540029E6
:1044B000C8BF013AD7B209EBC7073E5CD8BF7F310E
:1044C00046F080063E540029C8BF013AD7B209EB36
:1044D000C7073E5CD8BF7F3146F080063E540029B6
:1044E000C8BF013AD7B209EBC7073E5CD8BF7F31DE
:1044F00046F080063E540029C8BF013AD7B209EB06
:10450000C7073E5CD8BF7F3146F080063E54002985
:10451000C8BF013AD7B209EBC7073E5CD8BF7F31AD
:1045200046F080063E540029D4BF7F31013AD7B20D
:1045300009EBC7073E5C43F0070546F080060029FB
:104540003E54D4BF7F31013A7F2D03F108039BD342
:1045500001B0BDE8F083000080B545F2490C45F29A
:10456000590E00F13807C0F6000CC0F6000E87E8BF
:104570000E50002180EC030AC0E90811C0E90A11BD
:1045800080BD00007047000070470000FDF720B9B3
:1045900070B592B006AC20463021FBF79AFF00259B
:1045A00043F640000595CDE90355CDE90155009549
:1045B000C4F202000168022641F0805101600068E7
:1045C00000F080500090009847F200000095C4F27F
:1045D0000000016841F4804101600068A82100F4F6
:1045E000804000900098012006904FF480300790A2
:1045F0004FF480000D9004200E90119020460C96F0
:10460000CDE90F16FDF7ACFA20B1EFF3108072B6CA
:10461000FEE700BF0F20CDE901064FF4A050049043
:104620004FF48050059001A805210395FDF788F906
:1046300020B1EFF3108072B6FEE700BF12B070BD7C
:104640004EF68850CEF20000016841F4700101601E
:104650007047000080B541F24030C2F20000FEF722
:1046600029F841F28830C2F20000BDE88040FEF730
:1046700021B8000041F26040C2F20000FEF71AB813
:1046800010B540F6FF3E0368C4F2000E40F2004C45
:104690007045C4F2010C25DCB0F1804F2FD040F200
:1046A0000042C4F20002904229D040F60002C4F257
:1046B0000002904223D041F6FF72C4F20002904201
:1046C00027DC70453ADCB0F1804F5BD040F200420D
:1046D000C4F20002904255D040F60002C4F200023B
:1046E0004EE000BF40F60042C4F20002904206D005
:1046F000604504D00022C4F201029042DBD14A6836
:1047000023F07003134341F6FF72C4F2000290429B
:10471000D7DD43F6FF72C4F20102904220DC42F280
:104720000002C4F2000290422CD00022C4F2010226
:10473000904227D0604525D028E000BF40F60042D7
:10474000C4F2000290421DD041F60002C4F2000201
:10475000904217D041F60042C4F2000210E000BFC0
:1047600044F20002C4F2010290420BD044F600026F
:10477000C4F20102904205D044F20042C4F20102A8
:10478000904203D1CA6823F44073134323F080029C
:104790004B69D1F800E08C681A430260C46240F4AF
:1047A0008062C0F828E0624504BF09690163012105
:1047B000416110BDB0B50446006804F108030ECB9A
:1047C0000569194325F440552A4302616269E3698A
:1047D0001143C268194349F20C639A431143C16003
:1047E0004169A26921F4407141F20043114340F450
:1047F0008062C4F201039A42416103D1FDF766F978
:1048000002E000BFFDF74EF9E1694FF69C75636861
:104810001922C0F6FF75B1F5004FA0FB02011FD1B0
:104820005A00DB0FFBF73AFD48F21F51C5F2EB11BE
:10483000A0FB01235A0905F1805302FB0300322338
:1048400003EBC000A0FB01014FF4F87000EA111067
:1048500000EB0210C1F34211084421688860B0BD2A
:104860009A009B0FFBF71AFD48F21F51C5F2EB119E
:10487000A0FB01235A0902FB0500322303EB0010C1
:10488000A0FB0101F02000EA511000EB0210C1F37F
:104890004311084421688860B0BD0000FEE70000B5
:1048A00041F24021C2F200010860704780B54EF22B
:1048B000180141F24022CEF20001C2F2000251F88A
:1048C00004CC1268002302FB00FE08680AE000BF67
:1048D00003449B1A824228BF63447345104628BF95
:1048E00080BD00BF0A688242F2D10A688242EFD1DD
:1048F0000A688242ECD10A688242F3D0E8E70000FD
:104900004FF6FF77FCF772FFFFF742FEFEF7DCFC85
:10491000FEF7BEFCFEF7A6FDFEF7E0FDFEF716FE75
:10492000FEF7C2FEFEF77CFCFEF75AFFFEF7E6FF3D
:10493000FEF71AFFFEF7EEFEFEF7B6FD41F26060ED
:10494000B0EE008AB7EE009AC2F2000004215F22A6
:104950005F23B0EE480AF0EE490AB0EE491AFFF7BD
:10496000FBFD41F27C50C2F2000004215F225F2374
:10497000B0EE480AF0EE490AB0EE491AFFF7ECFD36
:1049800041F214609FEDD40ADFEDD40A9FEDD41AF2
:10499000C2F2000003215F225F23FFF7DDFD41F239
:1049A000C850DFEDD00AB6EE000AC2F200000321C3
:1049B0004FF4E1724FF4A073B0EE401AFFF7CCFD54
:1049C00040F28009C2F20009DFEDDC0A09F11800AB
:1049D000B0EE080AFEF718FC41F2A840C2F200004F
:1049E000FDF7C6FB41F26040C2F20000FDF712FC89
:1049F00041F28830C2F20000FDF70CFC41F2403079
:104A0000C2F200003C21FDF7F5FD41F21840C2F270
:104A100000003C21FDF7EEFDFEF792FFA820FFF716
:104A20003FFF4FF4FA70FCF7EBFA41F2F040C2F2AC
:104A3000000000210025FEF739F841F2D034C2F21F
:104A4000000420460021FEF731F820460421FEF73D
:104A50002DF840F22C6A40F22C58C2F2000AC2F241
:104A6000000848F2800B0020002100BF0AEB05126D
:104A7000B2F82032B2F82262B2F826423344B2F8D9
:104A8000246289B23344B2F828622344B2F82A423D
:104A90003344B2F82C622344B2F82E2233441A4431
:104AA000A2F53E62D31702EB5372D210BBB297B29B
:104AB0008F4228F8152088BF3946BB4205F1010511
:104AC00038BF1F46802D10FA82F0CFD1C009A9F857
:104AD0000400C1EBC1003844A9F80610C0F3CF03AD
:104AE0004046012140F2A462A9F80870FFF734FBA8
:104AF00008F10C0700203946A9F800B00A8831F8FF
:104B00000C3CD61AB6F5FA7F0ADC9A1AB2F5FA7F8F
:104B10002CDC01307A2801F10201EFD14AE000BF1C
:104B2000014679293DD008EB41025388D6899B1B69
:104B3000B3F5FA7F1EDC782933D09388168A9B1B45
:104B4000B3F5FA7F1ADC77292BD0D388568A9B1BC2
:104B5000B3F5FA7F16DC762923D01389928A0431C3
:104B60009A1AB2F5FA7FDCDD8A1D0EE0410889F859
:104B700000101DE0CA1D013107E000BF01F108026D
:104B8000023102E001F109020331014406314B0810
:104B9000C1F34701121A802989F8003089F80220F0
:104BA00008D100F17F01490889F8001080F07F00EA
:104BB00089F80200002000BF08EB4001B1F8F220A4
:104BC000B1F8FE30D11AB1F5FA7F00F17F0109DCAE
:104BD0009A1AB2F5FA7F37DC0629A0F10100EBD86A
:104BE00055E000BF024602F17F05072D4ADB08EBC6
:104BF0004203B3F8FC60B3F8F040361BB6F5FA7F19
:104C00002CDC12F178063DD0B3F8FA60B3F8EE4030
:104C1000361BB6F5FA7F23DC092D33D3B3F8F860E1
:104C2000B3F8EC50761BB6F5FA7F1BDC12F1760672
:104C300028D0B3F8F660B3F8EA30043AF31AB3F5C3
:104C4000FA7FD0DD7F320EE0FE30400889F80100A7
:104C500081F07F0089F8020019E000BF7E3202E097
:104C60007D3200E07C321318793303EBD3735E0896
:104C7000C3F34703801A7B38802B89F8016089F8D9
:104C8000030004D1480889F8010089F8031099F855
:104C900003000022322841F20040C4F202004FF427
:104CA00080514FF0000588BF0122FCF78DFAA9F86A
:104CB00000B000BF388837F80C1C421AB2F5FA7FF2
:104CC00012DC081AB0F5FA7F34DC01357A2D07F1D1
:104CD0000207EFD154E000BFCDCCCC3E0000000075
:104CE000C3F5A83E6F12833B284679283FD008EBD6
:104CF00040014A88CB89D21AB2F5FA7F20DC7828A5
:104D000035D08A880B8AD21AB2F5FA7F1CDC772854
:104D10002DD0CA884B8AD21AB2F5FA7F18DC7628D1
:104D200025D00A89898A0430511AB1F5FA7FDCDD71
:104D3000811D10E0680889F800001FE00000A04213
:104D4000C11D013007E000BF00F10801023002E0A0
:104D500000F109010330284406304208C0F347003F
:104D6000491B802889F8002089F8021008D105F134
:104D70007F00400889F8000085F07F0589F802501F
:104D8000002100BF08EB4100B0F8F220B0F8FE307F
:104D9000D01AB0F5FA7F01F17F0009DC9A1AB2F55A
:104DA000FA7F37DC0628A1F10101EBD858E000BFFB
:104DB0000A4602F17F07072F4ADB08EB4203B3F8EC
:104DC000FC60B3F8F050761BB6F5FA7F2CDC12F1DC
:104DD00078063DD0B3F8FA60B3F8EE50761BB6F51E
:104DE000FA7F23DC092F33D3B3F8F870B3F8EC6003
:104DF000BF1BB7F5FA7F1BDC12F1760728D0B3F89A
:104E0000F670B3F8EA30043AFB1AB3F5FA7FD0DD56
:104E10007F320EE0FE31490880F07F0089F80110F2
:104E200089F802001CE000BF7E3202E07D3200E023
:104E30007C325318793303EBD3735F08C3F3470312
:104E4000891A7B39802B89F8017089F8031007D102
:104E5000410889F80110C1B289F8030002E000BFDF
:104E600099F80310002533294FF000004FF000019E
:104E70004FF6FF77FFF4FAADFCF7ACF9D9F8141050
:104E80000025401AB0F5FA7F4FF000004FF0000106
:104E90004FF6FF77FFF4EAAD40F20001C2F20001E5
:104EA0000878B0FA80F040090870FCF793F9C9F867
:104EB00014000025002000214FF6FF77D6E5000002
:104EC00090ED0C2A80ED040A30EEC01A9FED5D0AC9
:104ED000B5EE402AF1EE10FAC0ED030A80ED071A94
:104EE00007D0B0EEC13AB4EE423AF1EE10FAC8BFC4
:104EF0007047816B032929D0042940F0858090ED0B
:104F0000062A90ED005A90ED016A31EE424A90ED8A
:104F1000053A25EE044A21EE065A32EE026A90ED79
:104F2000027A31EE466A36EE033A80ED084A80EDA9
:104F3000095A27EE033A34EE054A90ED0B5A80EDFC
:104F40000A3A34EE033A35EE033A3DE090ED014A79
:104F500090ED062A90ED095A90ED026A24EE014A7E
:104F600034EE055A31EE424A26EE044A90ED106ABC
:104F700090ED003AB8EE467A21EE033AB4EE475A85
:104F8000B0EE456A80ED083A80ED095A80ED0A4A94
:104F9000F1EE10FAC8BFB0EE476AB1EE477A04DC12
:104FA000B4EE476AF1EE10FA0ADAB4EE476AF1EEAF
:104FB00010FAB8BFB0EE476AB0EE465A80ED096A03
:104FC00033EE053A34EE033A90ED0F4A80ED0B3A9A
:104FD000B8EE444AB4EE443AF1EE10FAC8BFB0EE6F
:104FE000443AB1EE444A04DCB4EE443AF1EE10FA2D
:104FF0000CDAB4EE443AF1EE10FAB8BFB0EE443A2F
:1050000080ED0B3A02E000BF90ED062A90ED0D3ADC
:1050100080ED052A90ED0B2AB5EE403AF1EE10FA3C
:1050200080ED061A0AD0B0EEC21AB4EE431AF1EEC1
:1050300010FAA8BFB0EE420A704700BFB0EE420AB5
:10504000704700BF0000000000F1380C8CE80E0033
:1050500080EC030A70470000002180EC030AC0E9DD
:105060000811C0E90A11704721F0004201F0004325
:10507000A2F16052B2F5801F28BFD2F17F6C0BD92C
:105080005FEA001C43EAC20242EB507018BF70474F
:1050900028BF20F001007047B2F5801FBCBF184642
:1050A00070474FEA410C1CF5001F02D2084600F081
:1050B00089B970B500F0B4F800000089FFF7F6BFB9
:1050C0004FF00040A0F580007047000070B5DFF899
:1050D00048C11CEA111E1EBF1CEA13159EEA0C0FE4
:1050E00095EA0C0F00F06F8081EA03044EEAD47E4B
:1050F000AE4421EA4C1123EA4C1341F4801143F4ED
:105100008013AEF17F7EA1FB024CA0FB0365361934
:1051100055EB0C05A1FB034C4CF10003A0FB021C5A
:1051200016EB0C06654153F10003094218BF46F027
:10513000010613F4007F0BD14FEA03314FEA05302B
:1051400041EA155140EA165034036FF003020AE0B9
:105150004FEAC3214FEAC52041EA555140EA565073
:10516000F4026FF0020202EB2E4201EB025585EAD7
:10517000CE710AD05FEA440C18BF24F0004450F10D
:10518000000041F1000120EAD47040F2FE7C62454B
:1051900000D270BDA84214BF4FF080444FF040448D
:1051A000002E08BF0024BEF1806FA8BFA1F1C0414E
:1051B000BDE8704080F2828001F1C04101F0004101
:1051C0004FF0000070470CEA13159EEA0C0F18BF51
:1051D00095EA0C0F06D081EA030E4FF000000EF0A6
:1051E000004170BD00F01CF88900013E00F007B8D6
:1051F00000F009B84FEA430C5FEA5C5C08D081EA32
:10520000030100F05BB84FEA410C5FEA5C5CF6D149
:1052100002494FF0000070470000FF070000F87FD0
:105220000EF1020E2EF0030E5EF8046B364205D42A
:10523000012A43EB030515F5001F12D8012841EBA5
:10524000010C1CF5001F0CD80ED14FEAD17C0CEBE1
:105250004C0C0CF1020C15F5001F08BF4CEBD37C75
:1052600004E04FF0080C01E04FEAD37C0CEB4C0556
:1052700026FA05F606F00706B6F1040C06D20EEB88
:10528000860CBDE870404CF0010C6047DFE80CF084
:10529000090B02024FF00041A1F500214FF0000080
:1052A00070BD19461046012851EB010418BFD4F512
:1052B000001484BF002001F0004170BD0808A0F573
:1052C00000114FEA3101704743004FEAD30C4FEA17
:1052D0003C0C43401FBF40070CF1605113F0FE4FE0
:1052E00070471CF0006F03D10CF0004100207047A4
:1052F0000CF0004343EA507040EACC0010B500F0D7
:105300000EF800BF000000924FEA0001FFF7D6BF81
:105310004FF00041A1F500214FF0000070470EF161
:10532000020E2EF0030E5EF8044B244204D44FEA22
:105330004102B2F17F4F11D84FEA4003B3F17F4FE2
:105340000CD80ED14FEAD07C0CEB4C0C0CF1020CBB
:10535000B2F17F4F08BF4CEBD17C04E04FF0080C5A
:1053600001E04FEAD17C0CEB4C0324FA03F404F087
:105370000704B4F1040C06D20EEB840CBDE8104017
:105380004CF0010C6047DFE80CF0070802024FF018
:105390000040A0F5800010BD0846420018BFD2F1C1
:1053A000807288BF00F0004010BDF1EE100A4FF689
:1053B000FF71C0F2C03120EA010040F04070E1EE20
:1053C000100A7047FF2141EAD050C0057047000025
:1053D00000000000000001020304060708090000A5
:1053E000000001020304000610160006101600005B
:1053F000105400080000002020000000EC0100080C
:105400003054000820000020901C00000C0200080E
:10541000010000000000404100004041EC51B83D57
:1054200001000000100000000024F4000000000053
:040000050800018965
:00000001FF
