:020000040800F2
:10000000C00A0020ED01000885840008C96F0008BF
:100010008184000841130008E9A9000800000000DD
:100020000000000000000000000000003186000811
:1000300005140008000000005585000889860008A6
:10004000070200080702000807020008070200086C
:10005000070200080702000807020008070200085C
:1000600007020008070200080702000845130008FD
:10007000070200080702000807020008070200083C
:10008000070200080702000807020008070200082C
:10009000070200080702000807020008070200081C
:1000A000070200080702000807020008070200080C
:1000B0001987000807020008070200080702000865
:1000C00007020008070200080702000807020008EC
:1000D000070200080702000807020008D9A9000863
:1000E00007020008070200080702000807020008CC
:1000F00007020008070200080702000807020008BC
:1001000007020008070200080702000807020008AB
:1001100007020008070200087588000807020008A7
:10012000070200080702000807020008070200088B
:10013000070200080702000807020008070200087B
:10014000070200080702000807020008000000007C
:10015000000000000000000000000000000000009F
:10016000000000000000000000000000070200087E
:10017000070200080702000807020008070200083B
:10018000070200080702000807020008070200082B
:10019000070200080000000007020008070200082C
:1001A000070200080702000807020008070200080B
:1001B00007020008070200080702000807020008FB
:1001C00007020008070200080702000807020008EB
:1001D0000702000807020008DFF80CD000F068FEF4
:1001E0000048004749AB0008C00A00200648804785
:1001F00006480047FEE7FEE7FEE7FEE7FEE7FEE70C
:10020000FEE7FEE7FEE7FEE705870008D9010008E4
:100210002DE9F05F0546002092469B46884606463B
:10022000814640241BE0284641464746224600F0CE
:10023000E6F853465A46C01A914110D31146184663
:10024000224600F0CDF82D1A67EB01084F462246F2
:100250000120002100F0C4F817EB00094E41201ED8
:10026000A4F10104DFDC484631462A464346BDE896
:10027000F09FD2B201E000F8012B491EFBD270477B
:100280000022F6E710B513460A4604461946FFF762
:10029000F0FF204610BD00000FB400B58DB010A9CE
:1002A00009900B9000914FF0FF300A9000200C90C5
:1002B00005480690054807906A4609A80F9900F07E
:1002C00025FC0DB05DF814FB290B0008470B000856
:1002D0002DE9FE4F81EA030404F0004421F00041BF
:1002E00000944FF0000B23F0004350EA01045ED06D
:1002F00052EA03045BD0C3F30A54C1F30A552C44F9
:10030000A4F2F3340194A0FB0254C1F3130141F4AD
:100310008011C3F3130343F4801301FB024400FB79
:10032000034E840A970A44EA815447EA8357A4FBA0
:10033000076802958D0A05FB07854FEA932C04FB9D
:100340000C542705029D4FEA065847EA1637B5EBCD
:1003500008056EEB070C870E920E47EA811742EAFA
:100360008312A7FB0201B6EB0B0164EB00042B0D1B
:1003700043EA0C335E1844EB1C50DA465146E7FB67
:100380000201C5F313044FEA0B3343EA14534FEA57
:100390000432019C43EA0603A4F10C040294009C7D
:1003A000CDE900B400F0EFFB03B0BDE8F08F002012
:1003B0000146F9E730B50B46014600202022012412
:1003C00009E021FA02F59D4205D303FA02F5491B23
:1003D00004FA02F52844151EA2F10102F1DC30BD39
:1003E000202A04DB203A00FA02F1002070479140F5
:1003F000C2F1200320FA03F3194390407047202AEA
:1004000004DB203A21FA02F00021704721FA02F3BE
:10041000D040C2F1200291400843194670472DE9AF
:10042000FF4F1C4681B00021D4E9016791464FF08F
:10043000FF358A468846A1696D1C02988847216A63
:10044000834688470028F6D1BBF1FF3F0CD026F445
:10045000C066002F1ADD700615D5BBF12B0F0AD030
:10046000BBF12D0F0FD104E04FF0FF3005B0BDE818
:10047000F08F46F48066A1696D1C029888477F1E44
:100480008346002F02DDBBF1300F03D0B9F1000F1E
:100490002AD025E0A1696D1C46F400767F1E0298E3
:1004A00088478346002F05DDBBF1780F06D0BBF1EE
:1004B000580F03D0B9F1000F10D011E0B9F1000FBF
:1004C00002D0B9F1100F0BD1A1696D1C26F4007692
:1004D0007F1E029888478346102000E0082081464E
:1004E0004FEAE970009017E00A20F8E74346AAFBBC
:1004F000092803FB0980DDF800C07F1E0AFB0C0100
:1005000012EB0B0A41EBEB78A16946F4007605F19A
:100510000105029888478346002F06DD4946584664
:1005200000F0F5FC5FEA000BE0D5E169029888472E
:10053000B00502D46FF0010098E7F00718D17006FB
:1005400010D57005514605D50023D1EB030163EBAF
:10055000080200E042462068031D23600068C0E9ED
:10056000001205E02068011D21600068C0E900A8B4
:1005700028467BE72DE9FF5F1D464FF0FF3BD5E99D
:10058000014691465F464FF00008A9697F1C01981B
:100590008847296A824688470028F6D1BAF1FF3F8A
:1005A0000CD024F4C064002E19DD600614D5BAF115
:1005B0002B0F09D0BAF12D0F0ED103E0584604B02D
:1005C000BDE8F09F44F48064A9697F1C01988847C6
:1005D000761E8246002E02DDBAF1300F03D0B9F14B
:1005E000000F26D032E0A969761E44F400747F1C07
:1005F000019888478246002E05DDBAF1780F06D0B3
:10060000BAF1580F03D0B9F1000F10D01EE0B9F1C4
:10061000000F02D0B9F1100F18D1A969761E24F489
:1006200000747F1C019888478246102002E0082051
:1006300000E00A20814609E008FB0908A969761E46
:1006400044F400747F1C019888478246002E05DD23
:100650004946504600F05BFC0028EDDAE969019854
:100660008847A00502D46FF00100A8E7E00725D174
:10067000600613D5600502D5C8F1000000E04046D1
:1006800029680A1D2A600968220501D5087015E04D
:10069000220701D5088011E008600FE02868011DDD
:1006A00029600068210502D580F8008006E0210756
:1006B00002D5A0F8008001E0C0F8008038467EE74F
:1006C0002DE9FF5FD2E901A74FF000089169994633
:1006D0001446DDF838B0464601988847054659EA81
:1006E0000B0005D009E0A169761C019888470546F2
:1006F000216A284688470028F5D1681C03D05FEAA4
:10070000CA7005D015E04FF0FF3004B0BDE8F09F8F
:100710002068011D2160D0F800800AE05FEACA70FD
:1007200001D108F8015BA169761C7F1E01988847FA
:100730000546002F1ADD681C18D0B9F1000F0DD046
:10074000E81705EBD060421120F01F0059F8221085
:100750002A1A012090400142E0D107E0BBF1000FCE
:10076000DCD1216A284688470028D7D0E169019862
:100770008847BBF1000F07D1002E05DD5FEACA7084
:1007800002D1002188F80010A068B84203DDBBF157
:10079000000F03D017B16FF00100B6E73046B4E7A1
:1007A0002DE9FF4F087883B09946FF2805D0491CF2
:1007B0002D2804D00024002008E000200BE00124B4
:1007C000F9E700EB800003EB4000491C0B78FF2B9E
:1007D000F7D104B1404200230293147819461D4614
:1007E0002D2C01D02B2C04D1521C2D2C13D00024E5
:1007F0000294AA461478FF2C0FD00A25A3FB057893
:1008000001FB05814FF0000C03FB0C11521CE31996
:100810004AEB0101EEE70124EAE7814453EA0100D3
:1008200002D019F5C87F06DA03980021C0E900114B
:1008300007B0BDE8F08F0025AE4E2F46DFF8B88236
:10084000184600F009FDCDE90001B9F1000002DA17
:10085000C9F1000400E004460023A74A1AEB030B89
:1008600042EB045A12E0E00707D02A4633463846E6
:100870004146FFF72DFD074688462A463346104677
:100880001946FFF725FD05460E466410002CEAD1F7
:10089000DDE90001B9F1000F5A46534606DA00F0CF
:1008A00067FA3A46434600F063FA05E0FFF710FDA9
:1008B0003A464346FFF70CFD029A0AB181F0004127
:1008C000039AC2E90001B3E72DE9FF4F1F468DB03F
:1008D000D7E901464FF0FF382E2045464FF000097A
:1008E0000B90B9696D1C0E988847396A8246884713
:1008F0000028F6D1BAF1FF3F0AD024F4D064002ECC
:1009000011DDBAF12B0F08D0BAF12D0F0BD102E097
:10091000404611B08DE744F48064B9696D1C0E98AF
:1009200088478246761E6946600501D52D2000E085
:100930002B208DF8000001F1010B0DF1200809E0DA
:10094000B9696D1C0E98884782460F9844F400746C
:10095000761E0560002E02DDBAF1300FF0D00B9943
:100960008A453ED144F0800406E00F99681CA9F145
:10097000010944F400740860B9696D1C761E0E9874
:10098000884782463028F0D02BE00B998A4505D164
:10099000200603D444F08004761E18E050460AF086
:1009A00031FB08B30DF11302761EAAF1300044F4B6
:1009B0000074934506D20BF8010B200607D5A9F168
:1009C000010003E0200602D409F101008146A005E0
:1009D00002D50F99681C0860B9696D1C0E9888478C
:1009E0008246002ED1DC53E0002E51DDBAF1650FB6
:1009F00002D0BAF1450F4BD1A00549D5B9696D1C9C
:100A000024F44074761E0E9888478246002E0CDD32
:100A10002B2804D0BAF12D0F07D144F48074B969A2
:100A20006D1C0E9888478246761EE00501D52D2163
:100A300000E02B2108F8011BCDF82C8021E00DF1FE
:100A40002901761E44F4007488450CD2AAF13000C6
:100A500010F0FF0088F8000002D10B99884509D9F1
:100A600008F1010806E0E00501D5244801E042F262
:100A70000F708146B9696D1C0E98884782460F98A1
:100A80000560002E04DD50460AF0BCFA0028D6D1DD
:100A9000F9690E988847FF208BF8000088F800005D
:100AA0000020069007904B466A4608A906A8FFF763
:100AB00077FEA00502D46FF001002AE714F0240F9E
:100AC0000AD0E00714D1DDE906123868031D3B6047
:100AD0000068C0E900120BE0DDE9060100F0C8FB88
:100AE0000146E00704D13868021D3A6000680160E1
:100AF00028460EE7000014400000F03FF1D8FFFF49
:100B0000026811441378016018467047D1600449A7
:100B100051610449116200211161114600F006BAC9
:100B2000010B0008050F0008426842B1016811F886
:100B3000013B23B1521EC0E9001218467047012143
:100B4000C160881E704742685AB1C368016843B9E2
:100B500083688B4205D0491E521CC0E90012002058
:100B600070474FF0FF30704710B5141E73F100044A
:100B700008DA401C41F1000192185B411A4301D18F
:100B800020F0010010BD2DE9F04D92469B4611B1B9
:100B9000B1FA81F202E0B0FA80F220329046FFF71B
:100BA0001FFC04460F4640EA0A0041EA0B01534687
:100BB0005A46084313D0114653EA010019D0C8F130
:100BC00040025046FFF71BFC05460E46504659466C
:100BD0004246FFF705FC084305D0012004E020460B
:100BE0003946BDE8F08D0020054346EAE0762C4307
:100BF00037430A986305E40AA0EB08000022FD0AC7
:100C000044EA47540A3002D500200146E9E70105CD
:100C100010196941DDE9084500196941BDE8F04D49
:100C2000A2E72DE9FE4F804681EA0300C00F0C4683
:100C3000009021F0004123F00045B8EB0200A941EB
:100C400005D24046214690461C460B46024623F0FC
:100C50000040104347D0270DC7F30A00C3F30A51E1
:100C60000290401A019040286BDAC3F3130040F45D
:100C7000801B0098924620B10023D2EB030A63EB5D
:100C80000B0B01985946C0F140025046FFF7A8FBF4
:100C900006460D4650465946019A00F021F910EBE0
:100CA00008006141002487EA115284EAE7731A437D
:100CB00040D0009A62B3019A012A4FEA075215DC2C
:100CC000001B61EB02014FF0004202EA0752CDE93E
:100CD0000042001C41F5801132462B46FFF753FFBE
:100CE00003B0BDE8F08F40462146F9E7001B61EBF9
:100CF0000201001C41F5801300185B412018A2F589
:100D0000001747EB030140EAD570B6196D4111E0B9
:100D10006D084FEA360645EAC0754FEA0752001BD8
:100D200061EB0201001C41F5801149084FEA3000D7
:100D30000019514132462B4603B0BDE8F04FFFF792
:100D400013BF0098012240000023D0EB020263EBA6
:100D5000E073009821464FEAE074B8EB000061EBC5
:100D60000401E9E783F000435BE781F0004158E7C5
:100D70002DE9F04D81EA030404F0004B21F0004519
:100D800014464FF0000A23F0004150EA050220D03B
:100D900054EA01021DD0C5F30A570246C5F31303F6
:100DA000C1F31300C1F30A5640F4801543F48013D5
:100DB000A7EB0608101BD64608F2FD3873EB0500BA
:100DC00002D308F1010801E092185B41B8F1000F6D
:100DD00003DA00200146BDE8F08D00204FF48011B9
:100DE000064684460EE0171B73EB050705D3121B5E
:100DF00063EB050306434CEA010C49084FEA300057
:100E000092185B4150EA0107EDD152EA030012D07B
:100E100082EA040083EA0501084305D0101BAB41B8
:100E200006D20122002306E000224FF0004302E038
:100E30006FF0010253101AEB06004CEB085110EB57
:100E40000A0041EB0B01BDE8F04DFFF78DBEC1F389
:100E50000A52C1F3130140F2FF3341F480119A4268
:100E600002DA00200146704740F233439A42A2F270
:100E7000334202DC5242FFF7C2BAFFF7B1BA0000B8
:100E800030B5041E71F1000404DB4FF00044404211
:100E900064EB0101141E73F1000405DB1C464FF0E6
:100EA0000043524263EB0403994208BF904230BDB5
:100EB0001CB509480090094801900546009C06E0D1
:100EC000E06840F0010394E8070098471034AC4212
:100ED000F6D3FFF785F90000E0B7000800B8000876
:100EE000202A06DBCB17203A41FA02F043EAE073EE
:100EF00006E041FA02F3D040C2F1200291400843DB
:100F000019467047C0B24FF4F05100F0CDB93A28FD
:100F100000D2303820F02002412A01D3A2F137005C
:100F2000884201D34FF0FF30704700002DE9F34FA6
:100F30008BB04FF0000801F10C000C464FF0010B94
:100F400046460DF1080A0190626901210198904717
:100F5000051E2DD0252D2CD0216A8847C0B162698D
:100F6000012101989047216A88470028F7D1411E46
:100F700062690198904700E0761CA1690B98884748
:100F8000216A88470028F7D1E1690B988847DBE799
:100F9000A1690B9888470746A84201D1761CD3E780
:100FA000E1690B9888477F1C02D1B8F1000F6FD020
:100FB00046E1002762693D463946019890472A2854
:100FC00004D162690121019890470125DFF88492DC
:100FD0006269012101989047A0F130010A290AD2E3
:100FE0004F45E5DC07EB870100EB4107303FDFD4DD
:100FF00045F01005ECE7E90601D46FF000476C28D6
:101000000AD04C2814D0682815D06A280DD074282E
:101010001CD07A281AD01DE06269012101989047FE
:101020006C2802D045F0040514E045F002050DE0FF
:1010300045F020050AE0626901210198904768287F
:1010400002D045F0080505E045F40065626901211C
:1010500001989047C4E9015765283DD019DC58280C
:101060007AD00CDC452837D004DC252826D041284E
:1010700031D131E046282FD047282CD12CE05B28F5
:1010800077D0612828D063287CD0642823D15AE007
:10109000D0E06F2848D008DC66281DD067281BD018
:1010A000692821D06E2816D127E0702845D07328F2
:1010B00068D0752847D078280DD14DE0A1690B98EC
:1010C0008847054625283FF469AFE1690B988847B2
:1010D0006D1C3FF46AAFB3E023466A466FF001002F
:1010E0000B99FFF7F1FB9EE045F040006060A80718
:1010F00023464FF0000236D43EE0E8077FF447AFC6
:101100002068011D21600068290501D506701BE7D4
:10111000290701D5068017E7A90703D5F117C0E90C
:10112000006111E706600FE745F040006060A80726
:1011300023464FF0080216D41EE040F60E0125EAC1
:101140000100606016E045F040006060A80723469B
:101150004FF00A0207D40FE045F040006060A80796
:1011600008D5234610226FF001000B99FFF757F9BD
:1011700059E007E0234610226FF001000B99FFF7BA
:10118000F9F950E04FF000094F464B46632802D072
:101190005B2806D040E0E80601D40120A0600127CA
:1011A0003AE062690121019890475E2805D14FF02D
:1011B00001096269494601989047216939B90021BE
:1011C0000A46534643F82120491C0829FADBB0B3EC
:1011D000216969B9C11700EBD16253110AEB830190
:1011E00022F01F02821A01200B68904003430B601B
:1011F00062690121019890475D28E8D1B9F1000F9B
:1012000009D00020514651F82020D24341F8202037
:10121000401C0828F7DB02AB224600976FF0010064
:101220000B99FFF74DFA00280CDA401C08D1BBF1EE
:10123000000F05D04FF0FF300DB0BDE8F08FFFE795
:101240004046F9E7E90701D108F1010806444FF0EB
:10125000000B79E6CCCCCC0C0EB540F233420292B6
:101260000022CDE900221346FFF78DFC03B000BD3C
:1012700001F0004330B421F0004150EA010206D0F1
:101280000A0DA2F56072C1F31301002A02DC30BC22
:1012900000207047440F44EAC104C100E01830BC8C
:1012A00000EBC25000F014B87F2801D9002208E0FA
:1012B000064A02EB5002C007127800D1120902F070
:1012C0000F020120904008407047000042B700081C
:1012D0000029A8BF7047401C490008BF20F001004A
:1012E000704710B4B0FA80FC00FA0CF050EA010428
:1012F00004BF10BC704749B1CCF1200421FA04F4BA
:1013000011FA0CF118BF012121430843A3EB0C0192
:10131000CB1D4FEA00614FEA102042BF002010BCF5
:10132000704700EBC35010440029A4BF10BC7047A5
:10133000401C490008BF20F0010010BC70470000AD
:10134000FFE7FEE780B540F2A000C2F2000001F026
:1013500001FA80BD84B003900398006840F2074111
:10136000C4F20201884206D8FFE740F60000C4F24A
:101370000200009005E040F62000C4F20200009058
:10138000FFE7009802900398007808384CF6CD41AA
:10139000CCF6CC41A0FB0110000901900298039902
:1013A0004A6C22F0030210448864039940F68000DE
:1013B000C4F20200C864019800F01F0101208840B7
:1013C0000399086504B0704782B0019001980079D4
:1013D0000090009940F6FC00C4F2020000EB81008E
:1013E00001994865019940F64010C4F202008865F1
:1013F0000098013800F01F01012088400199C8655C
:1014000002B070477047000081B0EFF3108072B6F1
:101410000090FFE7FEE7000083B002904AF2004030
:10142000C4F2000000900298006846F60001C4F281
:101430000001884205D1FFE7009800F55470009044
:10144000FFE70298006846F60041C4F200018842B6
:1014500005D1FFE7009800F5D4600090FFE7009801
:101460000299086402980068D0F8800020F4F8100F
:10147000029A1168526B40EA0240C1F8800000985D
:1014800070300299486402980068D0F8800020F01B
:101490007060029A1168926B40EA0260C1F88000A5
:1014A0000098B03002998864009800F5C4700299E1
:1014B000C864009800F5187002990865009800F556
:1014C0001E700299486500980190FFE70198009905
:1014D00001F55471884208D2FFE7019900200860A5
:1014E000FFE7019804300190F0E703B07047000077
:1014F00080B5AEB02C902B9100208DF8AB002B98CE
:10150000006808B1FFE7FFE7FFE72C9890F8580064
:10151000012804D1FFE702208DF8B7005DE12C9986
:10152000012081F85800FFE7FFE700202590269072
:101530002C980068B0F1A04F06D1FFE740F20010F0
:10154000C5F200000E9015E02C98006840F20041B2
:10155000C5F20001884207D1FFE740F20050C5F212
:1015600000000E900C9003E000200E900C90FFE71E
:101570000C98FFE70E9878B9FFE72C99C86D40F0FA
:101580002000C865FFE72C99002081F85800FFE78C
:1015900001208DF8B70020E10E9806F02FF80D908D
:1015A0002C98006806F02AF8002840F00281FFE736
:1015B0000D98002840F0FD80FFE72C98016801207D
:1015C000B1F1A04F0B900CD0FFE72C9800684FF6BC
:1015D0000071CAF6FF710844B0FA80F040090B9020
:1015E000FFE70B98C10740F20070C5F20000002928
:1015F0001CBF40F20030C5F2000029902B98006813
:10160000002872D0FFE72998806820F460402B9969
:1016100049682C9A92F8382041EA423108432999C6
:1016200088602C9801680120B1F1A04F0A900CD07D
:10163000FFE72C9800684FF60071CAF6FF71084466
:10164000B0FA80F040090A90FFE70A98C10740F21B
:101650000070C5F2000000291CBF40F20030C5F246
:10166000000040F20031C5F20001884210D1FFE7CE
:101670004FF0A04005F0AAFF089040F20010C5F21C
:10168000000005F0A3FF01460898084309901BE0FD
:1016900040F20040C5F2000005F098FF069040F2CD
:1016A0000050C5F2000005F091FF0146069808437E
:1016B000079040F20060C5F2000005F087FF014688
:1016C000079808430990FFE7099868B9FFE7299848
:1016D000806840F61F7188432B9A11689268114305
:1016E000084329998860FFE762E02999886820F417
:1016F000604088602C9801680120B1F1A04F0590EE
:101700000CD0FFE72C9800684FF60071CAF6FF7105
:101710000844B0FA80F040090590FFE70598C1073A
:1017200040F20070C5F2000000291CBF40F20030FA
:10173000C5F2000040F20031C5F20001884210D12C
:10174000FFE74FF0A04005F041FF039040F200108A
:10175000C5F2000005F03AFF0146039808430490E3
:101760001BE040F20040C5F2000005F02FFF0190A1
:1017700040F20050C5F2000005F028FF0146019834
:101780000843029040F20060C5F2000005F01EFF21
:101790000146029808430490FFE7049838B9FFE730
:1017A0002999886840F61F7290438860FFE7FFE739
:1017B00008E02C99C86D40F02000C86501208DF824
:1017C000AB00FFE7FFE72C99002081F85800FFE706
:1017D0009DF8AB008DF8B700FFE79DF8B7002EB07D
:1017E00080BD000080B5C4B02490239100208DF806
:1017F0008B001F902398C0680021C4F27F018842AB
:1018000001D0FFE700E0FFE7FFE7249890F85800D9
:10181000012805D1FFE702208DF8970000F059BCA0
:101820002499012081F85800FFE7FFE72498006819
:1018300005F0DCFE002840F03884FFE724980068BB
:1018400023990A68496805F0E1FE2498006805F0CC
:10185000CDFE1E902498006805F0A0FE1D901E98F5
:10186000002840F0B881FFE71D98002840F0B381C0
:10187000FFE723988068B0F1004F0ED1FFE724986E
:10188000006823990968002205F0DEFE24980068AC
:101890004FF0004105F084FF0CE024980068239A83
:1018A0001168926805F0D0FE24980068002105F0C8
:1018B00077FFFFE72398406924990968C96801F018
:1018C00018018908884021902398006904281CD0B9
:1018D000FFE72498006823990A680969219B05F0AD
:1018E00005FF24980068239A1169926905F030FF7A
:1018F00024980068239A1169127F013AB2FA82F2A1
:101900005209520605F010FF64E124980068002196
:1019100005F034FE400348B9FFE724980068002131
:1019200005F02CFEC0F384601C9018E02498006839
:10193000002105F023FE90FAA0F04290429820B9D1
:10194000FFE720208DF80F0105E04298B0FA80F003
:101950008DF80F01FFE79DF80F011C90FFE71C9821
:101960001B9023980068400330B9FFE72398006874
:10197000C0F384601A9015E02398006890FAA0F0F4
:101980004090409820B9FFE720208DF8070105E03E
:101990004098B0FA80F08DF80701FFE79DF8070145
:1019A0001A90FFE71B981A99884207D1FFE72498FD
:1019B00000680022114605F0DFFEFFE7249800686A
:1019C000012105F0DBFD400348B9FFE724980068DA
:1019D000012105F0D3FDC0F38460199018E024982C
:1019E0000068012105F0CAFD90FAA0F03E903E98F3
:1019F00020B9FFE720208DF8FF0005E03E98B0FAFF
:101A000080F08DF8FF00FFE79DF8FF001990FFE7D9
:101A10001998189023980068400330B9FFE723987D
:101A20000068C0F38460179015E02398006890FA6E
:101A3000A0F03C903C9820B9FFE720208DF8F700FB
:101A400005E03C98B0FA80F08DF8F700FFE79DF8CC
:101A5000F7001790FFE718981799884207D1FFE71A
:101A6000249800680121002205F086FEFFE72498F3
:101A70000068022105F082FD400348B9FFE7249881
:101A80000068022105F07AFDC0F38460169018E02A
:101A900024980068022105F071FD90FAA0F03A90B8
:101AA0003A9820B9FFE720208DF8EF0005E03A983A
:101AB000B0FA80F08DF8EF00FFE79DF8EF00169088
:101AC000FFE71698159023980068400330B9FFE7A8
:101AD00023980068C0F38460149015E02398006890
:101AE00090FAA0F03890389820B9FFE720208DF8C0
:101AF000E70005E03898B0FA80F08DF8E700FFE7DE
:101B00009DF8E7001490FFE715981499884207D1D3
:101B1000FFE7249800680221002205F02DFEFFE770
:101B200024980068032105F029FD400348B9FFE728
:101B300024980068032105F021FDC0F38460139010
:101B400018E024980068032105F018FD90FAA0F031
:101B50003690369820B9FFE720208DF8DF0005E0A9
:101B60003698B0FA80F08DF8DF00FFE79DF8DF00CF
:101B70001390FFE71398129023980068400330B940
:101B8000FFE723980068C0F38460119015E0239864
:101B9000006890FAA0F03490349820B9FFE7202034
:101BA0008DF8D70005E03498B0FA80F08DF8D700B2
:101BB000FFE79DF8D7001190FFE71298119988422E
:101BC00007D1FFE7249800680321002205F0D4FD27
:101BD000FFE7FFE7FFE72498006805F0EFFC002827
:101BE00040F04481FFE724980068239A1168D26886
:101BF00005F046FD2398C0680021C4F27F018842A9
:101C000040F03381FFE72498006810902398006823
:101C1000400330B9FFE723980068C0F384600F9059
:101C200015E02398006890FAA0F03290329820B91D
:101C3000FFE720208DF8CF0005E03298B0FA80F061
:101C40008DF8CF00FFE79DF8CF000F90FFE70F98CA
:101C5000013000F01F0009287DD8FFE723980068B5
:101C6000400330B9FFE723980068C0F384600E900A
:101C700015E02398006890FAA0F03090309820B9D1
:101C8000FFE720208DF8C70005E03098B0FA80F01B
:101C90008DF8C700FFE79DF8C7000E90FFE70E988C
:101CA000013000F01F0080060D902398006840036B
:101CB00030B9FFE723980068C0F384600C9015E00A
:101CC0002398006890FAA0F02E902E9820B9FFE794
:101CD00020208DF8BF0005E02E98B0FA80F08DF836
:101CE000BF00FFE79DF8BF000C90FFE70D980C992F
:101CF000013101F01F020121914008430B9023980C
:101D00000068400330B9FFE723980068C0F384609F
:101D10000A9015E02398006890FAA0F02C902C9877
:101D200020B9FFE720208DF8B70005E02C98B0FA25
:101D300080F08DF8B700FFE79DF8B7000A90FFE745
:101D40000B980A99013101F01F0101EB410140EAB2
:101D50000150099082E023980068400330B9FFE702
:101D600023980068C0F38460089015E02398006809
:101D700090FAA0F02A902A9820B9FFE720208DF849
:101D8000AF0005E02A98B0FA80F08DF8AF00FFE7C9
:101D90009DF8AF000890FFE70898013000F01F00A1
:101DA0008006079023980068400330B9FFE7239826
:101DB0000068C0F38460069015E02398006890FAEC
:101DC000A0F02890289820B9FFE720208DF8A700E0
:101DD00005E02898B0FA80F08DF8A700FFE79DF89D
:101DE000A7000690FFE707980699013101F01F024E
:101DF000012191400843059023980068400330B9C1
:101E0000FFE723980068C0F38460049015E02398EE
:101E1000006890FAA0F02690269820B9FFE72020CD
:101E20008DF89F0005E02698B0FA80F08DF89F00AD
:101E3000FFE79DF89F000490FFE7059904980130A3
:101E400000F01F0000EB40020020CFF6206000EB06
:101E50000250084340F000700990FFE7109809997C
:101E6000239A926805F0F0FBFFE7FFE7239840888C
:101E700048F20801084200F01781FFE72498016842
:101E80000120B1F1A04F03900CD0FFE72498006827
:101E90004FF60071CAF6FF710844B0FA80F04009AD
:101EA0000390FFE70398C10740F20070C5F20000FD
:101EB00000291CBF40F20030C5F2000005F056FBBF
:101EC00020902398006840F20001CCF22131884232
:101ED00008D0FFE7239800681021C9F2C0018842AA
:101EE0005AD1FFE79DF882000006002854D4FFE78E
:101EF00024980068B0F1A04F09D0FFE7249800684B
:101F000040F20061C5F20001884244D1FFE7249805
:101F100001680120B1F1A04F02900CD0FFE7249896
:101F200000684FF60071CAF6FF710844B0FA80F0FD
:101F300040090290FFE70298C10740F20070C5F225
:101F4000000000291CBF40F20030C5F200002099BB
:101F500041F4000105F0BCFB40F20400C2F20000B5
:101F600000684FEA901042F66351C0F23E51A0FB68
:101F700001104FEA901000EB40014FF00C0000EB15
:101F800081001F90FFE71F9820B1FFE71F980138DD
:101F90001F90F8E7FFE786E0239800680021CCF265
:101FA000527188423ED1FFE79DF88300C007C8BB4D
:101FB000FFE72498006840F20011C5F20001884252
:101FC00009D1FFE72498006840F20051C5F20001F2
:101FD000884226D0FFE7249801680120B1F1A04F84
:101FE00001900CD0FFE7249800684FF60071CAF604
:101FF000FF710844B0FA80F040090190FFE70198B2
:10200000C10740F20070C5F2000000291CBF40F279
:102010000030C5F20000209941F0807105F058FBB6
:10202000FFE73FE0239800680021CCF68431884226
:1020300036D1FFE79DF882004006002830D4FFE744
:102040002498006840F20011C5F20001884226D0B1
:10205000FFE7249801680120B1F1A04F00900CD057
:10206000FFE7249800684FF60071CAF6FF71084434
:10207000B0FA80F040090090FFE70098C10740F2F5
:102080000070C5F2000000291CBF40F20030C5F20C
:102090000000209941F4800105F01AFBFFE700E001
:1020A000FFE7FFE7FFE7FFE708E02499C86D40F08E
:1020B0002000C86501208DF88B00FFE7FFE7249919
:1020C000002081F85800FFE79DF88B008DF89700FD
:1020D000FFE79DF8970044B080BD000080B58EB04A
:1020E0000C9000208DF82F0007900C9820B9FFE786
:1020F00001208DF83700DCE10C98406940B1FFE722
:102100000C9890F82400012801D1FFE7FFE7FFE7D2
:102110000C98C06D50B9FFE70C9800F0CFF90C99FE
:10212000002008660C9981F85800FFE70C980068B9
:1021300005F03CFA28B1FFE70C98006805F0FAF9C1
:10214000FFE70C98006805F049FAF0B9FFE70C9832
:10215000006805F0FBF940F20400C2F200000068DC
:10216000800942F66351C0F23E51A0FB0110810983
:10217000022000EB41000790FFE7079820B1FFE73E
:10218000079801380790F8E7FFE70C98006805F01A
:1021900025FA70B9FFE70C99C86D40F01000C865CA
:1021A0000C99086E40F00100086601208DF82F00A0
:1021B000FFE70C98006805F019FA09900C98C06DBB
:1021C000C006002800F16781FFE70998002840F069
:1021D0006281FFE70C98C06D40F0020020F480702F
:1021E0000C99C8650C98006805F0E8F900287CD1C6
:1021F000FFE70C9801680120B1F1A04F06900CD0C8
:10220000FFE70C9800684FF60071CAF6FF710844AA
:10221000B0FA80F040090690FFE70698C10740F247
:102220000070C5F2000000291CBF40F20030C5F26A
:10223000000040F20031C5F20001884210D1FFE7F2
:102240004FF0A04005F0BAF9049040F20010C5F23A
:10225000000005F0B3F901460498084305901BE01F
:1022600040F20040C5F2000005F0A8F9029040F2EB
:102270000050C5F2000005F0A1F90146029808439C
:10228000039040F20060C5F2000005F097F90146A6
:10229000039808430590FFE7059828BBFFE70C98D3
:1022A00001680120B1F1A04F01900CD0FFE70C981C
:1022B00000684FF60071CAF6FF710844B0FA80F06A
:1022C00040090190FFE70198C10740F20070C5F294
:1022D000000000291CBF40F20030C5F200000C993C
:1022E000496805F0E7F9FFE7FFE70C994A7FC86BFB
:1022F00040EA42308A68CB681843104391F82410B2
:1023000040EA01400A900C9890F8240001280BD173
:10231000FFE70C98816A0020CFF6FE7000EB414188
:102320000A9808430A90FFE70C98C06A50B1FFE78B
:102330000C99C86A096B00F4787001430A98084345
:102340000A90FFE70C980068C06844F20701CFF6D6
:10235000F07108400A9908430C990968C8600C9804
:102360000068006920F040600C9A1168526B1043BD
:1023700008610C98006805F011F908900998002888
:1023800068D1FFE70898002864D1FFE70C99087F1F
:1023900091F83810800340EA41000A900C980068D8
:1023A000C06844F2020188430A9908430C990968FD
:1023B000C8600C980069A0B1FFE70C980168086933
:1023C00040F4803008610C980068D0F8C00043F6F3
:1023D000FF7188430C9A116812691043C1F8C0005C
:1023E00011E00C980168086920F4803008610C98AD
:1023F0000068D0F8C00043F6FF7188430C99096863
:10240000C1F8C000FFE70C9890F84000012819D1EE
:10241000FFE70C980068006940F2FD7120EA0102B4
:102420000C9B1968586CD3F848E0D3F84CC040EACC
:102430000E0040EA0C001B6D1843104340F00100F1
:10244000086106E00C980168086920F00100086145
:10245000FFE7FFE70C98406901280CD1FFE70C98D3
:102460000068006B20F00F000C9A1168126A013AA4
:102470001043086306E00C980168086B20F00F0019
:102480000863FFE70C98C06D40F0010020F00200E7
:102490000C99C86508E00C99C86D40F01000C8653B
:1024A00001208DF82F00FFE79DF82F008DF83700F1
:1024B000FFE79DF837000EB080BD000080B5A2B0E8
:1024C0002190002020901F901E901D901C9007A826
:1024D0005421FDF7D5FE2198006840F20041C5F275
:1024E0000001884240F08480FFE74FF4803007907D
:1024F0004FF00040199007A801F0B6FA18B1FFE7B5
:10250000FEF782FFFFE7FFE741F24C00C4F2020052
:10251000016841F480410160006800F48040069049
:102520000698FFE7FFE741F24C00C4F202000168A1
:1025300041F002010160006800F00200059005987A
:10254000FFE7FFE741F24C00C4F20200016841F0EE
:1025500010010160006800F0100004900498FFE78B
:1025600002201C90032000901D90002002901E90DD
:1025700040F20040C4F600001CA9019100F020FCCC
:10258000009A019902984FF400731C931D921E90BB
:1025900041F20000C4F6000000F012FC029940F283
:1025A000A000C2F2000003900822C4F202020260FE
:1025B000252242608160C160802202614FF48072F6
:1025C00042614FF480628261C161016200F06EF984
:1025D00018B1FFE7FEF718FFFFE7FFE7219840F289
:1025E000A001C2F20001416521988862FFE7FFE780
:1025F00022B080BD82B0019000208DF803000198C8
:1026000090F82500022807D0FFE701990420C8634D
:1026100001208DF803002DE001980168086820F082
:102620000E0008600198816C086820F480700860D2
:1026300001980168086820F0010008600198016CA9
:10264000406C00F01F020120904048600198C16C6E
:10265000006D48600198406D58B1FFE70198416DE9
:10266000086820F4807008600198816DC06D486032
:10267000FFE7FFE70199012081F82500FFE70199B5
:10268000002081F82400FFE79DF8030002B07047A6
:1026900080B582B0019000208DF80300019890F879
:1026A0002500022811D0FFE701990420C863019991
:1026B000012081F82500FFE70199002081F824001E
:1026C000FFE701208DF803003FE0019801680868EA
:1026D00020F00E00086001980168086820F00100F1
:1026E00008600198816C086820F480700860019887
:1026F000016C406C00F01F0201209040486001987E
:10270000C16C006D48600198406D58B1FFE70198B9
:10271000416D086820F4807008600198816DC06D7B
:102720004860FFE70199012081F82500FFE7019942
:10273000002081F82400FFE70198806B20B1FFE7BB
:102740000198816B8847FFE7FFE79DF8030002B01F
:1027500080BD000080B584B003900398006C0068D1
:102760000290039800680068019002980399496CF0
:1027700001F01F01C8404007002825D5FFE79DF85C
:102780000400400700281FD5FFE703980068006891
:102790008006002807D4FFE703980168086820F046
:1027A00004000860FFE70398016C406C00F01F0212
:1027B0000420904048600398006B20B1FFE7039825
:1027C000016B8847FFE76EE002980399496C01F0BE
:1027D0001F01C840800700282FD5FFE79DF804009F
:1027E0008007002829D5FFE7039800680068800665
:1027F00000280BD4FFE703980168086820F00A005E
:1028000008600399012081F82500FFE70398016C17
:10281000406C00F01F02022090404860FFE70399DF
:10282000002081F82400FFE70398C06A20B1FFE789
:102830000398C16A8847FFE734E002980399496C1E
:1028400001F01F01C8400007002829D5FFE79DF8C7
:1028500004000007002823D5FFE7039801680868F3
:1028600020F00E0008600398026C406C00F01F011D
:10287000012000FA01F151600399C863039981F8BE
:102880002500FFE70399002081F82400FFE7039863
:10289000406B20B1FFE70398416B8847FFE700E0FA
:1028A000FFE7FFE7FFE704B080BD000080B584B01C
:1028B0000290029820B9FFE701208DF80F009CE0FC
:1028C0000298006840F20741C4F20201884218D819
:1028D000FFE7029908684FF6F872CBF6FD721044D4
:1028E0004CF6CD42CCF6CC42A0FB02026FF00300C6
:1028F00000EA9200486402990020C4F202000864D1
:1029000018E0029908684FF6F832CBF6FD721044D1
:102910004CF6CD42CCF6CC42A0FB02026FF0030095
:1029200000EA92004864029940F20040C4F20200BA
:102930000864FFE70299022081F8250002980068E8
:1029400000680190019847F6F07188430190029960
:102950008868D1F80CC00B694A6940EA0C0018433A
:1029600010438A691043CA691043096A01430198F8
:102970000843019001980299096808600298FEF7DF
:10298000E9FC02988068B0F5804F04D1FFE7029916
:1029900000204860FFE702990879896C0860029876
:1029A000C16C006D48600298406888B1FFE70298EA
:1029B000406804280CD8FFE70298FEF705FD02984E
:1029C000416D002008600298816DC06D486007E08D
:1029D000029900204865029988650299C865FFE759
:1029E00002990020C863029A012182F825100299F9
:1029F00081F824008DF80F00FFE79DF80F0004B068
:102A000080BD000080B584B0039000F0A3FB02906D
:102A1000039801900198013048B1FFE740F20800A7
:102A2000C2F200000168019808440190FFE7FFE747
:102A300000F090FB0299401A0199884201D2FFE709
:102A4000F6E704B080BD000080B584B00290029823
:102A500020B9FFE701208DF80F0057E102980068C8
:102A600046F20041C4F20001884201D1FFE7FFE7CE
:102A700002988068B0F5407F01D1FFE7FFE7029838
:102A800090F85C0040B9FFE70299002081F85D00F2
:102A9000029800F03FF9FFE702980168886920F08A
:102AA0001000886100F056FB0190FFE70298006873
:102AB00080690007002815D5FFE700F04BFB01995E
:102AC000401A0B280DD3FFE70299086E40F0010071
:102AD00008660299032081F85C0001208DF80F0040
:102AE00014E1E3E702980168886940F00100886119
:102AF00000F030FB0190FFE7029800688069C00792
:102B0000A8B9FFE700F026FB0199401A0B280DD366
:102B1000FFE70299086E40F0010008660299032061
:102B200081F85C0001208DF80F00EFE0E4E70298E7
:102B30000168886940F0020088610298006846F2E6
:102B40000041C4F20001884208D1FFE702984068C2
:102B500046F20051C4F200010860FFE70298007CD1
:102B6000012807D1FFE702980168886920F040003A
:102B7000886106E002980168886940F04000886139
:102B8000FFE70298407C012807D1FFE7029801681F
:102B9000886940F48040886106E00298016888698D
:102BA00020F480408861FFE70298807C012807D1EB
:102BB000FFE702980168886920F48050886106E088
:102BC00002980168886940F480508861FFE70298A4
:102BD0000068806920F44070029A1168926810437E
:102BE000886102980168886920F0A40088610298D1
:102BF0000168086920F0100008610298C068012887
:102C000007D1FFE702980168886940F004008861F5
:102C10002BE00298C06830B3FFE70298C068022832
:102C200019D0FFE702980168886940F08000886148
:102C300002980168086940F0100008610298C068B5
:102C4000032807D1FFE702980168886940F0200057
:102C50008861FFE706E002980168886940F020007B
:102C60008861FFE700E0FFE7FFE7029A1168536918
:102C70009069D2F81CE0A0F1010C6FF0FF0000EBAE
:102C80000E2040EA4C60126A013A10430022CFF64F
:102C9000FF7202EB03421043C86102988068B0F5EE
:102CA000407F1CD1FFE7029A1168536A906AD2F8FC
:102CB0002CE001386FF0FF0C0CEB0E2C40EA0C00FE
:102CC000D2F830C06FF00F0202EB0C12104300225A
:102CD000CFF6FF7202EB03421043C860FFE7029891
:102CE0000168C26BD1F8C0001043C1F8C00002985F
:102CF000FEF792FB02990020886502990866029A05
:102D0000012182F85C108DF80F00FFE79DF80F009D
:102D100004B080BD80B59EB01D9000201C901B901B
:102D20001A901990189003A85421FDF7A9FA1D983C
:102D3000006846F60001C4F2000188423ED1FFE778
:102D40004FF4805003904FF00070119003A800F0F2
:102D50008BFE18B1FFE7FEF757FBFFE7FFE741F2F5
:102D60005800C4F20200016841F00071016000687F
:102D700000F0007002900298FFE7FFE741F24C007C
:102D8000C4F20200016841F002010160006800F035
:102D9000020001900198FFE74FF440501890022084
:102DA000199000201A901B9009201C9040F20040BE
:102DB000C4F6000018A900F003F8FFE71EB080BDBC
:102DC0008BB00A90099100200890FFE709980068ED
:102DD0000899C840002800F0A581FFE7099800681D
:102DE000089A01219140084007900798002800F0B8
:102DF0009581FFE70998406800F00300012807D09B
:102E0000FFE70998406800F0030002282FD1FFE790
:102E10000A988068069008984100032000FA01F1A2
:102E20000698884306900998C0680899490000FAF6
:102E300001F106980843069006980A9988600A9856
:102E4000406806900899012000FA01F1069888432D
:102E5000069009984068C0F30010089900FA01F143
:102E600006980843069006980A994860FFE7099873
:102E7000406800F00300032818D0FFE70A98C068F4
:102E8000069008984100032000FA01F10698884353
:102E90000690099880680899490000FA01F106989F
:102EA0000843069006980A99C860FFE709984068A9
:102EB00000F00300022826D1FFE70A9808996FF076
:102EC000030202EA51010844006A0690089800F0E3
:102ED000070081000F2000FA01F106988843069050
:102EE00009980069089901F00701890000FA01F1C9
:102EF00006980843069006980A99089B02EA53022E
:102F000011440862FFE70A9800680690089841009B
:102F1000032000FA01F1069888430690099840685A
:102F200000F003000899490000FA01F106980843EF
:102F3000069006980A990860099880798007002809
:102F400000F0EB80FFE7FFE741F26000C4F202000F
:102F5000016841F001010160006800F00100059086
:102F60000598FFE7089820F003000821C4F201014A
:102F700040580690089800F0030081000F2000FAE6
:102F800001F10698884306900A98B0F1904F03D15A
:102F9000FFE70020049042E00A9840F20041C4F6A6
:102FA0000001884203D1FFE70120039034E00A9832
:102FB00040F60001C4F60001884203D1FFE7022079
:102FC000029026E00A9840F60041C4F600018842CB
:102FD00003D1FFE70320019018E00A9841F20001B5
:102FE000C4F60001884203D1FFE7042000900AE004
:102FF0000A9941F20042C4F600020620914208BF3D
:1030000005200090FFE700980190FFE701980290EB
:10301000FFE702980390FFE703980490FFE7049806
:10302000089901F00301890000FA01F106980843AC
:1030300006900698089921F003010822C4F20102C3
:10304000885040F20840C4F20100006806900799D9
:1030500006988843069009988079C006002805D50F
:10306000FFE70799069808430690FFE7069840F2A5
:103070000841C4F20101086040F20C40C4F20100B2
:103080000068069007990698884306900998807909
:103090008006002805D5FFE70799069808430690A3
:1030A000FFE7069840F20C41C4F20101086040F2CB
:1030B0000440C4F20100006806900799069888430E
:1030C0000690099880798007002805D5FFE70799C1
:1030D000069808430690FFE7069840F20441C4F2C0
:1030E0000101086040F20040C4F20100006806904F
:1030F000079906988843069009988079C00728B1F7
:10310000FFE70799069808430690FFE7069840F204
:103110000041C4F201010860FFE7FFE708980130B1
:10312000089053E60BB0704782B00190ADF80210E2
:103130008DF801209DF8010028B1FFE7BDF80200DD
:103140000199886104E0BDF8020001998862FFE7F7
:1031500002B0704740F2BC60C2F2000000687047E5
:1031600083B001900091019890F8410020283BD154
:10317000FFE7FFE7019890F84000012804D1FFE73E
:1031800002208DF80B0033E00199012081F8400006
:10319000FFE7FFE70199242081F8410001980168C9
:1031A000086820F00100086001980168086820F4B0
:1031B00080500860009A0198016808681043086010
:1031C00001980168086840F001000860019920201A
:1031D00081F84100FFE70199002081F84000FFE7F6
:1031E00000208DF80B0003E002208DF80B00FFE7B4
:1031F0009DF80B0003B0704784B0029001910298D3
:1032000090F84100202840D1FFE7FFE7029890F8AE
:103210004000012804D1FFE702208DF80F0038E0BC
:103220000299012081F84000FFE7FFE7029924207E
:1032300081F8410002980168086820F001000860E8
:103240000298006800680090009820F47060009078
:103250000199009840EA01200090009802990968BD
:10326000086002980168086840F00100086002994F
:10327000202081F84100FFE70299002081F84000FA
:10328000FFE700208DF80F0003E002208DF80F000B
:10329000FFE79DF80F0004B07047000080B582B0D2
:1032A0000090009820B9FFE701208DF807007BE02F
:1032B000009890F8410040B9FFE70099002081F89C
:1032C0004000009800F0AEF9FFE70099242081F853
:1032D000410000980168086820F00100086000982B
:1032E0000168406820F07060086100980168886893
:1032F00020F4004088600098C068012807D1FFE7EB
:1033000000980168806840F40040886006E00098FA
:103310000168806840F404408860FFE70098C06856
:10332000022807D1FFE700980168486840F4006070
:10333000486006E000980168486820F40060486032
:10334000FFE700980168486848F20002C0F20022D6
:103350001043486000980168C86820F40040C860C5
:10336000009A1168106953699269184340EA022073
:10337000C860009A1168D069126A1043086000980A
:103380000168086840F00100086000990020486466
:10339000009A202182F8411000990863009981F871
:1033A00042008DF80700FFE79DF8070002B080BDDE
:1033B00010B588B084460C980B98DDF828E0CDF85D
:1033C00018C0ADF81610ADF81420ADF81230ADF8F5
:1033D0001000069890F84100202840F01B81FFE77C
:1033E0000A9820B1FFE7BDF8100040B9FFE7069941
:1033F0004FF40070486401208DF81F000EE1FFE7D4
:10340000069890F84000012804D1FFE702208DF8CB
:103410001F0003E10699012081F84000FFE7FFE764
:10342000FFF798FE0390069803996A4611604FF4DF
:1034300000410122192303F073FF20B1FFE70120AF
:103440008DF81F00EAE00699212081F841000699D5
:10345000402081F842000699002048640A99069AA3
:103460005162BDF81010069A518506994863069876
:10347000BDF81610BDF81420BDF81230DDF830C0CC
:10348000039CEE46CEF80440CEF800C003F0BEFE2A
:1034900050B1FFE7FFE70699002081F84000FFE701
:1034A00001208DF81F00B9E00698408DB0F5807FAF
:1034B00011D3FFE70699FF2008850698BDF816107E
:1034C00090F82820EC460023CCF800304FF08073B1
:1034D00003F0FCFE11E00698408D069908850698D9
:1034E000BDF8161090F82820EC460023CCF80030E8
:1034F0004FF0007303F0EAFEFFE7FFE706980C9930
:10350000039A03F0C1FF20B1FFE701208DF81F00EF
:1035100084E006980168406A007888620699486AE3
:10352000013048620699488D013848850699088D12
:10353000013808850698408DE8B3FFE70698008DAE
:10354000C8BBFFE706980C9B03996A46116080216F
:10355000002203F0E5FE20B1FFE701208DF81F00F7
:103560005CE00698408DB0F5807F11D3FFE70699A7
:10357000FF2008850698BDF8161090F82820EC4624
:103580000023CCF800304FF0807303F09FFE11E071
:103590000698408D069908850698BDF8161090F893
:1035A0002820EC460023CCF800304FF0007303F0E5
:1035B0008DFEFFE7FFE7FFE70698408D00289DD1CD
:1035C000FFE706980C99039A03F00CFF20B1FFE780
:1035D00001208DF81F0021E0069801682020C861B5
:1035E00006990A6851684EF60003CFF60063194049
:1035F0005160069981F841000699002081F8420047
:10360000FFE70699002081F84000FFE700208DF8D1
:103610001F0003E002208DF81F00FFE79DF81F0048
:1036200008B010BD80B5A4B0239000202290219056
:1036300020901F901E9009A85421FCF721FE23988A
:10364000006845F20041C4F2000188426DD1FFE7F5
:10365000402009900020109009A800F005FA18B148
:10366000FFE7FDF7D1FEFFE7FFE741F24C00C4F2B0
:103670000200016841F001010160006800F00100F2
:1036800008900898FFE7FFE741F24C00C4F20200FF
:10369000016841F002010160006800F0020007903B
:1036A0000798FFE74FF400401E90122001901F90F2
:1036B000002002902090022003902190042004908A
:1036C00022904FF090401EA90591FFF779FBDDF89D
:1036D00004C0029B039A049805994FF0800ECDF820
:1036E00078E0CDF87CC020932192229040F20040F7
:1036F000C4F60000FFF764FBFFE70421C4F20101F8
:10370000086840F400300860FFE7FFE741F2580026
:10371000C4F20200016841F400110160006800F485
:10372000001006900698FFE7FFE724B080BD000078
:1037300040F20800C2F20000026840F2BC61C2F22E
:1037400000010868104408607047000080B582B02E
:1037500000208DF80700032000F09AF80F2000F0F9
:103760000DF820B1FFE701208DF8070002E000F01E
:1037700049F8FFE79DF8070002B080BD80B582B030
:10378000019000208DF8030040F20800C2F2000012
:10379000006878B3FFE740F20400C2F2000000685E
:1037A00040F20801C2F200010A684FF47A71B1FBDD
:1037B000F2F1B0FBF1F001F0EFFAB0B9FFE70198D8
:1037C0000F280DD8FFE701994FF0FF30002200F0DD
:1037D00047F8019840F20C01C2F20001086003E0D2
:1037E00001208DF80300FFE703E001208DF80300BE
:1037F000FFE703E001208DF80300FFE79DF80300D9
:1038000002B080BD80B582B0FFE741F26000C4F233
:103810000200016841F001010160006800F0010050
:1038200001900198FFE7FFE741F25800C4F202005F
:10383000016841F080510160006800F08050009004
:103840000098FFE700F006F902B080BD80B582B0B5
:103850008DF807009DF9070007F0C8F802B080BD99
:1038600080B586B08DF817000491039207F0D6F862
:1038700002909DF91700019002980499039A04F0B0
:1038800003FE0146019807F0D1F806B080BD0000A4
:1038900080B582B00190019807F0EAF802B080BDCF
:1038A00085B00390039800285ED1FFE747F200003F
:1038B000C4F20000006800F4C060B0F5806F49D128
:1038C000FFE747F28001C4F20001086820F480702D
:1038D000086047F20002C4F200021168012060F3A0
:1038E0004A21116040F20401C2F20001096832224B
:1038F00051434DF68362C4F21B32A1FB022100EB5F
:1039000091400290FFE747F21400C4F20000016802
:10391000002049050029019006D5FFE702980028FC
:1039200018BF01200190FFE70198C00720B1FFE711
:10393000029801380290E6E747F21400C4F2000052
:1039400000684005002804D5FFE703208DF8130028
:103950007CE008E047F28001C4F20001086820F42E
:1039600080700860FFE76DE00398B0F5007F5ED1DE
:10397000FFE747F20000C4F20000006800F4C060F6
:10398000B0F5806F49D1FFE747F28001C4F2000132
:10399000086840F48070086047F20002C4F2000238
:1039A0001168012060F34A21116040F20401C2F263
:1039B00000010968322251434DF68362C4F21B3282
:1039C000A1FB022100EB91400290FFE747F21400B7
:1039D000C4F200000168002049050029009006D5C6
:1039E000FFE70298002818BF01200090FFE7009829
:1039F000C00720B1FFE7029801380290E6E747F2DE
:103A00001400C4F2000000684005002804D5FFE758
:103A100003208DF8130019E008E047F28001C4F29A
:103A20000001086840F480700860FFE709E047F291
:103A30000001C4F200010868022262F34A20086013
:103A4000FFE7FFE700208DF81300FFE79DF8130064
:103A500005B0704747F20801C4F20001086840F45D
:103A6000804008607047000080B586B00590002057
:103A70008DF80B008DF80A00059880780007002863
:103A800040F1B580FFE700208DF8090041F25800B1
:103A9000C4F202000068C000002813D4FFE7FFE76B
:103AA00041F25800C4F20200016841F08051016007
:103AB000006800F0805001900198FFE701208DF828
:103AC0000900FFE747F20001C4F20001086840F472
:103AD00080700860FFF73EFB0390FFE747F20000AD
:103AE000C4F200000068C00500280CD4FFE7FFF70F
:103AF00031FB0399401A032804D3FFE703208DF814
:103B00000B0000E0EAE79DF80B0000285BD1FFE71F
:103B100041F29000C4F20200006800F4407004908A
:103B20000498C8B1FFE704980599096D884213D03D
:103B3000FFE741F29001C4F20201086820F44070EE
:103B40000490086840F480300860086820F48030F1
:103B5000086004980860FFE79DF81000C007E0B116
:103B6000FFE7FFF7F7FA0390FFE741F29000C4F296
:103B700002000068800700280ED4FFE7FFF7EAFA8A
:103B80000399401A41F28931884204D3FFE70320A8
:103B90008DF80B0000E0E8E7FFE79DF80B0060B947
:103BA000FFE741F29001C4F20201086820F440707E
:103BB000059A126D1043086004E09DF80B008DF823
:103BC0000A00FFE704E09DF80B008DF80A00FFE70C
:103BD0009DF80900012809D1FFE741F25801C4F21C
:103BE0000201086820F080500860FFE7FFE70598B1
:103BF0000078C00760B1FFE741F28801C4F202011A
:103C0000086820F00300059A526810430860FFE737
:103C100005980078800700280CD5FFE741F288015D
:103C2000C4F20201086820F00C00059A9268104363
:103C30000860FFE705980078400700280CD5FFE7EB
:103C400041F28801C4F20201086820F03000059AB0
:103C5000D26810430860FFE7059800780007002845
:103C60000CD5FFE741F28801C4F20201086820F098
:103C7000C000059A126910430860FFE705980078B4
:103C8000C00600280CD5FFE741F28801C4F202010A
:103C9000086820F44070059A526910430860FFE7F5
:103CA00005980078800600280CD5FFE741F28801CE
:103CB000C4F20201086820F44060059A926910433A
:103CC0000860FFE705980078400600280CD5FFE75C
:103CD00041F28801C4F20201086820F44050059ABC
:103CE000D26910430860FFE70598007800060028B5
:103CF0000CD5FFE741F28801C4F20201086820F404
:103D00004040059A126A10430860FFE70598407822
:103D1000C00760B1FFE741F28801C4F20201086800
:103D200020F44030059A526A10430860FFE7059876
:103D30008078800700280CD5FFE741F29C01C4F28F
:103D40000201086820F00300059A926A1043086097
:103D5000FFE705984078800700280CD5FFE741F27F
:103D60008801C4F20201086820F44020059AD26A52
:103D700010430860FFE705984078400700281BD5EE
:103D8000FFE741F28801C4F20201086820F4401004
:103D9000059A126B104308600598006BB0F5801F00
:103DA00009D1FFE741F20C01C4F20201086840F4B6
:103DB00080100860FFE7FFE70598407800070028BB
:103DC0001BD5FFE741F28801C4F20201086820F424
:103DD0004000059A526B104308600598406BB0F59F
:103DE000800F09D1FFE741F20C01C4F2020108681B
:103DF00040F480100860FFE7FFE705984078C006B0
:103E000000281BD5FFE741F28801C4F202010868CF
:103E100020F04070059A926B104308600598806B03
:103E2000B0F1807F09D1FFE741F20C01C4F2020139
:103E3000086840F480100860FFE7FFE705984078C5
:103E4000800600281BD5FFE741F28801C4F2020179
:103E5000086820F04060059AD26B1043086005980E
:103E6000C06BB0F1006F09D1FFE741F20C01C4F261
:103E70000201086840F480100860FFE7FFE705983A
:103E80004078400600281BD5FFE741F28801C4F2C4
:103E90000201086820F04060059A126C1043086027
:103EA0000598006CB0F1006F09D1FFE741F20C01F9
:103EB000C4F20201086840F480100860FFE7FFE7E1
:103EC00005984078000600281BD5FFE741F28801DD
:103ED000C4F20201086820F04050059A526C104369
:103EE00008600598406CB0F1805F09D1FFE741F2AE
:103EF0000C01C4F20201086840F480300860FFE75A
:103F0000FFE705988078C007D8B1FFE741F2880144
:103F1000C4F20201086820F04040059A926C1043F8
:103F200008600598806CB0F1804F09D1FFE741F23D
:103F30000C01C4F20201086840F480300860FFE719
:103F4000FFE705988078400700281BD5FFE741F27E
:103F50009C01C4F20201086820F44010059AD26C5A
:103F6000104308600598C06CB0F5001F09D1FFE749
:103F700041F20C01C4F20201086840F480100860AC
:103F8000FFE7FFE79DF80A0006B080BD80B586B068
:103F90000490039100200090049820B9FFE70120CD
:103FA0008DF8170081E1039842F20001C4F202018A
:103FB000096801F00F01884216D9FFE742F20000BC
:103FC000C4F20200016821F00F01039A114301605D
:103FD000006800F00F000399884204D0FFE7012039
:103FE0008DF8170061E1FFE704980078C00700280A
:103FF00000F0A380FFE704984068032839D1FFE769
:1040000041F20000C4F2020000688001002804D4DC
:10401000FFE701208DF8170047E104F09DFA0190B9
:1040200001984BF20141C0F2C441884220D3FFE71E
:1040300041F20800C4F20200006810F0F00F0AD04C
:10404000FFE7049800788007002810D5FFE7049860
:10405000806860B9FFE741F20801C4F20201086814
:10406000082262F30710086080200090FFE7FFE756
:1040700038E00498406802280ED1FFE741F20000C2
:10408000C4F2020000688003002804D4FFE7012086
:104090008DF8170009E10DE041F20000C4F20200C2
:1040A00000684005002804D4FFE701208DF81700C0
:1040B000FBE0FFE700F02CF9019001984BF2014181
:1040C000C0F2C44188420CD3FFE741F20801C4F2B8
:1040D00002010868082262F307100860802000903F
:1040E000FFE7FFE741F20801C4F20201086820F08F
:1040F0000300049A526810430860FFF72BF80290FF
:10410000FFE741F20800C4F20200006800F00C0072
:1041100004994968B0EB810F0ED0FFE7FFF71AF85A
:104120000299401A41F28931884204D3FFE7032003
:104130008DF81700B9E0E4E7FFE7049800788007FE
:1041400000282CD5FFE7049800784007002809D5FF
:10415000FFE741F20801C4F20201086840F4E060A0
:104160000860FFE704980078000700280BD5FFE7F8
:1041700041F20801C4F20201086840F4E06020F452
:1041800060500860FFE741F20801C4F202010868CC
:1041900020F0F000049A9268104308600DE0009847
:1041A000802809D1FFE741F20801C4F20201086842
:1041B00020F0F0000860FFE7FFE7039842F20001FB
:1041C000C4F20201096801F00F01884228D2FFE71A
:1041D00042F20001C4F20201086820F00F00039AC5
:1041E00010430860FEF7B6FF0290FFE742F20000BE
:1041F000C4F20200006800F00F00039988420ED05C
:10420000FFE7FEF7A7FF0299401A41F28931884281
:1042100004D3FFE703208DF8170046E0E6E7FFE749
:1042200004980078400700280CD5FFE741F2080108
:10423000C4F20201086820F4E060049AD2681043D6
:104240000860FFE704980078000700280DD5FFE715
:1042500041F20801C4F20201086820F46050049A97
:10426000126940EAC2000860FFE700F051F841F22D
:104270000801C4F202010968C9B20A094BF282714D
:10428000C0F60001895C01F01F01C84040F2040142
:10429000C2F20001086040F20C00C2F200000068A7
:1042A000FFF76CFA8DF81700FFE79DF8170006B0CE
:1042B00080BD000040F20400C2F2000000687047B8
:1042C00080B5FFF7F7FF41F20801C4F20201096867
:1042D000C1F302224BF29271C0F60001895C01F039
:1042E0001F01C84080BD000080B5FFF7E3FF41F229
:1042F0000801C4F202010968C1F3C2224BF29271B3
:10430000C0F60001895C01F01F01C84080BD0000BB
:1043100086B041F20800C4F20200006800F00C0010
:10432000042806D1FFE742F20040C0F2F4000190F9
:1043300069E041F20800C4F20200006800F00C00DD
:10434000082806D1FFE743F20060C0F26E1001902A
:1043500058E041F20800C4F20200006800F00C00CE
:104360000C284BD1FFE741F20C00C4F202000168B7
:1043700001F0030104910068C1B2012000EB1110AB
:10438000029004980090022815D0FFE700980328B7
:1043900012D1FFE7029943F20060C0F26E10B0FB49
:1043A000F1F041F20C01C4F202010968C1F30621E7
:1043B0004843059011E0FFE7029942F20040C0F245
:1043C000F400B0FBF1F041F20C01C4F20201096803
:1043D000C1F3062148430590FFE741F20C00C4F207
:1043E0000200006800F0C061022000EB1160039041
:1043F00005980399B0FBF1F0019002E000200190D4
:10440000FFE7FFE7FFE7019806B07047B0B588B057
:104410000690069820B9FFE701208DF81F00CCE335
:1044200006980078C007002800F09B80FFE741F263
:104430000800C4F20200006800F00C00049041F291
:104440000C00C4F20200006800F00300039004981E
:104450000C2804D1FFE70398032804D0FFE7049851
:10446000082812D1FFE741F20000C4F20200006800
:104470008003002808D5FFE70698406820B9FFE7C9
:1044800001208DF81F0098E36AE0FFE70698406876
:10449000B0F5803F09D1FFE741F20001C4F202010B
:1044A000086840F48030086020E006984068B0F565
:1044B000A02F0DD1FFE741F20001C4F2020108680C
:1044C00040F480200860086840F4803008600CE008
:1044D00041F20001C4F20201086820F48030086053
:1044E000086820F480200860FFE7FFE7FFE70698F0
:1044F0004068D0B1FFE7FEF72DFE0590FFE741F2DF
:104500000000C4F202000068800300280CD4FFE71A
:10451000FEF720FE0599401A652804D3FFE7032023
:104520008DF81F0049E3EAE719E0FEF713FE059056
:10453000FFE741F20000C4F2020000688003002897
:104540000CD5FFE7FEF706FE0599401A652804D34F
:10455000FFE703208DF81F002FE3EAE7FFE7FFE7FF
:10456000FFE7069800788007002840F19F80FFE76A
:1045700041F20800C4F20200006800F00C00049050
:1045800041F20C00C4F20200006800F00300039046
:1045900004980C2804D1FFE70398022804D0FFE711
:1045A000049804282CD1FFE741F20000C4F2020075
:1045B00000684005002808D5FFE70698C06820B9C4
:1045C000FFE701208DF81F00F7E241F20401C4F279
:1045D0000201086820F0FE40069A126940EA026073
:1045E000086040F20C00C2F200000068FFF7C6F855
:1045F00020B1FFE701208DF81F00DEE2FFE754E065
:104600000698C06870B3FFE741F20001C4F20201EE
:10461000086840F480700860FEF79CFD0590FFE795
:1046200041F20000C4F202000068400500280CD4EA
:10463000FFE7FEF78FFD0599401A032804D3FFE733
:1046400003208DF81F00B8E2EAE741F20401C4F24A
:104650000201086820F0FE40069A126940EA0260F2
:10466000086021E041F20001C4F20201086820F470
:1046700080700860FEF76EFD0590FFE741F20000D4
:10468000C4F202000068400500280CD5FFE7FEF7E1
:1046900061FD0599401A032804D3FFE703208DF834
:1046A0001F008AE2EAE7FFE7FFE7FFE706980078E6
:1046B0000007002849D5FFE70698406910B3FFE7D7
:1046C00041F29401C4F20201086840F00100086060
:1046D000FEF740FD0590FFE741F29400C4F20200AE
:1046E0000068800700280CD4FFE7FEF733FD05992A
:1046F000401A032804D3FFE703208DF81F005CE273
:10470000EAE721E041F29401C4F20201086820F0D6
:1047100001000860FEF71EFD0590FFE741F29400DE
:10472000C4F202000068800700280CD5FFE7FEF7FE
:1047300011FD0599401A032804D3FFE703208DF8E3
:104740001F003AE2EAE7FFE7FFE706980078400734
:10475000002840F1C680FFE700208DF80B0041F2F1
:104760005800C4F202000068C000002813D4FFE71C
:10477000FFE741F25800C4F20200016841F08051A5
:104780000160006800F0805001900198FFE701206F
:104790008DF80B00FFE747F20000C4F2000000684C
:1047A000C005002822D4FFE747F20001C4F200014F
:1047B000086840F480700860FEF7CCFC0590FFE7C5
:1047C00047F20000C4F200000068C00500280CD4C5
:1047D000FFE7FEF7BFFC0599401A032804D3FFE763
:1047E00003208DF81F00E8E1EAE7FFE7FFE70698FE
:1047F0008068012809D1FFE741F29001C4F202016B
:10480000086840F0010008601FE0069880680528ED
:104810000DD1FFE741F29001C4F20201086840F0B7
:1048200004000860086840F0010008600CE041F2F4
:104830009001C4F20201086820F0010008600868D5
:1048400020F004000860FFE7FFE7FFE706988068B4
:10485000E0B1FFE7FEF77EFC0590FFE741F2900034
:10486000C4F202000068800700280ED4FFE7FEF7BC
:1048700071FC0599401A41F28931884204D3FFE75F
:1048800003208DF81F0098E1E8E71BE0FEF762FCCB
:104890000590FFE741F29000C4F202000068800733
:1048A00000280ED5FFE7FEF755FC0599401A41F2A6
:1048B0008931884204D3FFE703208DF81F007CE193
:1048C000E8E7FFE79DF80B00012809D1FFE741F277
:1048D0005801C4F20201086820F080500860FFE728
:1048E000FFE7069800788006002849D5FFE706987C
:1048F000806910B3FFE741F29801C4F20201086831
:1049000040F001000860FEF725FC0590FFE741F24A
:104910009800C4F202000068800700280CD4FFE76A
:10492000FEF718FC0599401A032804D3FFE703207B
:104930008DF81F0041E1EAE721E041F29801C4F25D
:104940000201086820F001000860FEF703FC0590F2
:10495000FFE741F29800C4F20200006880070028D7
:104960000CD5FFE7FEF7F6FB0599401A032804D3A0
:10497000FFE703208DF81F001FE1EAE7FFE7FFE7ED
:104980000698C069002800F01481FFE741F2080092
:10499000C4F20200006800F00C000C2800F0B080A7
:1049A000FFE70698C06902287CD1FFE741F20001C9
:1049B000C4F20201086820F080700860FEF7CAFBAC
:1049C0000590FFE741F20000C4F202000068800198
:1049D00000280CD5FFE7FEF7BDFB0599401A032818
:1049E00004D3FFE703208DF81F00E6E0EAE741F279
:1049F0000C01C4F20201086848F20C02C0F29F12D6
:104A00001040DDF818C0DCF82020DCF82450DCF879
:104A100028E0DCF82C306FF00F0404EB051422437F
:104A200042EA0E22DCF8304040F2000ECFF6E07E83
:104A30000EEA045EAEF5001E42EA0E02DCF834E037
:104A40004FF07E4C0CEA0E6C0CF17E4C42EA0C02EC
:104A500042EAC3621043086041F20002C4F202025B
:104A6000106840F080701060086840F08070086046
:104A7000FEF770FB0590FFE741F20000C4F2020070
:104A80000068800100280CD4FFE7FEF763FB05995E
:104A9000401A032804D3FFE703208DF81F008CE0A1
:104AA000EAE72CE041F20001C4F20201086820F0BC
:104AB00080700860FEF74EFB0590FFE741F20000B2
:104AC000C4F202000068800100280CD5FFE7FEF761
:104AD00041FB0599401A032804D3FFE703208DF812
:104AE0001F006AE0EAE741F20C01C4F20201086823
:104AF0004FF6FC72CFF6EE6210400860FFE757E019
:104B00000698C069012804D1FFE701208DF81F0035
:104B100053E041F20C00C4F20200006803900398D5
:104B200000F003000699096A88423BD1FFE7039829
:104B300000F0F00006994A6A6FF00F0101EB0211D4
:104B400088422FD1FFE7039800F4FE400699896A56
:104B5000B0EB012F26D1FFE7039800F078400699CB
:104B6000C96AB0EBC16F1DD1FFE7039800F4C00024
:104B700006990A6B0021CFF6E07101EA0251A1F516
:104B8000001188420ED1FFE7039800F0C06006993B
:104B90004A6B4FF07E4101EA026101F17E41884299
:104BA00004D0FFE701208DF81F0006E0FFE7FFE7D4
:104BB000FFE700208DF81F00FFE79DF81F0008B0F9
:104BC000B0BD000080B584B00290029820B9FFE724
:104BD00001208DF80F0099E00298406A60B9FFE764
:104BE00002984068B0F5827F01D1FFE703E00299A7
:104BF0000020C861FFE705E00299002008610299E2
:104C00004861FFE7029900208862029890F85D00F1
:104C100040B9FFE70299002081F85C00029800F09B
:104C200079F8FFE70299022081F85D000298016897
:104C3000086820F0400008600298C068B0F5E06F96
:104C400003D9FFE70020019003E04FF4805001906A
:104C5000FFE70298C068B0F5706F0AD0FFE70298CE
:104C6000C068B0F5E06F04D0FFE7029900208862C9
:104C7000FFE7029A009211685068D2F808C01369E1
:104C800000F482700CF4044C604403F002031844F6
:104C9000536903F001031844936903F40073184443
:104CA000D36903F038031844136A03F080031844EF
:104CB000926A02F4005210430860029B1968DA6895
:104CC000D3F818E0D3F824C0042000EA1E400CF00A
:104CD000100C60445B6B03F00803184402F470622C
:104CE0001044019A02F4805210444860029801680E
:104CF000C86920F40060C861029900200866029A21
:104D0000012182F85D108DF80F00FFE79DF80F007C
:104D100004B080BD80B588B0079000200690059053
:104D20000490039002900798006843F20001C4F2D7
:104D3000010188422DD1FFE7FFE741F26000C4F294
:104D40000200016841F480510160006800F4805065
:104D500001900198FFE7FFE741F24C00C4F2020026
:104D6000016841F001010160006800F0010000905D
:104D70000098FFE7E02002900220039000200490BA
:104D80000590052006904FF0904002A9FEF718F814
:104D9000FFE708B080BD000080B582B001900198A7
:104DA00003F048FC02B080BD81B0009001B07047B4
:104DB00081B0009001B0704781B0009001B07047A1
:104DC00084B00290019100200090FFE7029890F8D3
:104DD0003C00012804D1FFE702208DF80F008CE091
:104DE0000299012081F83C00FFE7FFE7009820F0DE
:104DF000FF000199C96808430090009820F44070B2
:104E00000199896808430090009820F48060019916
:104E1000496808430090009820F4006001990968EF
:104E200008430090009820F48050019909690843D4
:104E30000090009820F400500199496908430090BF
:104E4000009820F480400199096B08430090009875
:104E500020F470200199896940EA0140009000988F
:104E600020F080500199C9690843009002980068B9
:104E700042F60041C4F20101884212D0FFE70298D5
:104E8000006843F20041C4F20101884209D0FFE703
:104E90000298006845F20001C4F2010188421ED167
:104EA000FFE7009820F470000199896A40EA0150F8
:104EB0000090009820F080700199096A08430090E2
:104EC000009820F000700199496A0843009000980A
:104ED00020F000500199C96A08430090FFE700984C
:104EE000029909684864FFE70299002081F83C00B4
:104EF000FFE700208DF80F00FFE79DF80F0004B0DA
:104F00007047000081B0009001B0704781B0009000
:104F100001B0704781B0009001B0704785B0039038
:104F20000291FFE7039890F83C00012804D1FFE7C5
:104F300002208DF81300A7E00399012081F83C00BE
:104F4000FFE7FFE70399022081F83D00039800681E
:104F5000406801900398006880680090039800689A
:104F600042F60041C4F20101884212D0FFE70398E3
:104F7000006843F20041C4F20101884209D0FFE712
:104F80000398006845F20001C4F2010188420AD189
:104F9000FFE7019820F470000190029841680198A1
:104FA00008430190FFE701984FF68F71CFF6FF514C
:104FB0000840019002980168019808430190019807
:104FC0000399096848600398006842F60041C4F2FA
:104FD000010188423CD0FFE703980068B0F1804FA0
:104FE00036D0FFE70398006840F20041C4F20001A8
:104FF00088422DD0FFE70398006840F60001C4F214
:105000000001884224D0FFE70398006840F6004181
:10501000C4F2000188421BD0FFE70398006843F206
:105020000041C4F20101884212D0FFE703980068F2
:1050300044F20001C4F20101884209D0FFE703985D
:10504000006845F20001C4F2010188420ED1FFE779
:10505000009820F080000090029881680098084332
:1050600000900098039909688860FFE70399012080
:1050700081F83D00FFE70399002081F83C00FFE73D
:1050800000208DF81300FFE79DF8130005B070476E
:1050900081B0009001B0704780B582B00090009858
:1050A00020B9FFE701208DF8070045E0009890F84F
:1050B0003D0040B9FFE70099002081F83C000098CE
:1050C00000F03EF8FFE70099022081F83D000099CA
:1050D00051F8040B03F0D6FB0099012081F8480039
:1050E000FFE70099012081F83E00009981F83F0018
:1050F000009981F84000009981F84100009981F8F9
:105100004200009981F84300FFE7FFE70099012082
:1051100081F84400009981F84500009981F8460023
:10512000009981F84700FFE70099012081F83D00D0
:1051300000208DF80700FFE79DF8070002B080BD52
:1051400080B58EB00D9000200C900B900A900990C5
:1051500008900D98006842F60041C4F201018842AF
:105160002ED1FFE7FFE741F26000C4F202000168C0
:1051700041F400610160006800F400600790079846
:10518000FFE7FFE741F24C00C4F20200016841F082
:1051900004010160006800F0040006900698FFE733
:1051A0000C2008900220099000210A910B910C908C
:1051B00040F60000C4F6000008A9FDF701FE76E005
:1051C0000D980068B0F1804F19D1FFE7FFE741F279
:1051D0005800C4F20200016841F00101016000685A
:1051E00000F0010005900598FFE71C2001900022C7
:1051F0001146FEF735FB0198FEF728FB56E00D98A7
:10520000006840F60001C4F20001884210D1FFE7B7
:10521000FFE741F25800C4F20200016841F00401C6
:105220000160006800F0040004900498FFE73CE08F
:105230000D98006841F20001C4F20001884219D1C2
:10524000FFE7FFE741F25800C4F20200016841F0B5
:1052500010010160006800F0100003900398FFE760
:105260003620009000221146FEF7FAFA0098FEF769
:10527000EDFA19E00D98006843F20041C4F2010113
:10528000884210D1FFE7FFE741F26000C4F202005C
:10529000016841F400510160006800F40050029080
:1052A0000298FFE7FFE7FFE7FFE7FFE7FFE70EB042
:1052B00080BD000083B00190019890F83D00012866
:1052C00004D0FFE701208DF80B0072E00199022065
:1052D00081F83D0001980168C86840F00100C8608D
:1052E0000198006842F60041C4F2010188423CD0B6
:1052F000FFE701980068B0F1804F36D0FFE70198D2
:10530000006840F20041C4F2000188422DD0FFE75E
:105310000198006840F60001C4F20001884224D0E0
:10532000FFE70198006840F60041C4F2000188429E
:105330001BD0FFE70198006843F20041C4F201016D
:10534000884212D0FFE70198006844F20001C4F2DD
:105350000101884209D0FFE70198006845F2000189
:10536000C4F20101884219D1FFE701980068806802
:105370000721C0F2010108400090009806280CD0D7
:10538000FFE70098B0F5803F07D0FFE7019801687C
:10539000086840F001000860FFE706E00198016836
:1053A000086840F001000860FFE700208DF80B005E
:1053B000FFE79DF80B0003B07047000080B586B092
:1053C0000490039100208DF80B00FFE7049890F8FB
:1053D0003C00012804D1FFE702208DF81700E0E02F
:1053E0000499012081F83C00FFE7FFE704990220BF
:1053F00081F83D00049800688068019001984FF69C
:105400008871CFF6CE7108400190019820F47F405A
:1054100001900198049909688860039800680090D9
:10542000002800F0A480FFE70098102800F09F807B
:10543000FFE70098202800F09A80FFE700983028C6
:1054400000F09580FFE70098402800F08380FFE798
:105450000098502864D0FFE7009860286DD0FFE7DF
:105460000098702838D0FFE70098B0F5805F32D000
:10547000FFE70098B0F5005F43D0FFE70098B0F574
:10548000801F74D0FFE70098B0F1101F6FD0FFE7C6
:1054900000982021C0F21001884268D0FFE70098F0
:1054A0003021C0F21001884261D0FFE7009840210E
:1054B000C0F2100188425AD0FFE700985021C0F294
:1054C0001001884253D0FFE700987021C0F210010C
:1054D00088424CD052E055E004980068039B5A681B
:1054E0009968DB6803F0DEFA049800688068019030
:1054F000019840F07700019001980499096888604C
:1055000040E004980068039B5A689968DB6803F0E0
:10551000C9FA04980168886840F48040886031E0E6
:1055200004980068039A5168D26803F0E3FE049877
:105530000068502103F0D0FA24E004980068039A30
:105540005168D26803F0FEFE04980068602103F001
:10555000C3FA17E004980068039A5168D26803F010
:10556000C9FE04980068402103F0B6FA0AE00498E6
:1055700000680399096803F0AFFA03E001208DF891
:105580000B00FFE70499012081F83D00FFE7049933
:10559000002081F83C00FFE79DF80B008DF8170014
:1055A000FFE79DF8170006B080BD000080B586B00B
:1055B00004900391049820B9FFE701208DF81700AB
:1055C0008AE0049890F83D0040B9FFE70499002074
:1055D00081F83C00049800F083F8FFE7049902206A
:1055E00081F83D000498016888684BF6F872CFF6A0
:1055F000FE7210408860049951F8040B03F042F9E0
:10560000049800688068029004980068806901909E
:1056100004980068006A00900398016802980843A3
:105620000290019840F20331884301900399886801
:10563000896940EA0121019808430190019840F6E8
:105640000C418843019001984FF2F001884301908A
:105650000399C868C96940EA01210198084301908B
:1056600003990869096A000140EA01310198084379
:105670000190009820F022000090009820F088000F
:10568000009003994868496940EA0111009808436D
:105690000090029804990968886001980499096843
:1056A000886100980499096808620499012081F8CA
:1056B0004800049981F83E00049981F83F0004995C
:1056C00081F84400049981F84500049981F83D006F
:1056D00000208DF81700FFE79DF8170006B080BD89
:1056E00080B58AB009900020089007900690059038
:1056F00004900998006840F20041C4F20001884219
:105700002ED1FFE7FFE741F25800C4F20200016822
:1057100041F002010160006800F00200039003986C
:10572000FFE7FFE741F24C00C4F20200016841F0DC
:1057300010010160006800F0100002900298FFE77D
:105740000C200490022005900021069107910890FA
:1057500041F20000C4F6000004A9FDF731FB35E07A
:105760000998006840F60041C4F2000188422CD13B
:10577000FFE7FFE741F25800C4F20200016841F080
:1057800008010160006800F0080001900198FFE73F
:10579000FFE741F24C00C4F20200016841F0010150
:1057A0000160006800F0010000900098FFE703200E
:1057B00004900220059000210691079108904FF077
:1057C000904004A9FDF7FCFAFFE7FFE70AB080BDAF
:1057D00080B586B004900391049890F83E008DF84F
:1057E0000B00049890F83F008DF80A00049890F898
:1057F00044008DF80900049890F845008DF80800E1
:105800000398B8B9FFE79DF80B00012805D1FFE721
:105810009DF80900012804D0FFE701208DF817004A
:1058200079E00499022081F83E00049981F844004F
:10583000FFE742E00398042817D1FFE79DF80A002C
:10584000012805D1FFE79DF80800012804D0FFE7F3
:1058500001208DF817005EE00499022081F83F00D6
:10586000049981F84500FFE726E09DF80B00012828
:105870000FD1FFE79DF80A0001280AD1FFE79DF844
:105880000900012805D1FFE79DF80800012804D090
:10589000FFE701208DF817003DE00499022081F810
:1058A0003E00049981F83F00049981F8440004996E
:1058B00081F84500FFE7FFE7FFE70398019020B17B
:1058C000FFE70198042807D00DE004980068002144
:1058D000012203F0CBF814E00498006804210122AF
:1058E00003F0C4F80DE00498006800210122009242
:1058F00003F0BCF8009A04980068042103F0B6F89D
:10590000FFE704980168086840F001000860002083
:105910008DF81700FFE79DF8170006B080BD000066
:1059200081B0009001B0704780B584B003900398B7
:105930000068C068029003980068006901909DF8B3
:1059400004008007002824D5FFE79DF808008007A1
:1059500000281DD5FFE7039801686FF00200086179
:10596000039901200877039800688069800720B1B7
:10597000FFE70398FFF7D4FF06E0039800F0DCF997
:10598000039800F00DFBFFE7039900200877FFE77D
:10599000FFE79DF804004007002825D5FFE79DF8A4
:1059A0000800400700281ED5FFE7039801686FF044
:1059B0000400086103990220087703980068806951
:1059C00010F4407F04D0FFE70398FFF7A9FF06E03B
:1059D000039800F0B1F9039800F0E2FAFFE70399A9
:1059E00000200877FFE7FFE79DF804000007002884
:1059F00024D5FFE79DF80800000700281DD5FFE724
:105A0000039801686FF00800086103990420087783
:105A100003980068C069800720B1FFE70398FFF78B
:105A20007FFF06E0039800F087F9039800F0B8FACA
:105A3000FFE7039900200877FFE7FFE79DF80400E0
:105A4000C006002825D5FFE79DF80800C0060028FD
:105A50001ED5FFE7039801686FF0100008610399F5
:105A60000820087703980068C06910F4407F04D0CC
:105A7000FFE70398FFF754FF06E0039800F05CF996
:105A8000039800F08DFAFFE7039900200877FFE7FD
:105A9000FFE79DF80400C00778B1FFE79DF8080014
:105AA000C00748B1FFE7039801686FF00100086183
:105AB000039800F0C5FBFFE7FFE7019800F08000C6
:105AC000802806D0FFE79DF805008006002810D545
:105AD000FFE79DF808000006002809D5FFE70398B6
