:020000040800F2
:10000000A079002055020008D94E00089137000859
:10001000D14E0008050700082D610008000000000F
:10002000000000000000000000000000E156000891
:100030004D0C000800000000B1500008A157000856
:100040006F0200086F0200086F0200086F020008CC
:100050006F0200086F0200086F0200086F020008BC
:10006000510C0008590C00086F0200081D0C000814
:100070006F0200086F0200086F0200086F0200089C
:10008000290C00086F0200086F0200086F020008C8
:100090006F0200086F0200086F0200086F0200087C
:1000A0006F0200086F0200086F0200086F0200086C
:1000B0006F0200086F0200086F0200086F0200085C
:1000C0006F0200086F0200086F0200086F0200084C
:1000D0006F0200086F0200086F0200086F0200083C
:1000E0006F0200086F0200086F0200086F0200082C
:1000F0006F0200086F0200086F0200086F0200081C
:100100006F0200086F0200086F0200086F0200080B
:100110006F0200086F0200086F0200086F020008FB
:100120006F020008350C00086F0200086F0200081B
:100130006F0200086F0200086F0200086F020008DB
:100140006F0200086F0200086F0200086F020008CB
:100150006F020008410C00086F020008395D0008BA
:100160006F0200086F0200086F0200086F020008AB
:100170006F0200086F0200086F0200080000000014
:100180006F0200086F02000800F002F800F052F859
:1001900014A696E8000CB244B344DA4501D100F04D
:1001A00049F8BAE80F000FA696E83000A5EB040561
:1001B00004EB0607AAEB0704A7F101074FEA1515A0
:1001C0004FEA3414A4F10104AC4201D300F032F838
:1001D00013F0010F18BFFB1A43F0010300F001F800
:1001E000DBE71847B4C50000D4C50000103A24BFAF
:1001F00078C878C1FAD8520724BF30C830C144BF8C
:1002000004680C6070470000704700000023002461
:1002100000250026103A28BF78C1FBD8520728BF16
:1002200030C148BF0B6070471FB508F0DAFF1FBD33
:1002300010B510BD00F0E5F81146FFF7F5FF06F028
:10024000C7F800F003F903B4FFF7F2FF03BC00F0B6
:1002500007F900000948804709480047FEE7FEE724
:10026000FEE7FEE7FEE7FEE7FEE7FEE7FEE7FEE766
:1002700004480549054A064B7047000065580008C8
:1002800089010008A0510020A0790020A071002061
:10029000A071002053EA020C00F069802DE9F04BB8
:1002A0004FF00006002B1FBFB3FA83F503FA05F4E5
:1002B00024FA05F65E4012BF1643B2FA82F502FA3E
:1002C00005F4C5F120051EBF22FA05FC44EA0C0422
:1002D000203556EA044C4FEA144418BF641C4FF012
:1002E00000084FF00009904271EB030C39D300294C
:1002F00019BFB1FA81F701FA07F6B0FA80F700FAF0
:1003000007F6C7F120071EBF20FA07FC46EA0C06D5
:100310002037B6FBF4FCA7EB0507103F07F01F0BD7
:10032000CBF120062CFA06F60CFA0BFB44BFB346C1
:100330000026202FA4BF5E464FF0000B5BEA060CA0
:1003400008BF4FF0010B19EB0B0948EB0608ABFB9C
:10035000027C06FB02CC0BFB03CCC01B71EB0C0137
:10036000C1E70B46024641464846BDE8F08B13B54F
:10037000084318BF4FF0FF300146AFF30080BDE8DF
:100380001C4070474FF0000200B513469446964655
:10039000203922BFA0E80C50A0E80C50B1F1200198
:1003A000BFF4F7AF090728BFA0E80C5048BF0CC046
:1003B0005DF804EB890028BF40F8042B08BF7047A4
:1003C00048BF20F8022B11F0804F18BF00F8012B16
:1003D000704770477047704710B500F00DF800681F
:1003E00010BD10B5044600F007F8046010BD000011
:1003F000004870474800002000487047480000202F
:1004000070477546FFF7F4FFAE4605006946534650
:1004100020F00700854618B020B5FFF729FFBDE89A
:1004200020404FF000064FF000074FF000084FF05B
:10043000000BAC46ACE8C009ACE8C009ACE8C009A8
:10044000ACE8C00921F007018D46704710B504469D
:10045000AFF300802046BDE81040FFF7F4BE000077
:1004600001491820ABBEFEE72600020040F600401E
:10047000C4F202008021012201F07CB940F6004064
:10048000C4F202008021002201F074B9704700001C
:1004900040F60040C4F202001021012201F06AB9C6
:1004A00040F60040C4F202001021002201F062B9BF
:1004B00070470000002808BF704710B54EF21801C1
:1004C00049F2400CCEF20001C0F2020C51F804ECEB
:1004D0000B6800220C689C42FCD01A44121B9C4200
:1004E00028BF724462452346F4D301380204EDD19B
:1004F000BDE810407047000080B54EF21801CEF202
:100500000001A82251F804CC00FB02FE0868002379
:100510000A688242FCD003449B1A824228BF63448B
:100520007345104628BF80BDF2E7000010B5FFF705
:10053000ADFFFFF7BDFF05F015FE044605F09EFE7A
:10054000204310BD2DE9F04383B081460020904642
:100550000D46CDE90000FFF791FF922000F0BAF8B8
:10056000922000F0B7F86846461E0624374600BFC2
:10057000552000F0AFF8013C210607F8010FF7D134
:10058000FFF774FFBDF90000BDF9021000EE100A7C
:1005900040F20000C2F2000090ED001AB8EEC00A6E
:1005A000BDF9042021EE000A85ED000A00EE101AC4
:1005B00090ED001A02EE102AB8EEC00AB8EEC22A78
:1005C00021EE000A21EE021A85ED010A85ED021ADC
:1005D000FFF766FF802000F07DF80824374600BF53
:1005E000552000F077F8013C210607F8010FF7D1FC
:1005F000FFF74EFF9DF800000F2825D1BDF902003E
:10060000BDF9041000EE100A40F20400C2F200002E
:1006100090ED001AB8EEC00ABDF9062021EE000ADE
:1006200089ED000A00EE101A90ED001A02EE102A71
:10063000B8EEC00AB8EEC22A21EE000A21EE021A74
:1006400089ED010A89ED021AFFF718FFA22000F0D8
:1006500041F8A22000F03EF8022400BF552000F02F
:1006600039F8013C210606F8010FF7D1FFF7FEFE2D
:100670009DF800009DF80110C00040EA51114FF6AE
:1006800000020023CFF6FF72B3EB902F18BF114387
:1006900000EE101AB8EEC00AB4EE001A20EE010AFD
:1006A000B3EE071A30EE010A88ED000A40F280200E
:1006B00099E80E00C2F2000080E80E002968C160CF
:1006C00069680161A9684161D8F80010816103B0CF
:1006D000BDE8F08380B582B08DF8070040F6503059
:1006E0004FF47A7CC2F200000DF107010DF1060211
:1006F0000123CDF800C001F0E3FE9DF8060002B032
:1007000080BD0000FEE70000B0B52DED068B04466D
:10071000002000BF51F8203044F820300130042878
:10072000F8D140F6A51046F2311140F6E5139FEDE1
:10073000248A9FED249A9FED24AAC0F60000C0F6FB
:100740000001C0F600030025C4E96920C4E96B314B
:1007500004F15400032102220023B0EE480AF0EE17
:10076000490AB0EE4A1A84F8505004F08BFC04F1A8
:10077000C400032102220023B0EE480AF0EE490A29
:10078000B0EE4A1A04F07EFC9FED100A04F59A7050
:10079000032103220023F0EE490AB0EE4A1A04F0C6
:1007A00071FC04F1510004F0ADFFC4E90455C4E943
:1007B0000655C4E90855C4E90A55BDEC068BB0BD21
:1007C0003333333F0AD7233D00000000CDCCCC3E6D
:1007D00070B5D0F8A4210D460446203002F1240162
:1007E00003F046F8D4F8A40100F1240100F10C0252
:1007F000284602F0E5FFD4F8A40100F10C012046E0
:1008000000F066F894F85000C8BB04F15105D4F824
:10081000A461284604F07AFF88BBD4F8A40196EDC1
:10082000030A90ED061A90ED0F2A30EE410AB0EE61
:10083000C00AB4EE420AF1EE10FA20DA96ED040A8C
:1008400090ED071A90ED102A30EE410AB0EEC00A82
:10085000B4EE420AF1EE10FA11DA96ED050A90EDC7
:10086000081A90ED112A30EE410AB0EEC00AB4EE3B
:10087000420AF1EE10FA02DA284604F049FFD4F8F1
:10088000A82104F110012046BDE870401047000087
:1008900010B50446D0F8A401D1E900CE8968C0E9BA
:1008A00006CE0162D4F8A401D2E9001C9268C0E926
:1008B0000F1C42641BB1D4F8A40102F0D3FF002046
:1008C00084F850005134204604F026FF204610BD25
:1008D00070B52DED048B84B0044690F850000228CA
:1008E00016D0002859D104F151000D4604F00EFF36
:1008F000D8B1012084F850000020D4F8A42103903E
:10090000CDE9010004F1100101A803F00DF844E065
:10091000D4F8A42104F1100102F1300004B0BDECC0
:10092000048BBDE8704002F0FFBFD4F8A46195EDE0
:10093000000AD6ED060A04F1540005F0D7FED4F8FB
:10094000A401D6ED070A90ED0C1A04F1C40030EEB4
:10095000018A95ED010A05F0C9FED4F8A401D6ED8F
:10096000080A90ED0D1A04F59A7030EE019A95ED93
:10097000020A05F0BBFED4F8A43104F1100193ED96
:100980000E1A01A830EE010A2A468DED018A8DED7E
:10099000029A8DED030A03F02DF804B0BDEC048B30
:1009A00070BD0000B0B50C460546002021582A58FD
:1009B000043010285162F9D1286894ED000A06F03D
:1009C0001FFA686894ED010A06F01AFAA86894ED17
:1009D000020A06F015FAE86894ED030ABDE8B04093
:1009E00006F00EBA70B515460C460646002000BF4C
:1009F0002958325851622158043010289162F7D199
:100A0000306895ED000AD4ED000A06F069F97068C7
:100A100095ED010AD4ED010A06F062F9B06895ED92
:100A2000020AD4ED020A06F05BF9F06895ED030ABC
:100A3000D4ED030ABDE8704006F052B9D0F8A42105
:100A4000002982ED0C0AC2ED0D0A82ED0E1A1EBFBE
:100A5000022180F85010704780B5D0F8A4214FF0E3
:100A6000010C02F13003864600F1100118468EF8A1
:100A700050C0BDE8804002F057BF000090ED002A52
:100A8000B0EE401A9FED150AB4EE412AF1EE10FACD
:100A900023DC90ED023AB4EE413AF1EE10FAB8BF21
:100AA000704731EE420A90ED072A90ED061A90ED5C
:100AB000083A22EE002A90ED094A32EE011A20EEA1
:100AC000032A22EE002A32EE011A20EE042A20EE3A
:100AD000022A22EE000A30EE010A704700000000F0
:100AE00070B52DED0C8BB0EE458AB0EE449AB0EEA9
:100AF00043AAB0EE42BAB0EE41CA044651EC100B24
:100B0000F0EE658AF0EE649AF0EE63AAF0EE62BA57
:100B1000F0EE61CA07F03EFE0DEE100A206051ECC7
:100B20001C0B07F037FE05460CEE100A606051EC16
:100B30001B0B07F02FFE0BEE100AA06051EC1A0BF6
:100B400007F028FE0AEE100AE06051EC190B07F0DE
:100B500021FE064609EE100A206151EC180B07F041
:100B600019FE00EE100A3BEE4D1A3AEE4C2AB0EE9A
:100B7000083A30EE004A22EE032A21EE013A34EE22
:100B8000094A3CEE4A5A84EE014A35EE055A21EEF6
:100B9000031A39EE000A82EE032A85EE011A80EE6E
:100BA000030A04F1140161C132EE442A84ED082ADB
:100BB00030EE010A84ED090ABDEC0C8B70BD00001B
:100BC00090ED002AB0EE401A9FED130AB4EE412AD0
:100BD000F1EE10FA1FDC90ED023AB4EE413AF1EE7C
:100BE00010FAB8BF704731EE420A90ED082A90ED36
:100BF000071A32EE022A90ED093A22EE002A32EE6E
:100C0000011AB0EE082A23EE022A20EE022A22EE72
:100C1000000A30EE010A70470000000040F29830F0
:100C2000C2F2000000F006BB40F2F830C2F2000051
:100C300000F000BB40F25840C2F2000000F0FABAE7
:100C400040F2B840C2F2000000F0F4BA7047000071
:100C5000042000F0B9BC0000082000F0B5BC000082
:100C600072B600BFFEE70000B0B581B0002200926E
:100C700090F83C20012A02D1022001B0B0BDD1F889
:100C800000E00122BEF10A0F80F83C200ED31FFACB
:100C90008EF25200036812FA8EF21E3A4FF0070CE1
:100CA00053F80C5F0CFA02F4A54308E003680EEB5E
:100CB0004E02072553F8104F954024EA05051D60A4
:100CC0008D6805FA02F21D682A431A604A68062AEE
:100CD0000ED802EB82014A1F01681F2351F8345FCE
:100CE000934025EA03030B601FFA8EF3934014E050
:100CF000016802EB82030C2A1FFA8EF203D851F826
:100D0000304F233B02E051F82C4F413B1F259D40C3
:100D100024EA050502FA03F30D600A6842F2043C76
:100D20001A430A60C4F2010C0168BEF1120FACF55F
:100D3000417308BF994205D1DCF8002042F48002DB
:100D4000CCF800202EF00102102A08BF994205D0ED
:100D5000002180F83C10002001B0B0BDDCF800108C
:100D6000BEF1100F41F40001CCF80010F0D140F2B8
:100D70000801C2F2000109684DF68362C4F21B3219
:100D8000A1FB0212910C01EB810149000091009935
:100D90000029DDD000990139F8E70000002804BFE0
:100DA0000120704710B5016C39B9044600F0A0F875
:100DB00020460021616484F83C10016CC9063AD4D5
:100DC000016C41F202129143023142F20432016499
:100DD000C4F20102116821F440311160136890E8F7
:100DE00012102343D0F810E013604A68012422F463
:100DF00080724A604A68C0F6007442EA0E224A6075
:100E00004A6822F040724A604A6842EA0C024A602C
:100E10008A6822F400628A60C2688B681A438A601A
:100E2000826A8B68A24223F070638B608B6804D166
:100E300023F040520AE0012152E01A438A608A6896
:100E400022F040528A60C26A8B681A438A608A68BC
:100E500022F002028A608A68037E90F8204042EA0B
:100E600043028A604A6884B142F400624A604A6878
:100E70004EF2000322F460424A60426ACFF6FF73EA
:100E80004C6803EB4232224301E022F400624A60E4
:100E9000CA6A40F2000C22F47002CA62C369426955
:100EA000CFF6F07CCC6A0CEB03532343CB628B6808
:100EB00023F400738B6090F830308C6844EA43234D
:100EC0008B608B6823F480638B608B6843EA82229B
:100ED0008A6000214164026C012363F30102026411
:100EE000002280F83C20BDE8104008467047000012
:100EF00080B586B0006842F20012C4F201020021FF
:100F00009042CDE90411CDE9021101911BD042F2CA
:100F10000001C4F2010188423AD1002043F63001B9
:100F20000090C4F202014A6942F480724A614A693F
:100F300002F480720092009A0090086840F0040069
:100F40000860086813E043F630000091C4F2020024
:100F5000426942F400724261426902F400720092F6
:100F6000009A0091016841F004010160006800F0FE
:100F70000400009000983F20019003200290002080
:100F8000039040F60000C4F2020001A900F028FB23
:100F900006B080BD002804BF01207047B0B50446EC
:100FA00090F8200010B9204600F06EF82068016823
:100FB00041F00101016000F0E3FB05462068416853
:100FC000C90705D100F0DCFB401B0B28F6D310E06D
:100FD000016821F00201016000F0D2FB054600BF6C
:100FE0002068416889070DD500F0CAFB401B0B281B
:100FF000F6D3606A052140F400306062012084F875
:101000002010B0BD217E0268012922F0800208BFB5
:1010100080320260617E0268012922F0400208BF2E
:1010200040320260A17E0268012922F0200208BF3E
:1010300020320260E17E0268012922F0100218BF0E
:1010400010320260217F0268012922F0080208BFE5
:1010500008320260617F0268012922F0040208BFA1
:1010600004320260D4E901C2D4E9033561691A434C
:101070002A431143ACF101021143C1610020012157
:10108000606284F82010B0BD80B586B0006846F676
:101090000002C4F2000200219042CDE90411CDE922
:1010A0000211019132D046F20041C4F2000188429F
:1010B0006CD140F26421C2F200010A6843F640009C
:1010C000C4F20200531C0B6052B900210091016868
:1010D00041F000710160016801F000710091009918
:1010E0000021009150F8101C41F0080140F8101C3C
:1010F00050F8100C032100F008000090009840F216
:101100000040C4F2020000F5006033E043F6400006
:10111000C4F202000091016841F080610160016841
:1011200001F080610091009940F26421C2F2000157
:101130000A68531C0B6052B900210091016841F00C
:1011400000710160016801F00071009100990021B7
:10115000009150F8101C41F0020140F8101C50F8AA
:10116000100C602100F002000090009840F2004056
:10117000C4F2020001910221029100210391032196
:1011800004910921059101A900F02AFA06B080BD59
:1011900070B5866D044600F0F3FA94F83510022914
:1011A00025D105462068216C026822F016020260F3
:1011B000426922F08002426109B9A16C19B101684B
:1011C00021F008010160016821F00101016000BF08
:1011D00020680068C0070ED000F0D2FA401B062835
:1011E000F6D320206065032084F835000CE08020D1
:1011F0006065012008E0E06D3F2101FA00F0B06079
:10120000012084F835000020002184F8341070BDDE
:1012100090F83510022909D1052180F835100068B1
:10122000016821F0010101600020704780214165C3
:1012300001207047F0B581B00021009140F2080113
:10124000C2F200010B68D0E9166148F2B5153768A3
:101250000822C1F64E358A403A42A3FB05350CD030
:1012600003681C68640708D51C6824F004041C602B
:10127000B260426D42F00102426501228A403A4268
:1012800008D003685B691B0604D5B260426D42F06A
:101290000202426504228A403A4208D003681B6871
:1012A0009B0704D5B260426D42F0040242651022F1
:1012B0008A403A4216D001680B681B0712D5B2600B
:1012C0000B680A685B0306D4D20506D40A6822F0CC
:1012D00008020A6001E011033FD4016C11B1044619
:1012E00088472046C26D202101FA02F33B4241D0DB
:1012F00001680F68FF063DD5B36090F835700B6844
:10130000052F1AD123F016030B604B6923F08003DD
:101310004B61036C0BB9836C1BB10B6823F00803A2
:101320000B603F219140B160012180F83510016DC3
:10133000002280F83420D9BB3EE00A685B0310D459
:10134000D20512D40A6822F010020A60012180F846
:101350003510002180F8341007E0816C0029BED1DF
:10136000C0E7110301D4416C00E0C16B11B1044628
:1013700088472046416DF9B1416DC90716D0052156
:1013800080F835100168AA0A0B6823F001030B608E
:10139000009B01339342009302D80B68DB07F7D11F
:1013A000012180F83510002180F83410C16C19B18A
:1013B00001B0BDE8F040084701B0F0BD2DE9F041B3
:1013C000044600F0DDF9C4B10546022084F835007A
:1013D0000020216884F83400086820F001000860CB
:1013E00020680168C9070BD000F0CAF9401B052826
:1013F000F6D90321202203207AE00120BDE8F08104
:10140000016848F23F02CFF21002D4E9013501EA47
:10141000020ED4E9032143EA0E032B43D4E9056C01
:101420001A43D4E907781143314341EA0702616A5C
:1014300042EA0802042942EA0C0303D1D4E90B274B
:101440003A43134303604269042922F0070241EA48
:1014500002012DD1D4E90A5341EA050143B3BCF599
:10146000005F08D0BCF1000F12D1022D16D0012D63
:1014700007D09DB119E0032D17D8DFE805F00B0F59
:101480000B02A3F1C072B2FA82F252094AB90FE01C
:10149000032D02D2012222B90AE006D1C3F3006271
:1014A00032B101214022012022E00022002AF8D19D
:1014B00000F0F8024AF6AB23103ACAF6AA23A2FBC0
:1014C00003374CF25C7341613909C0F60003595C83
:1014D00040F2FF3398435F2A4FF03F0288BF043049
:1014E000C4E9160102FA01F1816000220121002005
:1014F000626584F83510BDE8F081000090F834C0D2
:10150000BCF1010F04BF0220704770B54FF0010C11
:1015100080F834C0D0F858E090F835C0BCF1010F25
:1015200037D14FF0020C80F835C04FF0000CC0F8F6
:1015300054C0D0F800C08468056CC06DDCF8006051
:10154000402C26F48026CCF80060CCF804300B4602
:1015500004BF13460A463F2101FA00F0CCF80830D8
:10156000CCF80C20CEF80800DCF8000040F01600A3
:10157000CCF800002DB1DCF8000040F00800CCF8F9
:101580000000DCF8000040F00100CCF80000002072
:1015900070BD002180F83410022070BDB0B5044643
:1015A00000F0EEF8054640F22800C2F20000007894
:1015B000611C18BF044400BF00F0E2F8401BA042C9
:1015C000FAD3B0BD7047000043F61441C4F20101E4
:1015D0000A68024214BF08607047FFF7F3BF0000BB
:1015E0002DE9F04F83B000F1200200F13E4741F6B3
:1015F0000045009207F1FF77C4F2020508224FEA86
:10160000B726A84208BF0722072E38BF4FEAB722E5
:1016100000274FF0000A4FF0000801920AE000BFD7
:1016200008F101080AF1020AB8F1100F07F10407E6
:1016300000F09D800D68012202FA08FC15EA0C09F1
:10164000EED04D68032205F0030BABF10106012E2D
:1016500002FA0AFE10D88668CC6826EA0E0604FA5A
:101660000AF4344384604468C5F3001524EA0C0688
:1016700005FA08F52E434660BBF1030F1BD0C66880
:101680008D6826EA0E0605FA0AF52E43BBF1020F15
:10169000C66010D16FF00302009D02EA580655F8AB
:1016A00006C007F01C040F220B69A2402CEA0202BC
:1016B000A3401A43AA5102684B6822EA0E0203F0C3
:1016C000030606FA0AF6324313F4403F0260A7D03D
:1016D000002243F644030292C4F202031A6843F65E
:1016E000004442F480421A601A68C4F2010402F411
:1016F00080420292029A28F003024FF6084C2244DC
:10170000CFF6FF7C52F80C3007F00C060F25B540E1
:10171000AB43019D05FA06F6334342F80C30A2684C
:101720004B6842EA090643F60C4CDD0258BF22EA38
:101730000906A660C4F2010CDCF800209D0242EA12
:10174000090658BF22EA0906CCF8006062689D03CA
:1017500042EA090658BF22EA090666602268DB03EE
:1017600042EA090658BF22EA0906266058E703B094
:10177000BDE8F08F002A08BF0904816170470000AE
:1017800044F63850C2F2000000687047002804BFD9
:1017900001207047F0B581B0044690F83D0028B9AB
:1017A000002084F83C00204600F0A8F8242084F8AB
:1017B0003D002068016821F001010160016841F4E9
:1017C00000410160016821F40041016000F06AFB02
:1017D000636848F2A16CC0F2010C40F60011C0F23F
:1017E0003D0163453CBF48F28041C0F21E01884282
:1017F00002D2012001B0F0BD4DF68361C4F21B316D
:10180000A0FB01122168970CD1F804E04FF4967602
:101810002EF03F0545EA92454D60774348F638166D
:101820000D6AC0F24106A7FB067625F03F07634527
:1018300038BF960C721C3A430A62CA6948F2A06625
:101840004CF6FF77C0F20106B34222EA070C0AD831
:1018500001385A00B0FBF2F001306FF31F3004285A
:1018600098BF042020E0A2681927002A08BF032798
:1018700001385F43B0FBF7F701373F0509D052B19C
:1018800019225A43B0FBF2F00422013062F31F30F8
:1018900008E0012008E003EB4302B0FBF2F0013066
:1018A0006FF31F3040F4004040EA0C00C861086844
:1018B000D4E9072320F0C00010431843086088686B
:1018C00048F2FF3204F10C0790438CCF18431043C9
:1018D000A6698860C86820F0FF0038433043C860BC
:1018E000086840F00100086000202021206484F88E
:1018F0003D10206384F83E0001B0F0BD2DE9F047B3
:1019000086B0006845F60041C4F200010025884217
:10191000CDE90455CDE9025501955ED045F60001AB
:10192000C4F2000188422FD045F20041C4F2000108
:10193000884240F09980002443F630050094C4F2B8
:101940000205286801A940F002002860286800F01C
:101950000200009000984FF4C07001901220CDE971
:101960000204032004900420059040F20040C4F2D9
:101970000200FFF735FE0094286940F4001028614A
:10198000286900F400106DE0002443F6300500944F
:10199000C4F20205286801A940F002002860286806
:1019A00000F00200009000984FF440600190122077
:1019B000CDE90204032004900420059040F2004089
:1019C000C4F20200FFF70CFE0094286940F4800086
:1019D0002861286900F4800044E043F63006009551
:1019E000C4F20206306840F2004740F00400306064
:1019F0003068C4F2020700F00400009000980095DF
:101A0000306801AC40F00100306030684FF01208DF
:101A100000F00100009000984FF4007001904FF02A
:101A200003094FF0040A07F580602146CDE90285DD
:101A3000CDF81090CDF814A0FFF7D2FD4FF48070D0
:101A4000CDE9010803A880E82006A7F580602146BB
:101A5000FFF7C6FD0095306940F400003061306941
:101A600000F400000090009806B0BDE8F087000088
:101A700040F2280044F63851C2F20000C2F20001E0
:101A800000780A68104408607047000080B543F68B
:101A90000040C4F20200016841F400710160016875
:101AA00041F480610160016841F4807101600320AC
:101AB00000F090F80F2000F005F800F02BF800205F
:101AC00080BD0000B0B540F22802C2F2000240F230
:101AD00008011278C2F200014FF47A730968B3FB6F
:101AE000F2F20446B1FBF2F1084600F015FE0F2CAD
:101AF0004FF001050CD858B94FF0FF3021460022B5
:101B0000002500F03BF840F22C00C2F20000046017
:101B10002846B0BD82B0002043F640010190C4F2D7
:101B200002014A6842F480424A604A6802F48042F4
:101B30000192019A00900868002240F080500860ED
:101B400008680F2100F08050009000986FF00100AD
:101B500002B000F013B80000002848BF704700F042
:101B60001F01012202FA01F11C2202EAD0004EF20A
:101B70000012CEF2000281507047000010B54EF600
:101B80000C5CCEF2000CDCF80030C3F3022E8EF0B9
:101B90000704042C28BF0424BEF103034FF0FF3ECA
:101BA0000EFA04F438BF0023A14399400EFA03F360
:101BB0009A43114300F1604200F00F03090102F55E
:101BC0006442043B6344002848BF03F10C021170D7
:101BD00010BD00004EF60C51CEF200010A684FF61F
:101BE000FF031A4060F30A2242F0806040F0FD706B
:101BF00008607047002804BF01207047B0B582B06C
:101C00000446056890F8950428B9002084F89404E7
:101C1000204600F05BF80320B5F1A04F84F895044E
:101C200004BF0020A071206804F046FA94E80F0079
:101C3000257C009504F0B0F8B8BB2068002104F0C2
:101C400043FA90BB207948B300EBC000800000212C
:101C50004FF0010C00230022E51824332A75EA8591
:101C6000984202F1010285F815C02976C5E90711ED
:101C70006962F1D100210022002300BFA51824329F
:101C800085F85432904203F1010385F8551285F826
:101C90005812C5E99711C5F86412EFD194E80F0006
:101CA000257C009504F012F928B1022084F89504EF
:101CB000012002B0B0BD00206074012084F89504BA
:101CC000206804F0F3F8002002B0B0BDB0B586B0D3
:101CD00000680024B0F1A04F0594CDE903440294BC
:101CE000019401D006B0B0BD43F630050094C4F2B3
:101CF0000205286801A940F001002860286800F06A
:101D00000100009000984FF4C05001900220CDE9EE
:101D10000204032004900A2005900020C4F202006F
:101D2000FFF75EFC686840F08000686000946869B6
:101D300040F480406861686900F480400090009839
:101D400006B0B0BD002804BF012070472DE9F04166
:101D500043F60808C4F202080446D8F8F8030D4612
:101D600000F00700884207D288F8F853D8F8F80343
:101D700000F00700A84276D12068810717D54107F7
:101D800005D5D8F8001041F4E051C8F8001001075B
:101D900005D5D8F8001041F46041C8F80010D8F813
:101DA0000010A26821F0F0011143C8F80010C0072C
:101DB0003FD1D8F8F80300F00700A84207D988F807
:101DC000F853D8F8F80300F00700A8424BD1206878
:101DD000410707D5D8F80010E26821F4E05111431B
:101DE000C8F80010000708D5D8F80000216920F4D1
:101DF000604040EAC100C8F8000000F07BF8D8F865
:101E0000001049F25032C1F30311C0F60002515CD8
:101E100040F2080220FA01F140F22C00C2F2000068
:101E20000068C2F200021160FFF74CFE0020BDE81E
:101E3000F0816068811E022907D258F8081C8901C8
:101E40005CBF0120BDE8F08110E0012807D158F8FF
:101E5000081C89035CBF0120BDE8F08106E058F84A
:101E6000081C890702D40120BDE8F081D8F80010D1
:101E700021F003010843C8F80000FFF781FC064683
:101E800041F28837D8F80000616800F00C00B0EB30
:101E9000810F8ED0FFF774FC801BB842F2D903206B
:101EA000BDE8F08140F2080043F60801C2F20000EC
:101EB000C4F202010068096849F26032C1F382216C
:101EC000C0F60002515CC8407047000040F20800B4
:101ED00043F60801C2F20000C4F20201006809687A
:101EE00049F26032C1F34231C0F60002515CC84091
:101EF0007047000010B543F60404C4F202046068A1
:101F000000F00C0008280AD0042819BF42F2004053
:101F1000C0F2F40043F20060C0F26E1010BD206801
:101F200021682368490243F20061C0F26E1100F09B
:101F30003F02C3F388105CBF42F20041C0F2F401DB
:101F4000A1FB00010023FEF7A5F921680222C1F3DD
:101F5000014102EB4101B0FBF1F010BD002804BFCC
:101F6000012070472DE9F04182B00446007843F625
:101F70000006C007C4F2020649D0B06800F00C00A9
:101F8000042809D13068800341D5606800283ED11B
:101F9000012002B0BDE8F081B06800F00C00082814
:101FA00002D170684002EDD465683068B5F5A02FA5
:101FB00005D0B5F5803F09D140F480300CE040F405
:101FC00080203060306840F4803005E020F48030BC
:101FD0003060306820F480203060FFF7D1FB002DA6
:101FE000054611D03068800311D4FFF7C9FB401BB0
:101FF0006428F7D928E100BFFFF7C2FB401B642823
:102000004FF0030000F2E08030688003F4D42078C1
:1020100080071BD5B06810F00C0F09D0B06800F035
:102020000C00082840F085807068400200F1818033
:102030003068800703D5E068012840F09A80306856
:10204000216920F0F80040EAC100306020780007E4
:1020500034D42078400746D4A5695DB3B06800F059
:102060000C00082840F09C80012D00F082807068F0
:10207000E16900F480028A427BD1216A00F03F02CC
:102080008A4276D147F6C071626A0140B1EB821F85
:102090006FD1A16A4FF6FF73C903994300F4403230
:1020A000A1F580318A4264D1E16A00F07060B0EB42
:1020B000016F5ED1002002B0BDE8F08160690028A8
:1020C0005BD00020C4F247200121C0F8801EFFF73A
:1020D00057FB0546706F8007BBD4FFF751FB401BD1
:1020E0000228F7D9B0E0306C5FEAC0080AD40020BB
:1020F0000190306C40F080503064306C00F08050C3
:102100000190019847F20007C4F200073868C00543
:1021100026D4386840F480703860FFF731FB0546FC
:102120003868C0051CD4FFF72BFB401B0228F7D9E9
:102130008AE0E068002840F20000C4F2472053D053
:1021400001210160FFF71CFB054600BF30688007D6
:102150003FF575AFFFF714FB401B0228F6D973E07B
:10216000A568306F052D51D0012D56D140F00100EA
:1021700059E0012002B0BDE8F0810020C4F2472000
:102180000021C0F8801EFFF7FBFA0546706F80073C
:102190007FF55FAFFFF7F4FA401B0228F6D953E052
:1021A0000027C4F2472700203866FFF7E9FA022D1E
:1021B00005460DD1306880015DD5FFF7E1FA401B7F
:1021C00002284FF00300F5D902B0BDE8F08100BF4E
:1021D000306880017FF56EAFFFF7D2FA401B02280E
:1021E0004FF00300F4D9EFE700210160FFF7C8FAD0
:1021F000054600BF306880077FF528AFFFF7C0FABB
:10220000401B02284FF00300F4D9DDE740F0040042
:102210003067306F40F0010005E020F001003067CA
:10222000306F20F004003067FFF7AAFA002D054652
:1022300041F2883713D000BF306F800712D4FFF708
:102240009FFA401BB842F7D9032002B0BDE8F081E5
:10225000FFF796FA401BB8424FF00300B4D8306F36
:102260008007F5D4B8F1000F3FF5F6AE306C20F0E2
:1022700080503064F0E604F11C052FCD084340EA9D
:102280008210D9034FF6FF729143A1F5803140EAE5
:1022900005600843706001203866FFF771FA044654
:1022A000306880013FF506AFFFF76AFA001B02288D
:1022B0004FF00300F4D987E770B528B1416A29B11E
:1022C00000210161142106E0012070BD4168B1F5D3
:1022D000827F02D01C21002242500026866290F8A4
:1022E000511029B980F85060054600F03DF82846A5
:1022F000022180F8511090E82E0002F482720C68DE
:1023000003F4044324F040040C601A4405F4006311
:1023100005691A4405F0020345691A4405F00103F2
:102320008569C4691A4405F400731A4404F038033B
:10233000046A1A4404F08003846A1A4304F40053C4
:102340001A430A60436A042202EA154203F01003AA
:102350001A444A60CA6922F40062CA6101214665D2
:1023600080F85110304670BD2DE9F04186B004462A
:10237000006843F60041C4F2000100268842CDE91E
:102380000466CDE90266019631D043F20001C4F241
:102390000101884240F09080002043F63001009017
:1023A000C4F202014A6942F480524A614A6902F465
:1023B00080520092009A00900A6842F001020A607E
:1023C000096801F0010100910099E02101910221C9
:1023D000CDE9021003200490052005900020C4F2EE
:1023E000020001A9FFF7FCF806B0BDE8F08143F652
:1023F00030000096C4F20200016946F2100841F470
:10240000004101610169C4F2020801F40041009138
:1024100000990096016841F004010160006801A97B
:1024200000F00400009000984FF4E050019002206A
:10243000CDE9020603200490062005900020C4F296
:10244000020000F50060FFF7CBF840F29835C2F2C9
:1024500000054FF400304FF48067C5E908062846B0
:10246000C5E90086C5E90266C5E90476C5E90666E0
:10247000FEF7A4FF002818BFFEF7F2FBE564AC638B
:1024800040F2F83508F17800C2F200050021402240
:1024900085E807004FF48030C5E908012846C5E902
:1024A0000317C5E90511E961FEF788FF002818BF89
:1024B000FEF7D6FBA564AC6306B0BDE8F081000072
:1024C0002DE9F04383B01E4615460F460446FFF73C
:1024D00057F994F851108146012908D1002F4FF087
:1024E000010018BF002D0ED103B0BDE8F083606875
:1024F000B0F5827F0DD104294FF00200F4D1A1681C
:102500000029EBD0F0E7002EEED094F8500001281F
:1025100003D1022003B0BDE8F083012084F850000D
:1025200094F85100002104281CBF052084F85100B4
:102530006165A563E687A6872763E6862068A68689
:10254000216461640168490603D4016841F04001D7
:1025500001606168731EE268B1FA81F1B3FA83F336
:10256000DDF8288049095B09B2F5006F41EA0301F3
:1025700037D131B137F8021BC1602763E08E0138D3
:10258000E086012608F10105E08E10B9E08F0028F1
:102590006CD02068816889070CD5E18E51B1012E7D
:1025A00008D1216B002631F8022BC2602163E18E35
:1025B0000139E1868168C9070AD0E18F41B1C0685D
:1025C000A16B012621F8020BA163E08F0138E0879F
:1025D000FFF7D6F8002DD7D0A0EB09004045D3D3A4
:1025E0003AE039B139780173206B01302063E08E15
:1025F0000138E086012608F1010500BFE08E08B928
:10260000E08F98B32068816889070DD5E18E59B1B4
:10261000012E09D1216B002609780173206B01304E
:102620002063E08E0138E08620688168C9070BD0FE
:10263000E18F49B1C068A16B01260870A06B013021
:10264000A063E08F0138E087FFF79AF8002DD5D01E
:10265000A0EB09004045D1D3012084F851000020AF
:1026600084F85000032003B0BDE8F0832046022127
:1026700001224346CDF8009002F0BEFF60B1606DCC
:1026800040F02000606520206065002084F8500044
:10269000012003B0BDE8F08340F20800C2F2000060
:1026A000006849F68171C1F25E61A0FB0101480D2D
:1026B0004FF47A71484302906068B0F5827F0AD186
:1026C0002046802100224346CDF8009002F094FF7E
:1026D0000028D4D108E0029830B102980138029065
:1026E000206880680006F6D4A06838B90020019000
:1026F0002068C1680191806801900198012084F8E8
:102700005100002084F85000606D002818BF01209F
:1027100003B0BDE8F0830000411E0020B0EB116F54
:102720001CBF012070474EF21002CEF20002516031
:102730004EF62351CEF20001F0230B70072190607A
:102740001160704790F83C20012A4FF0020255D0EA
:1027500010B5012380F83C3080F83D200268D2F8A3
:1027600004E0D2F808C00C682EF07003234341F255
:10277000FF74C4F20004A24253600DDC40F2FF7308
:10278000C4F200039A4215DCB2F1804F29D040F226
:102790000043C4F2000322E040F2FF33C4F201031D
:1027A0009A4212DC41F60003C4F200039A4218D0A8
:1027B000002312E040F60003C4F200039A4210D056
:1027C00040F60043C4F2000309E044F20003C4F2FF
:1027D00001039A4205D040F20043C4F201039A4239
:1027E00004D149682CF08003194391600121002233
:1027F00080F83D1080F83C20BDE81040104670473E
:10280000002804BF0120704710B5044690F83D0031
:1028100028B9002084F83C00204600F01FF8022070
:1028200084F83D002068211D03F026F8012084F87B
:10283000460084F83E0084F83F0084F8400084F8A5
:10284000410084F8420084F8430084F8440084F88E
:10285000450084F83D00002010BD000083B00068F2
:1028600044F20001C4F2010188422DD040F600413B
:10287000C4F20001884216D040F20041C4F20001C7
:10288000884230D10020029043F64000C4F202009A
:10289000016841F002010160006800F0020002904E
:1028A000029803B070470020019043F64000C4F244
:1028B0000200016841F008010160006800F00800B2
:1028C0000190019803B070470020009043F640004B
:1028D000C4F20200416841F480314160406800F474
:1028E00080300090009803B07047000090F83C20C2
:1028F000012A4FF002026ED080B5012380F83C30EF
:1029000080F83D20D0F800C04FF67772DCF8083030
:1029100023EA0202CCF808200B684F2B28DC1F2B7F
:1029200044DD202B45D0302B43D0402B40F0AC80F1
:10293000D1F804E0C968DCF82030DCF8202022F06F
:102940000102CCF82020DCF8182022F0F00242EA44
:10295000011123F00A0242EA0E02CCF81810CCF85A
:102960002020DCF8081041F0470121F0300127E079
:102970006F2B32DDB3F5005F73D0B3F5805F21D0EC
:10298000702B40F08180D1E901E3C968DCF80820B0
:1029900043EA0E0322F47F4243EA01211143CCF8BB
:1029A0000810DCF8081041F0770109E00BB1102B9A
:1029B0006AD1DCF8081021F07001194341F00701D9
:1029C000CCF808100022012180F83D10002180F889
:1029D0003C10BDE8804010467047502B21D0602B42
:1029E00052D1D1F804E0C968DCF82030DCF82020AE
:1029F00022F01002CCF82020DCF8182022F47042DB
:102A000042EA013123F0A00242EA0E12CCF818107B
:102A1000CCF82020DCF8081041F0670121F010010B
:102A2000CEE7D1F804E0C968DCF82030DCF82020DB
:102A300022F00102CCF82020DCF8182022F0F0026D
:102A400042EA011123F00A0242EA0E02CCF8181001
:102A5000CCF82020DCF8081041F0570121F02001CB
:102A6000AEE7D1E901E3C968DCF8082043EA0E03C8
:102A700022F47F4243EA01211143CCF80810DCF82C
:102A8000081041F480419BE701229CE7002804BF25
:102A9000012070472DE9F047044690F83D000D46AF
:102AA00028B9002084F83C00204600F049F80220B4
:102AB00084F83D00206844F20702816891438160F8
:102AC000211D02F0D9FE20684FF6FF7881688269E7
:102AD000D0F820C0D5E9003ED5E9026A43EA0109F1
:102AE000AB6922EA080246EA03234FF6FC46B343E9
:102AF000D5E9076742EA0A0229691A4342EA06222F
:102B000042EA01112CF0AA026B6942EA0E0241EA84
:102B1000073142EA0312C0F8089081610262012085
:102B200084F8460084F83E0084F83F0084F84200B0
:102B300084F8430084F83D000020BDE8F0870000E1
:102B4000F0B587B0006840F60002C4F20002002130
:102B50009042CDE90511CDE9031102913ED0B0F1CB
:102B6000804F63D1002543F630000195C4F2020086
:102B70000169002441F0010101610169C4F202040C
:102B800001F001010191019901950168022641F0CE
:102B9000010101600168012701F001010191019922
:102BA0000195016841F002010160006802A900F08E
:102BB0000200019001984FF4004002902046CDE9B8
:102BC000036505950697FEF70BFD0820CDE9020683
:102BD000CDE90455069704F5806024E043F6300003
:102BE0000191C4F20200026942F00402026102692A
:102BF00002F004020192019A0191026842F0080277
:102C00000260006800F00800019001984FF4405005
:102C100002900220CDE90301CDE905100020C4F2A5
:102C2000020000F5406002A9FEF7DAFC07B0F0BD33
:102C300080B586B0006844F20002C4F201020021AF
:102C40009042CDE90411CDE90211019139D040F64D
:102C50000041C4F2000188421DD040F20041C4F29C
:102C6000000188424CD10020009043F63000C4F2AD
:102C70000200016841F0020101600068022100F0D9
:102C8000020000900098132001900020C4F202007E
:102C900000F580602BE00020009043F63000C4F285
:102CA0000200016841F0010101600068022100F0AA
:102CB0000100009000980C2001900020C4F2020056
:102CC00015E043F630000091C4F20200016841F0C3
:102CD000100101600068032100F0100000900098CE
:102CE000602001900020C4F2020000F58050022212
:102CF00002920022059101A9CDE90322FEF770FCA2
:102D000006B080BD90F83C30012B04BF0220704714
:102D10004FEAB2020123032A80F83C3000F2F88027
:102D20002DE9F043DFE802F002AF3D7D036840F299
:102D300000461C6A1A6A24F0020422F001021A6298
:102D40001A46D3F804C052F818EF8F6843F4806530
:102D5000C4F20106B54244EA070405D1CF6824F065
:102D60000C0427F004073C430F68B54206D1D1E9B3
:102D700005582CF440762E4346EA080C2EF07306D4
:102D80003743C3F804C09F614F6809695F631C62E1
:102D90009F6947F008079F619F6927F004079F61BB
:102DA000B0E0036840F200481C6A1A6A24F4007418
:102DB00022F480721A621A46D3F804C052F81CEF4B
:102DC0008F6843F48065C4F20108454544EA07244E
:102DD00008D1CF6840F2FF463F0224F4406427EA5E
:102DE00006063443D1F80090454506D1D1E9055691
:102DF0002CF440572E4347EA061C2EF0730747EA8F
:102E00000907C3F804C0DF614F680969DF631C620A
:102E1000DF6947F00807DF61DF6927F00407DF613A
:102E200070E0036840F20045D3F820C01A6A43F40A
:102E3000806722F480521A621A465C6852F81C8F2E
:102E4000D1F800E08E68C4F20105AF4204D14D69AB
:102E500024F4804444EA85142CF4005747EA0637EA
:102E600028F4E64646EA0E265C60DE614E68096993
:102E70001E641F62DF6947F40067DF61DF6927F4C2
:102E80008067DF613DE0036840F200481C6A1A6A0F
:102E900024F0200422F010021A621A46D3F804C06B
:102EA00052F818EF8F6843F48065C4F20108454575
:102EB00044EA071407D1CF686FF0400624F0C0043D
:102EC00006EA07163443D1F80090454506D1D1E90A
:102ED00005562CF440672E4347EA860C2EF4E6474D
:102EE00047EA0927C3F804C09F614F6809699F63D7
:102EF0001C629F6947F400679F619F6927F48067A0
:102F00009F6109021368194300231160BDE8F04373
:102F1000002180F83C10184670470000002804BFCC
:102F20000120704710B5044690F83D0028B90020F4
:102F300084F83C00204600F01FF8022084F83D0091
:102F40002068211D02F098FC012084F8460084F8D6
:102F50003E0084F83F0084F8400084F8410084F883
:102F6000420084F8430084F8440084F8450084F863
:102F70003D00002010BD00007047000090F8423076
:102F8000202B07D100294FF0010318BF002A04D1DC
:102F900018467047022318467047B0B582B0012327
:102FA000002503634563044602F070FE216B012394
:102FB000012912D1019521680A680192496801919D
:102FC000019900BF216851E8031F226841F01001F8
:102FD00042E80313002BF5D1034602B0BDE8B04030
:102FE0001846704740F67862C2F200021278002A52
:102FF00008BF704770B544F62C560025C2F2000693
:1030000056F82530D3F80441844205D00135954265
:10301000F6D3BDE870407047D3F8080130B10C46D4
:10302000804756F825002146FDF7ACF956F82510E3
:10303000D1F8040191F80021FFF7A0FF56F8250010
:10304000D0F80401C06B0068016821F0080101603C
:10305000BDE870407047000040F67861C2F20001A0
:103060000A78002A08BF7047B0B544F62C550024F2
:10307000C2F2000555F82410D1F80431834205D07E
:1030800001349442F6D3BDE8B040704791F8002176
:103090001846FFF773FF55F82400D0F80401C06B01
:1030A0000068016821F008010160BDE8B040704788
:1030B000B0B582B001680A68CC684B6902F02F0590
:1030C000202D04F0200505D125B102B0BDE8B040A7
:1030D00002F00CBD5FEA027C1EBF03F0010E04F497
:1030E000907313EB0E0340D1036BD50618D5012B5B
:1030F00016D114F0100313D0002201920A68019235
:103100004A680192019A4969490647D4818DC28D66
:10311000C38D002B18BF914240F01A8102B0B0BDA0
:1031200013062AD514F0800327D090F84120212AD5
:10313000F4D18268B2F5805F03D10269002A00F001
:103140003A81026A531C036212784A60C28C013AC7
:103150001304C284E2D1C86820F08000C860C86847
:1031600040F04000C86002B0B0BDD10718BF14F4F1
:10317000807167D151076BD471E05206CED514F03F
:103180004002CBD0CA6822F04002CA60202180F8F9
:10319000411002B0BDE8B04000F0F8BAC26B11684F
:1031A00049688BB2002B42D0858DAB423FD2C1859E
:1031B000D169B1F5807F33D0016851E8031F0268FF
:1031C00021F4807142E80313002BF5D1016851E826
:1031D000051F026821F0010142E80513002BF5D11B
:1031E000016851E8051F026821F0400142E805131B
:1031F000002BF5D1202180F842100021016300BF8F
:10320000016851E8031F026821F0100142E803132E
:10321000002BF5D1C16B04460846FDF7B9FF2046E7
:1032200002214163818DC28D891A89B2B9E0818DF5
:1032300099427FF473AFD269B2F5807F7FF46EAFAD
:103240000222ADE0416C41F001014164510706D515
:10325000BEF1000F03D0416C41F0020141649107BF
:1032600006D5BEF1000F03D0416C41F0040141646A
:10327000BCF1000F06D55EEA050103D0416C41F0B8
:1032800008014164416C00293FF448AF910604D520
:103290001DB1044602F02AFC204601684969426CCF
:1032A00001F0400102F0080289184AD0016851E893
:1032B000031F026821F4907142E80313002BF5D13B
:1032C000016851E8051F026821F0010142E8051379
:1032D000002BF5D1016B01290AD100BF016851E82B
:1032E000031F026821F0100142E80313002BF5D1FF
:1032F000202180F8421000210163016849694906D4
:1033000054D500BF016851E8051F026821F0400153
:1033100042E80513002BF5D1C16B002946D045F6D4
:10332000A512C0F60002044608460A65FDF770FFC4
:1033300000283FF4F3AEE06B016D02B0BDE8B04091
:1033400008470446FFF788FE0020606402B0B0BD65
:10335000891A00BF026852E8032F036822F49072B2
:1033600043E80325002DF5D1026852E8052F0368D4
:1033700022F0010243E80525002DF5D1202280F836
:1033800042200022026300BF026852E8032F036854
:1033900022F0100243E80325002DF5D1022289B264
:1033A000426302B0BDE8B040FFF71CBE02B0BDE80A
:1033B000B040FFF751BE026A32F8023B6FF35F2361
:1033C0004B600262C2E60000002804BF0120704783
:1033D00010B5044690F8410028B9002084F8400058
:1033E000204600F021F8242084F841002068C168BC
:1033F00021F40051C160204602F0D8FB2068016929
:1034000021F490410161416921F02A014161C168C3
:1034100041F40051C16000202021606484F8411013
:1034200084F84210606310BD2DE9F04387B0016855
:1034300044F6FF32C4F2000291424FF000020692BD
:10344000CDE90422CDE9022234DD41F20042C4F28A
:103450000102914258D041F20000C4F201008142C1
:1034600000F0C28044F60040C4F20000814240F007
:10347000B880002043F630010190C4F202010A69CD
:1034800042F400220A610A6902F400220192019AC0
:1034900001900A6842F001020A600968022201F004
:1034A0000101019101990321CDE903200820029136
:1034B0000591BBE044F20040C4F20000814200F0FC
:1034C000BA8044F60000C4F20000814240F08980D6
:1034D000002043F630010190C4F202010A6942F46F
:1034E00080220A610A6902F480220192019A019005
:1034F0000A6842F008020A60096801F008010191B7
:1035000001994FF44071B0E00546002643F63000C3
:103510000196C4F20200416946F2284841F02001B8
:1035200041614169C4F2020801F020010191019951
:103530000196016841F004010160006802A900F0F1
:10354000040001900198C02002900220CDE90306FA
:1035500003200590082006900020C4F2020000F528
:103560000060FEF73DF840F25844C2F200044FF00C
:1035700020674FF480692046C4E90087C4E90266E9
:10358000C4E90496C4E90666C4E90866FDF716FFB7
:10359000002818BFFDF764FBEC63A56340F2B84454
:1035A00008F17800C2F200044021C4E9000704F1E8
:1035B000080080E842022046C4E90566C4E90766BF
:1035C0006662FDF7FBFE002818BFFDF749FB4720A8
:1035D00005210022AC63A563FEF7D0FA4720FEF771
:1035E000BBFA07B0BDE8F083002043F6300101903C
:1035F000C4F202014A6942F010024A614A6902F0CB
:1036000010020192019A01900A6842F001020A60D8
:10361000096801F00101019101994FF4C061029123
:103620000221CDE903100320059007200690002019
:10363000C4F2020026E0002043F630010190C4F2FB
:1036400002010A6942F400320A610A6902F4003296
:103650000192019A01900A6842F008020A60096822
:1036600001F0080101910199602104900320059067
:1036700007200690002002910221C4F2020003916B
:1036800000F5406002A9FDF7ABFF07B0BDE8F0838D
:1036900070470000704700002DE9F04381B00446F8
:1036A00090F84100202809D1884600294FF00100F8
:1036B00018BF002A06D101B0BDE8F083022001B096
:1036C000BDE8F0830020606421201D4684F841009D
:1036D0001646FEF755F8A684E684A1680646B1F5BD
:1036E000805F02D1206900284DD0C1464FF000080C
:1036F000E08C40B36F1C0BE0B9F1000F1AD019F841
:10370000010B21684860E08C0138E084E08CD0B186
:10371000206800680006EFD4002FF9D0FEF730F8DB
:1037200001464FF0030045B3891BA94225D8206804
:10373000C068EDE738F8020B21686FF35F2048603E
:103740004FF00009DFE720680068400614D46F1CC2
:1037500004E000BF2068006840060DD4002FF9D0B7
:10376000FEF70EF801464FF0030035B1891BA94260
:1037700003D82068C068EDE70020202184F84110BC
:1037800001B0BDE8F0834FF00009B1E770470000D9
:10379000FEE7000040F2AC2440F2742541F214062A
:1037A000C2F20004C2F20005C2F200062046294619
:1037B0003246FCF7C7FE0A2003F0B6FCF6E700002D
:1037C00010B52DED068B00EE100A9FED251AB8EE10
:1037D000400A80EE010A91ED001A91ED022A91ED66
:1037E000013A144620EE019A92ED021A20EE022AC6
:1037F00020EE03AA32EE010A82ED020A04F018FA62
:1038000094ED021AB0EE408AB0EE410A04F004F9D9
:103810002AEE000A29EE081A94ED012A31EE001A68
:1038200094ED020A32EE011A84ED011A04F0F4F864
:1038300094ED021AB0EE408AB0EE410A04F0F8F9B5
:1038400020EE0A0A29EE081A94ED002A31EE400A09
:1038500032EE000A84ED000ABDEC068B10BD00BFFD
:1038600000007A440021C0E9031141617047000063
:1038700070B52DED048B90ED000A90ED011A90EDDE
:10388000022A90ED033A30EE014A31EE400A34EE5E
:10389000024A30EE021A30EE420A34EE034AB5EE26
:1038A000005A33EE411A30EE030A92ED008A92ED8F
:1038B000019A24EE054A21EE051A10EE100A0C4674
:1038C00081ED004A81ED011A05F01AFC38EE090A73
:1038D000054610EE100A0E4605F012FC9FED080B8F
:1038E00053EC102B05F014FA02460B4628463146DD
:1038F00005F02AF804F04EFFA060BDEC048B70BD0B
:10390000000000000000104001720021C0E9031116
:1039100041614CF6CD41C3F6CC5180EC020AC0E9BE
:103920000F11416470470000137A92ED000A92ED86
:10393000011A012B21D0002B18BF704790ED002AEF
:1039400090ED013A90ED024A30EE010A33EE422A40
:1039500024EE001A31EE021A81ED001A90ED001AE1
:1039600090ED012A90ED023A32EE011A23EE002A80
:10397000021D31EE421A03461DE090ED002A90ED43
:10398000013A90ED024A30EE010A32EE032A24EEAB
:10399000001A32EE411A81ED001A90ED001A90EDF6
:1039A000012A90ED023A31EE421A23EE002A031D5D
:1039B00032EE011A024681ED011A92ED001A93EDE2
:1039C000002A90ED023A31EE421A23EE002A31EE3F
:1039D000421A81ED021A92ED001A93ED002A90ED41
:1039E000023A31EE021A23EE000A30EE010A81EDAE
:1039F000030A70472DE9F04F81B02DED068B82B0A0
:103A00008146D0E900069A461546019105F078FBFB
:103A10000746A8688B4605F073FB41EC180BB0EE27
:103A2000480AF0EE680A03F093FFB0EE409A304681
:103A3000F0EE609A05F064FBB0EE480AF0EE680A1A
:103A400006460D4604F090F851EC100B32462B461A
:103A500005F05EF90446884653EC192B3846594662
:103A600005F056F92246434604F0C6FE04F092FEE5
:103A7000B0EE480AF0EE680A0AEE100A04F074F894
:103A8000B0EE409AB0EE480AF0EE609AF0EE680AA6
:103A900003F05EFF51EC100B32462B4605F038F96F
:103AA00004460D4653EC192B3846594605F030F9BB
:103AB00002460B462046294605F034FA04F06AFE19
:103AC0009AF8081099ED020A9AED002A9AED013A47
:103AD000012901EE100A1AD0A1BB32EE032A31EE01
:103AE0004A4A20EE023A3AEE011A20EE420A0198C2
:103AF00033EE045A30EE012A30EE040A80ED005A0B
:103B000080ED012A80ED020A33EE010A18E032EE60
:103B1000032A3AEE014A20EE423A3AEE411A20EEEA
:103B2000020A019833EE045A30EE012A33EE011AEC
:103B300030EE040A80ED005A80ED012A80ED021A71
:103B400080ED030A02B0BDEC068B01B0BDE8F08F3A
:103B50002DE9F04140F20044C4F2020417460E463B
:103B6000054620464FF4805100229846FDF702FE9C
:103B70002A2000F061FC20464FF480510122FDF71D
:103B8000F9FD280A00F058FCE8B200F055FC380AAC
:103B900000F052FCF8B200F04FFC20464FF4805188
:103BA0000022FDF7E7FD2B2000F046FC20464FF4F5
:103BB00080510122FDF7DEFD06F11805A8B2000ACA
:103BC00000F03AFCE8B200F037FC08F11805A8B2A2
:103BD000000A00F031FCE8B200F02EFC20464FF461
:103BE00080510022FDF7C6FD2C2000F025FC204668
:103BF0004FF480510122BDE8F041FDF7BBBD00004C
:103C00002DE9F04381B00E468146501E591E98465C
:103C1000154682B28BB248463146FFF799FF4645BA
:103C200012D2089C04E000BF0136B0B240450BD26E
:103C3000A945F9D24F4600BF204600F0F3FB0137FB
:103C4000B8B2A842F8D3EFE701B0BDE8F0830000B6
:103C500010B540F20044C4F2020420464FF4804103
:103C60000022FDF787FD642003F05EFA20464FF442
:103C700080410122FDF77EFD642003F055FA04F532
:103C800040604FF480610122FDF774FD642003F071
:103C90004BFA20464FF480510022FDF76BFD1120B6
:103CA00000F0CAFB20464FF480510122FDF762FD6F
:103CB000782003F039FA20464FF480510022FDF7B6
:103CC00059FDB12000F0B8FB20464FF4805101228D
:103CD000FDF750FD052000F0AFFB3C2000F0ACFBF1
:103CE0003C2000F0A9FB20464FF480510022FDF754
:103CF00041FDB22000F0A0FB20464FF4805101228C
:103D0000FDF738FD052000F097FB3C2000F094FB08
:103D10003C2000F091FB20464FF480510022FDF73B
:103D200029FDB32000F088FB20464FF4805101228A
:103D3000FDF720FD052000F07FFB3C2000F07CFB20
:103D40003C2000F079FB052000F076FB3C2000F0E1
:103D500073FB3C2000F070FB20464FF480510022A2
:103D6000FDF708FDB42000F067FB20464FF48051BA
:103D70000122FDF7FFFC032000F05EFB20464FF41C
:103D800080510022FDF7F6FCC02000F055FB2046D4
:103D90004FF480510122FDF7EDFC0E2000F04CFBAA
:103DA0000E2000F049FB042000F046FB20464FF4B3
:103DB00080510022FDF7DEFCC12000F03DFB2046D3
:103DC0004FF480510122FDF7D5FCC52000F034FBF3
:103DD00020464FF480510022FDF7CCFCC22000F0B9
:103DE0002BFB20464FF480510122FDF7C3FC0D2030
:103DF00000F022FB002000F01FFB20464FF4805112
:103E00000022FDF7B7FCC32000F016FB20464FF45C
:103E100080510122FDF7AEFC8D2000F00DFB2A2021
:103E200000F00AFB20464FF480510022FDF7A2FC6F
:103E3000C42000F001FB20464FF480510122FDF721
:103E400099FC8D2000F0F8FAEE2000F0F5FA2046FB
:103E50004FF480510022FDF78DFCC52000F0ECFAF4
:103E600020464FF480510122FDF784FC062000F02B
:103E7000E3FA20464FF480510022FDF77BFC362008
:103E800000F0DAFA20464FF480510122FDF772FC6F
:103E9000782000F0D1FA20464FF480510022FDF73F
:103EA00069FC3A2000F0C8FA20464FF48051012204
:103EB000FDF760FC552000F0BFFA20464FF480511A
:103EC0000022FDF757FCE02000F0B6FA20464FF440
:103ED00080510122FDF74EFC0B2000F0ADFA1720B7
:103EE00000F0AAFA0A2000F0A7FA0D2000F0A4FAC8
:103EF0001A2000F0A1FA192000F09EFA162000F016
:103F00009BFA1D2000F098FA212000F095FA262057
:103F100000F092FA372000F08FFA3C2000F08CFA83
:103F2000002000F089FA092000F086FA052000F050
:103F300083FA102000F080FA20464FF480510022CE
:103F4000FDF718FCE12000F077FA20464FF480518D
:103F50000122FDF70FFC0C2000F06EFA192000F092
:103F60006BFA092000F068FA0D2000F065FA1B20BA
:103F700000F062FA192000F05FFA152000F05CFAF8
:103F80001D2000F059FA212000F056FA262000F0FA
:103F900053FA392000F050FA3E2000F04DFA00208C
:103FA00000F04AFA092000F047FA052000F044FA30
:103FB000102000F041FA782003F0B6F820464FF4C4
:103FC00080510022FDF7D6FB292000F035FA20466B
:103FD0004FF480510122BDE81040FDF7CBBB00003B
:103FE0002DE9F04F87B0DDF8448083464FEA58074B
:103FF0004FEA18101C46914601237A0718BF03EBBD
:10400000181000FB08F50BEB580001EB0802013813
:10401000531E82B29BB258460E460691FFF798FD9A
:10402000002D00F08D80A8F10C00C1B2800140EAA3
:104030009100C3B2052B00F283800120984010F05C
:104040002B0F00F07D802A46A9F120000121C0B28B
:10405000012D98BF0A4649F6CC51059200EB40026B
:10406000C0F6000101EB0211029149F2DC71C0F6C9
:10407000000101EB001101914AF69C71C0F60001AC
:104080004FF0000A01EB80105E464FF000090392EA
:104090000090049308E04FF0000900BF05980AF172
:1040A000010A049B82454BD0032B0DD0012B09D074
:1040B00063B9039849F26831C0F6000101EB800052
:1040C00005E000BF019802E0029800E0009850442B
:1040D00005784FF0000815E028422046109908BFE7
:1040E000084600F09FF909F101095FFA89F0B0FB79
:1040F000F7F101FB17000028CDD008F10108B8F155
:10410000080FCBD0129800284FF0010000FA08F0F9
:10411000E2D0284209D00699B0B289B202460B46D5
:10412000FFF716FD204600F07DF90136B0B2A0EB96
:104130000B00B842E1D106985E4601300690ADE72B
:1041400007B0BDE8F08F0000002A08BF70472DE9D6
:10415000F04F89B09FED3A1A1646139A20EE010AE5
:10416000129DBDEEC00A10EE107A4FEA520A4FF0CF
:1041700000090597CDE90613089037E0DDF84CB04B
:104180000899CDF804B0DDF818B0079F10FB0A10AD
:1041900080B2594604922E223B4600240095029498
:1041A000FFF71EFF089CDDF84CE0049A4FF0000C6E
:1041B00059463B4609F10109013602EB8200A8EBA2
:1041C00040005FFA89F212FB0A4740F03002B8B2B1
:1041D000D2B2CDE9005ECDF808C0FFF701FF09F1CA
:1041E00001095FFA89F0F1B2884224D26FEA09002E
:1041F0003044010608D00121013801EB810102069B
:104200004FEA4101F8D100E00121059BF0B2B3FB78
:10421000F1F849F69A115FFA89F20238C1F699115C
:104220009042A8FB0112A9D006ACDDF84CE01ACCF4
:104230004FF0000CC1E709B0BDE8F04F704700BF78
:104240000000C8422DE9F04F83B09B461378CBB1F4
:10425000DDE90C9ADDF838800D4606464FEA5A072C
:10426000541E00BFB0B2DAB229465B46CDE9009ACF
:10427000CDF80880FFF7B4FEA3783E44002B04F18C
:104280000104EFD103B0BDE8F08F000084B04FF619
:10429000FF77FFF7DDFC00200021A02250230097CC
:1042A0000025FFF7ADFC40F2AC2A4CF2647440F2FA
:1042B000742BC2F2000A1026C0F60004C2F2000BF2
:1042C0000FF250180FF254199AED000A0020142131
:1042D00004224FF47843CDE90076FFF735FF302014
:1042E000142122464FF47843CDE900760295FFF77A
:1042F000A9FF9AED010A3A20142104224FF47843D1
:10430000CDE90076FFF720FF6A20282122464FF4EE
:104310007843CDE900760295FFF794FF9AED020A03
:104320007420142104224FF47843CDE90076FFF77E
:104330000BFF9BED000A0020282104224FF4784354
:10434000CDE90076FFF700FF3020282122464FF408
:104350007843CDE900760295FFF774FF9BED010AE3
:104360003A20282104224FF47843CDE90076FFF764
:10437000EBFE6A20282122464FF47843CDE90076EF
:104380000295FFF75FFF9BED020A742028210422AB
:104390004FF47843CDE90076FFF7D6FE41F21400E2
:1043A000C2F2000090ED000A0A203C2104224FF4E2
:1043B0007843CDE90076FFF7C7FE34203C21224642
:1043C0004FF47843CDE900760295FFF73BFF3E209E
:1043D0003C2142464FF47843CDE900760295FFF741
:1043E00031FF64203C2122464FF47843CDE900762A
:1043F0000295FFF727FF6A203C214A464FF4784395
:10440000CDE900760295FFF71DFF642002F08CFED7
:104410005AE700BF6779726F00000000616363654F
:104420006C00000010B50446000A00F005F8E0B288
:10443000BDE81040AFF30080F0B581B040F2004617
:10444000C4F2020606F50065044628464FF4806172
:1044500000220027FDF78EF930464FF4005100226C
:10446000FDF788F9E0B2C20930464FF40041FDF78C
:1044700081F930464FF400510122FDF77BF96400C9
:10448000072F07F10107E7D328464FF48061012287
:1044900001B0BDE8F040FDF76DB90000B0B584B0E3
:1044A00040F2B82042F2000101230024C2F20000D1
:1044B000C4F20101C0F600730125CDE90244CDE943
:1044C00000444FF48032047680F82040C0E90A347A
:1044D000C56180F8304080E81600C0E903444561BA
:1044E000FCF75CFC002818BFFCF7BAFB0A20CDE9FA
:1044F000000540F2B820C2F2000069460294FCF7C1
:10450000B3FB002818BFFCF7ABFB04B0B0BD000044
:10451000B0B584B040F2003042F200110123002413
:10452000C2F20000C4F20101C0F600730125CDE91A
:104530000244CDE900444FF48032047680F82040F4
:10454000C0E90A34C56180F8304080E81600C0E94F
:1045500003444561FCF722FC002818BFFCF780FBF0
:104560000A20CDE9000540F20030C2F200006946A1
:104570000294FCF779FB002818BFFCF771FB04B02C
:10458000B0BD000080B540F2483046F20041C2F2B2
:104590000000C4F200010322002380E80E0000F1B5
:1045A0000C014FF4102C4FF4001E81E80850836179
:1045B0008383FCF7EFFC002808BF80BDBDE8804086
:1045C000FCF74EBB80B540F2703046F60001C2F2F7
:1045D0000000C4F200010322002380E80E0000F175
:1045E0000C014FF4102C4FF4001E81E80850836139
:1045F0008383FCF7CFFC002808BF80BDBDE8804066
:10460000FCF72EBB80B582B0002043F6300101904C
:10461000C4F202010A6842F400120A600A6802F455
:1046200000120192019A00900868002240F4800074
:1046300008600868052100F48000009000980B20B5
:10464000FDF79CFA0B20FDF787FA102005210022C8
:10465000FDF794FA1020FDF77FFA3920052100229A
:10466000FDF78CFA3920FDF777FA45200521002265
:10467000FDF784FA452002B0BDE88040FDF76CBA32
:1046800080B588B00B4802AF01900AA000F1040E7B
:104690009EE80E50806987E80E50079001A800211F
:1046A00001F0F4FF40F2A821C2F20001086008B056
:1046B00080BD00BF66C700088157000800000000E9
:1046C000000000008000000000000000000000006A
:1046D0002DE9F04F87B0002443F630000694CDE971
:1046E0000444CDE902440194C4F20200016840F69A
:1046F000004841F0100101600168C4F2020801F0B5
:1047000010010191019901940168A8F5406A41F0F6
:10471000800101600168002201F08001019101998E
:1047200001940168102541F004010160016801F065
:104730000401019101990194016841F001010160B6
:10474000016801F00101019101990194016841F0B2
:1047500002010160016801F00201019101990194D7
:10476000016841F0080101600068102100F00800B4
:10477000019001985046FCF7FDFF08F58069484616
:104780004FF4044100224FF4044BFCF7F3FFA8F56B
:10479000006630464FF4704101220127FCF7EAFF22
:1047A00040464FF492610122FCF7E4FF40464FF48B
:1047B00040410022FCF7DEFFCDE9025702AD504632
:1047C0002946CDE90444FCF70BFF48462946CDE9CC
:1047D00002B7CDE90444FCF703FF4FF48050CDE964
:1047E00002074FF00209304629460494CDF8149090
:1047F000FCF7F6FE4FF46040CDE90207304629464B
:10480000CDE90479FCF7ECFE4FF48060CDE90207B6
:1048100040462946CDE90449FCF7E2FE4FF440400A
:10482000CDE9020740462946CDE90444FCF7D8FE0D
:104830000C2002904FF48810CDE90307404629462A
:10484000FCF7CEFE9020CDE9020740462946CDE98F
:104850000479FCF7C5FE082005210022FDF78EF93A
:104860000820FDF779F9092005210022FDF786F9D6
:104870000920FDF771F907B0BDE8F08F80B540F26F
:10488000185045F20041C2F20000C4F2000148F2A3
:10489000A06200234FF4804CC0F2010280E80E00B9
:1048A000C0E9033CC0E90533C0E90733FCF76EFFFC
:1048B000002808BF80BDBDE88040FCF7D1B90000EA
:1048C00080B540F26C5045F60001C2F20000C4F21F
:1048D000000148F2A06200234FF4804CC0F20102B4
:1048E00080E80E00C0E9033CC0E90533C0E90733A6
:1048F000FCF74CFF002808BF80BDBDE88040FCF7F6
:10490000AFB9000080B540F2C05045F60041C2F298
:104910000000C4F2000148F2A06200234FF4804C72
:10492000C0F2010280E80E00C0E9033CC0E9053393
:10493000C0E90733FCF72AFF002808BF80BDBDE8A7
:104940008040FCF78DB9000080B540F6F82043F2B6
:104950000001C2F20000C4F201014FF48272002390
:104960004FF4007C80E80E000A21C0E90333C0E95F
:10497000053CC361C0E90833C0E90A31FDF79CFC7E
:10498000002808BF80BDBDE88040FCF769B9000081
:10499000B0B540F6503043F60041C2F20000C4F218
:1049A00000014FF48272002380E80E0000F10C0138
:1049B0004FF0020C4FF0010E4FF40074302581E8E7
:1049C00008500A21C0E90645C0E90833C0E90A31A8
:1049D000FDF772FC002808BFB0BDBDE8B040FCF791
:1049E0003FB90000B0B58CB003AC20462421FBF7E2
:1049F000C9FC40F6A8300025C2F200004FF080410B
:104A0000C0E9001501214FF0FF32CDE90315CDE9D2
:104A10000515CDE909152146CDE90055C0E9025239
:104A200005618561CDE907550B95FEF72FF8002844
:104A300018BFFCF715F940F6A830C2F2000069462D
:104A4000CDE90055FDF77EFE002818BFFCF708F9F8
:104A50000CB0B0BD10B58EB040F6F03040F2004260
:104A60000021C2F20000C4F200024FF6FF730D9164
:104A7000CDE90B11CDE90911CDE90711CDE90511FA
:104A8000CDE90311CDE90111C0E90021C0E902130C
:104A900001618161FDF7B4FE002818BFFCF7E0F862
:104AA0004FF480500A9040F6F030C2F200000AA99C
:104AB000FDF71CFF002818BFFCF7D2F840F6F030D5
:104AC000C2F20000FEF72AFA002818BFFCF7C8F867
:104AD00040F6F0300024C2F2000008A9CDE90844F5
:104AE000FDF730FE002818BFFCF7BAF86020CDE9CA
:104AF000010440F6F030C2F2000001A90022039444
:104B00000594FEF7FFF8002818BFFCF7A9F840F657
:104B1000F030C2F2000001A90822FEF7F3F80028E5
:104B200018BFFCF79DF840F6F030C2F2000001A972
:104B30000C22FEF7E7F8002818BFFCF791F840F6C2
:104B4000F030C2F20000FEF773F80EB010BD0000A6
:104B5000B0B58CB003AC20462421FBF713FC40F623
:104B6000384040F600010025C2F20000C4F2000106
:104B7000C0E9001501214FF6FF72CDE90315CDE91B
:104B80000515CDE909152146CDE90055C0E90252C8
:104B900005618561CDE907550B95FDF777FF002885
:104BA00018BFFCF75DF840F63840C2F200006946D5
:104BB000CDE90055FDF7C6FD002818BFFCF750F8F9
:104BC0000CB0B0BD10B58EB040F6804040F600424B
:104BD0000021C2F20000C4F200024FF0FF330D9139
:104BE000CDE90B11CDE90911CDE90711CDE9051189
:104BF000CDE90311CDE90111C0E90021C0E902139B
:104C000001618161FDF7FCFD002818BFFCF728F861
:104C10004FF480500A9040F68040C2F200000AA98A
:104C2000FDF764FE002818BFFCF71AF840F6804034
:104C3000C2F20000FEF772F9002818BFFCF710F866
:104C400040F680400024C2F2000008A9CDE90844E3
:104C5000FDF778FD002818BFFCF702F86020CDE9C9
:104C6000010440F68040C2F2000001A9082203942A
:104C70000594FEF747F8002818BFFBF7F1FF40F650
:104C80008040C2F2000001A90C22FEF73BF8002888
:104C900018BFFBF7E5FF40F68040C2F20000FDF7C9
:104CA000C7FF0EB010BD000080B58CB040F6C84004
:104CB00044F200020021C2F20000C4F201024FF6E9
:104CC000FF730B91CDE90911CDE90711CDE905116C
:104CD000CDE90311CDE90111C0E90021C0E90213BA
:104CE00001618161FDF78CFD002818BFFBF7B8FF5B
:104CF0004FF48050089040F6C840C2F2000008A966
:104D0000FDF7F4FD002818BFFBF7AAFF40F6C840E6
:104D1000C2F20000FEF702F9002818BFFBF7A0FF5F
:104D2000602001900020CDE90200059040F6C840C7
:104D3000C2F2000001A90022FDF7E4FF002818BF1D
:104D4000FBF78EFF40F6C840C2F2000001A9042222
:104D5000FDF7D8FF002818BFFBF782FF40F6C840D8
:104D6000C2F20000FDF764FF0CB080BD80B540F6D4
:104D7000E85044F60041C2F20000C4F200010023F2
:104D80004FF00C0C4FF4E13280E80E00C0E9033321
:104D9000C0E905C3C361FEF717FB002808BF80BD4B
:104DA000BDE88040FBF75CBF80B540F6105041F293
:104DB0000001C2F20000C4F2010100234FF00C0C0C
:104DC0004FF4E13280E80E00C0E90333C0E905C3C7
:104DD000C361FEF7F9FA002808BF80BDBDE8804036
:104DE000FBF73EBF80B540F6585044F20041C2F296
:104DF0000000C4F2000100234FF00C0C4FF4E1322C
:104E000080E80E00C0E90333C0E905C3C361FEF7C3
:104E1000DBFA002808BF80BDBDE88040FBF720BF5B
:104E200080B540F6A05044F60001C2F20000C4F282
:104E3000000100234FF00C0C4FF4E13280E80E002B
:104E4000C0E90333C0E905C3C361FEF7BDFA00281A
:104E500008BF80BDBDE88040FBF702BF80B540F6CB
:104E6000306041F20041C2F20000C4F201010023AF
:104E70004FF00C0C4FF4E13280E80E00C0E9033330
:104E8000C0E905C3C361FEF79FFA002808BF80BDD3
:104E9000BDE88040FBF7E4BE80B540F21460C2F28A
:104EA00000004FF0A0410160042101714FF4007136
:104EB000C1800221C0F809100021C181FCF79AFECF
:104EC000002808BF80BDBDE88040FBF7C9BE0000D8
:104ED000FEE7000070470000FEE7000084B002F02B
:104EE000A9FB41F2100940F260240646C2F2000913
:104EF0004FF0000AC2F20004E8460EE02068414686
:104F0000D0F8A821CDE902AACDF804A0CDF800A0E0
:104F100090470A2002F008F92E4602F08BFB074664
:104F200002F088FBD9F8001005460029E6D0B0B29F
:104F3000381AB0F1FF3118BF014620688EB23146F1
:104F4000FBF746FC20683146D0F8B021E0E70000CE
:104F500002F070FB40F66C750446C2F2000500BF1B
:104F600002F068FBA1B2401AB0F1FF3618BF064646
:104F700002F060FB04462868B1B200F075FA3220F6
:104F800002F0D2F8ECE7000040F20C0741F2100A00
:104F900040F6707640F66C7540F29C249FED388A9E
:104FA0004FF00009C2F20007C2F2000A4FF0010BF5
:104FB000C2F20006C2F20005C2F20004B6EE009A88
:104FC0004FF0000807E0002300F0A4F8C82002F02A
:104FD000ABF808F10108B8F1020FF7D338680128DF
:104FE000F4D13068CAF800B002283CD0012822D0A1
:104FF0000028EBD128689C3000F088FB0028E5D021
:105000004FF07C50206000206060A060306840F26B
:1050100010024DF20A710130C2F20002C3F62341C0
:10502000306028684FF0000911605160916021469E
:10503000B0EE490AC7E728689C3000F067FB0028FB
:10504000C4D04FF03F40C4E90000306840F2100285
:10505000411C286831602146B0EE480AC2F20002C5
:10506000C4F80890AFE728689C3000F04FFB002898
:10507000ACD000204FF0000938603060A6E700BFD8
:105080009A99993E80B546F6F50C46F6051E00F154
:105090005C07C0F6000CC0F6000E87E80E5080ECEE
:1050A000030A80BD000000000000000000000000B6
:1050B000EFF30980BFF36F8F154B1A681EF0100FC6
:1050C00008BF20ED108A20E9F04F10602DE909009B
:1050D0004FF0500080F31188BFF34F8FBFF36F8FF5
:1050E00002F0CCF84FF0000080F31188BDE8090011
:1050F00019680868B0E8F04F1EF0100F08BFB0EC58
:10510000108A80F30988BFF36F8F704700BF00BF1C
:10511000740F002070B584B0044600201546CDE918
:105120000100039001AA20460E4600F021F8D4F8B1
:10513000980095E80E00D0F8A4013C300EC0012084
:1051400084F89D0096E80700E261C4E90501D4F8FF
:105150009800D0F8A40100F10C030ECB04F19C00E0
:10516000C4E90212236104B070BD00000000000019
:105170002DE9F0472DED0C8B00F19C0804464046CC
:105180001D469146B0EE408A0F4600F0C5FA97EDF5
:10519000009A55B1D4F8980097ED01CAD0F8A4014F
:1051A00097ED02BAFEF75EFB13E0D4F8980097ED96
:1051B000023AD0F8A40190ED030A90ED041A90EDA4
:1051C000052A39EE409A97ED010A33EE42BA30EEE5
:1051D00041CAB5EE409AF1EE10FA0CD1B5EE40CAD4
:1051E000F1EE10FA07D1B5EE40BAF1EE10FA02D1A5
:1051F0009FED61DA33E02CEE0C0A29EE091A31EE4C
:10520000000A00F08DFA10EE100A03F079FF8246D2
:1052100018EE100A0F4603F073FF9FED530B53EC8B
:10522000102B03F075FD06460D46504639463246B2
:105230002B4603F089FB07461BEE100A20F00040C6
:105240008A4603F05DFF32462B4603F07DFB3A466B
:10525000534603F0D1FA03F09DFA0DEE100A1DEE4D
:10526000100A04F1200503F04BFF41EC180B19EE76
:10527000100A03F045FF41EC1A0BD9F8000003F0C7
:105280003FFF9FED3B9B41EC150BB0EE490AB0EEA2
:10529000491AB0EE482AB0EE4A3AB0EE494A2846DA
:1052A000F0EE690AF0EE691AF0EE682AF0EE6A3A5A
:1052B000F0EE694AFBF714FC1CEE100A04F14805F5
:1052C00003F01EFF41EC1A0BD9F8040003F018FF9D
:1052D00041EC150BB0EE490AB0EE491AB0EE482A7F
:1052E000B0EE4A3AB0EE494A2846F0EE690AF0EECE
:1052F000691AF0EE682AF0EE6A3AF0EE694AFBF7B6
:10530000EFFB1BEE100A04F1700503F0F9FE41EC0F
:105310001A0BD9F8080003F0F3FE41EC150BB0EEC0
:10532000490AB0EE491AB0EE482AB0EE4A3AB0EE59
:10533000494A2846F0EE690AF0EE691AF0EE682A4A
:10534000F0EE6A3AF0EE694AFBF7CAFB002184ED01
:1053500000DAA180404684F89D10BDEC0C8BBDE8BE
:10536000F08700BF00BF00BF000000000000E03F6A
:10537000000000000000000000000000000000002D
:10538000B0B52DED028B9FED368B04460020B0EEBC
:10539000480AB0EE481AB0EE482AB0EE483AB0EEED
:1053A000484AB0EE485A2060A080C4E90500E06198
:1053B00004F12000F0EE680AF0EE681AF0EE682AB8
:1053C000F0EE683AF0EE684AF0EE685A0D46FBF7E8
:1053D00087FBB0EE480AB0EE481AB0EE482AB0EEAD
:1053E000483AB0EE484AB0EE485A04F14800F0EEB0
:1053F000680AF0EE681AF0EE682AF0EE683AF0EE0D
:10540000684AF0EE685AFBF76BFBB0EE480AB0EE64
:10541000481AB0EE482AB0EE483AB0EE484AB0EE2C
:10542000485A04F17000F0EE680AF0EE681AF0EEE7
:10543000682AF0EE683AF0EE684AF0EE685AFBF738
:105440004FFB04F19C00C4F8985000F05BF9012078
:1054500084F89D00BDEC028BB0BD00BF00BF00BF53
:10546000000000000000000070B52DED068B84B038
:1054700004468088014488B2A18003F035FC9FED8A
:105480005C0B53EC102B03F05FFA03F083F904F18B
:105490009C050646284600F039F9002840F0A48013
:1054A00094F89D0008EE106A012832D0002840F0E0
:1054B0009B8004F12000B0EE480AFBF781FBB0EEC0
:1054C000409A04F14800B0EE480AFBF779FBB0EED1
:1054D00040AA04F17000B0EE480AFBF771FBD4F863
:1054E0009800B0EE401AB0EE490AF0EE4A0A0121E7
:1054F000FBF7A4FA94ED000AB4EE480AF1EE10FAB4
:1055000072DC284604B0BDEC068BBDE8704000F0AC
:10551000FFB894ED000A04F12000B4EE480AF1EE61
:1055200010FAB8BFB0EE408AB0EE480AFBF7A6FA10
:1055300094ED021A04F1480030EE010A8DED010AE3
:10554000B0EE480AFBF79AFA94ED031A04F17000E2
:1055500030EE010A8DED020AB0EE480AFBF78EFA32
:10556000D4F8980094ED041AD0F8A41130EE010A92
:1055700001F13C0201A900238DED030AFBF788F934
:10558000D4F8980094ED050AD0F8A40190ED031A20
:1055900090ED0F2A30EE410AB0EEC00AB4EE420A96
:1055A000F1EE10FA20DA94ED060A90ED041A90ED6F
:1055B000102A30EE410AB0EEC00AB4EE420AF1EE13
:1055C00010FA11DA94ED070A90ED051A90ED112A00
:1055D00030EE410AB0EEC00AB4EE420AF1EE10FA23
:1055E00002DA284600F094F804B0BDEC068B70BDDA
:1055F0000000000000408F402DE9F04782B00A9C77
:10560000984615460E468146FCF7BAF8201A00EB7C
:105610000804FCF7B5F840F20801C2F2000109687D
:10562000C1F3CB3161430191D9F800108968314051
:10563000891BB1FA81F14909A94203D1002002B0C6
:10564000BDE8F087824608F101070CE001980138B7
:105650000190D9F8000080683040801BB0FA80F0DB
:105660004009A842EAD0002FF3D0FCF789F8A0EB5C
:105670000A00A04204D201980028E7D10024E8E7FC
:10568000D9E900014268B1F5827F22F0E002426070
:105690000BD1D9F80810B1F5004F02D0B1F5806FE9
:1056A00003D1016821F040010160D9F82810B1F55B
:1056B000005F07D1016821F400510160016841F4E5
:1056C00000510160012089F85100002089F8500044
:1056D000032002B0BDE8F0870000000000000000D9
:1056E000074B19680868B0E8F04F80F30988BFF3EA
:1056F0006F8F4FF0000080F31188704700BF00BF2C
:10570000740F00200021017070470000007870477E
:1057100001210170704700000021017070470000F6
:10572000B5EE400AF1EE10FADCBF9FED140A7047A7
:1057300045F6DF1110EE100AC5F63771A1EB6000D7
:10574000BEEE002A01EE100A20EE020A20EE012A27
:1057500022EE012AB7EE083A32EE032A22EE011AAF
:1057600020EE010A20EE010A30EE030A21EE000AC3
:10577000B7EE001A81EE000A704700BF000000007B
:10578000012000F075FFFBE7DDF800C00160426317
:1057900080F8383080ED0F0A80F840C07047000074
:1057A00080B5FCF765F901F031FF012808BF80BD25
:1057B000BDE8804001F03EBE70B592B006AC204618
:1057C0003021FAF7DFFD002543F640000595CDE9CD
:1057D0000355CDE901550095C4F202000168022687
:1057E00041F080510160006800F080500090009806
:1057F00047F200000095C4F20000016841F48041C6
:105800000160006800F4804000900098012006903C
:105810004FF4803007904FF480000D900C200E90D4
:10582000A820CDE90F060720119020460C96FCF722
:1058300095FB10B172B600BFFEE70F20CDE901065F
:105840004FF4A05004904FF48050059001A805211A
:105850000395FCF777FA10B172B600BFFEE712B0FD
:1058600070BD00004EF68850CEF20000016841F491
:105870007001016070470000B0B540F6FF3E05685A
:10588000C4F2000E40F2004C7045C4F2010C0FDC73
:10589000B0F1804F19D040F20043C4F200039842A7
:1058A00013D040F60003C4F2000398420DD011E07B
:1058B00040F60043C4F20003984206D0604504D08D
:1058C0000023C4F20103984204D14B6825F0700212
:1058D00043EA020541F6FF73C4F2000398420FDC6D
:1058E000704521DCB0F1804F41D040F20043C4F25A
:1058F000000398423BD040F60003C4F2000334E0BA
:1059000043F6FF73C4F2010398421EDC42F2000327
:10591000C4F2000398422AD00023C4F20103984243
:1059200025D0604523D027E040F60043C4F20003B1
:1059300098421CD041F60003C4F20003984216D0EE
:1059400041F60043C4F200030FE044F20003C4F246
:10595000010398420BD044F60003C4F201039842BD
:1059600005D044F20043C4F20103984204D1CB684D
:1059700025F4407243EA02050A688C684B69C462E8
:1059800040F480648262644504BF0969016302686F
:1059900025F0800142F004021943026001224261B5
:1059A0000160B0BD806B0021C185FDF755BB0000D3
:1059B000806B0168496990F84120212A11D111F0CA
:1059C00080010ED00021C184016851E8031F0268E4
:1059D00021F0C00142E80313002BF5D1202180F80B
:1059E00041100168496990F84220222A2BD111F018
:1059F000400128D00021C185016851E8031F0268D9
:105A000021F4907142E80313002BF5D1016851E8AD
:105A1000051F026821F0010142E80513002BF5D1B2
:105A2000016B01290AD100BF016851E8031F026818
:105A300021F0100142E80313002BF5D1202180F85A
:105A4000421000210163416C41F010014164FDF7F7
:105A500003BB00000168806B0968C90530D40021D0
:105A6000C18500BF016851E8031F026821F48071FD
:105A700042E80313002BF5D1016851E8051F0268C5
:105A800021F0010142E80513002BF5D1016851E82E
:105A9000051F026821F0400142E80513002BF5D1F3
:105AA000202180F84210016B012909D1016851E8D9
:105AB000031F026821F0100142E80313002BF5D107
:105AC00000214163016B012918BFFDF7E1BD818D04
:105AD000FDF788BA806B01214163016B012918BF72
