:020000040800F2
:10000000105A00209D01000859690008AD4A0008F7
:100010005169000855100008997C00080000000094
:100020000000000000000000000000004172000815
:10003000C516000800000000E16B0008017300080D
:10004000B7010008B7010008B7010008B7010008B0
:10005000B7010008B7010008B7010008B7010008A0
:10006000C9160008D1160008B70100089516000847
:10007000B7010008B7010008B7010008B701000880
:10008000A1160008B7010008B7010008B701000871
:10009000B7010008B7010008B7010008B701000860
:1000A000B7010008B7010008B7010008B701000850
:1000B000B7010008B7010008B7010008B701000840
:1000C000B7010008B7010008B7010008B701000830
:1000D000B7010008B7010008B7010008B701000820
:1000E000B7010008B7010008B7010008B701000810
:1000F000B7010008B7010008B7010008B701000800
:10010000B7010008B7010008B7010008B7010008EF
:1001100005750008B7010008B7010008B70100081D
:10012000B7010008AD160008B7010008B7010008C4
:10013000B7010008B7010008B7010008B7010008BF
:10014000B7010008B7010008B7010008B7010008AF
:10015000B7010008B9160008B7010008A578000823
:10016000B7010008B7010008B7010008B70100088F
:10017000B7010008B7010008B7010008000000003F
:10018000B7010008B7010008DFF80CD000F04EFC02
:100190000048004775800008105A00200648804734
:1001A00006480047FEE7FEE7FEE7FEE7FEE7FEE75C
:1001B000FEE7FEE7FEE7FEE7C573000889010008D9
:1001C0002DE9F05F0546002092469B46884606468C
:1001D000814640241BE0284641464746224600F01F
:1001E0002CFB53465A46C01A914110D3114618466B
:1001F000224600F013FB2D1A67EB01084F462246FA
:100200000120002100F00AFB17EB00094E41201EDF
:10021000A4F10104DFDC484631462A464346BDE8E6
:10022000F09FD2B201E000F8012B491EFBD27047CB
:100230000022F6E710B513460A4604461946FFF7B2
:10024000F0FF204610BD00000FB400B58DB010A91E
:1002500009900B9000914FF0FF300A9000200C9015
:1002600005480690054807906A4609A80F9900F0CE
:100270001BFB0DB05DF814FBC5080008E30800087F
:100280002DE9FF5F1D464FF0FF3BD5E90146914642
:100290005F464FF00008A9697F1C01988847296ACA
:1002A000824688470028F6D1BAF1FF3F0CD024F4EB
:1002B000C064002E19DD600614D5BAF12B0F09D0E9
:1002C000BAF12D0F0ED103E0584604B0BDE8F09FFF
:1002D00044F48064A9697F1C01988847761E824691
:1002E000002E02DDBAF1300F03D0B9F1000F26D095
:1002F00032E0A969761E44F400747F1C0198884797
:100300008246002E05DDBAF1780F06D0BAF1580FFB
:1003100003D0B9F1000F10D01EE0B9F1000F02D0E8
:10032000B9F1100F18D1A969761E24F400747F1C4E
:10033000019888478246102002E0082000E00A2049
:10034000814609E008FB0908A969761E44F4007497
:100350007F1C019888478246002E05DD494650469D
:1003600000F08DFA0028EDDAE96901988847A005C8
:1003700002D46FF00100A8E7E00725D1600613D58D
:10038000600502D5C8F1000000E0404629680A1D5A
:100390002A600968220501D5087015E0220701D5F9
:1003A000088011E008600FE02868011D29600068DE
:1003B000210502D580F8008006E0210702D5A0F8CB
:1003C000008001E0C0F8008038467EE72DE9FE4F4E
:1003D000804681EA0300C00F0C46009021F00041E6
:1003E00023F00045B8EB0200A94105D24046214662
:1003F00090461C460B46024623F00040104347D06F
:10040000270DC7F30A00C3F30A510290401A019066
:1004100040286BDAC3F3130040F4801B0098924627
:1004200020B10023D2EB030A63EB0B0B0198594672
:10043000C0F14002504600F0F1F906460D46504624
:100440005946019A00F009FA10EB080061410024B6
:1004500087EA115284EAE7731A4340D0009A62B3E4
:10046000019A012A4FEA075215DC001B61EB0201D9
:100470004FF0004202EA0752CDE90042001C41F56C
:10048000801132462B4600F083FA03B0BDE8F08FAE
:1004900040462146F9E7001B61EB0201001C41F5D3
:1004A000801300185B412018A2F5001747EB0301E9
:1004B00040EAD570B6196D4111E06D084FEA360675
:1004C00045EAC0754FEA0752001B61EB0201001CB0
:1004D00041F5801149084FEA300000195141324678
:1004E0002B4603B0BDE8F04F00F043BA009801225C
:1004F00040000023D0EB020263EBE073009821463A
:100500004FEAE074B8EB000061EB0401E9E783F027
:1005100000435BE781F0004158E72DE9FE4F81EA97
:10052000030404F0004421F0004100944FF0000B5C
:1005300023F0004350EA01045ED052EA03045BD08A
:10054000C3F30A54C1F30A552C44A4F2F3340194C2
:10055000A0FB0254C1F3130141F48011C3F3130350
:1005600043F4801301FB024400FB034E840A970A04
:1005700044EA815447EA8357A4FB076802958D0A31
:1005800005FB07854FEA932C04FB0C542705029DBD
:100590004FEA065847EA1637B5EB08056EEB070C2D
:1005A000870E920E47EA811742EA8312A7FB0201E7
:1005B000B6EB0B0164EB00042B0D43EA0C335E1821
:1005C00044EB1C50DA465146E7FB0201C5F3130425
:1005D0004FEA0B3343EA14534FEA0432019C43EAD7
:1005E0000603A4F10C040294009CCDE900B400F0D1
:1005F000CFF903B0BDE8F08F00200146F9E72DE9FF
:10060000F04D81EA030404F0004B21F0004514464C
:100610004FF0000A23F0004150EA050220D054EACE
:1006200001021DD0C5F30A570246C5F31303C1F3F7
:100630001300C1F30A5640F4801543F48013A7EB6E
:100640000608101BD64608F2FD3873EB050002D3EE
:1006500008F1010801E092185B41B8F1000F03DADC
:1006600000200146BDE8F08D00204FF480110646C1
:1006700084460EE0171B73EB050705D3121B63EBD3
:10068000050306434CEA010C49084FEA3000921872
:100690005B4150EA0107EDD152EA030012D082EA31
:1006A000040083EA0501084305D0101BAB4106D2C4
:1006B0000122002306E000224FF0004302E06FF029
:1006C000010253101AEB06004CEB085110EB0A0024
:1006D00041EB0B01BDE8F04D00F04BB930B5041E05
:1006E00071F1000404DB4FF00044404264EB01016F
:1006F000141E73F1000405DB1C464FF00043524208
:1007000063EB0403101A8B4101D2012030BD00209D
:1007100030BD0EB5C10F80EAE0700844CA07002161
:1007200040F233438DE80E000A460B4600F030F9E4
:1007300003B000BD0EB540F2334102910021CDE976
:1007400000110A460B4600F023F903B000BD70B556
:10075000C1F30A5201F000450024C1F3130140F235
:10076000FF3341F480119A4201DA002070BD40F25B
:1007700033439A42A2F2334203DC524200F05DF866
:1007800000E090402C43F1D0404270BDC1F30A52CA
:1007900010B5C1F3130140F2FF3341F480119A42C6
:1007A00001DA002010BD40F233439A42A2F23342F4
:1007B00003DC524200F041F810BD904010BD00F043
:1007C000004230F000400AD0C10D01F56071C0F365
:1007D000160042EA0151C208400711437047002049
:1007E0000146704701F0004330B421F0004150EA67
:1007F000010206D00A0DA2F56072C1F31301002AAE
:1008000002DC30BC00207047440F44EAC104C10040
:10081000E01830BC00EBC25000F074B8202A04DBB2
:10082000203A00FA02F1002070479140C2F1200303
:1008300020FA03F3194390407047202A04DB203A42
:1008400021FA02F00021704721FA02F3D040C2F1F0
:1008500020029140084319467047202A06DBCB1737
:10086000203A41FA02F043EAE07306E041FA02F36B
:10087000D040C2F1200291400843194670473A28FF
:1008800000D2303820F02002412A01D3A2F13700F3
:10089000884201D34FF0FF307047000002681144D6
:1008A0001378016018467047D160044951610449CA
:1008B000116200211161114600F0D6B89D080008B0
:1008C0005D0A0008426842B1016811F8013B23B19A
:1008D000521EC0E90012184670470121C160881EEF
:1008E000704742685AB1C368016843B983688B4254
:1008F00005D0491E521CC0E90012002070474FF07D
:10090000FF3070470029A8BF7047401C490008BF4E
:1009100020F00100704710B4B0FA80FC00FA0CF02F
:1009200050EA010404BF10BC704749B1CCF1200467
:1009300021FA04F411FA0CF118BF012121430843F4
:10094000A3EB0C01CB1D4FEA00614FEA102042BF20
:10095000002010BC704700EBC35010440029A4BF16
:1009600010BC7047401C490008BF20F0010010BCBB
:10097000704710B5141E73F1000408DA401C41F1F1
:10098000000192185B411A4301D120F0010010BD13
:100990002DE9F04D92469B4611B1B1FA81F202E089
:1009A000B0FA80F220329046FFF738FF04460F4637
:1009B00040EA0A0041EA0B0153465A46084313D065
:1009C000114653EA010019D0C8F140025046FFF722
:1009D00034FF05460E46504659464246FFF71EFF75
:1009E000084305D0012004E020463946BDE8F08DDB
:1009F0000020054346EAE0762C4337430A98630516
:100A0000E40AA0EB08000022FD0A44EA47540A3039
:100A100002D500200146E9E7010510196941DDE929
:100A2000084500196941BDE8F04DA2E71CB5094829
:100A30000090094801900546009C06E0E06840F0FF
:100A4000010394E8070098471034AC42F6D3FFF74F
:100A50009FFB000058DC000878DC0008C0B24FF4AF
:100A6000F05100F097B900002DE9F34F8BB04FF033
:100A7000000801F10C000C464FF0010B46460DF149
:100A8000080A01906269012101989047051E2DD046
:100A9000252D2CD0216A8847C0B1626901210198B7
:100AA0009047216A88470028F7D1411E6269019862
:100AB000904700E0761CA1690B988847216A884717
:100AC0000028F7D1E1690B988847DBE7A1690B980B
:100AD00088470746A84201D1761CD3E7E1690B9805
:100AE00088477F1C02D1B8F1000F6FD046E1002784
:100AF00062693D463946019890472A2804D16269C7
:100B00000121019890470125DFF884926269012153
:100B100001989047A0F130010A290AD24F45E5DC3F
:100B200007EB870100EB4107303FDFD445F01005AC
:100B3000ECE7E90601D46FF000476C280AD04C2896
:100B400014D0682815D06A280DD074281CD07A28B3
:100B50001AD01DE062690121019890476C2802D0EB
:100B600045F0040514E045F002050DE045F02005D0
:100B70000AE06269012101989047682802D045F097
:100B8000080505E045F40065626901210198904778
:100B9000C4E9015765283DD019DC58287AD00CDC0F
:100BA000452837D004DC252826D0412831D131E032
:100BB00046282FD047282CD12CE05B2877D06128FD
:100BC00028D063287CD0642823D15AE0D0E06F2855
:100BD00048D008DC66281DD067281BD0692821D0A2
:100BE0006E2816D127E0702845D0732868D0752864
:100BF00047D078280DD14DE0A1690B98884705466C
:100C000025283FF469AFE1690B9888476D1C3FF4D4
:100C10006AAFB3E023466A466FF001000B99AFF369
:100C200000809EE045F040006060A80723464FF03A
:100C3000000236D43EE0E8077FF447AF2068011D8C
:100C400021600068290501D506701BE7290701D539
:100C5000068017E7A90703D5F117C0E9006111E77E
:100C600006600FE745F040006060A80723464FF09C
:100C7000080216D41EE040F60E0125EA010060606D
:100C800016E045F040006060A80723464FF00A02D6
:100C900007D40FE045F040006060A80708D5234660
:100CA00010226FF001000B99AFF3008059E007E0CC
:100CB000234610226FF001000B99FFF7E1FA50E094
:100CC0004FF000094F464B46632802D05B2806D000
:100CD00040E0E80601D40120A06001273AE0626903
:100CE0000121019890475E2805D14FF00109626902
:100CF000494601989047216939B900210A4653466F
:100D000043F82120491C0829FADBB0B3216969B9ED
:100D1000C11700EBD16253110AEB830122F01F02CD
:100D2000821A01200B68904003430B606269012125
:100D3000019890475D28E8D1B9F1000F09D0002053
:100D4000514651F82020D24341F82020401C082869
:100D5000F7DB02AB224600976FF001000B99AFF36F
:100D6000008000280CDA401C08D1BBF1000F05D030
:100D70004FF0FF300DB0BDE8F08FFFE74046F9E7D8
:100D8000E90701D108F1010806444FF0000B79E6AC
:100D9000CCCCCC0C7F2801D9002208E0064A02EB1B
:100DA0005002C007127800D1120902F00F02012090
:100DB0009040084070470000B8A7000840F6004087
:100DC000C4F202008021012201F078BA40F600400E
:100DD000C4F202008021002201F070BA70470000C6
:100DE00040F60040C4F202001021012201F066BA70
:100DF00040F60040C4F202001021002201F05EBA69
:100E000070470000002808BF704710B54EF2180167
:100E100049F2400CCEF20001C0F2020C51F804EC91
:100E20000B6800220C689C42FCD01A44121B9C42A6
:100E300028BF724462452346F4D301380204EDD141
:100E4000BDE810407047000080B54EF21801CEF2A8
:100E50000001A82251F804CC00FB02FE0868002320
:100E60000A688242FCD003449B1A824228BF634432
:100E70007345104628BF80BDF2E7000010B5FFF7AC
:100E8000ADFFFFF7BDFF06F023FF044606F0ACFF01
:100E9000204310BD2DE9F04383B0814600209046E9
:100EA0000D46CDE90000FFF791FF922000F0BAF85F
:100EB000922000F0B7F86846461E0624374600BF69
:100EC000552000F0AFF8013C210607F8010FF7D1DB
:100ED000FFF774FFBDF90000BDF9021000EE100A23
:100EE00040F20800C2F2000090ED001AB8EEC00A0D
:100EF000BDF9042021EE000A85ED000A00EE101A6B
:100F000090ED001A02EE102AB8EEC00AB8EEC22A1E
:100F100021EE000A21EE021A85ED010A85ED021A82
:100F2000FFF766FF802000F07DF80824374600BFF9
:100F3000552000F077F8013C210607F8010FF7D1A2
:100F4000FFF74EFF9DF800000F2825D1BDF90200E4
:100F5000BDF9041000EE100A40F20C00C2F20000CD
:100F600090ED001AB8EEC00ABDF9062021EE000A85
:100F700089ED000A00EE101A90ED001A02EE102A18
:100F8000B8EEC00AB8EEC22A21EE000A21EE021A1B
:100F900089ED010A89ED021AFFF718FFA22000F07F
:100FA00041F8A22000F03EF8022400BF552000F0D6
:100FB00039F8013C210606F8010FF7D1FFF7FEFED4
:100FC0009DF800009DF80110C00040EA51114FF655
:100FD00000020023CFF6FF72B3EB902F18BF11432E
:100FE00000EE101AB8EEC00AB4EE001A20EE010AA4
:100FF000B3EE071A30EE010A88ED000A40F27420C1
:1010000099E80E00C2F2000080E80E002968C16075
:1010100069680161A9684161D8F80010816103B075
:10102000BDE8F08380B582B08DF8070040F67030DF
:101030004FF47A7CC2F200000DF107010DF10602B7
:101040000123CDF800C002F08FFA9DF8060002B02F
:1010500080BD0000FEE70000F0B581B040F6A0447E
:10106000C2F2000420684FF4FA76C6634FF4FA70B7
:1010700007F0A8FF20684FF4167101644FF47A70EE
:1010800007F0A0FF206840F21451C16340F25230D3
:1010900007F098FF40F6E845C2F20005286840F2E4
:1010A0004C4181634FF4E161416340F2523007F0FB
:1010B00089FF2068C6634FF4FA7007F083FF206849
:1010C0004FF4BE6101644FF4FA7007F07BFF2068B3
:1010D0004FF44871C16341F23800C2F200000121AF
:1010E000016040F2DC5007F06DFF40F22006C2F2D2
:1010F000000600BF3068411C03D1C82007F062FF22
:10110000F8E7C0B2592808DD5A280CD087280DD03E
:10111000B42816D14FF4FA700DE050B12D2810D13B
:1011200040F2DC5007E040F23A7004E040F6840000
:1011300001E040F27E4040F61041C2F20001096831
:10114000486320684FF4FA71C16340F2DC5040F20A
:10115000DC5707F037FF206840F23A71016440F233
:10116000DC5007F02FFF286847638763C82007F02B
:1011700029FF4FF0FF310020316001B0F0BD0000C9
:10118000B0B52DED068B0446002000BF51F820308D
:1011900044F8203001300428F8D141F21D4047F6D0
:1011A0009D4141F25D439FED248A9FED249A9FED7E
:1011B00024AAC0F60000C0F60001C0F60003002516
:1011C000C4E96920C4E96B3104F15400032102220F
:1011D0000023B0EE480AF0EE490AB0EE4A1A84F84D
:1011E000505005F0E9FC04F1C40003210222002361
:1011F000B0EE480AF0EE490AB0EE4A1A05F0DCFCFF
:101200009FED100A04F59A70032103220023F0EEEB
:10121000490AB0EE4A1A05F0CFFC04F1510006F07D
:1012200021F8C4E90455C4E90655C4E90855C4E9E0
:101230000A55BDEC068BB0BD3333333F0AD7233D8F
:1012400000000000CDCCCC3E70B5D0F8A4210D46F6
:101250000446203002F1240104F02AF8D4F8A40155
:1012600000F1240100F10C02284603F0C7FFD4F876
:10127000A40100F10C01204600F066F894F850003B
:10128000C8BB04F15105D4F8A461284605F0EEFF6F
:1012900088BBD4F8A40196ED030A90ED061A90EDF0
:1012A0000F2A30EE410AB0EEC00AB4EE420AF1EE67
:1012B00010FA20DA96ED040A90ED071A90ED102A44
:1012C00030EE410AB0EEC00AB4EE420AF1EE10FA76
:1012D00011DA96ED050A90ED081A90ED112A30EE1C
:1012E000410AB0EEC00AB4EE420AF1EE10FA02DA98
:1012F000284605F0BDFFD4F8A82104F110012046CE
:10130000BDE870401047000010B50446D0F8A401B5
:10131000D1E900CE8968C0E906CE0162D4F8A40103
:10132000D2E9001C9268C0E90F1C42641BB1D4F8DA
:10133000A40103F0B5FF002084F85000513420468A
:1013400005F09AFF204610BD70B52DED048B84B0DA
:10135000044690F85000022816D0002859D104F114
:1013600051000D4605F082FFD8B1012084F85000ED
:101370000020D4F8A4210390CDE9010004F110016C
:1013800001A803F0F1FF44E0D4F8A42104F1100116
:1013900002F1300004B0BDEC048BBDE8704003F0F6
:1013A000E3BFD4F8A46195ED000AD6ED060A04F176
:1013B000540007F07DF8D4F8A401D6ED070A90EDAB
:1013C0000C1A04F1C40030EE018A95ED010A07F011
:1013D0006FF8D4F8A401D6ED080A90ED0D1A04F5C3
:1013E0009A7030EE019A95ED020A07F061F8D4F890
:1013F000A43104F1100193ED0E1A01A830EE010A98
:101400002A468DED018A8DED029A8DED030A04F0D6
:1014100025F804B0BDEC048B70BD0000B0B50C46DF
:101420000546002021582A58043010285162F9D16D
:10143000286894ED000A07F0C3FB686894ED010A80
:1014400007F0BEFBA86894ED020A07F0B9FBE86854
:1014500094ED030ABDE8B04007F0B2BB70B5154685
:101460000C460646002000BF2958325851622158C8
:10147000043010289162F7D1306895ED000AD4ED60
:10148000000A07F00DFB706895ED010AD4ED010A22
:1014900007F006FBB06895ED020AD4ED020A07F0EA
:1014A000FFFAF06895ED030AD4ED030ABDE8704039
:1014B00007F0F6BAD0F8A421002982ED0C0AC2ED9B
:1014C0000D0A82ED0E1A1EBF022180F850107047DF
:1014D00080B5D0F8A4214FF0010C02F1300386460C
:1014E00000F1100118468EF850C0BDE8804003F0AE
:1014F0003BBF000090ED002AB0EE401A9FED150AA8
:10150000B4EE412AF1EE10FA23DC90ED023AB4EE8B
:10151000413AF1EE10FAB8BF704731EE420A90ED51
:10152000072A90ED061A90ED083A22EE002A90ED77
:10153000094A32EE011A20EE032A22EE002A32EE88
:10154000011A20EE042A20EE022A22EE000A30EED2
:10155000010A70470000000070B52DED0C8BB0EE55
:10156000458AB0EE449AB0EE43AAB0EE42BAB0EE6D
:1015700041CA044651EC100BF0EE658AF0EE649A15
:10158000F0EE63AAF0EE62BAF0EE61CAFFF72AF954
:101590000DEE100A206051EC1C0BFFF723F90546F5
:1015A0000CEE100A606051EC1B0BFFF71BF90BEE01
:1015B000100AA06051EC1A0BFFF714F90AEE100A9A
:1015C000E06051EC190BFFF70DF9064609EE100A21
:1015D000206151EC180BFFF705F900EE100A3BEE05
:1015E0004D1A3AEE4C2AB0EE083A30EE004A22EE9E
:1015F000032A21EE013A34EE094A3CEE4A5A84EEBF
:10160000014A35EE055A21EE031A39EE000A82EE40
:10161000032A85EE011A80EE030A04F1140161C168
:1016200032EE442A84ED082A30EE010A84ED090ADC
:10163000BDEC0C8B70BD000090ED002AB0EE401A9E
:101640009FED130AB4EE412AF1EE10FA1FDC90ED83
:10165000023AB4EE413AF1EE10FAB8BF704731EEFB
:10166000420A90ED082A90ED071A32EE022A90ED18
:10167000093A22EE002A32EE011AB0EE082A23EED1
:10168000022A20EE022A22EE000A30EE010A7047FA
:101690000000000040F2B830C2F2000000F06EBB63
:1016A00040F21840C2F2000000F068BB40F27840FF
:1016B000C2F2000000F062BB40F2D840C2F200006B
:1016C00000F05CBB70470000042000F021BD00006A
:1016D000082000F01DBD000072B600BFFEE700004C
:1016E0002DE9F04140F26020C2F20000047840F29F
:1016F0004120C2F20000067840F28000C2F20000F1
:101700000578972C28BF972E04D3962D84BF2D20C3
:10171000BDE8F081A54288BFB54216D92846FFF73B
:1017200009F8804620460F46FFF704F89FED180B96
:1017300053EC102BFEF7F1FE42463B46FEF7CEFF80
:1017400000281CBFB420BDE8F081AE4288BFA6428D
:1017500004D9132E84BF0020BDE8F081601B282827
:1017600007DB502C05D3A01B2728C4BF5A20BDE897
:10177000F0814FF0FF30332D38BF87204FF0FF311D
:10178000332E28BF0846332C28BF0846BDE8F08119
:10179000333333333333FB3F40F26121C2F2000174
:1017A000087801284FF0000004BF0870012070473E
:1017B000B0B581B00022009290F83C20012A02D1FD
:1017C000022001B0B0BDD1F800E00122BEF10A0F45
:1017D00080F83C200ED31FFA8EF25200036812FAF2
:1017E0008EF21E3A4FF0070C53F80C5F0CFA02F41D
:1017F000A54308E003680EEB4E02072553F8104F8F
:10180000954024EA05051D608D6805FA02F21D6801
:101810002A431A604A68062A0ED802EB82014A1F40
:1018200001681F2351F8345F934025EA03030B60DE
:101830001FFA8EF3934014E0016802EB82030C2A36
:101840001FFA8EF203D851F8304F233B02E051F8D3
:101850002C4F413B1F259D4024EA050502FA03F366
:101860000D600A6842F2043C1A430A60C4F2010C9B
:101870000168BEF1120FACF5417308BF994205D162
:10188000DCF8002042F48002CCF800202EF00102A7
:10189000102A08BF994205D0002180F83C10002092
:1018A00001B0B0BDDCF80010BEF1100F41F4000132
:1018B000CCF80010F0D140F21001C2F2000109682A
:1018C0004DF68362C4F21B32A1FB0212910C01EBB4
:1018D00081014900009100990029DDD0009901396A
:1018E000F8E70000002804BF0120704710B5016C24
:1018F00039B9044600F0A0F820460021616484F85C
:101900003C10016CC9063AD4016C41F202129143B9
:10191000023142F204320164C4F20102116821F47E
:1019200040311160136890E812102343D0F810E0A2
:1019300013604A68012422F480724A604A68C0F643
:10194000007442EA0E224A604A6822F040724A60FD
:101950004A6842EA0C024A608A6822F400628A609D
:10196000C2688B681A438A60826A8B68A24223F03D
:1019700070638B608B6804D123F040520AE0012130
:1019800052E01A438A608A6822F040528A60C26A32
:101990008B681A438A608A6822F002028A608A6829
:1019A000037E90F8204042EA43028A604A6884B18C
:1019B00042F400624A604A684EF2000322F4604238
:1019C0004A60426ACFF6FF734C6803EB423222430F
:1019D00001E022F400624A60CA6A40F2000C22F47C
:1019E0007002CA62C3694269CFF6F07CCC6A0CEB24
:1019F00003532343CB628B6823F400738B6090F80E
:101A000030308C6844EA43238B608B6823F4806316
:101A10008B608B6843EA82228A6000214164026CF9
:101A2000012363F301020264002280F83C20BDE838
:101A3000104008467047000080B586B0006842F24A
:101A40000012C4F2010200219042CDE90411CDE957
:101A5000021101911BD042F20001C4F2010188423F
:101A60003AD1002043F630010090C4F202014A69E5
:101A700042F480724A614A6902F480720092009ACC
:101A80000090086840F004000860086813E043F61E
:101A900030000091C4F20200426942F400724261D7
:101AA000426902F400720092009A0091016841F0CC
:101AB00004010160006800F00400009000983F20DD
:101AC0000190032002900020039040F60000C4F231
:101AD000020001A900F028FB06B080BD002804BF69
:101AE00001207047B0B5044690F8200010B9204698
:101AF00000F06EF82068016841F00101016000F01B
:101B0000E3FB054620684168C90705D100F0DCFB0E
:101B1000401B0B28F6D310E0016821F002010160A0
:101B200000F0D2FB054600BF2068416889070DD54B
:101B300000F0CAFB401B0B28F6D3606A052140F475
:101B400000306062012084F82010B0BD217E026860
:101B5000012922F0800208BF80320260617E0268A3
:101B6000012922F0400208BF40320260A17E0268D3
:101B7000012922F0200208BF20320260E17E0268C3
:101B8000012922F0100218BF10320260217F026882
:101B9000012922F0080208BF08320260617F026852
:101BA000012922F0040208BF04320260D4E901C214
:101BB000D4E9033561691A432A431143ACF10102A8
:101BC0001143C16100200121606284F82010B0BD82
:101BD00080B586B0006846F60002C4F2000200211B
:101BE0009042CDE90411CDE90211019132D046F2C3
:101BF0000041C4F2000188426CD140F24421C2F29B
:101C000000010A6843F64000C4F20200531C0B6056
:101C100052B900210091016841F000710160016832
:101C200001F00071009100990021009150F8101C02
:101C300041F0080140F8101C50F8100C032100F08E
:101C400008000090009840F20040C4F2020000F545
:101C5000006033E043F64000C4F2020000910168E6
:101C600041F080610160016801F08061009100999C
:101C700040F24421C2F200010A68531C0B6052B9C1
:101C800000210091016841F000710160016801F0DC
:101C90000071009100990021009150F8101C41F052
:101CA000020140F8101C50F8100C602100F00200F6
:101CB0000090009840F20040C4F20200019102211D
:101CC000029100210391032104910921059101A9A9
:101CD00000F02AFA06B080BD70B5866D044600F0AB
:101CE000F3FA94F83510022925D105462068216CB5
:101CF000026822F016020260426922F0800242610C
:101D000009B9A16C19B1016821F0080101600168ED
:101D100021F00101016000BF20680068C0070ED0FB
:101D200000F0D2FA401B0628F6D32020606503207D
:101D300084F835000CE080206065012008E0E06D4B
:101D40003F2101FA00F0B060012084F83500002046
:101D5000002184F8341070BD90F83510022909D1A3
:101D6000052180F835100068016821F0010101604B
:101D7000002070478021416501207047F0B581B097
:101D80000021009140F21001C2F200010B68D0E97D
:101D9000166148F2B51537680822C1F64E358A40FB
:101DA0003A42A3FB05350CD003681C68640708D5CC
:101DB0001C6824F004041C60B260426D42F0010211
:101DC000426501228A403A4208D003685B691B06DB
:101DD00004D5B260426D42F00202426504228A409C
:101DE0003A4208D003681B689B0704D5B260426D75
:101DF00042F00402426510228A403A4216D001683D
:101E00000B681B0712D5B2600B680A685B0306D427
:101E1000D20506D40A6822F008020A6001E0110324
:101E20003FD4016C11B1044688472046C26D202181
:101E300001FA02F33B4241D001680F68FF063DD52D
:101E4000B36090F835700B68052F1AD123F0160394
:101E50000B604B6923F080034B61036C0BB9836CFF
:101E60001BB10B6823F008030B603F219140B16068
:101E7000012180F83510016D002280F83420D9BB93
:101E80003EE00A685B0310D4D20512D40A6822F03F
:101E900010020A60012180F83510002180F834100A
:101EA00007E0816C0029BED1C0E7110301D4416C69
:101EB00000E0C16B11B1044688472046416DF9B17D
:101EC000416DC90716D0052180F835100168AA0AAE
:101ED0000B6823F001030B60009B013393420093D6
:101EE00002D80B68DB07F7D1012180F835100021FB
:101EF00080F83410C16C19B101B0BDE8F04008475A
:101F000001B0F0BD2DE9F041044600F0DDF9C4B1A7
:101F10000546022084F835000020216884F834004A
:101F2000086820F00100086020680168C9070BD02C
:101F300000F0CAF9401B0528F6D90321202203200E
:101F40007AE00120BDE8F081016848F23F02CFF25B
:101F50001002D4E9013501EA020ED4E9032143EA73
:101F60000E032B43D4E9056C1A43D4E907781143D7
:101F7000314341EA0702616A42EA0802042942EA5F
:101F80000C0303D1D4E90B273A431343036042699E
:101F9000042922F0070241EA02012DD1D4E90A53B3
:101FA00041EA050143B3BCF5005F08D0BCF1000F66
:101FB00012D1022D16D0012D07D09DB119E0032DAD
:101FC00017D8DFE805F00B0F0B02A3F1C072B2FACD
:101FD00082F252094AB90FE0032D02D2012222B93E
:101FE0000AE006D1C3F3006232B101214022012090
:101FF00022E00022002AF8D100F0F8024AF6AB23D2
:10200000103ACAF6AA23A2FB03374DF604434161F6
:102010003909C0F60003595C40F2FF3398435F2A48
:102020004FF03F0288BF0430C4E9160102FA01F103
:102030008160002201210020626584F83510BDE82E
:10204000F081000090F834C0BCF1010F04BF022001
:10205000704770B54FF0010C80F834C0D0F858E0EC
:1020600090F835C0BCF1010F37D14FF0020C80F869
:1020700035C04FF0000CC0F854C0D0F800C08468E0
:10208000056CC06DDCF80060402C26F48026CCF88E
:102090000060CCF804300B4604BF13460A463F21CB
:1020A00001FA00F0CCF80830CCF80C20CEF808008B
:1020B000DCF8000040F01600CCF800002DB1DCF890
:1020C000000040F00800CCF80000DCF8000040F010
:1020D0000100CCF80000002070BD002180F8341011
:1020E000022070BDB0B5044600F0EEF8054640F29F
:1020F0005C00C2F200000078611C18BF044400BFFD
:1021000000F0E2F8401BA042FAD3B0BD70470000D7
:1021100043F61441C4F201010A68024214BF086088
:102120007047FFF7F3BF00002DE9F04F83B000F1D7
:10213000200200F13E4741F60045009207F1FF778B
:10214000C4F2020508224FEAB726A84208BF0722B8
:10215000072E38BF4FEAB72200274FF0000A4FF092
:10216000000801920AE000BF08F101080AF1020A22
:10217000B8F1100F07F1040700F09D800D680122EF
:1021800002FA08FC15EA0C09EED04D68032205F0AE
:10219000030BABF10106012E02FA0AFE10D8866885
:1021A000CC6826EA0E0604FA0AF4344384604468D4
:1021B000C5F3001524EA0C0605FA08F52E4346601F
:1021C000BBF1030F1BD0C6688D6826EA0E0605FA20
:1021D0000AF52E43BBF1020FC66010D16FF0030267
:1021E000009D02EA580655F806C007F01C040F22AD
:1021F0000B69A2402CEA0202A3401A43AA510268CA
:102200004B6822EA0E0203F0030606FA0AF632438E
:1022100013F4403F0260A7D0002243F64403029229
:10222000C4F202031A6843F6004442F480421A6082
:102230001A68C4F2010402F480420292029A28F061
:1022400003024FF6084C2244CFF6FF7C52F80C30C4
:1022500007F00C060F25B540AB43019D05FA06F6C5
:10226000334342F80C30A2684B6842EA090643F651
:102270000C4CDD0258BF22EA0906A660C4F2010C2C
:10228000DCF800209D0242EA090658BF22EA09064E
:10229000CCF8006062689D0342EA090658BF22EA52
:1022A000090666602268DB0342EA090658BF22EA93
:1022B0000906266058E703B0BDE8F08F002A08BF82
:1022C000090481617047000044F6A450C2F2000086
:1022D00000687047002804BF01207047F0B581B046
:1022E000044690F83D0028B9002084F83C002046C0
:1022F00000F058FB242084F83D002068016821F09C
:1023000001010160016841F400410160016821F4AC
:102310000041016000F01AFE636848F2A16CC0F24F
:10232000010C40F60011C0F23D0163453CBF48F28C
:102330008041C0F21E01884202D2012001B0F0BDEE
:102340004DF68361C4F21B31A0FB01122168970C8A
:10235000D1F804E04FF496762EF03F0545EA924519
:102360004D60774348F638160D6AC0F24106A7FB68
:10237000067625F03F07634538BF960C721C3A433A
:102380000A62CA6948F2A0664CF6FF77C0F20106FD
:10239000B34222EA070C0AD801385A00B0FBF2F027
:1023A00001306FF31F30042898BF042020E0A2689A
:1023B0001927002A08BF032701385F43B0FBF7F74E
:1023C00001373F0509D052B119225A43B0FBF2F050
:1023D0000422013062F31F3008E0012008E003EB23
:1023E0004302B0FBF2F001306FF31F3040F40040C5
:1023F00040EA0C00C8610868D4E9072320F0C00057
:10240000104318430860886848F2FF3204F10C0753
:1024100090438CCF18431043A6698860C86820F0A9
:10242000FF0038433043C860086840F0010008608E
:1024300000202021206484F83D10206384F83E00B1
:1024400001B0F0BD2DE9F04F83B0984692468B461F
:102450000446FFF739FF94F83D10202909D10546BD
:102460002068806910F0020007D194F83C00012830
:1024700028D1022003B0BDE8F08F012686EA50077C
:1024800007E000BF2068806910F0020086EA50076C
:10249000EBD0FFF719FF401B1A28F3D3206880699F
:1024A0008007EFD500202021206384F83D1084F8B8
:1024B0003E00216C41F020012164F90784F83C00C2
:1024C000D3D1D6E70121226884F83C101368DDE9F6
:1024D0000D090C99DB0703D1136843F00103136066
:1024E000136823F400631360222284F83D20402205
:1024F00084F83E200022226461626085608D594626
:1025000020850020CFF6FF70E06220465246434609
:10251000CDE9009502F0CCFA18B1012003B0BDE876
:10252000F08F208D022817D0012804D000BB002096
:102530000290206806E02068016821F48061016053
:102540000021029141690291816902910299016819
:1025500041F40071016013E02068016821F480619A
:102560000160016841F4006101600021029102E014
:1025700000200290206841690291806902900298CF
:10258000218D002900F00C814FF0010B09F10107AA
:102590004FF000084FF0200A2068032950F8142F4C
:1025A00021D8022955D0012970D151060ED52068B5
:1025B000616A00690870E6E020684069400640F101
:1025C0000281206850F8141F4906F0D40168C9063A
:1025D00000F1ED80FFF778FEB9F1000FECD0401B61
:1025E0004845EED9E8E7510626D52068616A0069BA
:1025F0000870606A228D0130013A6062228521688C
:10260000638D013B63854B695B0740F1C58092B2E6
:10261000032A03D10A6822F480620A600969017002
:10262000B1E000BF20684069400640F1CC802068DE
:1026300050F8141F4906D8D40168C90600F1B780C4
:10264000FFF742FEB9F1000FECD0401B4845EED930
:10265000E8E712F0040040F082808BEA90060AE07E
:102660002068406940076BD52068406910F004007D
:102670008BEA900673D1002FF6D0FFF725FEB9F153
:10268000000FEDD0401B4845EED9E9E712F00400F9
:1026900027D18BEA90060AE020684069400711D5EF
:1026A0002068406910F004008BEA900619D1002FD1
:1026B000F6D0FFF709FEB9F1000FEDD0401B4845F9
:1026C000EED9E9E7C4F8308084F83DA084F83E8074
:1026D000206C40F020002064F00784F83C807FF4F8
:1026E0001CAF2068616A026822F48062026000699F
:1026F0000870606A216801306062208D0138208591
:10270000608D01386085486910F0040027D18BEA9C
:1027100090060AE020684069400711D520684069AA
:1027200010F004008BEA900619D1002FF6D0FFF7C5
:10273000CBFDB9F1000FEDD0401B4845EED9E9E7DC
:10274000C4F8308084F83DA084F83E80206C40F0CE
:1027500020002064F00784F83C807FF4DEAE20681F
:10276000616A026842F40072026000690870606A7F
:102770002268411C6162218D01392185618D0139F9
:10278000618511694170606A218D01306062481E67
:102790002085608D01386085218D00297FF4FCAE95
:1027A000202084F83D00002084F83E0017E06FF000
:1027B0001001016000202021206384F83D1084F87E
:1027C0003E00206C09E000202021206384F83D10A9
:1027D00084F83E00206C40F020002064012000219D
:1027E00084F83C1003B0BDE8F08F00002DE9F04FF5
:1027F00083B0994692468B460446FFF765FD94F8F0
:102800003D10202909D105462068806910F002009A
:1028100007D194F83C00012828D1022003B0BDE87C
:10282000F08F012787EA500607E000BF2068806923
:1028300010F0020087EA5006EBD0FFF745FD401B81
:102840001A28F3D3206880698007EFD50020202163
:10285000206384F83D1084F83E00216C41F0200193
:102860002164F10784F83C00D3D1D6E70121226826
:1028700084F83C101368DDE90D080C99DB0703D1DF
:10288000136843F001031360136823F400631360BB
:10289000212284F83D20402284F83E200022226438
:1028A00061626085608D594620850020CFF6FF70FB
:1028B000E062204652464B46CDE9008502F030FAF0
:1028C00000286AD1208DC0B308F1010604E000BFE2
:1028D0002068406900064BD5206850F8141F09068F
:1028E0000DD4016849053ED4002EF5D0FFF7ECFC6D
:1028F000B8F1000FECD0401B4045EDD9E8E7606A25
:102900002168034613F8012B0A61228D6362531E6E
:102910002385678D013F67854F697F070AD51B04B3
:1029200008D0437802300B616062901E2085608D74
:1029300001386085208D0028CED1204641462A46A8
:1029400002F0E6FA08BB2068016841F400710160FA
:10295000202084F83D00002084F83E0084F83C00EC
:1029600003B0BDE8F08F6FF480610160042000E0E7
:10297000202000212022216384F83D2084F83E108D
:10298000226C1043206484F83C10206C042804D18D
:102990002068016841F400710160012003B0BDE8C6
:1029A000F08F00002DE9F04786B0006845F6004141
:1029B000C4F2000100258842CDE90455CDE9025555
:1029C00001955ED045F60001C4F2000188422FD087
:1029D00045F20041C4F20001884240F09980002491
:1029E00043F630050094C4F20205286801A940F0BE
:1029F00002002860286800F00200009000984FF460
:102A0000C07001901220CDE902040320049004203C
:102A1000059040F20040C4F20200FFF785FB0094ED
:102A2000286940F400102861286900F400106DE066
:102A3000002443F630050094C4F20205286801A979
:102A400040F002002860286800F002000090009822
:102A50004FF4406001901220CDE90204032004905D
:102A60000420059040F20040C4F20200FFF75CFB36
:102A70000094286940F480002861286900F48000EF
:102A800044E043F630060095C4F20206306840F296
:102A9000004740F0040030603068C4F2020700F0E4
:102AA0000400009000980095306801AC40F00100EF
:102AB000306030684FF0120800F00100009000987C
:102AC0004FF4007001904FF003094FF0040A07F52E
:102AD00080602146CDE90285CDF81090CDF814A094
:102AE000FFF722FB4FF48070CDE9010803A880E8CE
:102AF0002006A7F580602146FFF716FB0095306998
:102B000040F400003061306900F40000009000984B
:102B100006B0BDE8F087000040F25C0044F6A45126
:102B2000C2F20000C2F2000100780A681044086096
:102B30007047000080B543F60040C4F2020001680F
:102B400041F400710160016841F480610160016835
:102B500041F480710160032000F090F80F2000F034
:102B600005F800F02BF8002080BD0000B0B540F261
:102B70005C02C2F2000240F210011278C2F20001BF
:102B80004FF47A730968B3FBF2F20446B1FBF2F139
:102B9000084600F015FE0F2C4FF001050CD858B96F
:102BA0004FF0FF3021460022002500F03BF840F2B4
:102BB0006000C2F2000004602846B0BD82B0002070
:102BC00043F640010190C4F202014A6842F4804297
:102BD0004A604A6802F480420192019A00900868B3
:102BE000002240F08050086008680F2100F08050FB
:102BF000009000986FF0010002B000F013B80000E0
:102C0000002848BF704700F01F01012202FA01F1BD
:102C10001C2202EAD0004EF20012CEF200028150D5
:102C20007047000010B54EF60C5CCEF2000CDCF8DC
:102C30000030C3F3022E8EF00704042C28BF0424B6
:102C4000BEF103034FF0FF3E0EFA04F438BF002339
:102C5000A14399400EFA03F39A43114300F16042F5
:102C600000F00F03090102F56442043B63440028AD
:102C700048BF03F10C02117010BD00004EF60C515C
:102C8000CEF200010A684FF6FF031A4060F30A22F1
:102C900042F0806040F0FD7008607047002804BF7B
:102CA00001207047B0B582B00446056890F89504DD
:102CB00028B9002084F89404204600F05BF8032033
:102CC000B5F1A04F84F8950404BF0020A0712068DE
:102CD00004F0A8FF94E80F00257C009504F012FE94
:102CE000B8BB2068002104F0A5FF90BB207948B351
:102CF00000EBC000800000214FF0010C00230022F7
:102D0000E51824332A75EA85984202F1010285F814
:102D100015C02976C5E907116962F1D100210022A9
:102D2000002300BFA518243285F85432904203F1E5
:102D3000010385F8551285F85812C5E99711C5F8B1
:102D40006412EFD194E80F00257C009504F074FE26
:102D500028B1022084F89504012002B0B0BD002003
:102D60006074012084F89504206804F055FE00206A
:102D700002B0B0BDB0B586B000680024B0F1A04F7D
:102D80000594CDE903440294019401D006B0B0BD8E
:102D900043F630050094C4F20205286801A940F00A
:102DA00001002860286800F00100009000984FF4AE
:102DB000C05001900220CDE90204032004900A20B3
:102DC00005900020C4F20200FFF7AEF9686840F0F9
:102DD000800068600094686940F4804068616869B8
:102DE00000F480400090009806B0B0BD002804BFF9
:102DF000012070472DE9F04143F60808C4F20208AB
:102E00000446D8F8F8030D4600F00700884207D2C0
:102E100088F8F853D8F8F80300F00700A84276D1F4
:102E20002068810717D5410705D5D8F8001041F46F
:102E3000E051C8F80010010705D5D8F8001041F49A
:102E40006041C8F80010D8F80010A26821F0F00125
:102E50001143C8F80010C0073FD1D8F8F80300F0BC
:102E60000700A84207D988F8F853D8F8F80300F00B
:102E70000700A8424BD12068410707D5D8F80010B9
:102E8000E26821F4E0511143C8F80010000708D5AA
:102E9000D8F80000216920F4604040EAC100C8F879
:102EA000000000F07BF8D8F800104AF2F872C1F385
:102EB0000311C0F60002515C40F2100220FA01F149
:102EC00040F26000C2F200000068C2F2000211602D
:102ED000FFF74CFE0020BDE8F0816068811E0229EA
:102EE00007D258F8081C89015CBF0120BDE8F081B9
:102EF00010E0012807D158F8081C89035CBF0120A5
:102F0000BDE8F08106E058F8081C890702D40120CA
:102F1000BDE8F081D8F8001021F003010843C8F89B
:102F20000000FFF7D1F9064641F28837D8F80000D3
:102F3000616800F00C00B0EB810F8ED0FFF7C4F990
:102F4000801BB842F2D90320BDE8F08140F21000A6
:102F500043F60801C2F20000C4F2020100680968E9
:102F60004AF60802C1F38221C0F60002515CC84053
:102F70007047000040F2100043F60801C2F2000062
:102F8000C4F20201006809684AF60802C1F342313E
:102F9000C0F60002515CC8407047000010B543F60F
:102FA0000404C4F20204606800F00C0008280AD08F
:102FB000042819BF42F20040C0F2F40043F200605E
:102FC000C0F26E1010BD206821682368490243F2E8
:102FD0000061C0F26E1100F03F02C3F388105CBFC5
:102FE00042F20041C0F2F401A1FB00010023FDF711
:102FF000E7F821680222C1F3014102EB4101B0FB75
:10300000F1F010BD002804BF012070472DE9F04108
:1030100082B00446007843F60006C007C4F20206F8
:1030200049D0B06800F00C00042809D13068800352
:1030300041D5606800283ED1012002B0BDE8F08192
:10304000B06800F00C00082802D170684002EDD48E
:1030500065683068B5F5A02F05D0B5F5803F09D17A
:1030600040F480300CE040F480203060306840F460
:10307000803005E020F480303060306820F480201B
:103080003060FFF721F9002D054611D0306880032C
:1030900011D4FFF719F9401B6428F7D928E100BFC4
:1030A000FFF712F9401B64284FF0030000F2E080A4
:1030B00030688003F4D4207880071BD5B06810F006
:1030C0000C0F09D0B06800F00C00082840F0858093
:1030D0007068400200F181803068800703D5E068A5
:1030E000012840F09A803068216920F0F80040EA19
:1030F000C10030602078000734D42078400746D4DF
:10310000A5695DB3B06800F00C00082840F09C8011
:10311000012D00F082807068E16900F480028A422B
:103120007BD1216A00F03F028A4276D147F6C07116
:10313000626A0140B1EB821F6FD1A16A4FF6FF7343
:10314000C903994300F44032A1F580318A4264D129
:10315000E16A00F07060B0EB016F5ED1002002B058
:10316000BDE8F081606900285BD00020C4F24720F0
:103170000121C0F8801EFFF7A7F80546706F800791
:10318000BBD4FFF7A1F8401B0228F7D9B0E0306CA0
:103190005FEAC0080AD400200190306C40F08050F3
:1031A0003064306C00F080500190019847F20007C5
:1031B000C4F200073868C00526D4386840F480702F
:1031C0003860FFF781F805463868C0051CD4FFF762
:1031D0007BF8401B0228F7D98AE0E068002840F21B
:1031E0000000C4F2472053D001210160FFF76CF8C2
:1031F000054600BF306880073FF575AFFFF764F8FC
:10320000401B0228F6D973E0A568306F052D51D018
:10321000012D56D140F0010059E0012002B0BDE877
:10322000F0810020C4F247200021C0F8801EFFF783
:103230004BF80546706F80077FF55FAFFFF744F8E6
:10324000401B0228F6D953E00027C4F2472700208C
:103250003866FFF739F8022D05460DD13068800138
:103260005DD5FFF731F8401B02284FF00300F5D978
:1032700002B0BDE8F08100BF306880017FF56EAF1D
:10328000FFF722F8401B02284FF00300F4D9EFE7C4
:1032900000210160FFF718F8054600BF306880077D
:1032A0007FF528AFFFF710F8401B02284FF003000E
:1032B000F4D9DDE740F004003067306F40F00100E2
:1032C00005E020F001003067306F20F00400306727
:1032D000FEF7FAFF002D054641F2883713D000BFF4
:1032E000306F800712D4FEF7EFFF401BB842F7D9CA
:1032F000032002B0BDE8F081FEF7E6FF401BB842B4
:103300004FF00300B4D8306F8007F5D4B8F1000F48
:103310003FF5F6AE306C20F080503064F0E604F1FA
:103320001C052FCD084340EA8210D9034FF6FF72E7
:103330009143A1F5803140EA0560084370600120A7
:103340003866FEF7C1FF0446306880013FF506AFDE
:10335000FEF7BAFF001B02284FF00300F4D987E7FD
:1033600070B528B1416A29B100210161142106E03C
:10337000012070BD4168B1F5827F02D01C2100227E
:1033800042500026866290F8511029B980F85060AA
:10339000054600F03DF82846022180F8511090E8DB
:1033A0002E0002F482720C6803F4044324F04004FB
:1033B0000C601A4405F4006305691A4405F0020321
:1033C00045691A4405F001038569C4691A4405F486
:1033D00000731A4404F03803046A1A4404F08003AA
:1033E000846A1A4304F400531A430A60436A0422AD
:1033F00002EA154203F010031A444A60CA6922F433
:103400000062CA610121466580F85110304670BDE6
:103410002DE9F04186B00446006843F60041C4F24D
:10342000000100268842CDE90466CDE902660196D6
:1034300031D043F20001C4F20101884240F0908093
:10344000002043F630010090C4F202014A6942F4C0
:1034500080524A614A6902F480520092009A0090B8
:103460000A6842F001020A60096801F00101009156
:103470000099E02101910221CDE90210032004907E
:10348000052005900020C4F2020001A9FEF74CFEC1
:1034900006B0BDE8F08143F630000096C4F20200A9
:1034A000016946F2100841F4004101610169C4F26A
:1034B000020801F40041009100990096016841F072
:1034C00004010160006801A900F004000090009868
:1034D0004FF4E05001900220CDE902060320049051
:1034E000062005900020C4F2020000F50060FEF7FF
:1034F0001BFE40F2B835C2F200054FF400304FF425
:103500008067C5E908062846C5E90086C5E9026660
:10351000C5E90476C5E90666FEF7F4FC002818BF85
:10352000FEF7DAF8E564AC6340F2184508F178007C
:10353000C2F200050021402285E807004FF48030E8
:10354000C5E908012846C5E90317C5E90511E96180
:10355000FEF7D8FC002818BFFEF7BEF8A564AC63E0
:1035600006B0BDE8F08100002DE9F04383B01E46AF
:1035700015460F460446FEF7A7FE94F85110814603
:10358000012908D1002F4FF0010018BF002D0ED1E6
:1035900003B0BDE8F0836068B0F5827F0DD10429E7
:1035A0004FF00200F4D1A1680029EBD0F0E7002E23
:1035B000EED094F85000012803D1022003B0BDE8FA
:1035C000F083012084F8500094F851000021042871
:1035D0001CBF052084F851006165A563E687A687B6
:1035E0002763E6862068A68621646164016849062F
:1035F00003D4016841F0400101606168731EE26814
:10360000B1FA81F1B3FA83F3DDF8288049095B0947
:10361000B2F5006F41EA030137D131B137F8021B2F
:10362000C1602763E08E0138E086012608F10105BC
:10363000E08E10B9E08F00286CD02068816889077F
:103640000CD5E18E51B1012E08D1216B002631F845
:10365000022BC2602163E18E0139E1868168C907CE
:103660000AD0E18F41B1C068A16B012621F8020B9D
:10367000A163E08F0138E087FEF726FE002DD7D04A
:10368000A0EB09004045D3D33AE039B13978017352
:10369000206B01302063E08E0138E086012608F1BE
:1036A000010500BFE08E08B9E08F98B320688168FB
:1036B00089070DD5E18E59B1012E09D1216B002664
:1036C00009780173206B01302063E08E0138E086B9
:1036D00020688168C9070BD0E18F49B1C068A16B30
:1036E00001260870A06B0130A063E08F0138E087ED
:1036F000FEF7EAFD002DD5D0A0EB09004045D1D35F
:10370000012084F85100002084F85000032003B009
:10371000BDE8F0832046022101224346CDF8009007
:1037200003F01EFD60B1606D40F020006065202058
:103730006065002084F85000012003B0BDE8F083EC
:1037400040F21000C2F20000006849F68171C1F237
:103750005E61A0FB0101480D4FF47A71484302906D
:103760006068B0F5827F0AD120468021002243465E
:10377000CDF8009003F0F4FC0028D4D108E00298C2
:1037800030B1029801380290206880680006F6D4B3
:10379000A06838B9002001902068C1680191806854
:1037A00001900198012084F85100002084F8500015
:1037B000606D002818BF012003B0BDE8F083000051
:1037C000411E0020B0EB116F1CBF012070474EF26C
:1037D0001002CEF2000251604EF62351CEF20001EB
:1037E000F0230B70072190601160704790F83C2027
:1037F000012A4FF0020255D010B5012380F83C3069
:1038000080F83D200268D2F804E0D2F808C00C68C5
:103810002EF07003234341F2FF74C4F20004A2426D
:1038200053600DDC40F2FF73C4F200039A4215DCD2
:10383000B2F1804F29D040F20043C4F2000322E0ED
:1038400040F2FF33C4F201039A4212DC41F6000356
:10385000C4F200039A4218D0002312E040F600039D
:10386000C4F200039A4210D040F60043C4F20003B1
:1038700009E044F20003C4F201039A4205D040F289
:103880000043C4F201039A4204D149682CF080033A
:10389000194391600121002280F83D1080F83C20FE
:1038A000BDE8104010467047002804BF0120704753
:1038B00010B5044690F83D0028B9002084F83C007B
:1038C000204600F01FF8022084F83D002068211DEA
:1038D00003F082FD012084F8460084F83E0084F85D
:1038E0003F0084F8400084F8410084F8420084F8E6
:1038F000430084F8440084F8450084F83D0000202B
:1039000010BD000083B0006844F20001C4F2010160
:1039100088422DD040F60041C4F20001884216D002
:1039200040F20041C4F20001884230D100200290F0
:1039300043F64000C4F20200016841F00201016058
:10394000006800F002000290029803B07047002067
:10395000019043F64000C4F20200016841F0080102
:103960000160006800F008000190019803B0704702
:103970000020009043F64000C4F20200416841F488
:1039800080314160406800F480300090009803B0BE
:103990007047000090F83C20012A4FF002026ED0E0
:1039A00080B5012380F83C3080F83D20D0F800C07D
:1039B0004FF67772DCF8083023EA0202CCF80820D0
:1039C0000B684F2B28DC1F2B44DD202B45D0302BE0
:1039D00043D0402B40F0AC80D1F804E0C968DCF85B
:1039E0002030DCF8202022F00102CCF82020DCF886
:1039F000182022F0F00242EA011123F00A0242EA02
:103A00000E02CCF81810CCF82020DCF8081041F099
:103A1000470121F0300127E06F2B32DDB3F5005F65
:103A200073D0B3F5805F21D0702B40F08180D1E955
:103A300001E3C968DCF8082043EA0E0322F47F4260
:103A400043EA01211143CCF80810DCF8081041F0DA
:103A5000770109E00BB1102B6AD1DCF8081021F0D6
:103A60007001194341F00701CCF808100022012130
:103A700080F83D10002180F83C10BDE880401046E1
:103A80007047502B21D0602B52D1D1F804E0C96887
:103A9000DCF82030DCF8202022F01002CCF82020C6
:103AA000DCF8182022F4704242EA013123F0A0022F
:103AB00042EA0E12CCF81810CCF82020DCF80810DE
:103AC00041F0670121F01001CEE7D1F804E0C968A8
:103AD000DCF82030DCF8202022F00102CCF8202095
:103AE000DCF8182022F0F00242EA011123F00A0269
:103AF00042EA0E02CCF81810CCF82020DCF80810AE
:103B000041F0570121F02001AEE7D1E901E3C96896
:103B1000DCF8082043EA0E0322F47F4243EA012145
:103B20001143CCF80810DCF8081041F480419BE701
:103B300001229CE7002804BF012070472DE9F047CF
:103B4000044690F83D000D4628B9002084F83C005A
:103B5000204600F049F8022084F83D00206844F235
:103B60000702816891438160211D03F035FC2068C4
:103B70004FF6FF7881688269D0F820C0D5E9003E11
:103B8000D5E9026A43EA0109AB6922EA080246EA7A
:103B900003234FF6FC46B343D5E9076742EA0A021E
:103BA00029691A4342EA062242EA01112CF0AA02CC
:103BB0006B6942EA0E0241EA073142EA0312C0F899
:103BC000089081610262012084F8460084F83E007A
:103BD00084F83F0084F8420084F8430084F83D00F4
:103BE0000020BDE8F0870000F0B587B0006840F61F
:103BF0000002C4F2000200219042CDE90511CDE996
:103C0000031102913ED0B0F1804F63D1002543F6FD
:103C100030000195C4F202000169002441F0010165
:103C200001610169C4F2020401F0010101910199ED
:103C300001950168022641F0010101600168012738
:103C400001F00101019101990195016841F0020122
:103C50000160006802A900F00200019001984FF491
:103C6000004002902046CDE9036505950697FEF7D2
:103C70005BFA0820CDE90206CDE90455069704F564
:103C8000806024E043F630000191C4F20200026932
:103C900042F004020261026902F004020192019AF8
:103CA0000191026842F008020260006800F008001A
:103CB000019001984FF4405002900220CDE9030199
:103CC000CDE905100020C4F2020000F5406002A911
:103CD000FEF72AFA07B0F0BD80B586B0006844F25E
:103CE0000002C4F2010200219042CDE90411CDE9A5
:103CF0000211019139D040F60041C4F2000188421E
:103D00001DD040F20041C4F2000188424CD1002095
:103D1000009043F63000C4F20200016841F0020155
:103D200001600068022100F002000090009813205A
:103D300001900020C4F2020000F580602BE000201A
:103D4000009043F63000C4F20200016841F0010126
:103D500001600068022100F00100009000980C2032
:103D600001900020C4F2020015E043F630000091FB
:103D7000C4F20200016841F01001016000680321F3
:103D800000F0100000900098602001900020C4F224
:103D9000020000F58050022202920022059101A942
:103DA000CDE90322FEF7C0F906B080BD90F83C30A3
:103DB000012B04BF022070474FEAB2020123032AFD
:103DC00080F83C3000F2F8802DE9F043DFE802F0A3
:103DD00002AF3D7D036840F200461C6A1A6A24F077
:103DE000020422F001021A621A46D3F804C052F803
:103DF00018EF8F6843F48065C4F20106B54244EAC7
:103E0000070405D1CF6824F00C0427F004073C43D5
:103E10000F68B54206D1D1E905582CF440762E43FF
:103E200046EA080C2EF073063743C3F804C09F61BE
:103E30004F6809695F631C629F6947F008079F61CB
:103E40009F6927F004079F61B0E0036840F20048D3
:103E50001C6A1A6A24F4007422F480721A621A46E8
:103E6000D3F804C052F81CEF8F6843F48065C4F2A5
:103E70000108454544EA072408D1CF6840F2FF46CF
:103E80003F0224F4406427EA06063443D1F8009048
:103E9000454506D1D1E905562CF440572E4347EA53
:103EA000061C2EF0730747EA0907C3F804C0DF6158
:103EB0004F680969DF631C62DF6947F00807DF614B
:103EC000DF6927F00407DF6170E0036840F2004516
:103ED000D3F820C01A6A43F4806722F480521A6231
:103EE0001A465C6852F81C8FD1F800E08E68C4F264
:103EF0000105AF4204D14D6924F4804444EA85149D
:103F00002CF4005747EA063728F4E64646EA0E2620
:103F10005C60DE614E6809691E641F62DF6947F4F8
:103F20000067DF61DF6927F48067DF613DE00368D8
:103F300040F200481C6A1A6A24F0200422F01002A1
:103F40001A621A46D3F804C052F818EF8F6843F487
:103F50008065C4F20108454544EA071407D1CF68DB
:103F60006FF0400624F0C00406EA07163443D1F887
:103F70000090454506D1D1E905562CF440672E4303
:103F800047EA860C2EF4E64747EA0927C3F804C03F
:103F90009F614F6809699F631C629F6947F40067CE
:103FA0009F619F6927F480679F6109021368194325
:103FB00000231160BDE8F043002180F83C10184652
:103FC00070470000002804BF0120704710B5044668
:103FD00090F83D0028B9002084F83C00204600F00D
:103FE0001FF8022084F83D002068211D03F0F4F939
:103FF000012084F8460084F83E0084F83F0084F8ED
:10400000400084F8410084F8420084F8430084F8BA
:10401000440084F8450084F83D00002010BD0000F5
:10402000704700004122082908BF4022042908BF28
:104030003F22002908BF3E22825C012A1CBF0120CA
:104040007047022241B1082909D0042914BF80F821
:10405000412080F83F2004E080F83E2001E080F815
:104060004020006801F01F010122036A02FA01F1F9
:1040700023EA01020262026A0A4341F2FF71C4F2BA
:104080000001884202620BDC40F2FF71C4F20001C1
:10409000884213DCB0F1804F45D040F2004115E07A
:1040A00040F2FF32C4F20102904214DC41F60003F8
:1040B000C4F20003984236D0002314E040F6000119
:1040C000C4F2000188422ED040F60041C4F2000143
:1040D000884228D02EE044F20003C4F20103984243
:1040E00021D040F20043C4F20103984222D1436C34
:1040F000884243F400434364C6DD904207DC41F646
:104100000001C4F2000188420DD0002107E044F212
:104110000001C4F20101884205D040F20041C4F21E
:104120000101884206D1816801F00701062904BF18
:1041300000207047016841F00101016000207047D4
:1041400090F84230202B07D100294FF0010318BF0F
:10415000002A04D118467047022318467047B0B5AC
:1041600082B00123002503634563044603F044FB4A
:10417000216B0123012912D1019521680A6801925E
:1041800049680191019900BF216851E8031F226825
:1041900041F0100142E80313002BF5D1034602B0B1
:1041A000BDE8B0401846704740F69862C2F200027F
:1041B0001278002A08BF704770B544F6985600255B
:1041C000C2F2000656F82530D3F80441844205D0E7
:1041D00001359542F6D3BDE870407047D3F8080129
:1041E00030B10C46804756F825002146FCF720F8F0
:1041F00056F82510D1F8040191F80021FFF7A0FF2F
:1042000056F82500D0F80401C06B0068016821F061
:1042100008010160BDE870407047000040F69861F9
:10422000C2F200010A78002A08BF7047B0B544F610
:1042300098550024C2F2000555F82410D1F8043135
:10424000834205D001349442F6D3BDE8B0407047B4
:1042500091F800211846FFF773FF55F82400D0F8B5
:104260000401C06B0068016821F008010160BDE82D
:10427000B0407047B0B582B001680A68CC684B693D
:1042800002F02F05202D04F0200505D125B102B044
:10429000BDE8B04003F0E0B95FEA027C1EBF03F066
:1042A000010E04F4907313EB0E0340D1036BD5069B
:1042B00018D5012B16D114F0100313D0002201924F
:1042C0000A6801924A680192019A4969490647D4ED
:1042D000818DC28DC38D002B18BF914240F01A8191
:1042E00002B0B0BD13062AD514F0800327D090F891
:1042F0004120212AF4D18268B2F5805F03D102699E
:10430000002A00F03A81026A531C036212784A6064
:10431000C28C013A1304C284E2D1C86820F0800044
:10432000C860C86840F04000C86002B0B0BDD107A6
:1043300018BF14F4807167D151076BD471E0520635
:10434000CED514F04002CBD0CA6822F04002CA6039
:10435000202180F8411002B0BDE8B04000F0A4BBBD
:10436000C26B116849688BB2002B42D0858DAB427D
:104370003FD2C185D169B1F5807F33D0016851E862
:10438000031F026821F4807142E80313002BF5D16A
:10439000016851E8051F026821F0010142E8051398
:1043A000002BF5D1016851E8051F026821F040019A
:1043B00042E80513002BF5D1202180F8421000219E
:1043C000016300BF016851E8031F026821F010017A
:1043D00042E80313002BF5D1C16B04460846FDF7F4
:1043E0007BFC204602214163818DC28D891A89B2EE
:1043F000B9E0818D99427FF473AFD269B2F5807FC5
:104400007FF46EAF0222ADE0416C41F001014164E6
:10441000510706D5BEF1000F03D0416C41F00201F7
:104420004164910706D5BEF1000F03D0416C41F005
:1044300004014164BCF1000F06D55EEA050103D01A
:10444000416C41F008014164416C00293FF448AFE0
:10445000910604D51DB1044603F0FEF8204601681C
:104460004969426C01F0400102F0080289184AD003
:10447000016851E8031F026821F4907142E80313B8
:10448000002BF5D1016851E8051F026821F00101F8
:1044900042E80513002BF5D1016B01290AD100BFB9
:1044A000016851E8031F026821F0100142E803137C
:1044B000002BF5D1202180F8421000210163016812
:1044C0004969490654D500BF016851E8051F0268D3
:1044D00021F0400142E80513002BF5D1C16B002902
:1044E00046D047F21152C0F60002044608460A655B
:1044F000FDF732FC00283FF4F3AEE06B016D02B033
:10450000BDE8B04008470446FFF788FE002060641D
:1045100002B0B0BD891A00BF026852E8032F0368D9
:1045200022F4907243E80325002DF5D1026852E889
:10453000052F036822F0010243E80525002DF5D17F
:10454000202280F842200022026300BF026852E865
:10455000032F036822F0100243E80325002DF5D154
:10456000022289B2426302B0BDE8B040FFF71CBE30
:1045700002B0BDE8B040FFF751BE026A32F8023B1C
:104580006FF35F234B600262C2E60000002804BFA5
:104590000120704710B5044690F8410028B900206A
:1045A00084F84000204600F021F8242084F84100DF
:1045B0002068C16821F40051C160204603F0ACF8C6
:1045C0002068016921F490410161416921F02A01CB
:1045D0004161C16841F40051C16000202021606444
:1045E00084F8411084F84210606310BD2DE9F04357
:1045F00087B0016844F6FF32C4F2000291424FF0E6
:1046000000020692CDE90422CDE9022241DD41F209
:104610000042C4F20102914265D041F20000C4F2AE
:104620000100814200F0CF8044F60040C4F2000057
:10463000814240F0C580002043F630010190C4F271
:1046400002010A6942F400220A610A6902F40022A6
:104650000192019A01900A6842F001020A60096819
:10466000022201F0010101910199CDE90320082006
:1046700003210690002002910591C4F2020002A9D4
:10468000FDF752FD342005210022FEF7CBFA34203D
:1046900094E044F20040C4F20000814200F0BA808D
:1046A00044F60000C4F20000814240F089800020FE
:1046B00043F630010190C4F202010A6942F48022FB
:1046C0000A610A6902F480220192019A01900A6843
:1046D00042F008020A60096801F00801019101999D
:1046E0004FF44071B0E00546002643F630000196D5
:1046F000C4F20200416946F2284841F020014161BC
:104700004169C4F2020801F020010191019901966A
:10471000016841F004010160006802A900F0040092
:1047200001900198C02002900220CDE903060320E9
:104730000590082006900020C4F2020000F50060F9
:10474000FDF7F2FC40F27844C2F200044FF020671B
:104750004FF480692046C4E90087C4E90266C4E9D1
:104760000496C4E90666C4E90866FDF7CBFB002899
:1047700018BFFCF7B1FFEC63A56340F2D84408F121
:104780007800C2F200044021C4E9000704F10800E7
:1047900080E842022046C4E90566C4E9076666620D
:1047A000FDF7B0FB002818BFFCF796FF4720052156
:1047B0000022AC63A563FEF735FA4720FEF720FA26
:1047C00007B0BDE8F083002043F630010190C4F249
:1047D00002014A6942F010024A614A6902F010027D
:1047E0000192019A01900A6842F001020A60096888
:1047F00001F00101019101994FF4C0610291022180
:10480000CDE9031003200590072006900020C4F294
:10481000020026E0002043F630010190C4F20201BC
:104820000A6942F400320A610A6902F40032019214
:10483000019A01900A6842F008020A60096801F0D2
:10484000080101910199602104900320059007203F
:1048500006900020C4F202000291022100F540609F
:10486000039102A9FDF760FC07B0BDE8F0830000EA
:1048700090F84230202B07D100294FF0010318BFD8
:10488000002A04D1184670470223184670470023B7
:104890000363816222218285C285436480F84210CD
:1048A000016921B10168CA6842F48072CA60006877
:1048B000416941F001014161C16841F02001C160DD
:1048C00018467047006844F60041C4F2000188426F
:1048D00018BF7047F0B581B040F2622440F608601E
:1048E000C2F20004C2F20000214601220126FFF7B5
:1048F000BFFF207840F249210D28C2F2000113D0F9
:104900002B2804BF01220A700978012944D140F202
:104910004821C2F200010A7841F25003C2F20003BA
:104920009854501C087037E040F24820C2F2000052
:10493000027841F25003C2F2000300259D54057035
:104940000D7041F2440440F2C82540F27027C2F2D3
:104950000004C2F20005C2F2000703F1080010A132
:1049600022462B460097FBF76FFC206840F260213F
:10497000C2F200010870286840F24121C2F2000131
:104980000870386840F28001C2F20001087040F2FD
:104990006120C2F20000067001B0BDE8F04070472F
:1049A000523A256420473A256420423A25640000A3
:1049B000704700002DE9F04381B0044690F84100B3
:1049C000202809D1884600294FF0010018BF002A8D
:1049D00006D101B0BDE8F083022001B0BDE8F0834C
:1049E0000020606421201D4684F841001646FDF732
:1049F0006BFCA684E684A1680646B1F5805F02D10F
:104A0000206900284DD0C1464FF00008E08C40B32B
:104A10006F1C0BE0B9F1000F1AD019F8010B2168D7
:104A20004860E08C0138E084E08CD0B120680068F8
:104A30000006EFD4002FF9D0FDF746FC01464FF0F9
:104A4000030045B3891BA94225D82068C068EDE75B
:104A500038F8020B21686FF35F2048604FF00009BF
:104A6000DFE720680068400614D46F1C04E000BF34
:104A70002068006840060DD4002FF9D0FDF724FC13
:104A800001464FF0030035B1891BA94203D82068C5
:104A9000C068EDE70020202184F8411001B0BDE896
:104AA000F0834FF00009B1E770470000FEE7000017
:104AB0002DE9F04F83B004460068DDF834B00C9E59
:104AC0000768994647F4806707600768904647F48F
:104AD0008073036040698A4610F001002AD180F09B
:104AE0000107751C0BE000BF20684069C00711D0AA
:104AF0002068406910F0010080F001071AD1002DF4
:104B0000F6D0FDF7E1FB002EEED0A0EB0B00B0429B
:104B1000EED9E9E700202021206384F83D1084F8D5
:104B20003E00216C41F020012164F90784F83C002B
:104B300040F0B78020680AF0FE0AC0F810A0416972
:104B400089072CD44169490514D4771C5FB1FDF75E
:104B5000BBFB1EB1A0EB0B00B04204D9206840693A
:104B6000800740F1D18020684169890717D44169E5
:104B70004905EBD5016841F4007101606FF4806173
:104B8000416100202021206384F83D1084F83E001C
:104B9000216C41F00401216484F83C00B0E0002065
:104BA0000290206850F8141F029141680291029906
:104BB000016809061AD4771C0AE000BF2068406922
:104BC000000640F18880206850F8141F09060DD4B3
:104BD0000168490551D4002FF5D0FDF775FB002E73
:104BE000ECD0A0EB0B00B042EDD9E7E72068B9F1BB
:104BF000010F21D04FEA1821016150F8141F090656
:104C000019D4771C09E000BF20684069000662D50E
:104C1000206850F8141F09060DD4016849052CD4EA
:104C2000002FF5D0FDF750FB002EEDD0A0EB0B00D0
:104C3000B042EDD9E8E720685FFA88F101612068A9
:104C400050F8141F09061DD4771C08E0206840693D
:104C5000000640D5206850F8141F090612D40168D8
:104C600049050AD4002FF5D0FDF72EFB002EEDD01C
:104C7000A0EB0B00B042EDD9E8E76FF48061016072
:104C8000042029E0206800220168334641F4807145
:104C9000016020464FF00111CDF800B000F072F92C
:104CA00050B120680068C00544BF4FF40070206414
:104CB000032003B0BDE8F08F25684AF00107022108
:104CC000C0F20101204632465B462F6103B0BDE8C9
:104CD000F04F00F09BB9202000212022216384F8AE
:104CE0003D2084F83E10226C1043206484F83C1070
:104CF000206C042804D12068016841F4007101602F
:104D0000012003B0BDE8F08F00202021206384F84B
:104D10003D1084F83E00216C41F020013BE700008B
:104D20002DE9F04F81B00446006890460268DDF836
:104D30002CA042F48072026040690A9E994610F0ED
:104D400001008B4634D180F00105771C0BE000BFD9
:104D500020684069C00711D02068406910F0010048
:104D600080F0010524D1002FF6D0FDF7ADFA002E1A
:104D7000EED0A0EB0A00B042EED9E9E700202021F6
:104D8000206384F83D1084F83E00216C41F020013E
:104D90002164E90784F83C000AD020680068C00557
:104DA00044BF4FF400702064032001B0BDE8F08FD1
:104DB00020680BF0FE010161416989072DD441692A
:104DC000490515D4751C00BF5DB1FDF77DFA1EB114
:104DD000A0EB0A00B04204D920684069800740F186
:104DE0008C8020684169890717D441694905EBD552
:104DF000016841F4007101606FF48061416100203D
:104E00002021206384F83D1084F83E00216C41F09D
:104E10000401216484F83C006BE0002000902068CD
:104E200050F8141F0091416800910099016809062B
:104E300019D4751C09E000BF20684069000643D5FD
:104E4000206850F8141F09060DD4016849052ED4B6
:104E5000002DF5D0FDF738FA002EEDD0A0EB0A00BA
:104E6000B042EDD9E8E72068B9F1010F25D04FEA4B
:104E70001821016150F8141F09061DD4751C08E0A3
:104E80002068406900061FD5206850F8141F0906E5
:104E900012D4016849050AD4002DF5D0FDF714FAA3
:104EA000002EEDD0A0EB0A00B042EDD9E8E76FF498
:104EB00080610160042008E020685FFA88F10161E8
:104EC000002001B0BDE8F08F2020002120222163C6
:104ED00084F83D2084F83E10226C1043206484F84E
:104EE0003C10206C042804D12068016841F4007152
:104EF0000160012001B0BDE8F08F00202021206377
:104F000084F83D1084F83E00216C41F0200180E7D8
:104F1000F0B581B004460068154650F8143F5A07B2
:104F200018D40E464F1C08E020684069400719D588
:104F3000206850F8141F49070CD4016849050CD4A7
:104F4000002FF5D0FDF7C0F9002EEDD0401BB04288
:104F5000EED9E9E7002001B0F0BD6FF48061016097
:104F6000042000E0202000212022216384F83D203D
:104F700084F83E10226C1043206484F83C10012019
:104F800001B0F0BD2DE9F047DDF8208099461646C6
:104F9000044601F47F0018278DB203F1010AB0F531
:104FA000803F08BF142708E02068C0592840401BF4
:104FB000B0FA80F04009B04218D02068C0592840AB
:104FC000401BB0FA80F04009B0420CD1BAF1000F9A
:104FD000F3D0FDF779F9B9F1000FE5D0A0EB0800A7
:104FE0004845EAD9E0E70020BDE8F087002020210D
:104FF000206384F83D1084F83E00216C41F02001CC
:10500000216484F83C000120BDE8F0872DE9F041DF
:1050100004460068984643698FB203EA0701B94223
:1050200002D10020BDE8F0814169490517D4164638
:10503000551C00BF5DB1FDF747F91EB1A0EB08009C
:10504000B04204D9206840693840B8421ED1206877
:1050500041693940B942E4D041694905EAD501685E
:1050600041F4007101606FF480614161042000210E
:105070002022216384F83D2084F83E10226C1043E6
:105080002064012084F83C10BDE8F0812020EEE788
:1050900080B584B08DF80F0001200DF10F01CDE92E
:1050A000001040F2E0504FF47A7CC2F200009821E8
:1050B000CF220123CDF808C0FDF798FBB0FA80F0AD
:1050C000400904B080BD000080B584B0CDE9000186
:1050D00040F2E0504FF47A7CC2F200009821B022F6
:1050E0000123CDF808C0FDF7ADF9B0FA80F0400912
:1050F00004B080BD80B584B001200DF10F01CDE971
:10510000001040F2E0504FF47A7CC2F20000982187
:10511000DD220123CDF808C0FDF794F99DF80F00BA
:1051200004B080BD40F2CC2840F2642A41F2780BF2
:1051300040F2902740F24C0441F27C0641F24009D3
:10514000C2F20008C2F2000AC2F2000BC2F200076B
:10515000C2F200040025C2F20006C2F2000904E017
:10516000306000BF0A2003F02DFF404651465A46EA
:10517000FBF790FE386810B1FBF76EFF3D602068CA
:10518000411C05D141F28001C2F200010D60356081
:105190000028E7D199F800000128E3D030680328FF
:1051A000E0D8DFE800F002210A1240F2B020C2F29B
:1051B000000000780128D5D11DE040F2B020C2F2F5
:1051C000000080780128CDD115E040F2B020C2F275
:1051D0000000C0780128C5D141F28000C2F2000071
:1051E000012101600020BBE740F2B020C2F20000C4
:1051F00040780128B6D130680130B1E710B52DED07
:10520000068B00EE100A9FED251AB8EE400A80EEDC
:10521000010A91ED001A91ED022A91ED013A14462E
:1052200020EE019A92ED021A20EE022A20EE03AA45
:1052300032EE010A82ED020A04F04AFC94ED021AF1
:10524000B0EE408AB0EE410A04F036FB2AEE000AC6
:1052500029EE081A94ED012A31EE001A94ED020AA3
:1052600032EE011A84ED011A04F026FB94ED021AC5
:10527000B0EE408AB0EE410A04F02AFC20EE0A0AA1
:1052800029EE081A94ED002A31EE400A32EE000AA7
:1052900084ED000ABDEC068B10BD00BF00007A440F
:1052A0000021C0E9031141617047000000000000C7
:1052B00070B52DED048B90ED000A90ED011A90ED84
:1052C000022A90ED033A30EE014A31EE400A34EE04
:1052D000024A30EE021A30EE420A34EE034AB5EECC
:1052E000005A31EE431A30EE030A92ED008A92ED35
:1052F000019A24EE054A21EE051A10EE100A0C461A
:1053000081ED004A81ED011AFBF759FA38EE090ADE
:10531000054610EE100A0E46FBF751FA9FED080BFA
:1053200053EC102BFBF7F9F802460B4628463146A2
:10533000FBF765F9FBF756FAA060BDEC048B70BD76
:10534000000000000000104001720021C0E90311BC
:1053500041614CF6CD41C3F6CC5180EC020AC0E964
:105360000F11416470470000137A92ED000A92ED2C
:10537000011A012B37D0002B18BF704790ED002A7F
:1053800090ED013A90ED024A30EE010A33EE422AE6
:1053900024EE001A31EE021A81ED001A90ED001A87
:1053A00090ED012A90ED023A32EE011A23EE002A26
:1053B00031EE421A81ED011A90ED001A90ED012AAA
:1053C00090ED023A32EE411A23EE002A31EE421AF3
:1053D00081ED021A90ED001A90ED012A90ED023A4B
:1053E00032EE011A33E090ED002A90ED013A90ED93
:1053F000024A30EE010A32EE432A24EE001A32EE5F
:10540000411A81ED001A90ED001A90ED012A90EDFD
:10541000023A31EE021A23EE002A32EE011A81ED31
:10542000011A90ED001A90ED012A90ED023A31EE4A
:10543000021A23EE002A31EE421A81ED021A90ED93
:10544000001A90ED012A90ED023A31EE421A23EE55
:10545000000A30EE010A81ED030A70472DE9F04F92
:1054600081B02DED068B82B08146D0E900069A46C8
:1054700015460191FBF7A3F90746A8688B46FBF791
:105480009EF941EC180BB0EE480AF0EE680A04F001
:10549000AFF9B0EE409A3046F0EE609AFBF78FF924
:1054A000B0EE480AF0EE680A06460D4604F0ACFA83
:1054B00051EC100B32462B46FBF72FF8044688467A
:1054C00053EC192B38465946FBF727F8224643463A
:1054D000FAF77CFFFBF786F9B0EE480AF0EE680AAF
:1054E0000AEE100A04F090FAB0EE409AB0EE480AC4
:1054F000F0EE609AF0EE680A04F07AF951EC100BC5
:1055000032462B46FBF709F804460D4653EC192B9F
:1055100038465946FBF701F802460B462046294615
:10552000FAF7F5FFFBF75EF99AF8081099ED020A11
:105530009AED002A9AED013A012901EE100A1AD0DB
:10554000A1BB32EE032A31EE4A4A20EE023A3AEE8D
:10555000011A20EE420A019833EE045A30EE012A75
:1055600030EE040A80ED005A80ED012A80ED020A37
:1055700033EE010A18E032EE032A3AEE414A20EEF9
:10558000423A3AEE011A20EE020A019833EE045A2A
:1055900030EE012A33EE011A30EE040A80ED005A93
:1055A00080ED012A80ED021A80ED030A02B0BDEC05
:1055B000068B01B0BDE8F08F2DE9F04140F20044C8
:1055C000C4F2020417460E46054620464FF48051A9
:1055D00000229846FCF772FE2A2000F061FC20466B
:1055E0004FF480510122FCF769FE280A00F058FCB4
:1055F000E8B200F055FC380A00F052FCF8B200F0B6
:105600004FFC20464FF480510022FCF757FE2B2020
:1056100000F046FC20464FF480510122FCF74EFE7C
:1056200006F11805A8B2000A00F03AFCE8B200F052
:1056300037FC08F11805A8B2000A00F031FCE8B206
:1056400000F02EFC20464FF480510022FCF736FE7D
:105650002C2000F025FC20464FF480510122BDE8AB
:10566000F041FCF72BBE00002DE9F04381B00E465F
:105670008146501E591E9846154682B28BB2484646
:105680003146FFF799FF464512D2089C04E000BF5F
:105690000136B0B240450BD2A945F9D24F4600BF02
:1056A000204600F0F3FB0137B8B2A842F8D3EFE789
:1056B00001B0BDE8F083000010B540F20044C4F230
:1056C000020420464FF480410022FCF7F7FD6420DD
:1056D00003F078FC20464FF480410122FCF7EEFDF8
:1056E000642003F06FFC04F540604FF480610122F8
:1056F000FCF7E4FD642003F065FC20464FF4805184
:105700000022FCF7DBFD112000F0CAFB20464FF41D
:1057100080510122FCF7D2FD782003F053FC204693
:105720004FF480510022FCF7C9FDB12000F0B8FB16
:1057300020464FF480510122FCF7C0FD052000F007
:10574000AFFB3C2000F0ACFB3C2000F0A9FB204666
:105750004FF480510022FCF7B1FDB22000F0A0FB15
:1057600020464FF480510122FCF7A8FD052000F0EF
:1057700097FB3C2000F094FB3C2000F091FB20467E
:105780004FF480510022FCF799FDB32000F088FB14
:1057900020464FF480510122FCF790FD052000F0D7
:1057A0007FFB3C2000F07CFB3C2000F079FB0520D7
:1057B00000F076FB3C2000F073FB3C2000F070FB17
:1057C00020464FF480510022FCF778FDB42000F011
:1057D00067FB20464FF480510122FCF76FFD032048
:1057E00000F05EFB20464FF480510022FCF766FD7E
:1057F000C02000F055FB20464FF480510122FCF7F9
:105800005DFD0E2000F04CFB0E2000F049FB042053
:1058100000F046FB20464FF480510022FCF74EFD7D
:10582000C12000F03DFB20464FF480510122FCF7DF
:1058300045FDC52000F034FB20464FF48051002286
:10584000FCF73CFDC22000F02BFB20464FF48051BA
:105850000122FCF733FD0D2000F022FB002000F0B8
:105860001FFB20464FF480510022FCF727FDC32088
:1058700000F016FB20464FF480510122FCF71EFD7C
:105880008D2000F00DFB2A2000F00AFB20464FF48B
:1058900080510022FCF712FDC42000F001FB2046DD
:1058A0004FF480510122FCF709FD8D2000F0F8FA39
:1058B000EE2000F0F5FA20464FF480510022FCF76C
:1058C000FDFCC52000F0ECFA20464FF48051012287
:1058D000FCF7F4FC062000F0E3FA20464FF4805178
:1058E0000022FCF7EBFC362000F0DAFA20464FF4F9
:1058F00080510122FCF7E2FC782000F0D1FA20462A
:105900004FF480510022FCF7D9FC3A2000F0C8FA8D
:1059100020464FF480510122FCF7D0FC552000F0C6
:10592000BFFA20464FF480510022FCF7C7FCE0206C
:1059300000F0B6FA20464FF480510122FCF7BEFC7D
:105940000B2000F0ADFA172000F0AAFA0A2000F0B0
:10595000A7FA0D2000F0A4FA1A2000F0A1FA1920ED
:1059600000F09EFA162000F09BFA1D2000F098FA35
:10597000212000F095FA262000F092FA372000F05E
:105980008FFA3C2000F08CFA002000F089FA092000
:1059900000F086FA052000F083FA102000F080FA6B
:1059A00020464FF480510022FCF788FCE12000F0F3
:1059B00077FA20464FF480510122FCF77FFC0C203F
:1059C00000F06EFA192000F06BFA092000F068FA76
:1059D0000D2000F065FA1B2000F062FA192000F09B
:1059E0005FFA152000F05CFA1D2000F059FA212022
:1059F00000F056FA262000F053FA392000F050FA51
:105A00003E2000F04DFA002000F04AFA092000F094
:105A100047FA052000F044FA102000F041FA7820FF
:105A200003F0D0FA20464FF480510022FCF746FCE8
:105A3000292000F035FA20464FF480510122BDE8BC
:105A40001040FCF73BBC00002DE9F04F87B0DDF8BB
:105A5000448083464FEA58074FEA18101C46914687
:105A600001237A0718BF03EB181000FB08F50BEBB6
:105A7000580001EB08020138531E82B29BB258460F
:105A80000E460691FFF798FD002D00F08D80A8F1DD
:105A90000C00C1B2800140EA9100C3B2052B00F2B4
:105AA00083800120984010F02B0F00F07D802A4663
:105AB000A9F120000121C0B2012D98BF0A464BF286
:105AC0007421059200EB4002C0F6000101EB0211C7
:105AD00002914AF68441C0F6000101EB00110191E8
